{
	"KipuBankV3.sol": {
		"KipuBankV3": {
			"abi": [
				{
					"inputs": [
						{
							"internalType": "uint256",
							"name": "_bankCapUsd6",
							"type": "uint256"
						},
						{
							"internalType": "address",
							"name": "ethPriceFeed",
							"type": "address"
						},
						{
							"internalType": "address",
							"name": "usdcToken",
							"type": "address"
						},
						{
							"internalType": "address",
							"name": "routerV2",
							"type": "address"
						},
						{
							"internalType": "address",
							"name": "factoryV2",
							"type": "address"
						},
						{
							"internalType": "uint256",
							"name": "ethWithdrawLimit",
							"type": "uint256"
						}
					],
					"stateMutability": "nonpayable",
					"type": "constructor"
				},
				{
					"inputs": [],
					"name": "AccessControlBadConfirmation",
					"type": "error"
				},
				{
					"inputs": [
						{
							"internalType": "address",
							"name": "account",
							"type": "address"
						},
						{
							"internalType": "bytes32",
							"name": "neededRole",
							"type": "bytes32"
						}
					],
					"name": "AccessControlUnauthorizedAccount",
					"type": "error"
				},
				{
					"inputs": [
						{
							"internalType": "uint256",
							"name": "attempted",
							"type": "uint256"
						},
						{
							"internalType": "uint256",
							"name": "cap",
							"type": "uint256"
						}
					],
					"name": "CapExceeded",
					"type": "error"
				},
				{
					"inputs": [
						{
							"internalType": "uint256",
							"name": "have",
							"type": "uint256"
						},
						{
							"internalType": "uint256",
							"name": "want",
							"type": "uint256"
						}
					],
					"name": "InsufficientBalance",
					"type": "error"
				},
				{
					"inputs": [
						{
							"internalType": "address",
							"name": "tokenIn",
							"type": "address"
						},
						{
							"internalType": "address",
							"name": "tokenOut",
							"type": "address"
						}
					],
					"name": "PairDoesNotExist",
					"type": "error"
				},
				{
					"inputs": [
						{
							"internalType": "address",
							"name": "token",
							"type": "address"
						}
					],
					"name": "PriceFeedNotSet",
					"type": "error"
				},
				{
					"inputs": [],
					"name": "PriceNegative",
					"type": "error"
				},
				{
					"inputs": [],
					"name": "ReentrancyGuardReentrantCall",
					"type": "error"
				},
				{
					"inputs": [
						{
							"internalType": "address",
							"name": "token",
							"type": "address"
						}
					],
					"name": "SafeERC20FailedOperation",
					"type": "error"
				},
				{
					"inputs": [
						{
							"internalType": "address",
							"name": "token",
							"type": "address"
						}
					],
					"name": "UnsupportedToken",
					"type": "error"
				},
				{
					"inputs": [],
					"name": "ZeroAmount",
					"type": "error"
				},
				{
					"anonymous": false,
					"inputs": [
						{
							"indexed": true,
							"internalType": "address",
							"name": "tokenCredited",
							"type": "address"
						},
						{
							"indexed": true,
							"internalType": "address",
							"name": "user",
							"type": "address"
						},
						{
							"indexed": false,
							"internalType": "uint256",
							"name": "amountIn",
							"type": "uint256"
						},
						{
							"indexed": false,
							"internalType": "uint256",
							"name": "newBalance",
							"type": "uint256"
						},
						{
							"indexed": false,
							"internalType": "uint256",
							"name": "usdcCredited",
							"type": "uint256"
						}
					],
					"name": "Deposit",
					"type": "event"
				},
				{
					"anonymous": false,
					"inputs": [
						{
							"indexed": true,
							"internalType": "bytes32",
							"name": "role",
							"type": "bytes32"
						},
						{
							"indexed": true,
							"internalType": "bytes32",
							"name": "previousAdminRole",
							"type": "bytes32"
						},
						{
							"indexed": true,
							"internalType": "bytes32",
							"name": "newAdminRole",
							"type": "bytes32"
						}
					],
					"name": "RoleAdminChanged",
					"type": "event"
				},
				{
					"anonymous": false,
					"inputs": [
						{
							"indexed": true,
							"internalType": "bytes32",
							"name": "role",
							"type": "bytes32"
						},
						{
							"indexed": true,
							"internalType": "address",
							"name": "account",
							"type": "address"
						},
						{
							"indexed": true,
							"internalType": "address",
							"name": "sender",
							"type": "address"
						}
					],
					"name": "RoleGranted",
					"type": "event"
				},
				{
					"anonymous": false,
					"inputs": [
						{
							"indexed": true,
							"internalType": "bytes32",
							"name": "role",
							"type": "bytes32"
						},
						{
							"indexed": true,
							"internalType": "address",
							"name": "account",
							"type": "address"
						},
						{
							"indexed": true,
							"internalType": "address",
							"name": "sender",
							"type": "address"
						}
					],
					"name": "RoleRevoked",
					"type": "event"
				},
				{
					"anonymous": false,
					"inputs": [
						{
							"indexed": true,
							"internalType": "address",
							"name": "token",
							"type": "address"
						},
						{
							"indexed": false,
							"internalType": "bool",
							"name": "supported",
							"type": "bool"
						},
						{
							"indexed": false,
							"internalType": "bool",
							"name": "isNative",
							"type": "bool"
						},
						{
							"indexed": false,
							"internalType": "uint8",
							"name": "decimals",
							"type": "uint8"
						},
						{
							"indexed": false,
							"internalType": "uint256",
							"name": "withdrawLimit",
							"type": "uint256"
						},
						{
							"indexed": false,
							"internalType": "address",
							"name": "priceFeed",
							"type": "address"
						}
					],
					"name": "TokenConfigured",
					"type": "event"
				},
				{
					"anonymous": false,
					"inputs": [
						{
							"indexed": true,
							"internalType": "address",
							"name": "tokenDebited",
							"type": "address"
						},
						{
							"indexed": true,
							"internalType": "address",
							"name": "user",
							"type": "address"
						},
						{
							"indexed": false,
							"internalType": "uint256",
							"name": "amount",
							"type": "uint256"
						},
						{
							"indexed": false,
							"internalType": "uint256",
							"name": "newBalance",
							"type": "uint256"
						}
					],
					"name": "Withdraw",
					"type": "event"
				},
				{
					"inputs": [],
					"name": "DEFAULT_ADMIN_ROLE",
					"outputs": [
						{
							"internalType": "bytes32",
							"name": "",
							"type": "bytes32"
						}
					],
					"stateMutability": "view",
					"type": "function"
				},
				{
					"inputs": [],
					"name": "NATIVE_TOKEN",
					"outputs": [
						{
							"internalType": "address",
							"name": "",
							"type": "address"
						}
					],
					"stateMutability": "view",
					"type": "function"
				},
				{
					"inputs": [],
					"name": "ROLE_ADMIN",
					"outputs": [
						{
							"internalType": "bytes32",
							"name": "",
							"type": "bytes32"
						}
					],
					"stateMutability": "view",
					"type": "function"
				},
				{
					"inputs": [],
					"name": "USDC",
					"outputs": [
						{
							"internalType": "address",
							"name": "",
							"type": "address"
						}
					],
					"stateMutability": "view",
					"type": "function"
				},
				{
					"inputs": [],
					"name": "USD_DECIMALS",
					"outputs": [
						{
							"internalType": "uint8",
							"name": "",
							"type": "uint8"
						}
					],
					"stateMutability": "view",
					"type": "function"
				},
				{
					"inputs": [],
					"name": "bankCapUsd6",
					"outputs": [
						{
							"internalType": "uint256",
							"name": "",
							"type": "uint256"
						}
					],
					"stateMutability": "view",
					"type": "function"
				},
				{
					"inputs": [],
					"name": "depositCount",
					"outputs": [
						{
							"internalType": "uint256",
							"name": "",
							"type": "uint256"
						}
					],
					"stateMutability": "view",
					"type": "function"
				},
				{
					"inputs": [
						{
							"internalType": "uint256",
							"name": "amountOutMin",
							"type": "uint256"
						}
					],
					"name": "depositETH",
					"outputs": [],
					"stateMutability": "payable",
					"type": "function"
				},
				{
					"inputs": [
						{
							"internalType": "address",
							"name": "token",
							"type": "address"
						},
						{
							"internalType": "uint256",
							"name": "amount",
							"type": "uint256"
						},
						{
							"internalType": "uint256",
							"name": "amountOutMin",
							"type": "uint256"
						}
					],
					"name": "depositTokenAndSwap",
					"outputs": [],
					"stateMutability": "nonpayable",
					"type": "function"
				},
				{
					"inputs": [
						{
							"internalType": "uint256",
							"name": "amount",
							"type": "uint256"
						}
					],
					"name": "depositUSDC",
					"outputs": [],
					"stateMutability": "nonpayable",
					"type": "function"
				},
				{
					"inputs": [],
					"name": "factory",
					"outputs": [
						{
							"internalType": "contract IUniswapV2Factory",
							"name": "",
							"type": "address"
						}
					],
					"stateMutability": "view",
					"type": "function"
				},
				{
					"inputs": [
						{
							"internalType": "address",
							"name": "token",
							"type": "address"
						},
						{
							"internalType": "address",
							"name": "user",
							"type": "address"
						}
					],
					"name": "getBalance",
					"outputs": [
						{
							"internalType": "uint256",
							"name": "",
							"type": "uint256"
						}
					],
					"stateMutability": "view",
					"type": "function"
				},
				{
					"inputs": [
						{
							"internalType": "bytes32",
							"name": "role",
							"type": "bytes32"
						}
					],
					"name": "getRoleAdmin",
					"outputs": [
						{
							"internalType": "bytes32",
							"name": "",
							"type": "bytes32"
						}
					],
					"stateMutability": "view",
					"type": "function"
				},
				{
					"inputs": [
						{
							"internalType": "address",
							"name": "token",
							"type": "address"
						},
						{
							"internalType": "address",
							"name": "user",
							"type": "address"
						}
					],
					"name": "getUsdBalance",
					"outputs": [
						{
							"internalType": "uint256",
							"name": "",
							"type": "uint256"
						}
					],
					"stateMutability": "view",
					"type": "function"
				},
				{
					"inputs": [
						{
							"internalType": "bytes32",
							"name": "role",
							"type": "bytes32"
						},
						{
							"internalType": "address",
							"name": "account",
							"type": "address"
						}
					],
					"name": "grantRole",
					"outputs": [],
					"stateMutability": "nonpayable",
					"type": "function"
				},
				{
					"inputs": [
						{
							"internalType": "bytes32",
							"name": "role",
							"type": "bytes32"
						},
						{
							"internalType": "address",
							"name": "account",
							"type": "address"
						}
					],
					"name": "hasRole",
					"outputs": [
						{
							"internalType": "bool",
							"name": "",
							"type": "bool"
						}
					],
					"stateMutability": "view",
					"type": "function"
				},
				{
					"inputs": [
						{
							"internalType": "bytes32",
							"name": "role",
							"type": "bytes32"
						},
						{
							"internalType": "address",
							"name": "callerConfirmation",
							"type": "address"
						}
					],
					"name": "renounceRole",
					"outputs": [],
					"stateMutability": "nonpayable",
					"type": "function"
				},
				{
					"inputs": [
						{
							"internalType": "bytes32",
							"name": "role",
							"type": "bytes32"
						},
						{
							"internalType": "address",
							"name": "account",
							"type": "address"
						}
					],
					"name": "revokeRole",
					"outputs": [],
					"stateMutability": "nonpayable",
					"type": "function"
				},
				{
					"inputs": [],
					"name": "router",
					"outputs": [
						{
							"internalType": "contract IUniswapV2Router02",
							"name": "",
							"type": "address"
						}
					],
					"stateMutability": "view",
					"type": "function"
				},
				{
					"inputs": [
						{
							"internalType": "address",
							"name": "token",
							"type": "address"
						},
						{
							"internalType": "bool",
							"name": "supported",
							"type": "bool"
						},
						{
							"internalType": "uint8",
							"name": "tokenDecimals",
							"type": "uint8"
						},
						{
							"internalType": "uint256",
							"name": "withdrawLimit",
							"type": "uint256"
						},
						{
							"internalType": "address",
							"name": "priceFeed",
							"type": "address"
						}
					],
					"name": "setTokenConfig",
					"outputs": [],
					"stateMutability": "nonpayable",
					"type": "function"
				},
				{
					"inputs": [
						{
							"internalType": "bytes4",
							"name": "interfaceId",
							"type": "bytes4"
						}
					],
					"name": "supportsInterface",
					"outputs": [
						{
							"internalType": "bool",
							"name": "",
							"type": "bool"
						}
					],
					"stateMutability": "view",
					"type": "function"
				},
				{
					"inputs": [
						{
							"internalType": "address",
							"name": "",
							"type": "address"
						}
					],
					"name": "tokenConfig",
					"outputs": [
						{
							"internalType": "bool",
							"name": "supported",
							"type": "bool"
						},
						{
							"internalType": "bool",
							"name": "isNative",
							"type": "bool"
						},
						{
							"internalType": "uint8",
							"name": "tokenDecimals",
							"type": "uint8"
						},
						{
							"internalType": "uint256",
							"name": "withdrawLimit",
							"type": "uint256"
						},
						{
							"internalType": "address",
							"name": "priceFeed",
							"type": "address"
						}
					],
					"stateMutability": "view",
					"type": "function"
				},
				{
					"inputs": [],
					"name": "totalDepositedUsd6",
					"outputs": [
						{
							"internalType": "uint256",
							"name": "",
							"type": "uint256"
						}
					],
					"stateMutability": "view",
					"type": "function"
				},
				{
					"inputs": [],
					"name": "withdrawCount",
					"outputs": [
						{
							"internalType": "uint256",
							"name": "",
							"type": "uint256"
						}
					],
					"stateMutability": "view",
					"type": "function"
				},
				{
					"inputs": [
						{
							"internalType": "uint256",
							"name": "amount",
							"type": "uint256"
						}
					],
					"name": "withdrawUSDC",
					"outputs": [],
					"stateMutability": "nonpayable",
					"type": "function"
				}
			],
			"devdoc": {
				"errors": {
					"AccessControlBadConfirmation()": [
						{
							"details": "The caller of a function is not the expected one. NOTE: Don't confuse with {AccessControlUnauthorizedAccount}."
						}
					],
					"AccessControlUnauthorizedAccount(address,bytes32)": [
						{
							"details": "The `account` is missing a role."
						}
					],
					"ReentrancyGuardReentrantCall()": [
						{
							"details": "Unauthorized reentrant call."
						}
					],
					"SafeERC20FailedOperation(address)": [
						{
							"details": "An operation with an ERC-20 token failed."
						}
					]
				},
				"events": {
					"RoleAdminChanged(bytes32,bytes32,bytes32)": {
						"details": "Emitted when `newAdminRole` is set as ``role``'s admin role, replacing `previousAdminRole` `DEFAULT_ADMIN_ROLE` is the starting admin for all roles, despite {RoleAdminChanged} not being emitted to signal this."
					},
					"RoleGranted(bytes32,address,address)": {
						"details": "Emitted when `account` is granted `role`. `sender` is the account that originated the contract call. This account bears the admin role (for the granted role). Expected in cases where the role was granted using the internal {AccessControl-_grantRole}."
					},
					"RoleRevoked(bytes32,address,address)": {
						"details": "Emitted when `account` is revoked `role`. `sender` is the account that originated the contract call:   - if using `revokeRole`, it is the admin role bearer   - if using `renounceRole`, it is the role bearer (i.e. `account`)"
					}
				},
				"kind": "dev",
				"methods": {
					"getRoleAdmin(bytes32)": {
						"details": "Returns the admin role that controls `role`. See {grantRole} and {revokeRole}. To change a role's admin, use {_setRoleAdmin}."
					},
					"getUsdBalance(address,address)": {
						"details": "Estimación en USD(6); 1:1 para USDC."
					},
					"grantRole(bytes32,address)": {
						"details": "Grants `role` to `account`. If `account` had not been already granted `role`, emits a {RoleGranted} event. Requirements: - the caller must have ``role``'s admin role. May emit a {RoleGranted} event."
					},
					"hasRole(bytes32,address)": {
						"details": "Returns `true` if `account` has been granted `role`."
					},
					"renounceRole(bytes32,address)": {
						"details": "Revokes `role` from the calling account. Roles are often managed via {grantRole} and {revokeRole}: this function's purpose is to provide a mechanism for accounts to lose their privileges if they are compromised (such as when a trusted device is misplaced). If the calling account had been revoked `role`, emits a {RoleRevoked} event. Requirements: - the caller must be `callerConfirmation`. May emit a {RoleRevoked} event."
					},
					"revokeRole(bytes32,address)": {
						"details": "Revokes `role` from `account`. If `account` had been granted `role`, emits a {RoleRevoked} event. Requirements: - the caller must have ``role``'s admin role. May emit a {RoleRevoked} event."
					},
					"setTokenConfig(address,bool,uint8,uint256,address)": {
						"details": "En V3 se acredita USDC; otros tokens sólo se aceptan para depósito y se swapean."
					},
					"supportsInterface(bytes4)": {
						"details": "Returns true if this contract implements the interface defined by `interfaceId`. See the corresponding https://eips.ethereum.org/EIPS/eip-165#how-interfaces-are-identified[ERC section] to learn more about how these ids are created. This function call must use less than 30 000 gas."
					}
				},
				"title": "KipuBankV3",
				"version": 1
			},
			"evm": {
				"assembly": "    /* \"KipuBankV3.sol\":2025:13721  contract KipuBankV3 is AccessControl, ReentrancyGuard {... */\n  mstore(0x40, 0x0100)\n    /* \"KipuBankV3.sol\":4606:6292  constructor(... */\n  callvalue\n  dup1\n  iszero\n  tag_1\n  jumpi\n  0x00\n  dup1\n  revert\ntag_1:\n  pop\n  mload(0x40)\n  sub(codesize, bytecodeSize)\n  dup1\n  bytecodeSize\n  dup4\n  codecopy\n  dup2\n  dup2\n  add\n  0x40\n  mstore\n  dup2\n  add\n  swap1\n  tag_2\n  swap2\n  swap1\n  tag_3\n  jump\t// in\ntag_2:\n    /* \"@openzeppelin/contracts/utils/ReentrancyGuard.sol\":1857:1858  1 */\n  0x01\n    /* \"@openzeppelin/contracts/utils/ReentrancyGuard.sol\":2061:2068  _status */\n  dup1\n    /* \"@openzeppelin/contracts/utils/ReentrancyGuard.sol\":2061:2082  _status = NOT_ENTERED */\n  dup2\n  swap1\n  sstore\n  pop\n    /* \"KipuBankV3.sol\":4828:4829  0 */\n  0x00\n    /* \"KipuBankV3.sol\":4812:4824  _bankCapUsd6 */\n  dup7\n    /* \"KipuBankV3.sol\":4812:4829  _bankCapUsd6 == 0 */\n  sub\n    /* \"KipuBankV3.sol\":4808:4850  if (_bankCapUsd6 == 0) revert ZeroAmount() */\n  tag_8\n  jumpi\n    /* \"KipuBankV3.sol\":4838:4850  ZeroAmount() */\n  mload(0x40)\n  0x1f2a200500000000000000000000000000000000000000000000000000000000\n  dup2\n  mstore\n  0x04\n  add\n  mload(0x40)\n  dup1\n  swap2\n  sub\n  swap1\n  revert\n    /* \"KipuBankV3.sol\":4808:4850  if (_bankCapUsd6 == 0) revert ZeroAmount() */\ntag_8:\n    /* \"KipuBankV3.sol\":4885:4886  0 */\n  0x00\n    /* \"KipuBankV3.sol\":4864:4887  usdcToken == address(0) */\n  0xffffffffffffffffffffffffffffffffffffffff\n  and\n    /* \"KipuBankV3.sol\":4864:4873  usdcToken */\n  dup5\n    /* \"KipuBankV3.sol\":4864:4887  usdcToken == address(0) */\n  0xffffffffffffffffffffffffffffffffffffffff\n  and\n  eq\n    /* \"KipuBankV3.sol\":4864:4913  usdcToken == address(0) || routerV2 == address(0) */\n  dup1\n  tag_9\n  jumpi\n  pop\n    /* \"KipuBankV3.sol\":4911:4912  0 */\n  0x00\n    /* \"KipuBankV3.sol\":4891:4913  routerV2 == address(0) */\n  0xffffffffffffffffffffffffffffffffffffffff\n  and\n    /* \"KipuBankV3.sol\":4891:4899  routerV2 */\n  dup4\n    /* \"KipuBankV3.sol\":4891:4913  routerV2 == address(0) */\n  0xffffffffffffffffffffffffffffffffffffffff\n  and\n  eq\n    /* \"KipuBankV3.sol\":4864:4913  usdcToken == address(0) || routerV2 == address(0) */\ntag_9:\n    /* \"KipuBankV3.sol\":4864:4940  usdcToken == address(0) || routerV2 == address(0) || factoryV2 == address(0) */\n  dup1\n  tag_10\n  jumpi\n  pop\n    /* \"KipuBankV3.sol\":4938:4939  0 */\n  0x00\n    /* \"KipuBankV3.sol\":4917:4940  factoryV2 == address(0) */\n  0xffffffffffffffffffffffffffffffffffffffff\n  and\n    /* \"KipuBankV3.sol\":4917:4926  factoryV2 */\n  dup3\n    /* \"KipuBankV3.sol\":4917:4940  factoryV2 == address(0) */\n  0xffffffffffffffffffffffffffffffffffffffff\n  and\n  eq\n    /* \"KipuBankV3.sol\":4864:4940  usdcToken == address(0) || routerV2 == address(0) || factoryV2 == address(0) */\ntag_10:\n    /* \"KipuBankV3.sol\":4860:5002  if (usdcToken == address(0) || routerV2 == address(0) || factoryV2 == address(0)) {... */\n  iszero\n  tag_11\n  jumpi\n    /* \"KipuBankV3.sol\":4988:4989  0 */\n  0x00\n    /* \"KipuBankV3.sol\":4963:4991  UnsupportedToken(address(0)) */\n  mload(0x40)\n  0xbf16aab600000000000000000000000000000000000000000000000000000000\n  dup2\n  mstore\n  0x04\n  add\n  tag_12\n  swap2\n  swap1\n  tag_13\n  jump\t// in\ntag_12:\n  mload(0x40)\n  dup1\n  swap2\n  sub\n  swap1\n  revert\n    /* \"KipuBankV3.sol\":4860:5002  if (usdcToken == address(0) || routerV2 == address(0) || factoryV2 == address(0)) {... */\ntag_11:\n    /* \"KipuBankV3.sol\":5026:5038  _bankCapUsd6 */\n  dup6\n    /* \"KipuBankV3.sol\":5012:5038  bankCapUsd6 = _bankCapUsd6 */\n  0x80\n  dup2\n  dup2\n  mstore\n  pop\n  pop\n    /* \"KipuBankV3.sol\":5055:5064  usdcToken */\n  dup4\n    /* \"KipuBankV3.sol\":5048:5064  USDC = usdcToken */\n  0xffffffffffffffffffffffffffffffffffffffff\n  and\n  0xe0\n  dup2\n  0xffffffffffffffffffffffffffffffffffffffff\n  and\n  dup2\n  mstore\n  pop\n  pop\n    /* \"KipuBankV3.sol\":5102:5110  routerV2 */\n  dup3\n    /* \"KipuBankV3.sol\":5074:5111  router = IUniswapV2Router02(routerV2) */\n  0xffffffffffffffffffffffffffffffffffffffff\n  and\n  0xa0\n  dup2\n  0xffffffffffffffffffffffffffffffffffffffff\n  and\n  dup2\n  mstore\n  pop\n  pop\n    /* \"KipuBankV3.sol\":5149:5158  factoryV2 */\n  dup2\n    /* \"KipuBankV3.sol\":5121:5159  factory = IUniswapV2Factory(factoryV2) */\n  0xffffffffffffffffffffffffffffffffffffffff\n  and\n  0xc0\n  dup2\n  0xffffffffffffffffffffffffffffffffffffffff\n  and\n  dup2\n  mstore\n  pop\n  pop\n    /* \"KipuBankV3.sol\":5187:5229  _grantRole(DEFAULT_ADMIN_ROLE, msg.sender) */\n  tag_14\n    /* \"@openzeppelin/contracts/access/AccessControl.sol\":2241:2245  0x00 */\n  0x00\n    /* \"KipuBankV3.sol\":5198:5216  DEFAULT_ADMIN_ROLE */\n  dup1\n  shl\n    /* \"KipuBankV3.sol\":5218:5228  msg.sender */\n  caller\n    /* \"KipuBankV3.sol\":5187:5197  _grantRole */\n  shl(0x20, tag_15)\n    /* \"KipuBankV3.sol\":5187:5229  _grantRole(DEFAULT_ADMIN_ROLE, msg.sender) */\n  0x20\n  shr\n  jump\t// in\ntag_14:\n  pop\n    /* \"KipuBankV3.sol\":5239:5273  _grantRole(ROLE_ADMIN, msg.sender) */\n  tag_16\n    /* \"KipuBankV3.sol\":2337:2360  keccak256(\"ROLE_ADMIN\") */\n  0x2172861495e7b85edac73e3cd5fbb42dd675baadf627720e687bcfdaca025096\n    /* \"KipuBankV3.sol\":5262:5272  msg.sender */\n  caller\n    /* \"KipuBankV3.sol\":5239:5249  _grantRole */\n  shl(0x20, tag_15)\n    /* \"KipuBankV3.sol\":5239:5273  _grantRole(ROLE_ADMIN, msg.sender) */\n  0x20\n  shr\n  jump\t// in\ntag_16:\n  pop\n    /* \"KipuBankV3.sol\":5355:5377  TokenConfig memory cfg */\n  tag_17\n  tag_18\n  jump\t// in\ntag_17:\n    /* \"KipuBankV3.sol\":5407:5411  true */\n  0x01\n    /* \"KipuBankV3.sol\":5391:5394  cfg */\n  dup2\n    /* \"KipuBankV3.sol\":5391:5404  cfg.supported */\n  0x00\n  add\n    /* \"KipuBankV3.sol\":5391:5411  cfg.supported = true */\n  swap1\n  iszero\n  iszero\n  swap1\n  dup2\n  iszero\n  iszero\n  dup2\n  mstore\n  pop\n  pop\n    /* \"KipuBankV3.sol\":5440:5444  true */\n  0x01\n    /* \"KipuBankV3.sol\":5425:5428  cfg */\n  dup2\n    /* \"KipuBankV3.sol\":5425:5437  cfg.isNative */\n  0x20\n  add\n    /* \"KipuBankV3.sol\":5425:5444  cfg.isNative = true */\n  swap1\n  iszero\n  iszero\n  swap1\n  dup2\n  iszero\n  iszero\n  dup2\n  mstore\n  pop\n  pop\n    /* \"KipuBankV3.sol\":5478:5480  18 */\n  0x12\n    /* \"KipuBankV3.sol\":5458:5461  cfg */\n  dup2\n    /* \"KipuBankV3.sol\":5458:5475  cfg.tokenDecimals */\n  0x40\n  add\n    /* \"KipuBankV3.sol\":5458:5480  cfg.tokenDecimals = 18 */\n  swap1\n  0xff\n  and\n  swap1\n  dup2\n  0xff\n  and\n  dup2\n  mstore\n  pop\n  pop\n    /* \"KipuBankV3.sol\":5514:5530  ethWithdrawLimit */\n  dup2\n    /* \"KipuBankV3.sol\":5494:5497  cfg */\n  dup2\n    /* \"KipuBankV3.sol\":5494:5511  cfg.withdrawLimit */\n  0x60\n  add\n    /* \"KipuBankV3.sol\":5494:5530  cfg.withdrawLimit = ethWithdrawLimit */\n  dup2\n  dup2\n  mstore\n  pop\n  pop\n    /* \"KipuBankV3.sol\":5560:5572  ethPriceFeed */\n  dup6\n    /* \"KipuBankV3.sol\":5544:5547  cfg */\n  dup2\n    /* \"KipuBankV3.sol\":5544:5557  cfg.priceFeed */\n  0x80\n  add\n    /* \"KipuBankV3.sol\":5544:5572  cfg.priceFeed = ethPriceFeed */\n  swap1\n  0xffffffffffffffffffffffffffffffffffffffff\n  and\n  swap1\n  dup2\n  0xffffffffffffffffffffffffffffffffffffffff\n  and\n  dup2\n  mstore\n  pop\n  pop\n    /* \"KipuBankV3.sol\":5614:5617  cfg */\n  dup1\n    /* \"KipuBankV3.sol\":5586:5597  tokenConfig */\n  0x04\n    /* \"KipuBankV3.sol\":5586:5611  tokenConfig[NATIVE_TOKEN] */\n  0x00\n    /* \"KipuBankV3.sol\":2413:2414  0 */\n  dup1\n    /* \"KipuBankV3.sol\":5586:5611  tokenConfig[NATIVE_TOKEN] */\n  0xffffffffffffffffffffffffffffffffffffffff\n  and\n  0xffffffffffffffffffffffffffffffffffffffff\n  and\n  dup2\n  mstore\n  0x20\n  add\n  swap1\n  dup2\n  mstore\n  0x20\n  add\n  0x00\n  keccak256\n    /* \"KipuBankV3.sol\":5586:5617  tokenConfig[NATIVE_TOKEN] = cfg */\n  0x00\n  dup3\n  add\n  mload\n  dup2\n  0x00\n  add\n  exp(0x0100, 0x00)\n  dup2\n  sload\n  dup2\n  0xff\n  mul\n  not\n  and\n  swap1\n  dup4\n  iszero\n  iszero\n  mul\n  or\n  swap1\n  sstore\n  pop\n  0x20\n  dup3\n  add\n  mload\n  dup2\n  0x00\n  add\n  exp(0x0100, 0x01)\n  dup2\n  sload\n  dup2\n  0xff\n  mul\n  not\n  and\n  swap1\n  dup4\n  iszero\n  iszero\n  mul\n  or\n  swap1\n  sstore\n  pop\n  0x40\n  dup3\n  add\n  mload\n  dup2\n  0x00\n  add\n  exp(0x0100, 0x02)\n  dup2\n  sload\n  dup2\n  0xff\n  mul\n  not\n  and\n  swap1\n  dup4\n  0xff\n  and\n  mul\n  or\n  swap1\n  sstore\n  pop\n  0x60\n  dup3\n  add\n  mload\n  dup2\n  0x01\n  add\n  sstore\n  0x80\n  dup3\n  add\n  mload\n  dup2\n  0x02\n  add\n  exp(0x0100, 0x00)\n  dup2\n  sload\n  dup2\n  0xffffffffffffffffffffffffffffffffffffffff\n  mul\n  not\n  and\n  swap1\n  dup4\n  0xffffffffffffffffffffffffffffffffffffffff\n  and\n  mul\n  or\n  swap1\n  sstore\n  pop\n  swap1\n  pop\n  pop\n    /* \"KipuBankV3.sol\":2413:2414  0 */\n  0x00\n    /* \"KipuBankV3.sol\":5636:5713  TokenConfigured(NATIVE_TOKEN, true, true, 18, ethWithdrawLimit, ethPriceFeed) */\n  0xffffffffffffffffffffffffffffffffffffffff\n  and\n  0xceec6d18b470b58eabbfc22b7d771c54609acb2bbe777747424f6e9a5a9d5a25\n    /* \"KipuBankV3.sol\":5666:5670  true */\n  0x01\n    /* \"KipuBankV3.sol\":5672:5676  true */\n  dup1\n    /* \"KipuBankV3.sol\":5678:5680  18 */\n  0x12\n    /* \"KipuBankV3.sol\":5682:5698  ethWithdrawLimit */\n  dup7\n    /* \"KipuBankV3.sol\":5700:5712  ethPriceFeed */\n  dup12\n    /* \"KipuBankV3.sol\":5636:5713  TokenConfigured(NATIVE_TOKEN, true, true, 18, ethWithdrawLimit, ethPriceFeed) */\n  mload(0x40)\n  tag_19\n  swap6\n  swap5\n  swap4\n  swap3\n  swap2\n  swap1\n  tag_20\n  jump\t// in\ntag_19:\n  mload(0x40)\n  dup1\n  swap2\n  sub\n  swap1\n  log2\n    /* \"KipuBankV3.sol\":5341:5724  {... */\n  pop\n    /* \"KipuBankV3.sol\":5808:5830  TokenConfig memory cfg */\n  tag_21\n  tag_18\n  jump\t// in\ntag_21:\n    /* \"KipuBankV3.sol\":5860:5864  true */\n  0x01\n    /* \"KipuBankV3.sol\":5844:5847  cfg */\n  dup2\n    /* \"KipuBankV3.sol\":5844:5857  cfg.supported */\n  0x00\n  add\n    /* \"KipuBankV3.sol\":5844:5864  cfg.supported = true */\n  swap1\n  iszero\n  iszero\n  swap1\n  dup2\n  iszero\n  iszero\n  dup2\n  mstore\n  pop\n  pop\n    /* \"KipuBankV3.sol\":5894:5899  false */\n  0x00\n    /* \"KipuBankV3.sol\":5878:5881  cfg */\n  dup2\n    /* \"KipuBankV3.sol\":5878:5890  cfg.isNative */\n  0x20\n  add\n    /* \"KipuBankV3.sol\":5878:5899  cfg.isNative  = false */\n  swap1\n  iszero\n  iszero\n  swap1\n  dup2\n  iszero\n  iszero\n  dup2\n  mstore\n  pop\n  pop\n    /* \"KipuBankV3.sol\":5913:5922  uint8 dec */\n  0x00\n    /* \"KipuBankV3.sol\":5925:5926  6 */\n  0x06\n    /* \"KipuBankV3.sol\":5913:5926  uint8 dec = 6 */\n  swap1\n  pop\n    /* \"KipuBankV3.sol\":5959:5963  USDC */\n  mload(0xe0)\n    /* \"KipuBankV3.sol\":5944:5973  IERC20Metadata(USDC).decimals */\n  0xffffffffffffffffffffffffffffffffffffffff\n  and\n  0x313ce567\n    /* \"KipuBankV3.sol\":5944:5975  IERC20Metadata(USDC).decimals() */\n  mload(0x40)\n  dup2\n  0xffffffff\n  and\n  0xe0\n  shl\n  dup2\n  mstore\n  0x04\n  add\n  0x20\n  mload(0x40)\n  dup1\n  dup4\n  sub\n  dup2\n  dup7\n  gas\n  staticcall\n  swap3\n  pop\n  pop\n  pop\n  dup1\n  iszero\n  tag_22\n  jumpi\n  pop\n  mload(0x40)\n  returndatasize\n  not(0x1f)\n  0x1f\n  dup3\n  add\n  and\n  dup3\n  add\n  dup1\n  0x40\n  mstore\n  pop\n  dup2\n  add\n  swap1\n  tag_23\n  swap2\n  swap1\n  tag_24\n  jump\t// in\ntag_23:\n  0x01\ntag_22:\n    /* \"KipuBankV3.sol\":5940:6015  try IERC20Metadata(USDC).decimals() returns (uint8 d) { dec = d; } catch {} */\n  iszero\n  tag_29\n  jumpi\n    /* \"KipuBankV3.sol\":6002:6003  d */\n  dup1\n    /* \"KipuBankV3.sol\":5996:6003  dec = d */\n  swap2\n  pop\n    /* \"KipuBankV3.sol\":5976:6006  returns (uint8 d) { dec = d; } */\n  pop\n    /* \"KipuBankV3.sol\":5940:6015  try IERC20Metadata(USDC).decimals() returns (uint8 d) { dec = d; } catch {} */\ntag_29:\n    /* \"KipuBankV3.sol\":6048:6051  dec */\n  dup1\n    /* \"KipuBankV3.sol\":6028:6031  cfg */\n  dup3\n    /* \"KipuBankV3.sol\":6028:6045  cfg.tokenDecimals */\n  0x40\n  add\n    /* \"KipuBankV3.sol\":6028:6051  cfg.tokenDecimals = dec */\n  swap1\n  0xff\n  and\n  swap1\n  dup2\n  0xff\n  and\n  dup2\n  mstore\n  pop\n  pop\n    /* \"KipuBankV3.sol\":6085:6102  type(uint256).max */\n  0xffffffffffffffffffffffffffffffffffffffffffffffffffffffffffffffff\n    /* \"KipuBankV3.sol\":6065:6068  cfg */\n  dup3\n    /* \"KipuBankV3.sol\":6065:6082  cfg.withdrawLimit */\n  0x60\n  add\n    /* \"KipuBankV3.sol\":6065:6102  cfg.withdrawLimit = type(uint256).max */\n  dup2\n  dup2\n  mstore\n  pop\n  pop\n    /* \"KipuBankV3.sol\":6144:6145  0 */\n  0x00\n    /* \"KipuBankV3.sol\":6116:6119  cfg */\n  dup3\n    /* \"KipuBankV3.sol\":6116:6129  cfg.priceFeed */\n  0x80\n  add\n    /* \"KipuBankV3.sol\":6116:6146  cfg.priceFeed     = address(0) */\n  swap1\n  0xffffffffffffffffffffffffffffffffffffffff\n  and\n  swap1\n  dup2\n  0xffffffffffffffffffffffffffffffffffffffff\n  and\n  dup2\n  mstore\n  pop\n  pop\n    /* \"KipuBankV3.sol\":6180:6183  cfg */\n  dup2\n    /* \"KipuBankV3.sol\":6160:6171  tokenConfig */\n  0x04\n    /* \"KipuBankV3.sol\":6160:6177  tokenConfig[USDC] */\n  0x00\n    /* \"KipuBankV3.sol\":6172:6176  USDC */\n  mload(0xe0)\n    /* \"KipuBankV3.sol\":6160:6177  tokenConfig[USDC] */\n  0xffffffffffffffffffffffffffffffffffffffff\n  and\n  0xffffffffffffffffffffffffffffffffffffffff\n  and\n  dup2\n  mstore\n  0x20\n  add\n  swap1\n  dup2\n  mstore\n  0x20\n  add\n  0x00\n  keccak256\n    /* \"KipuBankV3.sol\":6160:6183  tokenConfig[USDC] = cfg */\n  0x00\n  dup3\n  add\n  mload\n  dup2\n  0x00\n  add\n  exp(0x0100, 0x00)\n  dup2\n  sload\n  dup2\n  0xff\n  mul\n  not\n  and\n  swap1\n  dup4\n  iszero\n  iszero\n  mul\n  or\n  swap1\n  sstore\n  pop\n  0x20\n  dup3\n  add\n  mload\n  dup2\n  0x00\n  add\n  exp(0x0100, 0x01)\n  dup2\n  sload\n  dup2\n  0xff\n  mul\n  not\n  and\n  swap1\n  dup4\n  iszero\n  iszero\n  mul\n  or\n  swap1\n  sstore\n  pop\n  0x40\n  dup3\n  add\n  mload\n  dup2\n  0x00\n  add\n  exp(0x0100, 0x02)\n  dup2\n  sload\n  dup2\n  0xff\n  mul\n  not\n  and\n  swap1\n  dup4\n  0xff\n  and\n  mul\n  or\n  swap1\n  sstore\n  pop\n  0x60\n  dup3\n  add\n  mload\n  dup2\n  0x01\n  add\n  sstore\n  0x80\n  dup3\n  add\n  mload\n  dup2\n  0x02\n  add\n  exp(0x0100, 0x00)\n  dup2\n  sload\n  dup2\n  0xffffffffffffffffffffffffffffffffffffffff\n  mul\n  not\n  and\n  swap1\n  dup4\n  0xffffffffffffffffffffffffffffffffffffffff\n  and\n  mul\n  or\n  swap1\n  sstore\n  pop\n  swap1\n  pop\n  pop\n    /* \"KipuBankV3.sol\":6218:6222  USDC */\n  mload(0xe0)\n    /* \"KipuBankV3.sol\":6202:6275  TokenConfigured(USDC, true, false, dec, cfg.withdrawLimit, cfg.priceFeed) */\n  0xffffffffffffffffffffffffffffffffffffffff\n  and\n  0xceec6d18b470b58eabbfc22b7d771c54609acb2bbe777747424f6e9a5a9d5a25\n    /* \"KipuBankV3.sol\":6224:6228  true */\n  0x01\n    /* \"KipuBankV3.sol\":6230:6235  false */\n  0x00\n    /* \"KipuBankV3.sol\":6237:6240  dec */\n  dup5\n    /* \"KipuBankV3.sol\":6242:6245  cfg */\n  dup7\n    /* \"KipuBankV3.sol\":6242:6259  cfg.withdrawLimit */\n  0x60\n  add\n  mload\n    /* \"KipuBankV3.sol\":6261:6264  cfg */\n  dup8\n    /* \"KipuBankV3.sol\":6261:6274  cfg.priceFeed */\n  0x80\n  add\n  mload\n    /* \"KipuBankV3.sol\":6202:6275  TokenConfigured(USDC, true, false, dec, cfg.withdrawLimit, cfg.priceFeed) */\n  mload(0x40)\n  tag_30\n  swap6\n  swap5\n  swap4\n  swap3\n  swap2\n  swap1\n  tag_31\n  jump\t// in\ntag_30:\n  mload(0x40)\n  dup1\n  swap2\n  sub\n  swap1\n  log2\n    /* \"KipuBankV3.sol\":5794:6286  {... */\n  pop\n  pop\n    /* \"KipuBankV3.sol\":4606:6292  constructor(... */\n  pop\n  pop\n  pop\n  pop\n  pop\n  pop\n    /* \"KipuBankV3.sol\":2025:13721  contract KipuBankV3 is AccessControl, ReentrancyGuard {... */\n  jump(tag_32)\n    /* \"@openzeppelin/contracts/access/AccessControl.sol\":6155:6471  function _grantRole(bytes32 role, address account) internal virtual returns (bool) {... */\ntag_15:\n    /* \"@openzeppelin/contracts/access/AccessControl.sol\":6232:6236  bool */\n  0x00\n    /* \"@openzeppelin/contracts/access/AccessControl.sol\":6253:6275  hasRole(role, account) */\n  tag_34\n    /* \"@openzeppelin/contracts/access/AccessControl.sol\":6261:6265  role */\n  dup4\n    /* \"@openzeppelin/contracts/access/AccessControl.sol\":6267:6274  account */\n  dup4\n    /* \"@openzeppelin/contracts/access/AccessControl.sol\":6253:6260  hasRole */\n  shl(0x20, tag_35)\n    /* \"@openzeppelin/contracts/access/AccessControl.sol\":6253:6275  hasRole(role, account) */\n  0x20\n  shr\n  jump\t// in\ntag_34:\n    /* \"@openzeppelin/contracts/access/AccessControl.sol\":6248:6465  if (!hasRole(role, account)) {... */\n  tag_36\n  jumpi\n    /* \"@openzeppelin/contracts/access/AccessControl.sol\":6323:6327  true */\n  0x01\n    /* \"@openzeppelin/contracts/access/AccessControl.sol\":6291:6297  _roles */\n  0x00\n    /* \"@openzeppelin/contracts/access/AccessControl.sol\":6291:6303  _roles[role] */\n  dup1\n    /* \"@openzeppelin/contracts/access/AccessControl.sol\":6298:6302  role */\n  dup6\n    /* \"@openzeppelin/contracts/access/AccessControl.sol\":6291:6303  _roles[role] */\n  dup2\n  mstore\n  0x20\n  add\n  swap1\n  dup2\n  mstore\n  0x20\n  add\n  0x00\n  keccak256\n    /* \"@openzeppelin/contracts/access/AccessControl.sol\":6291:6311  _roles[role].hasRole */\n  0x00\n  add\n    /* \"@openzeppelin/contracts/access/AccessControl.sol\":6291:6320  _roles[role].hasRole[account] */\n  0x00\n    /* \"@openzeppelin/contracts/access/AccessControl.sol\":6312:6319  account */\n  dup5\n    /* \"@openzeppelin/contracts/access/AccessControl.sol\":6291:6320  _roles[role].hasRole[account] */\n  0xffffffffffffffffffffffffffffffffffffffff\n  and\n  0xffffffffffffffffffffffffffffffffffffffff\n  and\n  dup2\n  mstore\n  0x20\n  add\n  swap1\n  dup2\n  mstore\n  0x20\n  add\n  0x00\n  keccak256\n  0x00\n    /* \"@openzeppelin/contracts/access/AccessControl.sol\":6291:6327  _roles[role].hasRole[account] = true */\n  0x0100\n  exp\n  dup2\n  sload\n  dup2\n  0xff\n  mul\n  not\n  and\n  swap1\n  dup4\n  iszero\n  iszero\n  mul\n  or\n  swap1\n  sstore\n  pop\n    /* \"@openzeppelin/contracts/access/AccessControl.sol\":6373:6385  _msgSender() */\n  tag_37\n    /* \"@openzeppelin/contracts/access/AccessControl.sol\":6373:6383  _msgSender */\n  shl(0x20, tag_38)\n    /* \"@openzeppelin/contracts/access/AccessControl.sol\":6373:6385  _msgSender() */\n  0x20\n  shr\n  jump\t// in\ntag_37:\n    /* \"@openzeppelin/contracts/access/AccessControl.sol\":6346:6386  RoleGranted(role, account, _msgSender()) */\n  0xffffffffffffffffffffffffffffffffffffffff\n  and\n    /* \"@openzeppelin/contracts/access/AccessControl.sol\":6364:6371  account */\n  dup3\n    /* \"@openzeppelin/contracts/access/AccessControl.sol\":6346:6386  RoleGranted(role, account, _msgSender()) */\n  0xffffffffffffffffffffffffffffffffffffffff\n  and\n    /* \"@openzeppelin/contracts/access/AccessControl.sol\":6358:6362  role */\n  dup5\n    /* \"@openzeppelin/contracts/access/AccessControl.sol\":6346:6386  RoleGranted(role, account, _msgSender()) */\n  0x2f8788117e7eff1d82e926ec794901d17c78024a50270940304540a733656f0d\n  mload(0x40)\n  mload(0x40)\n  dup1\n  swap2\n  sub\n  swap1\n  log4\n    /* \"@openzeppelin/contracts/access/AccessControl.sol\":6407:6411  true */\n  0x01\n    /* \"@openzeppelin/contracts/access/AccessControl.sol\":6400:6411  return true */\n  swap1\n  pop\n  jump(tag_33)\n    /* \"@openzeppelin/contracts/access/AccessControl.sol\":6248:6465  if (!hasRole(role, account)) {... */\ntag_36:\n    /* \"@openzeppelin/contracts/access/AccessControl.sol\":6449:6454  false */\n  0x00\n    /* \"@openzeppelin/contracts/access/AccessControl.sol\":6442:6454  return false */\n  swap1\n  pop\n    /* \"@openzeppelin/contracts/access/AccessControl.sol\":6155:6471  function _grantRole(bytes32 role, address account) internal virtual returns (bool) {... */\ntag_33:\n  swap3\n  swap2\n  pop\n  pop\n  jump\t// out\n    /* \"@openzeppelin/contracts/access/AccessControl.sol\":2830:2966  function hasRole(bytes32 role, address account) public view virtual returns (bool) {... */\ntag_35:\n    /* \"@openzeppelin/contracts/access/AccessControl.sol\":2907:2911  bool */\n  0x00\n    /* \"@openzeppelin/contracts/access/AccessControl.sol\":2930:2936  _roles */\n  dup1\n    /* \"@openzeppelin/contracts/access/AccessControl.sol\":2930:2942  _roles[role] */\n  0x00\n    /* \"@openzeppelin/contracts/access/AccessControl.sol\":2937:2941  role */\n  dup5\n    /* \"@openzeppelin/contracts/access/AccessControl.sol\":2930:2942  _roles[role] */\n  dup2\n  mstore\n  0x20\n  add\n  swap1\n  dup2\n  mstore\n  0x20\n  add\n  0x00\n  keccak256\n    /* \"@openzeppelin/contracts/access/AccessControl.sol\":2930:2950  _roles[role].hasRole */\n  0x00\n  add\n    /* \"@openzeppelin/contracts/access/AccessControl.sol\":2930:2959  _roles[role].hasRole[account] */\n  0x00\n    /* \"@openzeppelin/contracts/access/AccessControl.sol\":2951:2958  account */\n  dup4\n    /* \"@openzeppelin/contracts/access/AccessControl.sol\":2930:2959  _roles[role].hasRole[account] */\n  0xffffffffffffffffffffffffffffffffffffffff\n  and\n  0xffffffffffffffffffffffffffffffffffffffff\n  and\n  dup2\n  mstore\n  0x20\n  add\n  swap1\n  dup2\n  mstore\n  0x20\n  add\n  0x00\n  keccak256\n  0x00\n  swap1\n  sload\n  swap1\n  0x0100\n  exp\n  swap1\n  div\n  0xff\n  and\n    /* \"@openzeppelin/contracts/access/AccessControl.sol\":2923:2959  return _roles[role].hasRole[account] */\n  swap1\n  pop\n    /* \"@openzeppelin/contracts/access/AccessControl.sol\":2830:2966  function hasRole(bytes32 role, address account) public view virtual returns (bool) {... */\n  swap3\n  swap2\n  pop\n  pop\n  jump\t// out\n    /* \"@openzeppelin/contracts/utils/Context.sol\":656:752  function _msgSender() internal view virtual returns (address) {... */\ntag_38:\n    /* \"@openzeppelin/contracts/utils/Context.sol\":709:716  address */\n  0x00\n    /* \"@openzeppelin/contracts/utils/Context.sol\":735:745  msg.sender */\n  caller\n    /* \"@openzeppelin/contracts/utils/Context.sol\":728:745  return msg.sender */\n  swap1\n  pop\n    /* \"@openzeppelin/contracts/utils/Context.sol\":656:752  function _msgSender() internal view virtual returns (address) {... */\n  swap1\n  jump\t// out\n    /* \"KipuBankV3.sol\":2025:13721  contract KipuBankV3 is AccessControl, ReentrancyGuard {... */\ntag_18:\n  mload(0x40)\n  dup1\n  0xa0\n  add\n  0x40\n  mstore\n  dup1\n  iszero(iszero(0x00))\n  dup2\n  mstore\n  0x20\n  add\n  iszero(iszero(0x00))\n  dup2\n  mstore\n  0x20\n  add\n  and(0xff, 0x00)\n  dup2\n  mstore\n  0x20\n  add\n  0x00\n  dup2\n  mstore\n  0x20\n  add\n  and(0xffffffffffffffffffffffffffffffffffffffff, 0x00)\n  dup2\n  mstore\n  pop\n  swap1\n  jump\t// out\n    /* \"#utility.yul\":88:205   */\ntag_43:\n    /* \"#utility.yul\":197:198   */\n  0x00\n    /* \"#utility.yul\":194:195   */\n  dup1\n    /* \"#utility.yul\":187:199   */\n  revert\n    /* \"#utility.yul\":334:411   */\ntag_45:\n    /* \"#utility.yul\":371:378   */\n  0x00\n    /* \"#utility.yul\":400:405   */\n  dup2\n    /* \"#utility.yul\":389:405   */\n  swap1\n  pop\n    /* \"#utility.yul\":334:411   */\n  swap2\n  swap1\n  pop\n  jump\t// out\n    /* \"#utility.yul\":417:539   */\ntag_46:\n    /* \"#utility.yul\":490:514   */\n  tag_70\n    /* \"#utility.yul\":508:513   */\n  dup2\n    /* \"#utility.yul\":490:514   */\n  tag_45\n  jump\t// in\ntag_70:\n    /* \"#utility.yul\":483:488   */\n  dup2\n    /* \"#utility.yul\":480:515   */\n  eq\n    /* \"#utility.yul\":470:533   */\n  tag_71\n  jumpi\n    /* \"#utility.yul\":529:530   */\n  0x00\n    /* \"#utility.yul\":526:527   */\n  dup1\n    /* \"#utility.yul\":519:531   */\n  revert\n    /* \"#utility.yul\":470:533   */\ntag_71:\n    /* \"#utility.yul\":417:539   */\n  pop\n  jump\t// out\n    /* \"#utility.yul\":545:688   */\ntag_47:\n    /* \"#utility.yul\":602:607   */\n  0x00\n    /* \"#utility.yul\":633:639   */\n  dup2\n    /* \"#utility.yul\":627:640   */\n  mload\n    /* \"#utility.yul\":618:640   */\n  swap1\n  pop\n    /* \"#utility.yul\":649:682   */\n  tag_73\n    /* \"#utility.yul\":676:681   */\n  dup2\n    /* \"#utility.yul\":649:682   */\n  tag_46\n  jump\t// in\ntag_73:\n    /* \"#utility.yul\":545:688   */\n  swap3\n  swap2\n  pop\n  pop\n  jump\t// out\n    /* \"#utility.yul\":694:820   */\ntag_48:\n    /* \"#utility.yul\":731:738   */\n  0x00\n    /* \"#utility.yul\":771:813   */\n  0xffffffffffffffffffffffffffffffffffffffff\n    /* \"#utility.yul\":764:769   */\n  dup3\n    /* \"#utility.yul\":760:814   */\n  and\n    /* \"#utility.yul\":749:814   */\n  swap1\n  pop\n    /* \"#utility.yul\":694:820   */\n  swap2\n  swap1\n  pop\n  jump\t// out\n    /* \"#utility.yul\":826:922   */\ntag_49:\n    /* \"#utility.yul\":863:870   */\n  0x00\n    /* \"#utility.yul\":892:916   */\n  tag_76\n    /* \"#utility.yul\":910:915   */\n  dup3\n    /* \"#utility.yul\":892:916   */\n  tag_48\n  jump\t// in\ntag_76:\n    /* \"#utility.yul\":881:916   */\n  swap1\n  pop\n    /* \"#utility.yul\":826:922   */\n  swap2\n  swap1\n  pop\n  jump\t// out\n    /* \"#utility.yul\":928:1050   */\ntag_50:\n    /* \"#utility.yul\":1001:1025   */\n  tag_78\n    /* \"#utility.yul\":1019:1024   */\n  dup2\n    /* \"#utility.yul\":1001:1025   */\n  tag_49\n  jump\t// in\ntag_78:\n    /* \"#utility.yul\":994:999   */\n  dup2\n    /* \"#utility.yul\":991:1026   */\n  eq\n    /* \"#utility.yul\":981:1044   */\n  tag_79\n  jumpi\n    /* \"#utility.yul\":1040:1041   */\n  0x00\n    /* \"#utility.yul\":1037:1038   */\n  dup1\n    /* \"#utility.yul\":1030:1042   */\n  revert\n    /* \"#utility.yul\":981:1044   */\ntag_79:\n    /* \"#utility.yul\":928:1050   */\n  pop\n  jump\t// out\n    /* \"#utility.yul\":1056:1199   */\ntag_51:\n    /* \"#utility.yul\":1113:1118   */\n  0x00\n    /* \"#utility.yul\":1144:1150   */\n  dup2\n    /* \"#utility.yul\":1138:1151   */\n  mload\n    /* \"#utility.yul\":1129:1151   */\n  swap1\n  pop\n    /* \"#utility.yul\":1160:1193   */\n  tag_81\n    /* \"#utility.yul\":1187:1192   */\n  dup2\n    /* \"#utility.yul\":1160:1193   */\n  tag_50\n  jump\t// in\ntag_81:\n    /* \"#utility.yul\":1056:1199   */\n  swap3\n  swap2\n  pop\n  pop\n  jump\t// out\n    /* \"#utility.yul\":1205:2339   */\ntag_3:\n    /* \"#utility.yul\":1320:1326   */\n  0x00\n    /* \"#utility.yul\":1328:1334   */\n  dup1\n    /* \"#utility.yul\":1336:1342   */\n  0x00\n    /* \"#utility.yul\":1344:1350   */\n  dup1\n    /* \"#utility.yul\":1352:1358   */\n  0x00\n    /* \"#utility.yul\":1360:1366   */\n  dup1\n    /* \"#utility.yul\":1409:1412   */\n  0xc0\n    /* \"#utility.yul\":1397:1406   */\n  dup8\n    /* \"#utility.yul\":1388:1395   */\n  dup10\n    /* \"#utility.yul\":1384:1407   */\n  sub\n    /* \"#utility.yul\":1380:1413   */\n  slt\n    /* \"#utility.yul\":1377:1497   */\n  iszero\n  tag_83\n  jumpi\n    /* \"#utility.yul\":1416:1495   */\n  tag_84\n  tag_43\n  jump\t// in\ntag_84:\n    /* \"#utility.yul\":1377:1497   */\ntag_83:\n    /* \"#utility.yul\":1536:1537   */\n  0x00\n    /* \"#utility.yul\":1561:1625   */\n  tag_85\n    /* \"#utility.yul\":1617:1624   */\n  dup10\n    /* \"#utility.yul\":1608:1614   */\n  dup3\n    /* \"#utility.yul\":1597:1606   */\n  dup11\n    /* \"#utility.yul\":1593:1615   */\n  add\n    /* \"#utility.yul\":1561:1625   */\n  tag_47\n  jump\t// in\ntag_85:\n    /* \"#utility.yul\":1551:1625   */\n  swap7\n  pop\n    /* \"#utility.yul\":1507:1635   */\n  pop\n    /* \"#utility.yul\":1674:1676   */\n  0x20\n    /* \"#utility.yul\":1700:1764   */\n  tag_86\n    /* \"#utility.yul\":1756:1763   */\n  dup10\n    /* \"#utility.yul\":1747:1753   */\n  dup3\n    /* \"#utility.yul\":1736:1745   */\n  dup11\n    /* \"#utility.yul\":1732:1754   */\n  add\n    /* \"#utility.yul\":1700:1764   */\n  tag_51\n  jump\t// in\ntag_86:\n    /* \"#utility.yul\":1690:1764   */\n  swap6\n  pop\n    /* \"#utility.yul\":1645:1774   */\n  pop\n    /* \"#utility.yul\":1813:1815   */\n  0x40\n    /* \"#utility.yul\":1839:1903   */\n  tag_87\n    /* \"#utility.yul\":1895:1902   */\n  dup10\n    /* \"#utility.yul\":1886:1892   */\n  dup3\n    /* \"#utility.yul\":1875:1884   */\n  dup11\n    /* \"#utility.yul\":1871:1893   */\n  add\n    /* \"#utility.yul\":1839:1903   */\n  tag_51\n  jump\t// in\ntag_87:\n    /* \"#utility.yul\":1829:1903   */\n  swap5\n  pop\n    /* \"#utility.yul\":1784:1913   */\n  pop\n    /* \"#utility.yul\":1952:1954   */\n  0x60\n    /* \"#utility.yul\":1978:2042   */\n  tag_88\n    /* \"#utility.yul\":2034:2041   */\n  dup10\n    /* \"#utility.yul\":2025:2031   */\n  dup3\n    /* \"#utility.yul\":2014:2023   */\n  dup11\n    /* \"#utility.yul\":2010:2032   */\n  add\n    /* \"#utility.yul\":1978:2042   */\n  tag_51\n  jump\t// in\ntag_88:\n    /* \"#utility.yul\":1968:2042   */\n  swap4\n  pop\n    /* \"#utility.yul\":1923:2052   */\n  pop\n    /* \"#utility.yul\":2091:2094   */\n  0x80\n    /* \"#utility.yul\":2118:2182   */\n  tag_89\n    /* \"#utility.yul\":2174:2181   */\n  dup10\n    /* \"#utility.yul\":2165:2171   */\n  dup3\n    /* \"#utility.yul\":2154:2163   */\n  dup11\n    /* \"#utility.yul\":2150:2172   */\n  add\n    /* \"#utility.yul\":2118:2182   */\n  tag_51\n  jump\t// in\ntag_89:\n    /* \"#utility.yul\":2108:2182   */\n  swap3\n  pop\n    /* \"#utility.yul\":2062:2192   */\n  pop\n    /* \"#utility.yul\":2231:2234   */\n  0xa0\n    /* \"#utility.yul\":2258:2322   */\n  tag_90\n    /* \"#utility.yul\":2314:2321   */\n  dup10\n    /* \"#utility.yul\":2305:2311   */\n  dup3\n    /* \"#utility.yul\":2294:2303   */\n  dup11\n    /* \"#utility.yul\":2290:2312   */\n  add\n    /* \"#utility.yul\":2258:2322   */\n  tag_47\n  jump\t// in\ntag_90:\n    /* \"#utility.yul\":2248:2322   */\n  swap2\n  pop\n    /* \"#utility.yul\":2202:2332   */\n  pop\n    /* \"#utility.yul\":1205:2339   */\n  swap3\n  swap6\n  pop\n  swap3\n  swap6\n  pop\n  swap3\n  swap6\n  jump\t// out\n    /* \"#utility.yul\":2345:2463   */\ntag_52:\n    /* \"#utility.yul\":2432:2456   */\n  tag_92\n    /* \"#utility.yul\":2450:2455   */\n  dup2\n    /* \"#utility.yul\":2432:2456   */\n  tag_49\n  jump\t// in\ntag_92:\n    /* \"#utility.yul\":2427:2430   */\n  dup3\n    /* \"#utility.yul\":2420:2457   */\n  mstore\n    /* \"#utility.yul\":2345:2463   */\n  pop\n  pop\n  jump\t// out\n    /* \"#utility.yul\":2469:2691   */\ntag_13:\n    /* \"#utility.yul\":2562:2566   */\n  0x00\n    /* \"#utility.yul\":2600:2602   */\n  0x20\n    /* \"#utility.yul\":2589:2598   */\n  dup3\n    /* \"#utility.yul\":2585:2603   */\n  add\n    /* \"#utility.yul\":2577:2603   */\n  swap1\n  pop\n    /* \"#utility.yul\":2613:2684   */\n  tag_94\n    /* \"#utility.yul\":2681:2682   */\n  0x00\n    /* \"#utility.yul\":2670:2679   */\n  dup4\n    /* \"#utility.yul\":2666:2683   */\n  add\n    /* \"#utility.yul\":2657:2663   */\n  dup5\n    /* \"#utility.yul\":2613:2684   */\n  tag_52\n  jump\t// in\ntag_94:\n    /* \"#utility.yul\":2469:2691   */\n  swap3\n  swap2\n  pop\n  pop\n  jump\t// out\n    /* \"#utility.yul\":2697:2787   */\ntag_53:\n    /* \"#utility.yul\":2731:2738   */\n  0x00\n    /* \"#utility.yul\":2774:2779   */\n  dup2\n    /* \"#utility.yul\":2767:2780   */\n  iszero\n    /* \"#utility.yul\":2760:2781   */\n  iszero\n    /* \"#utility.yul\":2749:2781   */\n  swap1\n  pop\n    /* \"#utility.yul\":2697:2787   */\n  swap2\n  swap1\n  pop\n  jump\t// out\n    /* \"#utility.yul\":2793:2902   */\ntag_54:\n    /* \"#utility.yul\":2874:2895   */\n  tag_97\n    /* \"#utility.yul\":2889:2894   */\n  dup2\n    /* \"#utility.yul\":2874:2895   */\n  tag_53\n  jump\t// in\ntag_97:\n    /* \"#utility.yul\":2869:2872   */\n  dup3\n    /* \"#utility.yul\":2862:2896   */\n  mstore\n    /* \"#utility.yul\":2793:2902   */\n  pop\n  pop\n  jump\t// out\n    /* \"#utility.yul\":2908:2994   */\ntag_55:\n    /* \"#utility.yul\":2954:2961   */\n  0x00\n    /* \"#utility.yul\":2983:2988   */\n  dup2\n    /* \"#utility.yul\":2972:2988   */\n  swap1\n  pop\n    /* \"#utility.yul\":2908:2994   */\n  swap2\n  swap1\n  pop\n  jump\t// out\n    /* \"#utility.yul\":3000:3086   */\ntag_56:\n    /* \"#utility.yul\":3035:3042   */\n  0x00\n    /* \"#utility.yul\":3075:3079   */\n  0xff\n    /* \"#utility.yul\":3068:3073   */\n  dup3\n    /* \"#utility.yul\":3064:3080   */\n  and\n    /* \"#utility.yul\":3053:3080   */\n  swap1\n  pop\n    /* \"#utility.yul\":3000:3086   */\n  swap2\n  swap1\n  pop\n  jump\t// out\n    /* \"#utility.yul\":3092:3152   */\ntag_57:\n    /* \"#utility.yul\":3120:3123   */\n  0x00\n    /* \"#utility.yul\":3141:3146   */\n  dup2\n    /* \"#utility.yul\":3134:3146   */\n  swap1\n  pop\n    /* \"#utility.yul\":3092:3152   */\n  swap2\n  swap1\n  pop\n  jump\t// out\n    /* \"#utility.yul\":3158:3314   */\ntag_58:\n    /* \"#utility.yul\":3215:3224   */\n  0x00\n    /* \"#utility.yul\":3248:3308   */\n  tag_102\n    /* \"#utility.yul\":3264:3307   */\n  tag_103\n    /* \"#utility.yul\":3273:3306   */\n  tag_104\n    /* \"#utility.yul\":3300:3305   */\n  dup5\n    /* \"#utility.yul\":3273:3306   */\n  tag_55\n  jump\t// in\ntag_104:\n    /* \"#utility.yul\":3264:3307   */\n  tag_57\n  jump\t// in\ntag_103:\n    /* \"#utility.yul\":3248:3308   */\n  tag_56\n  jump\t// in\ntag_102:\n    /* \"#utility.yul\":3235:3308   */\n  swap1\n  pop\n    /* \"#utility.yul\":3158:3314   */\n  swap2\n  swap1\n  pop\n  jump\t// out\n    /* \"#utility.yul\":3320:3465   */\ntag_59:\n    /* \"#utility.yul\":3414:3458   */\n  tag_106\n    /* \"#utility.yul\":3452:3457   */\n  dup2\n    /* \"#utility.yul\":3414:3458   */\n  tag_58\n  jump\t// in\ntag_106:\n    /* \"#utility.yul\":3409:3412   */\n  dup3\n    /* \"#utility.yul\":3402:3459   */\n  mstore\n    /* \"#utility.yul\":3320:3465   */\n  pop\n  pop\n  jump\t// out\n    /* \"#utility.yul\":3471:3589   */\ntag_60:\n    /* \"#utility.yul\":3558:3582   */\n  tag_108\n    /* \"#utility.yul\":3576:3581   */\n  dup2\n    /* \"#utility.yul\":3558:3582   */\n  tag_45\n  jump\t// in\ntag_108:\n    /* \"#utility.yul\":3553:3556   */\n  dup3\n    /* \"#utility.yul\":3546:3583   */\n  mstore\n    /* \"#utility.yul\":3471:3589   */\n  pop\n  pop\n  jump\t// out\n    /* \"#utility.yul\":3595:4249   */\ntag_20:\n    /* \"#utility.yul\":3795:3799   */\n  0x00\n    /* \"#utility.yul\":3833:3836   */\n  0xa0\n    /* \"#utility.yul\":3822:3831   */\n  dup3\n    /* \"#utility.yul\":3818:3837   */\n  add\n    /* \"#utility.yul\":3810:3837   */\n  swap1\n  pop\n    /* \"#utility.yul\":3847:3912   */\n  tag_110\n    /* \"#utility.yul\":3909:3910   */\n  0x00\n    /* \"#utility.yul\":3898:3907   */\n  dup4\n    /* \"#utility.yul\":3894:3911   */\n  add\n    /* \"#utility.yul\":3885:3891   */\n  dup9\n    /* \"#utility.yul\":3847:3912   */\n  tag_54\n  jump\t// in\ntag_110:\n    /* \"#utility.yul\":3922:3988   */\n  tag_111\n    /* \"#utility.yul\":3984:3986   */\n  0x20\n    /* \"#utility.yul\":3973:3982   */\n  dup4\n    /* \"#utility.yul\":3969:3987   */\n  add\n    /* \"#utility.yul\":3960:3966   */\n  dup8\n    /* \"#utility.yul\":3922:3988   */\n  tag_54\n  jump\t// in\ntag_111:\n    /* \"#utility.yul\":3998:4077   */\n  tag_112\n    /* \"#utility.yul\":4073:4075   */\n  0x40\n    /* \"#utility.yul\":4062:4071   */\n  dup4\n    /* \"#utility.yul\":4058:4076   */\n  add\n    /* \"#utility.yul\":4049:4055   */\n  dup7\n    /* \"#utility.yul\":3998:4077   */\n  tag_59\n  jump\t// in\ntag_112:\n    /* \"#utility.yul\":4087:4159   */\n  tag_113\n    /* \"#utility.yul\":4155:4157   */\n  0x60\n    /* \"#utility.yul\":4144:4153   */\n  dup4\n    /* \"#utility.yul\":4140:4158   */\n  add\n    /* \"#utility.yul\":4131:4137   */\n  dup6\n    /* \"#utility.yul\":4087:4159   */\n  tag_60\n  jump\t// in\ntag_113:\n    /* \"#utility.yul\":4169:4242   */\n  tag_114\n    /* \"#utility.yul\":4237:4240   */\n  0x80\n    /* \"#utility.yul\":4226:4235   */\n  dup4\n    /* \"#utility.yul\":4222:4241   */\n  add\n    /* \"#utility.yul\":4213:4219   */\n  dup5\n    /* \"#utility.yul\":4169:4242   */\n  tag_52\n  jump\t// in\ntag_114:\n    /* \"#utility.yul\":3595:4249   */\n  swap7\n  swap6\n  pop\n  pop\n  pop\n  pop\n  pop\n  pop\n  jump\t// out\n    /* \"#utility.yul\":4255:4373   */\ntag_61:\n    /* \"#utility.yul\":4326:4348   */\n  tag_116\n    /* \"#utility.yul\":4342:4347   */\n  dup2\n    /* \"#utility.yul\":4326:4348   */\n  tag_56\n  jump\t// in\ntag_116:\n    /* \"#utility.yul\":4319:4324   */\n  dup2\n    /* \"#utility.yul\":4316:4349   */\n  eq\n    /* \"#utility.yul\":4306:4367   */\n  tag_117\n  jumpi\n    /* \"#utility.yul\":4363:4364   */\n  0x00\n    /* \"#utility.yul\":4360:4361   */\n  dup1\n    /* \"#utility.yul\":4353:4365   */\n  revert\n    /* \"#utility.yul\":4306:4367   */\ntag_117:\n    /* \"#utility.yul\":4255:4373   */\n  pop\n  jump\t// out\n    /* \"#utility.yul\":4379:4518   */\ntag_62:\n    /* \"#utility.yul\":4434:4439   */\n  0x00\n    /* \"#utility.yul\":4465:4471   */\n  dup2\n    /* \"#utility.yul\":4459:4472   */\n  mload\n    /* \"#utility.yul\":4450:4472   */\n  swap1\n  pop\n    /* \"#utility.yul\":4481:4512   */\n  tag_119\n    /* \"#utility.yul\":4506:4511   */\n  dup2\n    /* \"#utility.yul\":4481:4512   */\n  tag_61\n  jump\t// in\ntag_119:\n    /* \"#utility.yul\":4379:4518   */\n  swap3\n  swap2\n  pop\n  pop\n  jump\t// out\n    /* \"#utility.yul\":4524:4871   */\ntag_24:\n    /* \"#utility.yul\":4592:4598   */\n  0x00\n    /* \"#utility.yul\":4641:4643   */\n  0x20\n    /* \"#utility.yul\":4629:4638   */\n  dup3\n    /* \"#utility.yul\":4620:4627   */\n  dup5\n    /* \"#utility.yul\":4616:4639   */\n  sub\n    /* \"#utility.yul\":4612:4644   */\n  slt\n    /* \"#utility.yul\":4609:4728   */\n  iszero\n  tag_121\n  jumpi\n    /* \"#utility.yul\":4647:4726   */\n  tag_122\n  tag_43\n  jump\t// in\ntag_122:\n    /* \"#utility.yul\":4609:4728   */\ntag_121:\n    /* \"#utility.yul\":4767:4768   */\n  0x00\n    /* \"#utility.yul\":4792:4854   */\n  tag_123\n    /* \"#utility.yul\":4846:4853   */\n  dup5\n    /* \"#utility.yul\":4837:4843   */\n  dup3\n    /* \"#utility.yul\":4826:4835   */\n  dup6\n    /* \"#utility.yul\":4822:4844   */\n  add\n    /* \"#utility.yul\":4792:4854   */\n  tag_62\n  jump\t// in\ntag_123:\n    /* \"#utility.yul\":4782:4854   */\n  swap2\n  pop\n    /* \"#utility.yul\":4738:4864   */\n  pop\n    /* \"#utility.yul\":4524:4871   */\n  swap3\n  swap2\n  pop\n  pop\n  jump\t// out\n    /* \"#utility.yul\":4877:4989   */\ntag_63:\n    /* \"#utility.yul\":4960:4982   */\n  tag_125\n    /* \"#utility.yul\":4976:4981   */\n  dup2\n    /* \"#utility.yul\":4960:4982   */\n  tag_56\n  jump\t// in\ntag_125:\n    /* \"#utility.yul\":4955:4958   */\n  dup3\n    /* \"#utility.yul\":4948:4983   */\n  mstore\n    /* \"#utility.yul\":4877:4989   */\n  pop\n  pop\n  jump\t// out\n    /* \"#utility.yul\":4995:5627   */\ntag_31:\n    /* \"#utility.yul\":5184:5188   */\n  0x00\n    /* \"#utility.yul\":5222:5225   */\n  0xa0\n    /* \"#utility.yul\":5211:5220   */\n  dup3\n    /* \"#utility.yul\":5207:5226   */\n  add\n    /* \"#utility.yul\":5199:5226   */\n  swap1\n  pop\n    /* \"#utility.yul\":5236:5301   */\n  tag_127\n    /* \"#utility.yul\":5298:5299   */\n  0x00\n    /* \"#utility.yul\":5287:5296   */\n  dup4\n    /* \"#utility.yul\":5283:5300   */\n  add\n    /* \"#utility.yul\":5274:5280   */\n  dup9\n    /* \"#utility.yul\":5236:5301   */\n  tag_54\n  jump\t// in\ntag_127:\n    /* \"#utility.yul\":5311:5377   */\n  tag_128\n    /* \"#utility.yul\":5373:5375   */\n  0x20\n    /* \"#utility.yul\":5362:5371   */\n  dup4\n    /* \"#utility.yul\":5358:5376   */\n  add\n    /* \"#utility.yul\":5349:5355   */\n  dup8\n    /* \"#utility.yul\":5311:5377   */\n  tag_54\n  jump\t// in\ntag_128:\n    /* \"#utility.yul\":5387:5455   */\n  tag_129\n    /* \"#utility.yul\":5451:5453   */\n  0x40\n    /* \"#utility.yul\":5440:5449   */\n  dup4\n    /* \"#utility.yul\":5436:5454   */\n  add\n    /* \"#utility.yul\":5427:5433   */\n  dup7\n    /* \"#utility.yul\":5387:5455   */\n  tag_63\n  jump\t// in\ntag_129:\n    /* \"#utility.yul\":5465:5537   */\n  tag_130\n    /* \"#utility.yul\":5533:5535   */\n  0x60\n    /* \"#utility.yul\":5522:5531   */\n  dup4\n    /* \"#utility.yul\":5518:5536   */\n  add\n    /* \"#utility.yul\":5509:5515   */\n  dup6\n    /* \"#utility.yul\":5465:5537   */\n  tag_60\n  jump\t// in\ntag_130:\n    /* \"#utility.yul\":5547:5620   */\n  tag_131\n    /* \"#utility.yul\":5615:5618   */\n  0x80\n    /* \"#utility.yul\":5604:5613   */\n  dup4\n    /* \"#utility.yul\":5600:5619   */\n  add\n    /* \"#utility.yul\":5591:5597   */\n  dup5\n    /* \"#utility.yul\":5547:5620   */\n  tag_52\n  jump\t// in\ntag_131:\n    /* \"#utility.yul\":4995:5627   */\n  swap7\n  swap6\n  pop\n  pop\n  pop\n  pop\n  pop\n  pop\n  jump\t// out\n    /* \"KipuBankV3.sol\":2025:13721  contract KipuBankV3 is AccessControl, ReentrancyGuard {... */\ntag_32:\n  mload(0x80)\n  mload(0xa0)\n  mload(0xc0)\n  mload(0xe0)\n  codecopy(0x00, dataOffset(sub_0), dataSize(sub_0))\n  0x00\n  assignImmutable(\"0xcbba90175f9c427d3c4d688dfb41cce78f2164c36de91a74e800660b40e1ab55\")\n  0x00\n  assignImmutable(\"0x38fb4f81377293344a991c247097a0787a704bab978f5dd2d647b3d08b92e996\")\n  0x00\n  assignImmutable(\"0x4257479addd544711115a099f37ca9612d00131553572b464c479b7443e8b262\")\n  0x00\n  assignImmutable(\"0xb1914158f066b099b011ee6b10afe41800ff5ecc2ba6fe68f458d6506944d22e\")\n  return(0x00, dataSize(sub_0))\nstop\n\nsub_0: assembly {\n        /* \"KipuBankV3.sol\":2025:13721  contract KipuBankV3 is AccessControl, ReentrancyGuard {... */\n      mstore(0x40, 0x80)\n      jumpi(tag_1, lt(calldatasize, 0x04))\n      shr(0xe0, calldataload(0x00))\n      dup1\n      0x91d14854\n      gt\n      tag_27\n      jumpi\n      dup1\n      0xd547741f\n      gt\n      tag_28\n      jumpi\n      dup1\n      0xf688bcfb\n      gt\n      tag_29\n      jumpi\n      dup1\n      0xf688bcfb\n      eq\n      tag_23\n      jumpi\n      dup1\n      0xf887ea40\n      eq\n      tag_24\n      jumpi\n      dup1\n      0xf9bda21f\n      eq\n      tag_25\n      jumpi\n      dup1\n      0xfe136c4e\n      eq\n      tag_26\n      jumpi\n      jump(tag_1)\n    tag_29:\n      dup1\n      0xd547741f\n      eq\n      tag_20\n      jumpi\n      dup1\n      0xdb81f99b\n      eq\n      tag_21\n      jumpi\n      dup1\n      0xdcb6e250\n      eq\n      tag_22\n      jumpi\n      jump(tag_1)\n    tag_28:\n      dup1\n      0x91d14854\n      eq\n      tag_14\n      jumpi\n      dup1\n      0x9c50adee\n      eq\n      tag_15\n      jumpi\n      dup1\n      0xa217fddf\n      eq\n      tag_16\n      jumpi\n      dup1\n      0xc45a0155\n      eq\n      tag_17\n      jumpi\n      dup1\n      0xd391014b\n      eq\n      tag_18\n      jumpi\n      dup1\n      0xd4fac45d\n      eq\n      tag_19\n      jumpi\n      jump(tag_1)\n    tag_27:\n      dup1\n      0x31f7d964\n      gt\n      tag_30\n      jumpi\n      dup1\n      0x31f7d964\n      eq\n      tag_8\n      jumpi\n      dup1\n      0x36568abe\n      eq\n      tag_9\n      jumpi\n      dup1\n      0x4cc05a71\n      eq\n      tag_10\n      jumpi\n      dup1\n      0x5358fbda\n      eq\n      tag_11\n      jumpi\n      dup1\n      0x72806f70\n      eq\n      tag_12\n      jumpi\n      dup1\n      0x89a30271\n      eq\n      tag_13\n      jumpi\n      jump(tag_1)\n    tag_30:\n      dup1\n      0x01ffc9a7\n      eq\n      tag_2\n      jumpi\n      dup1\n      0x248a9ca3\n      eq\n      tag_3\n      jumpi\n      dup1\n      0x29608ba6\n      eq\n      tag_4\n      jumpi\n      dup1\n      0x2dfdf0b5\n      eq\n      tag_5\n      jumpi\n      dup1\n      0x2f2ff15d\n      eq\n      tag_6\n      jumpi\n      dup1\n      0x2f6ee695\n      eq\n      tag_7\n      jumpi\n    tag_1:\n      0x00\n      dup1\n      revert\n        /* \"@openzeppelin/contracts/access/AccessControl.sol\":2541:2743  function supportsInterface(bytes4 interfaceId) public view virtual override returns (bool) {... */\n    tag_2:\n      callvalue\n      dup1\n      iszero\n      tag_31\n      jumpi\n      0x00\n      dup1\n      revert\n    tag_31:\n      pop\n      tag_32\n      0x04\n      dup1\n      calldatasize\n      sub\n      dup2\n      add\n      swap1\n      tag_33\n      swap2\n      swap1\n      tag_34\n      jump\t// in\n    tag_33:\n      tag_35\n      jump\t// in\n    tag_32:\n      mload(0x40)\n      tag_36\n      swap2\n      swap1\n      tag_37\n      jump\t// in\n    tag_36:\n      mload(0x40)\n      dup1\n      swap2\n      sub\n      swap1\n      return\n        /* \"@openzeppelin/contracts/access/AccessControl.sol\":3786:3906  function getRoleAdmin(bytes32 role) public view virtual returns (bytes32) {... */\n    tag_3:\n      callvalue\n      dup1\n      iszero\n      tag_38\n      jumpi\n      0x00\n      dup1\n      revert\n    tag_38:\n      pop\n      tag_39\n      0x04\n      dup1\n      calldatasize\n      sub\n      dup2\n      add\n      swap1\n      tag_40\n      swap2\n      swap1\n      tag_41\n      jump\t// in\n    tag_40:\n      tag_42\n      jump\t// in\n    tag_39:\n      mload(0x40)\n      tag_43\n      swap2\n      swap1\n      tag_44\n      jump\t// in\n    tag_43:\n      mload(0x40)\n      dup1\n      swap2\n      sub\n      swap1\n      return\n        /* \"KipuBankV3.sol\":2795:2828  uint256 public totalDepositedUsd6 */\n    tag_4:\n      callvalue\n      dup1\n      iszero\n      tag_45\n      jumpi\n      0x00\n      dup1\n      revert\n    tag_45:\n      pop\n      tag_46\n      tag_47\n      jump\t// in\n    tag_46:\n      mload(0x40)\n      tag_48\n      swap2\n      swap1\n      tag_49\n      jump\t// in\n    tag_48:\n      mload(0x40)\n      dup1\n      swap2\n      sub\n      swap1\n      return\n        /* \"KipuBankV3.sol\":3299:3326  uint256 public depositCount */\n    tag_5:\n      callvalue\n      dup1\n      iszero\n      tag_50\n      jumpi\n      0x00\n      dup1\n      revert\n    tag_50:\n      pop\n      tag_51\n      tag_52\n      jump\t// in\n    tag_51:\n      mload(0x40)\n      tag_53\n      swap2\n      swap1\n      tag_49\n      jump\t// in\n    tag_53:\n      mload(0x40)\n      dup1\n      swap2\n      sub\n      swap1\n      return\n        /* \"@openzeppelin/contracts/access/AccessControl.sol\":4202:4338  function grantRole(bytes32 role, address account) public virtual onlyRole(getRoleAdmin(role)) {... */\n    tag_6:\n      callvalue\n      dup1\n      iszero\n      tag_54\n      jumpi\n      0x00\n      dup1\n      revert\n    tag_54:\n      pop\n      tag_55\n      0x04\n      dup1\n      calldatasize\n      sub\n      dup2\n      add\n      swap1\n      tag_56\n      swap2\n      swap1\n      tag_57\n      jump\t// in\n    tag_56:\n      tag_58\n      jump\t// in\n    tag_55:\n      stop\n        /* \"KipuBankV3.sol\":2421:2459  uint8 public constant USD_DECIMALS = 6 */\n    tag_7:\n      callvalue\n      dup1\n      iszero\n      tag_59\n      jumpi\n      0x00\n      dup1\n      revert\n    tag_59:\n      pop\n      tag_60\n      tag_61\n      jump\t// in\n    tag_60:\n      mload(0x40)\n      tag_62\n      swap2\n      swap1\n      tag_63\n      jump\t// in\n    tag_62:\n      mload(0x40)\n      dup1\n      swap2\n      sub\n      swap1\n      return\n        /* \"KipuBankV3.sol\":2366:2415  address public constant NATIVE_TOKEN = address(0) */\n    tag_8:\n      callvalue\n      dup1\n      iszero\n      tag_64\n      jumpi\n      0x00\n      dup1\n      revert\n    tag_64:\n      pop\n      tag_65\n      tag_66\n      jump\t// in\n    tag_65:\n      mload(0x40)\n      tag_67\n      swap2\n      swap1\n      tag_68\n      jump\t// in\n    tag_67:\n      mload(0x40)\n      dup1\n      swap2\n      sub\n      swap1\n      return\n        /* \"@openzeppelin/contracts/access/AccessControl.sol\":5304:5549  function renounceRole(bytes32 role, address callerConfirmation) public virtual {... */\n    tag_9:\n      callvalue\n      dup1\n      iszero\n      tag_69\n      jumpi\n      0x00\n      dup1\n      revert\n    tag_69:\n      pop\n      tag_70\n      0x04\n      dup1\n      calldatasize\n      sub\n      dup2\n      add\n      swap1\n      tag_71\n      swap2\n      swap1\n      tag_57\n      jump\t// in\n    tag_71:\n      tag_72\n      jump\t// in\n    tag_70:\n      stop\n        /* \"KipuBankV3.sol\":3332:3360  uint256 public withdrawCount */\n    tag_10:\n      callvalue\n      dup1\n      iszero\n      tag_73\n      jumpi\n      0x00\n      dup1\n      revert\n    tag_73:\n      pop\n      tag_74\n      tag_75\n      jump\t// in\n    tag_74:\n      mload(0x40)\n      tag_76\n      swap2\n      swap1\n      tag_49\n      jump\t// in\n    tag_76:\n      mload(0x40)\n      dup1\n      swap2\n      sub\n      swap1\n      return\n        /* \"KipuBankV3.sol\":9264:10204  function depositETH(uint256 amountOutMin)... */\n    tag_11:\n      tag_77\n      0x04\n      dup1\n      calldatasize\n      sub\n      dup2\n      add\n      swap1\n      tag_78\n      swap2\n      swap1\n      tag_79\n      jump\t// in\n    tag_78:\n      tag_80\n      jump\t// in\n    tag_77:\n      stop\n        /* \"KipuBankV3.sol\":10300:11709  function depositTokenAndSwap(address token, uint256 amount, uint256 amountOutMin)... */\n    tag_12:\n      callvalue\n      dup1\n      iszero\n      tag_81\n      jumpi\n      0x00\n      dup1\n      revert\n    tag_81:\n      pop\n      tag_82\n      0x04\n      dup1\n      calldatasize\n      sub\n      dup2\n      add\n      swap1\n      tag_83\n      swap2\n      swap1\n      tag_84\n      jump\t// in\n    tag_83:\n      tag_85\n      jump\t// in\n    tag_82:\n      stop\n        /* \"KipuBankV3.sol\":2961:2990  address public immutable USDC */\n    tag_13:\n      callvalue\n      dup1\n      iszero\n      tag_86\n      jumpi\n      0x00\n      dup1\n      revert\n    tag_86:\n      pop\n      tag_87\n      tag_88\n      jump\t// in\n    tag_87:\n      mload(0x40)\n      tag_89\n      swap2\n      swap1\n      tag_68\n      jump\t// in\n    tag_89:\n      mload(0x40)\n      dup1\n      swap2\n      sub\n      swap1\n      return\n        /* \"@openzeppelin/contracts/access/AccessControl.sol\":2830:2966  function hasRole(bytes32 role, address account) public view virtual returns (bool) {... */\n    tag_14:\n      callvalue\n      dup1\n      iszero\n      tag_90\n      jumpi\n      0x00\n      dup1\n      revert\n    tag_90:\n      pop\n      tag_91\n      0x04\n      dup1\n      calldatasize\n      sub\n      dup2\n      add\n      swap1\n      tag_92\n      swap2\n      swap1\n      tag_57\n      jump\t// in\n    tag_92:\n      tag_93\n      jump\t// in\n    tag_91:\n      mload(0x40)\n      tag_94\n      swap2\n      swap1\n      tag_37\n      jump\t// in\n    tag_94:\n      mload(0x40)\n      dup1\n      swap2\n      sub\n      swap1\n      return\n        /* \"KipuBankV3.sol\":6933:7797  function setTokenConfig(... */\n    tag_15:\n      callvalue\n      dup1\n      iszero\n      tag_95\n      jumpi\n      0x00\n      dup1\n      revert\n    tag_95:\n      pop\n      tag_96\n      0x04\n      dup1\n      calldatasize\n      sub\n      dup2\n      add\n      swap1\n      tag_97\n      swap2\n      swap1\n      tag_98\n      jump\t// in\n    tag_97:\n      tag_99\n      jump\t// in\n    tag_96:\n      stop\n        /* \"@openzeppelin/contracts/access/AccessControl.sol\":2196:2245  bytes32 public constant DEFAULT_ADMIN_ROLE = 0x00 */\n    tag_16:\n      callvalue\n      dup1\n      iszero\n      tag_100\n      jumpi\n      0x00\n      dup1\n      revert\n    tag_100:\n      pop\n      tag_101\n      tag_102\n      jump\t// in\n    tag_101:\n      mload(0x40)\n      tag_103\n      swap2\n      swap1\n      tag_44\n      jump\t// in\n    tag_103:\n      mload(0x40)\n      dup1\n      swap2\n      sub\n      swap1\n      return\n        /* \"KipuBankV3.sol\":2912:2955  IUniswapV2Factory  public immutable factory */\n    tag_17:\n      callvalue\n      dup1\n      iszero\n      tag_104\n      jumpi\n      0x00\n      dup1\n      revert\n    tag_104:\n      pop\n      tag_105\n      tag_106\n      jump\t// in\n    tag_105:\n      mload(0x40)\n      tag_107\n      swap2\n      swap1\n      tag_108\n      jump\t// in\n    tag_107:\n      mload(0x40)\n      dup1\n      swap2\n      sub\n      swap1\n      return\n        /* \"KipuBankV3.sol\":2300:2360  bytes32 public constant ROLE_ADMIN = keccak256(\"ROLE_ADMIN\") */\n    tag_18:\n      callvalue\n      dup1\n      iszero\n      tag_109\n      jumpi\n      0x00\n      dup1\n      revert\n    tag_109:\n      pop\n      tag_110\n      tag_111\n      jump\t// in\n    tag_110:\n      mload(0x40)\n      tag_112\n      swap2\n      swap1\n      tag_44\n      jump\t// in\n    tag_112:\n      mload(0x40)\n      dup1\n      swap2\n      sub\n      swap1\n      return\n        /* \"KipuBankV3.sol\":7984:8110  function getBalance(address token, address user) external view returns (uint256) {... */\n    tag_19:\n      callvalue\n      dup1\n      iszero\n      tag_113\n      jumpi\n      0x00\n      dup1\n      revert\n    tag_113:\n      pop\n      tag_114\n      0x04\n      dup1\n      calldatasize\n      sub\n      dup2\n      add\n      swap1\n      tag_115\n      swap2\n      swap1\n      tag_116\n      jump\t// in\n    tag_115:\n      tag_117\n      jump\t// in\n    tag_114:\n      mload(0x40)\n      tag_118\n      swap2\n      swap1\n      tag_49\n      jump\t// in\n    tag_118:\n      mload(0x40)\n      dup1\n      swap2\n      sub\n      swap1\n      return\n        /* \"@openzeppelin/contracts/access/AccessControl.sol\":4618:4756  function revokeRole(bytes32 role, address account) public virtual onlyRole(getRoleAdmin(role)) {... */\n    tag_20:\n      callvalue\n      dup1\n      iszero\n      tag_119\n      jumpi\n      0x00\n      dup1\n      revert\n    tag_119:\n      pop\n      tag_120\n      0x04\n      dup1\n      calldatasize\n      sub\n      dup2\n      add\n      swap1\n      tag_121\n      swap2\n      swap1\n      tag_57\n      jump\t// in\n    tag_121:\n      tag_122\n      jump\t// in\n    tag_120:\n      stop\n        /* \"KipuBankV3.sol\":11896:12529  function withdrawUSDC(uint256 amount)... */\n    tag_21:\n      callvalue\n      dup1\n      iszero\n      tag_123\n      jumpi\n      0x00\n      dup1\n      revert\n    tag_123:\n      pop\n      tag_124\n      0x04\n      dup1\n      calldatasize\n      sub\n      dup2\n      add\n      swap1\n      tag_125\n      swap2\n      swap1\n      tag_79\n      jump\t// in\n    tag_125:\n      tag_126\n      jump\t// in\n    tag_124:\n      stop\n        /* \"KipuBankV3.sol\":8167:8377  function getUsdBalance(address token, address user) external view returns (uint256) {... */\n    tag_22:\n      callvalue\n      dup1\n      iszero\n      tag_127\n      jumpi\n      0x00\n      dup1\n      revert\n    tag_127:\n      pop\n      tag_128\n      0x04\n      dup1\n      calldatasize\n      sub\n      dup2\n      add\n      swap1\n      tag_129\n      swap2\n      swap1\n      tag_116\n      jump\t// in\n    tag_129:\n      tag_130\n      jump\t// in\n    tag_128:\n      mload(0x40)\n      tag_131\n      swap2\n      swap1\n      tag_49\n      jump\t// in\n    tag_131:\n      mload(0x40)\n      dup1\n      swap2\n      sub\n      swap1\n      return\n        /* \"KipuBankV3.sol\":8610:9186  function depositUSDC(uint256 amount)... */\n    tag_23:\n      callvalue\n      dup1\n      iszero\n      tag_132\n      jumpi\n      0x00\n      dup1\n      revert\n    tag_132:\n      pop\n      tag_133\n      0x04\n      dup1\n      calldatasize\n      sub\n      dup2\n      add\n      swap1\n      tag_134\n      swap2\n      swap1\n      tag_79\n      jump\t// in\n    tag_134:\n      tag_135\n      jump\t// in\n    tag_133:\n      stop\n        /* \"KipuBankV3.sol\":2864:2906  IUniswapV2Router02 public immutable router */\n    tag_24:\n      callvalue\n      dup1\n      iszero\n      tag_136\n      jumpi\n      0x00\n      dup1\n      revert\n    tag_136:\n      pop\n      tag_137\n      tag_138\n      jump\t// in\n    tag_137:\n      mload(0x40)\n      tag_139\n      swap2\n      swap1\n      tag_140\n      jump\t// in\n    tag_139:\n      mload(0x40)\n      dup1\n      swap2\n      sub\n      swap1\n      return\n        /* \"KipuBankV3.sol\":2709:2745  uint256 public immutable bankCapUsd6 */\n    tag_25:\n      callvalue\n      dup1\n      iszero\n      tag_141\n      jumpi\n      0x00\n      dup1\n      revert\n    tag_141:\n      pop\n      tag_142\n      tag_143\n      jump\t// in\n    tag_142:\n      mload(0x40)\n      tag_144\n      swap2\n      swap1\n      tag_49\n      jump\t// in\n    tag_144:\n      mload(0x40)\n      dup1\n      swap2\n      sub\n      swap1\n      return\n        /* \"KipuBankV3.sol\":3224:3274  mapping(address => TokenConfig) public tokenConfig */\n    tag_26:\n      callvalue\n      dup1\n      iszero\n      tag_145\n      jumpi\n      0x00\n      dup1\n      revert\n    tag_145:\n      pop\n      tag_146\n      0x04\n      dup1\n      calldatasize\n      sub\n      dup2\n      add\n      swap1\n      tag_147\n      swap2\n      swap1\n      tag_148\n      jump\t// in\n    tag_147:\n      tag_149\n      jump\t// in\n    tag_146:\n      mload(0x40)\n      tag_150\n      swap6\n      swap5\n      swap4\n      swap3\n      swap2\n      swap1\n      tag_151\n      jump\t// in\n    tag_150:\n      mload(0x40)\n      dup1\n      swap2\n      sub\n      swap1\n      return\n        /* \"@openzeppelin/contracts/access/AccessControl.sol\":2541:2743  function supportsInterface(bytes4 interfaceId) public view virtual override returns (bool) {... */\n    tag_35:\n        /* \"@openzeppelin/contracts/access/AccessControl.sol\":2626:2630  bool */\n      0x00\n        /* \"@openzeppelin/contracts/access/AccessControl.sol\":2664:2696  type(IAccessControl).interfaceId */\n      0x7965db0b00000000000000000000000000000000000000000000000000000000\n        /* \"@openzeppelin/contracts/access/AccessControl.sol\":2649:2696  interfaceId == type(IAccessControl).interfaceId */\n      not(0xffffffffffffffffffffffffffffffffffffffffffffffffffffffff)\n      and\n        /* \"@openzeppelin/contracts/access/AccessControl.sol\":2649:2660  interfaceId */\n      dup3\n        /* \"@openzeppelin/contracts/access/AccessControl.sol\":2649:2696  interfaceId == type(IAccessControl).interfaceId */\n      not(0xffffffffffffffffffffffffffffffffffffffffffffffffffffffff)\n      and\n      eq\n        /* \"@openzeppelin/contracts/access/AccessControl.sol\":2649:2736  interfaceId == type(IAccessControl).interfaceId || super.supportsInterface(interfaceId) */\n      dup1\n      tag_153\n      jumpi\n      pop\n        /* \"@openzeppelin/contracts/access/AccessControl.sol\":2700:2736  super.supportsInterface(interfaceId) */\n      tag_154\n        /* \"@openzeppelin/contracts/access/AccessControl.sol\":2724:2735  interfaceId */\n      dup3\n        /* \"@openzeppelin/contracts/access/AccessControl.sol\":2700:2723  super.supportsInterface */\n      tag_155\n        /* \"@openzeppelin/contracts/access/AccessControl.sol\":2700:2736  super.supportsInterface(interfaceId) */\n      jump\t// in\n    tag_154:\n        /* \"@openzeppelin/contracts/access/AccessControl.sol\":2649:2736  interfaceId == type(IAccessControl).interfaceId || super.supportsInterface(interfaceId) */\n    tag_153:\n        /* \"@openzeppelin/contracts/access/AccessControl.sol\":2642:2736  return interfaceId == type(IAccessControl).interfaceId || super.supportsInterface(interfaceId) */\n      swap1\n      pop\n        /* \"@openzeppelin/contracts/access/AccessControl.sol\":2541:2743  function supportsInterface(bytes4 interfaceId) public view virtual override returns (bool) {... */\n      swap2\n      swap1\n      pop\n      jump\t// out\n        /* \"@openzeppelin/contracts/access/AccessControl.sol\":3786:3906  function getRoleAdmin(bytes32 role) public view virtual returns (bytes32) {... */\n    tag_42:\n        /* \"@openzeppelin/contracts/access/AccessControl.sol\":3851:3858  bytes32 */\n      0x00\n        /* \"@openzeppelin/contracts/access/AccessControl.sol\":3877:3883  _roles */\n      dup1\n        /* \"@openzeppelin/contracts/access/AccessControl.sol\":3877:3889  _roles[role] */\n      0x00\n        /* \"@openzeppelin/contracts/access/AccessControl.sol\":3884:3888  role */\n      dup4\n        /* \"@openzeppelin/contracts/access/AccessControl.sol\":3877:3889  _roles[role] */\n      dup2\n      mstore\n      0x20\n      add\n      swap1\n      dup2\n      mstore\n      0x20\n      add\n      0x00\n      keccak256\n        /* \"@openzeppelin/contracts/access/AccessControl.sol\":3877:3899  _roles[role].adminRole */\n      0x01\n      add\n      sload\n        /* \"@openzeppelin/contracts/access/AccessControl.sol\":3870:3899  return _roles[role].adminRole */\n      swap1\n      pop\n        /* \"@openzeppelin/contracts/access/AccessControl.sol\":3786:3906  function getRoleAdmin(bytes32 role) public view virtual returns (bytes32) {... */\n      swap2\n      swap1\n      pop\n      jump\t// out\n        /* \"KipuBankV3.sol\":2795:2828  uint256 public totalDepositedUsd6 */\n    tag_47:\n      sload(0x02)\n      dup2\n      jump\t// out\n        /* \"KipuBankV3.sol\":3299:3326  uint256 public depositCount */\n    tag_52:\n      sload(0x05)\n      dup2\n      jump\t// out\n        /* \"@openzeppelin/contracts/access/AccessControl.sol\":4202:4338  function grantRole(bytes32 role, address account) public virtual onlyRole(getRoleAdmin(role)) {... */\n    tag_58:\n        /* \"@openzeppelin/contracts/access/AccessControl.sol\":4276:4294  getRoleAdmin(role) */\n      tag_157\n        /* \"@openzeppelin/contracts/access/AccessControl.sol\":4289:4293  role */\n      dup3\n        /* \"@openzeppelin/contracts/access/AccessControl.sol\":4276:4288  getRoleAdmin */\n      tag_42\n        /* \"@openzeppelin/contracts/access/AccessControl.sol\":4276:4294  getRoleAdmin(role) */\n      jump\t// in\n    tag_157:\n        /* \"@openzeppelin/contracts/access/AccessControl.sol\":2473:2489  _checkRole(role) */\n      tag_159\n        /* \"@openzeppelin/contracts/access/AccessControl.sol\":2484:2488  role */\n      dup2\n        /* \"@openzeppelin/contracts/access/AccessControl.sol\":2473:2483  _checkRole */\n      tag_160\n        /* \"@openzeppelin/contracts/access/AccessControl.sol\":2473:2489  _checkRole(role) */\n      jump\t// in\n    tag_159:\n        /* \"@openzeppelin/contracts/access/AccessControl.sol\":4306:4331  _grantRole(role, account) */\n      tag_162\n        /* \"@openzeppelin/contracts/access/AccessControl.sol\":4317:4321  role */\n      dup4\n        /* \"@openzeppelin/contracts/access/AccessControl.sol\":4323:4330  account */\n      dup4\n        /* \"@openzeppelin/contracts/access/AccessControl.sol\":4306:4316  _grantRole */\n      tag_163\n        /* \"@openzeppelin/contracts/access/AccessControl.sol\":4306:4331  _grantRole(role, account) */\n      jump\t// in\n    tag_162:\n      pop\n        /* \"@openzeppelin/contracts/access/AccessControl.sol\":4202:4338  function grantRole(bytes32 role, address account) public virtual onlyRole(getRoleAdmin(role)) {... */\n      pop\n      pop\n      pop\n      jump\t// out\n        /* \"KipuBankV3.sol\":2421:2459  uint8 public constant USD_DECIMALS = 6 */\n    tag_61:\n        /* \"KipuBankV3.sol\":2458:2459  6 */\n      0x06\n        /* \"KipuBankV3.sol\":2421:2459  uint8 public constant USD_DECIMALS = 6 */\n      dup2\n      jump\t// out\n        /* \"KipuBankV3.sol\":2366:2415  address public constant NATIVE_TOKEN = address(0) */\n    tag_66:\n        /* \"KipuBankV3.sol\":2413:2414  0 */\n      0x00\n        /* \"KipuBankV3.sol\":2366:2415  address public constant NATIVE_TOKEN = address(0) */\n      dup2\n      jump\t// out\n        /* \"@openzeppelin/contracts/access/AccessControl.sol\":5304:5549  function renounceRole(bytes32 role, address callerConfirmation) public virtual {... */\n    tag_72:\n        /* \"@openzeppelin/contracts/access/AccessControl.sol\":5419:5431  _msgSender() */\n      tag_165\n        /* \"@openzeppelin/contracts/access/AccessControl.sol\":5419:5429  _msgSender */\n      tag_166\n        /* \"@openzeppelin/contracts/access/AccessControl.sol\":5419:5431  _msgSender() */\n      jump\t// in\n    tag_165:\n        /* \"@openzeppelin/contracts/access/AccessControl.sol\":5397:5431  callerConfirmation != _msgSender() */\n      0xffffffffffffffffffffffffffffffffffffffff\n      and\n        /* \"@openzeppelin/contracts/access/AccessControl.sol\":5397:5415  callerConfirmation */\n      dup2\n        /* \"@openzeppelin/contracts/access/AccessControl.sol\":5397:5431  callerConfirmation != _msgSender() */\n      0xffffffffffffffffffffffffffffffffffffffff\n      and\n      eq\n        /* \"@openzeppelin/contracts/access/AccessControl.sol\":5393:5495  if (callerConfirmation != _msgSender()) {... */\n      tag_167\n      jumpi\n        /* \"@openzeppelin/contracts/access/AccessControl.sol\":5454:5484  AccessControlBadConfirmation() */\n      mload(0x40)\n      0x6697b23200000000000000000000000000000000000000000000000000000000\n      dup2\n      mstore\n      0x04\n      add\n      mload(0x40)\n      dup1\n      swap2\n      sub\n      swap1\n      revert\n        /* \"@openzeppelin/contracts/access/AccessControl.sol\":5393:5495  if (callerConfirmation != _msgSender()) {... */\n    tag_167:\n        /* \"@openzeppelin/contracts/access/AccessControl.sol\":5505:5542  _revokeRole(role, callerConfirmation) */\n      tag_168\n        /* \"@openzeppelin/contracts/access/AccessControl.sol\":5517:5521  role */\n      dup3\n        /* \"@openzeppelin/contracts/access/AccessControl.sol\":5523:5541  callerConfirmation */\n      dup3\n        /* \"@openzeppelin/contracts/access/AccessControl.sol\":5505:5516  _revokeRole */\n      tag_169\n        /* \"@openzeppelin/contracts/access/AccessControl.sol\":5505:5542  _revokeRole(role, callerConfirmation) */\n      jump\t// in\n    tag_168:\n      pop\n        /* \"@openzeppelin/contracts/access/AccessControl.sol\":5304:5549  function renounceRole(bytes32 role, address callerConfirmation) public virtual {... */\n      pop\n      pop\n      jump\t// out\n        /* \"KipuBankV3.sol\":3332:3360  uint256 public withdrawCount */\n    tag_75:\n      sload(0x06)\n      dup2\n      jump\t// out\n        /* \"KipuBankV3.sol\":9264:10204  function depositETH(uint256 amountOutMin)... */\n    tag_80:\n        /* \"@openzeppelin/contracts/utils/ReentrancyGuard.sol\":2500:2521  _nonReentrantBefore() */\n      tag_171\n        /* \"@openzeppelin/contracts/utils/ReentrancyGuard.sol\":2500:2519  _nonReentrantBefore */\n      tag_172\n        /* \"@openzeppelin/contracts/utils/ReentrancyGuard.sol\":2500:2521  _nonReentrantBefore() */\n      jump\t// in\n    tag_171:\n        /* \"KipuBankV3.sol\":9391:9392  0 */\n      0x00\n        /* \"KipuBankV3.sol\":9378:9387  msg.value */\n      callvalue\n        /* \"KipuBankV3.sol\":9378:9392  msg.value == 0 */\n      sub\n        /* \"KipuBankV3.sol\":9374:9413  if (msg.value == 0) revert ZeroAmount() */\n      tag_174\n      jumpi\n        /* \"KipuBankV3.sol\":9401:9413  ZeroAmount() */\n      mload(0x40)\n      0x1f2a200500000000000000000000000000000000000000000000000000000000\n      dup2\n      mstore\n      0x04\n      add\n      mload(0x40)\n      dup1\n      swap2\n      sub\n      swap1\n      revert\n        /* \"KipuBankV3.sol\":9374:9413  if (msg.value == 0) revert ZeroAmount() */\n    tag_174:\n        /* \"KipuBankV3.sol\":9454:9475  address[] memory path */\n      0x00\n        /* \"KipuBankV3.sol\":9492:9493  2 */\n      0x02\n        /* \"KipuBankV3.sol\":9478:9494  new address[](2) */\n      0xffffffffffffffff\n      dup2\n      gt\n      iszero\n      tag_175\n      jumpi\n      tag_176\n      tag_177\n      jump\t// in\n    tag_176:\n    tag_175:\n      mload(0x40)\n      swap1\n      dup1\n      dup3\n      mstore\n      dup1\n      0x20\n      mul\n      0x20\n      add\n      dup3\n      add\n      0x40\n      mstore\n      dup1\n      iszero\n      tag_178\n      jumpi\n      dup2\n      0x20\n      add\n      0x20\n      dup3\n      mul\n      dup1\n      calldatasize\n      dup4\n      calldatacopy\n      dup1\n      dup3\n      add\n      swap2\n      pop\n      pop\n      swap1\n      pop\n    tag_178:\n      pop\n        /* \"KipuBankV3.sol\":9454:9494  address[] memory path = new address[](2) */\n      swap1\n      pop\n        /* \"KipuBankV3.sol\":9514:9520  router */\n      immutable(\"0x4257479addd544711115a099f37ca9612d00131553572b464c479b7443e8b262\")\n        /* \"KipuBankV3.sol\":9514:9525  router.WETH */\n      0xffffffffffffffffffffffffffffffffffffffff\n      and\n      0xad5c4648\n        /* \"KipuBankV3.sol\":9514:9527  router.WETH() */\n      mload(0x40)\n      dup2\n      0xffffffff\n      and\n      0xe0\n      shl\n      dup2\n      mstore\n      0x04\n      add\n      0x20\n      mload(0x40)\n      dup1\n      dup4\n      sub\n      dup2\n      dup7\n      gas\n      staticcall\n      iszero\n      dup1\n      iszero\n      tag_180\n      jumpi\n      returndatasize\n      0x00\n      dup1\n      returndatacopy\n      revert(0x00, returndatasize)\n    tag_180:\n      pop\n      pop\n      pop\n      pop\n      mload(0x40)\n      returndatasize\n      not(0x1f)\n      0x1f\n      dup3\n      add\n      and\n      dup3\n      add\n      dup1\n      0x40\n      mstore\n      pop\n      dup2\n      add\n      swap1\n      tag_181\n      swap2\n      swap1\n      tag_182\n      jump\t// in\n    tag_181:\n        /* \"KipuBankV3.sol\":9504:9508  path */\n      dup2\n        /* \"KipuBankV3.sol\":9509:9510  0 */\n      0x00\n        /* \"KipuBankV3.sol\":9504:9511  path[0] */\n      dup2\n      mload\n      dup2\n      lt\n      tag_183\n      jumpi\n      tag_184\n      tag_185\n      jump\t// in\n    tag_184:\n    tag_183:\n      0x20\n      mul\n      0x20\n      add\n      add\n        /* \"KipuBankV3.sol\":9504:9527  path[0] = router.WETH() */\n      swap1\n      0xffffffffffffffffffffffffffffffffffffffff\n      and\n      swap1\n      dup2\n      0xffffffffffffffffffffffffffffffffffffffff\n      and\n      dup2\n      mstore\n      pop\n      pop\n        /* \"KipuBankV3.sol\":9547:9551  USDC */\n      immutable(\"0xcbba90175f9c427d3c4d688dfb41cce78f2164c36de91a74e800660b40e1ab55\")\n        /* \"KipuBankV3.sol\":9537:9541  path */\n      dup2\n        /* \"KipuBankV3.sol\":9542:9543  1 */\n      0x01\n        /* \"KipuBankV3.sol\":9537:9544  path[1] */\n      dup2\n      mload\n      dup2\n      lt\n      tag_186\n      jumpi\n      tag_187\n      tag_185\n      jump\t// in\n    tag_187:\n    tag_186:\n      0x20\n      mul\n      0x20\n      add\n      add\n        /* \"KipuBankV3.sol\":9537:9551  path[1] = USDC */\n      swap1\n      0xffffffffffffffffffffffffffffffffffffffff\n      and\n      swap1\n      dup2\n      0xffffffffffffffffffffffffffffffffffffffff\n      and\n      dup2\n      mstore\n      pop\n      pop\n        /* \"KipuBankV3.sol\":9562:9579  uint256 beforeBal */\n      0x00\n        /* \"KipuBankV3.sol\":9589:9593  USDC */\n      immutable(\"0xcbba90175f9c427d3c4d688dfb41cce78f2164c36de91a74e800660b40e1ab55\")\n        /* \"KipuBankV3.sol\":9582:9604  IERC20(USDC).balanceOf */\n      0xffffffffffffffffffffffffffffffffffffffff\n      and\n      0x70a08231\n        /* \"KipuBankV3.sol\":9613:9617  this */\n      address\n        /* \"KipuBankV3.sol\":9582:9619  IERC20(USDC).balanceOf(address(this)) */\n      mload(0x40)\n      dup3\n      0xffffffff\n      and\n      0xe0\n      shl\n      dup2\n      mstore\n      0x04\n      add\n      tag_188\n      swap2\n      swap1\n      tag_68\n      jump\t// in\n    tag_188:\n      0x20\n      mload(0x40)\n      dup1\n      dup4\n      sub\n      dup2\n      dup7\n      gas\n      staticcall\n      iszero\n      dup1\n      iszero\n      tag_190\n      jumpi\n      returndatasize\n      0x00\n      dup1\n      returndatacopy\n      revert(0x00, returndatasize)\n    tag_190:\n      pop\n      pop\n      pop\n      pop\n      mload(0x40)\n      returndatasize\n      not(0x1f)\n      0x1f\n      dup3\n      add\n      and\n      dup3\n      add\n      dup1\n      0x40\n      mstore\n      pop\n      dup2\n      add\n      swap1\n      tag_191\n      swap2\n      swap1\n      tag_192\n      jump\t// in\n    tag_191:\n        /* \"KipuBankV3.sol\":9562:9619  uint256 beforeBal = IERC20(USDC).balanceOf(address(this)) */\n      swap1\n      pop\n        /* \"KipuBankV3.sol\":9629:9635  router */\n      immutable(\"0x4257479addd544711115a099f37ca9612d00131553572b464c479b7443e8b262\")\n        /* \"KipuBankV3.sol\":9629:9657  router.swapExactETHForTokens */\n      0xffffffffffffffffffffffffffffffffffffffff\n      and\n      0x7ff36ab5\n        /* \"KipuBankV3.sol\":9665:9674  msg.value */\n      callvalue\n        /* \"KipuBankV3.sol\":9676:9688  amountOutMin */\n      dup6\n        /* \"KipuBankV3.sol\":9690:9694  path */\n      dup6\n        /* \"KipuBankV3.sol\":9704:9708  this */\n      address\n        /* \"KipuBankV3.sol\":9711:9726  block.timestamp */\n      timestamp\n        /* \"KipuBankV3.sol\":9629:9727  router.swapExactETHForTokens{value: msg.value}(amountOutMin, path, address(this), block.timestamp) */\n      mload(0x40)\n      dup7\n      0xffffffff\n      and\n      0xe0\n      shl\n      dup2\n      mstore\n      0x04\n      add\n      tag_193\n      swap5\n      swap4\n      swap3\n      swap2\n      swap1\n      tag_194\n      jump\t// in\n    tag_193:\n      0x00\n      mload(0x40)\n      dup1\n      dup4\n      sub\n      dup2\n      dup6\n      dup9\n      gas\n      call\n      iszero\n      dup1\n      iszero\n      tag_196\n      jumpi\n      returndatasize\n      0x00\n      dup1\n      returndatacopy\n      revert(0x00, returndatasize)\n    tag_196:\n      pop\n      pop\n      pop\n      pop\n      pop\n      mload(0x40)\n      returndatasize\n      0x00\n      dup3\n      returndatacopy\n      returndatasize\n      not(0x1f)\n      0x1f\n      dup3\n      add\n      and\n      dup3\n      add\n      dup1\n      0x40\n      mstore\n      pop\n      dup2\n      add\n      swap1\n      tag_197\n      swap2\n      swap1\n      tag_198\n      jump\t// in\n    tag_197:\n      pop\n        /* \"KipuBankV3.sol\":9737:9753  uint256 afterBal */\n      0x00\n        /* \"KipuBankV3.sol\":9763:9767  USDC */\n      immutable(\"0xcbba90175f9c427d3c4d688dfb41cce78f2164c36de91a74e800660b40e1ab55\")\n        /* \"KipuBankV3.sol\":9756:9778  IERC20(USDC).balanceOf */\n      0xffffffffffffffffffffffffffffffffffffffff\n      and\n      0x70a08231\n        /* \"KipuBankV3.sol\":9787:9791  this */\n      address\n        /* \"KipuBankV3.sol\":9756:9793  IERC20(USDC).balanceOf(address(this)) */\n      mload(0x40)\n      dup3\n      0xffffffff\n      and\n      0xe0\n      shl\n      dup2\n      mstore\n      0x04\n      add\n      tag_199\n      swap2\n      swap1\n      tag_68\n      jump\t// in\n    tag_199:\n      0x20\n      mload(0x40)\n      dup1\n      dup4\n      sub\n      dup2\n      dup7\n      gas\n      staticcall\n      iszero\n      dup1\n      iszero\n      tag_201\n      jumpi\n      returndatasize\n      0x00\n      dup1\n      returndatacopy\n      revert(0x00, returndatasize)\n    tag_201:\n      pop\n      pop\n      pop\n      pop\n      mload(0x40)\n      returndatasize\n      not(0x1f)\n      0x1f\n      dup3\n      add\n      and\n      dup3\n      add\n      dup1\n      0x40\n      mstore\n      pop\n      dup2\n      add\n      swap1\n      tag_202\n      swap2\n      swap1\n      tag_192\n      jump\t// in\n    tag_202:\n        /* \"KipuBankV3.sol\":9737:9793  uint256 afterBal = IERC20(USDC).balanceOf(address(this)) */\n      swap1\n      pop\n        /* \"KipuBankV3.sol\":9803:9818  uint256 outUSDC */\n      0x00\n        /* \"KipuBankV3.sol\":9833:9842  beforeBal */\n      dup3\n        /* \"KipuBankV3.sol\":9822:9830  afterBal */\n      dup3\n        /* \"KipuBankV3.sol\":9822:9842  afterBal - beforeBal */\n      tag_203\n      swap2\n      swap1\n      tag_204\n      jump\t// in\n    tag_203:\n        /* \"KipuBankV3.sol\":9803:9842  uint256 outUSDC  = afterBal - beforeBal */\n      swap1\n      pop\n        /* \"KipuBankV3.sol\":9853:9870  uint256 attempted */\n      0x00\n        /* \"KipuBankV3.sol\":9894:9901  outUSDC */\n      dup2\n        /* \"KipuBankV3.sol\":9873:9891  totalDepositedUsd6 */\n      sload(0x02)\n        /* \"KipuBankV3.sol\":9873:9901  totalDepositedUsd6 + outUSDC */\n      tag_205\n      swap2\n      swap1\n      tag_206\n      jump\t// in\n    tag_205:\n        /* \"KipuBankV3.sol\":9853:9901  uint256 attempted = totalDepositedUsd6 + outUSDC */\n      swap1\n      pop\n        /* \"KipuBankV3.sol\":9927:9938  bankCapUsd6 */\n      immutable(\"0xb1914158f066b099b011ee6b10afe41800ff5ecc2ba6fe68f458d6506944d22e\")\n        /* \"KipuBankV3.sol\":9915:9924  attempted */\n      dup2\n        /* \"KipuBankV3.sol\":9915:9938  attempted > bankCapUsd6 */\n      gt\n        /* \"KipuBankV3.sol\":9911:9982  if (attempted > bankCapUsd6) revert CapExceeded(attempted, bankCapUsd6) */\n      iszero\n      tag_207\n      jumpi\n        /* \"KipuBankV3.sol\":9959:9968  attempted */\n      dup1\n        /* \"KipuBankV3.sol\":9970:9981  bankCapUsd6 */\n      immutable(\"0xb1914158f066b099b011ee6b10afe41800ff5ecc2ba6fe68f458d6506944d22e\")\n        /* \"KipuBankV3.sol\":9947:9982  CapExceeded(attempted, bankCapUsd6) */\n      mload(0x40)\n      0xf480e28500000000000000000000000000000000000000000000000000000000\n      dup2\n      mstore\n      0x04\n      add\n      tag_208\n      swap3\n      swap2\n      swap1\n      tag_209\n      jump\t// in\n    tag_208:\n      mload(0x40)\n      dup1\n      swap2\n      sub\n      swap1\n      revert\n        /* \"KipuBankV3.sol\":9911:9982  if (attempted > bankCapUsd6) revert CapExceeded(attempted, bankCapUsd6) */\n    tag_207:\n        /* \"KipuBankV3.sol\":10023:10030  outUSDC */\n      dup2\n        /* \"KipuBankV3.sol\":9993:10001  balances */\n      0x03\n        /* \"KipuBankV3.sol\":9993:10007  balances[USDC] */\n      0x00\n        /* \"KipuBankV3.sol\":10002:10006  USDC */\n      immutable(\"0xcbba90175f9c427d3c4d688dfb41cce78f2164c36de91a74e800660b40e1ab55\")\n        /* \"KipuBankV3.sol\":9993:10007  balances[USDC] */\n      0xffffffffffffffffffffffffffffffffffffffff\n      and\n      0xffffffffffffffffffffffffffffffffffffffff\n      and\n      dup2\n      mstore\n      0x20\n      add\n      swap1\n      dup2\n      mstore\n      0x20\n      add\n      0x00\n      keccak256\n        /* \"KipuBankV3.sol\":9993:10019  balances[USDC][msg.sender] */\n      0x00\n        /* \"KipuBankV3.sol\":10008:10018  msg.sender */\n      caller\n        /* \"KipuBankV3.sol\":9993:10019  balances[USDC][msg.sender] */\n      0xffffffffffffffffffffffffffffffffffffffff\n      and\n      0xffffffffffffffffffffffffffffffffffffffff\n      and\n      dup2\n      mstore\n      0x20\n      add\n      swap1\n      dup2\n      mstore\n      0x20\n      add\n      0x00\n      keccak256\n      0x00\n        /* \"KipuBankV3.sol\":9993:10030  balances[USDC][msg.sender] += outUSDC */\n      dup3\n      dup3\n      sload\n      tag_210\n      swap2\n      swap1\n      tag_206\n      jump\t// in\n    tag_210:\n      swap3\n      pop\n      pop\n      dup2\n      swap1\n      sstore\n      pop\n        /* \"KipuBankV3.sol\":10061:10070  attempted */\n      dup1\n        /* \"KipuBankV3.sol\":10040:10058  totalDepositedUsd6 */\n      0x02\n        /* \"KipuBankV3.sol\":10040:10070  totalDepositedUsd6 = attempted */\n      dup2\n      swap1\n      sstore\n      pop\n        /* \"KipuBankV3.sol\":10092:10104  depositCount */\n      0x05\n      0x00\n        /* \"KipuBankV3.sol\":10092:10106  depositCount++ */\n      dup2\n      sload\n      dup1\n      swap3\n      swap2\n      swap1\n      0x01\n      add\n      swap2\n      swap1\n      pop\n      sstore\n      pop\n        /* \"KipuBankV3.sol\":10138:10148  msg.sender */\n      caller\n        /* \"KipuBankV3.sol\":10124:10197  Deposit(USDC, msg.sender, msg.value, balances[USDC][msg.sender], outUSDC) */\n      0xffffffffffffffffffffffffffffffffffffffff\n      and\n        /* \"KipuBankV3.sol\":10132:10136  USDC */\n      immutable(\"0xcbba90175f9c427d3c4d688dfb41cce78f2164c36de91a74e800660b40e1ab55\")\n        /* \"KipuBankV3.sol\":10124:10197  Deposit(USDC, msg.sender, msg.value, balances[USDC][msg.sender], outUSDC) */\n      0xffffffffffffffffffffffffffffffffffffffff\n      and\n      0x4e2ca0515ed1aef1395f66b5303bb5d6f1bf9d61a353fa53f73f8ac9973fa9f6\n        /* \"KipuBankV3.sol\":10150:10159  msg.value */\n      callvalue\n        /* \"KipuBankV3.sol\":10161:10169  balances */\n      0x03\n        /* \"KipuBankV3.sol\":10161:10175  balances[USDC] */\n      0x00\n        /* \"KipuBankV3.sol\":10170:10174  USDC */\n      immutable(\"0xcbba90175f9c427d3c4d688dfb41cce78f2164c36de91a74e800660b40e1ab55\")\n        /* \"KipuBankV3.sol\":10161:10175  balances[USDC] */\n      0xffffffffffffffffffffffffffffffffffffffff\n      and\n      0xffffffffffffffffffffffffffffffffffffffff\n      and\n      dup2\n      mstore\n      0x20\n      add\n      swap1\n      dup2\n      mstore\n      0x20\n      add\n      0x00\n      keccak256\n        /* \"KipuBankV3.sol\":10161:10187  balances[USDC][msg.sender] */\n      0x00\n        /* \"KipuBankV3.sol\":10176:10186  msg.sender */\n      caller\n        /* \"KipuBankV3.sol\":10161:10187  balances[USDC][msg.sender] */\n      0xffffffffffffffffffffffffffffffffffffffff\n      and\n      0xffffffffffffffffffffffffffffffffffffffff\n      and\n      dup2\n      mstore\n      0x20\n      add\n      swap1\n      dup2\n      mstore\n      0x20\n      add\n      0x00\n      keccak256\n      sload\n        /* \"KipuBankV3.sol\":10189:10196  outUSDC */\n      dup7\n        /* \"KipuBankV3.sol\":10124:10197  Deposit(USDC, msg.sender, msg.value, balances[USDC][msg.sender], outUSDC) */\n      mload(0x40)\n      tag_211\n      swap4\n      swap3\n      swap2\n      swap1\n      tag_212\n      jump\t// in\n    tag_211:\n      mload(0x40)\n      dup1\n      swap2\n      sub\n      swap1\n      log3\n        /* \"KipuBankV3.sol\":9364:10204  {... */\n      pop\n      pop\n      pop\n      pop\n      pop\n        /* \"@openzeppelin/contracts/utils/ReentrancyGuard.sol\":2542:2562  _nonReentrantAfter() */\n      tag_213\n        /* \"@openzeppelin/contracts/utils/ReentrancyGuard.sol\":2542:2560  _nonReentrantAfter */\n      tag_214\n        /* \"@openzeppelin/contracts/utils/ReentrancyGuard.sol\":2542:2562  _nonReentrantAfter() */\n      jump\t// in\n    tag_213:\n        /* \"KipuBankV3.sol\":9264:10204  function depositETH(uint256 amountOutMin)... */\n      pop\n      jump\t// out\n        /* \"KipuBankV3.sol\":10300:11709  function depositTokenAndSwap(address token, uint256 amount, uint256 amountOutMin)... */\n    tag_85:\n        /* \"@openzeppelin/contracts/utils/ReentrancyGuard.sol\":2500:2521  _nonReentrantBefore() */\n      tag_216\n        /* \"@openzeppelin/contracts/utils/ReentrancyGuard.sol\":2500:2519  _nonReentrantBefore */\n      tag_172\n        /* \"@openzeppelin/contracts/utils/ReentrancyGuard.sol\":2500:2521  _nonReentrantBefore() */\n      jump\t// in\n    tag_216:\n        /* \"KipuBankV3.sol\":10436:10442  amount */\n      dup2\n        /* \"KipuBankV3.sol\":6536:6537  0 */\n      0x00\n        /* \"KipuBankV3.sol\":6526:6532  amount */\n      dup2\n        /* \"KipuBankV3.sol\":6526:6537  amount == 0 */\n      sub\n        /* \"KipuBankV3.sol\":6522:6558  if (amount == 0) revert ZeroAmount() */\n      tag_218\n      jumpi\n        /* \"KipuBankV3.sol\":6546:6558  ZeroAmount() */\n      mload(0x40)\n      0x1f2a200500000000000000000000000000000000000000000000000000000000\n      dup2\n      mstore\n      0x04\n      add\n      mload(0x40)\n      dup1\n      swap2\n      sub\n      swap1\n      revert\n        /* \"KipuBankV3.sol\":6522:6558  if (amount == 0) revert ZeroAmount() */\n    tag_218:\n        /* \"KipuBankV3.sol\":10479:10480  0 */\n      0x00\n        /* \"KipuBankV3.sol\":10462:10481  token == address(0) */\n      0xffffffffffffffffffffffffffffffffffffffff\n      and\n        /* \"KipuBankV3.sol\":10462:10467  token */\n      dup5\n        /* \"KipuBankV3.sol\":10462:10481  token == address(0) */\n      0xffffffffffffffffffffffffffffffffffffffff\n      and\n      sub\n        /* \"KipuBankV3.sol\":10458:10513  if (token == address(0)) revert UnsupportedToken(token) */\n      tag_220\n      jumpi\n        /* \"KipuBankV3.sol\":10507:10512  token */\n      dup4\n        /* \"KipuBankV3.sol\":10490:10513  UnsupportedToken(token) */\n      mload(0x40)\n      0xbf16aab600000000000000000000000000000000000000000000000000000000\n      dup2\n      mstore\n      0x04\n      add\n      tag_221\n      swap2\n      swap1\n      tag_68\n      jump\t// in\n    tag_221:\n      mload(0x40)\n      dup1\n      swap2\n      sub\n      swap1\n      revert\n        /* \"KipuBankV3.sol\":10458:10513  if (token == address(0)) revert UnsupportedToken(token) */\n    tag_220:\n        /* \"KipuBankV3.sol\":10536:10540  USDC */\n      immutable(\"0xcbba90175f9c427d3c4d688dfb41cce78f2164c36de91a74e800660b40e1ab55\")\n        /* \"KipuBankV3.sol\":10527:10540  token == USDC */\n      0xffffffffffffffffffffffffffffffffffffffff\n      and\n        /* \"KipuBankV3.sol\":10527:10532  token */\n      dup5\n        /* \"KipuBankV3.sol\":10527:10540  token == USDC */\n      0xffffffffffffffffffffffffffffffffffffffff\n      and\n      sub\n        /* \"KipuBankV3.sol\":10523:10572  if (token == USDC) revert UnsupportedToken(token) */\n      tag_222\n      jumpi\n        /* \"KipuBankV3.sol\":10566:10571  token */\n      dup4\n        /* \"KipuBankV3.sol\":10549:10572  UnsupportedToken(token) */\n      mload(0x40)\n      0xbf16aab600000000000000000000000000000000000000000000000000000000\n      dup2\n      mstore\n      0x04\n      add\n      tag_223\n      swap2\n      swap1\n      tag_68\n      jump\t// in\n    tag_223:\n      mload(0x40)\n      dup1\n      swap2\n      sub\n      swap1\n      revert\n        /* \"KipuBankV3.sol\":10523:10572  if (token == USDC) revert UnsupportedToken(token) */\n    tag_222:\n        /* \"KipuBankV3.sol\":10650:10662  address pair */\n      0x00\n        /* \"KipuBankV3.sol\":10665:10672  factory */\n      immutable(\"0x38fb4f81377293344a991c247097a0787a704bab978f5dd2d647b3d08b92e996\")\n        /* \"KipuBankV3.sol\":10665:10680  factory.getPair */\n      0xffffffffffffffffffffffffffffffffffffffff\n      and\n      0xe6a43905\n        /* \"KipuBankV3.sol\":10681:10686  token */\n      dup7\n        /* \"KipuBankV3.sol\":10688:10692  USDC */\n      immutable(\"0xcbba90175f9c427d3c4d688dfb41cce78f2164c36de91a74e800660b40e1ab55\")\n        /* \"KipuBankV3.sol\":10665:10693  factory.getPair(token, USDC) */\n      mload(0x40)\n      dup4\n      0xffffffff\n      and\n      0xe0\n      shl\n      dup2\n      mstore\n      0x04\n      add\n      tag_224\n      swap3\n      swap2\n      swap1\n      tag_225\n      jump\t// in\n    tag_224:\n      0x20\n      mload(0x40)\n      dup1\n      dup4\n      sub\n      dup2\n      dup7\n      gas\n      staticcall\n      iszero\n      dup1\n      iszero\n      tag_227\n      jumpi\n      returndatasize\n      0x00\n      dup1\n      returndatacopy\n      revert(0x00, returndatasize)\n    tag_227:\n      pop\n      pop\n      pop\n      pop\n      mload(0x40)\n      returndatasize\n      not(0x1f)\n      0x1f\n      dup3\n      add\n      and\n      dup3\n      add\n      dup1\n      0x40\n      mstore\n      pop\n      dup2\n      add\n      swap1\n      tag_228\n      swap2\n      swap1\n      tag_182\n      jump\t// in\n    tag_228:\n        /* \"KipuBankV3.sol\":10650:10693  address pair = factory.getPair(token, USDC) */\n      swap1\n      pop\n        /* \"KipuBankV3.sol\":10723:10724  0 */\n      0x00\n        /* \"KipuBankV3.sol\":10707:10725  pair == address(0) */\n      0xffffffffffffffffffffffffffffffffffffffff\n      and\n        /* \"KipuBankV3.sol\":10707:10711  pair */\n      dup2\n        /* \"KipuBankV3.sol\":10707:10725  pair == address(0) */\n      0xffffffffffffffffffffffffffffffffffffffff\n      and\n      sub\n        /* \"KipuBankV3.sol\":10703:10763  if (pair == address(0)) revert PairDoesNotExist(token, USDC) */\n      tag_229\n      jumpi\n        /* \"KipuBankV3.sol\":10751:10756  token */\n      dup5\n        /* \"KipuBankV3.sol\":10758:10762  USDC */\n      immutable(\"0xcbba90175f9c427d3c4d688dfb41cce78f2164c36de91a74e800660b40e1ab55\")\n        /* \"KipuBankV3.sol\":10734:10763  PairDoesNotExist(token, USDC) */\n      mload(0x40)\n      0x6de2b62500000000000000000000000000000000000000000000000000000000\n      dup2\n      mstore\n      0x04\n      add\n      tag_230\n      swap3\n      swap2\n      swap1\n      tag_225\n      jump\t// in\n    tag_230:\n      mload(0x40)\n      dup1\n      swap2\n      sub\n      swap1\n      revert\n        /* \"KipuBankV3.sol\":10703:10763  if (pair == address(0)) revert PairDoesNotExist(token, USDC) */\n    tag_229:\n        /* \"KipuBankV3.sol\":10800:10865  IERC20(token).safeTransferFrom(msg.sender, address(this), amount) */\n      tag_231\n        /* \"KipuBankV3.sol\":10831:10841  msg.sender */\n      caller\n        /* \"KipuBankV3.sol\":10851:10855  this */\n      address\n        /* \"KipuBankV3.sol\":10858:10864  amount */\n      dup7\n        /* \"KipuBankV3.sol\":10807:10812  token */\n      dup9\n        /* \"KipuBankV3.sol\":10800:10830  IERC20(token).safeTransferFrom */\n      0xffffffffffffffffffffffffffffffffffffffff\n      and\n      tag_232\n      swap1\n        /* \"KipuBankV3.sol\":10800:10865  IERC20(token).safeTransferFrom(msg.sender, address(this), amount) */\n      swap4\n      swap3\n      swap2\n      swap1\n      0xffffffff\n      and\n      jump\t// in\n    tag_231:\n        /* \"KipuBankV3.sol\":10875:10935  IERC20(token).safeIncreaseAllowance(address(router), amount) */\n      tag_233\n        /* \"KipuBankV3.sol\":10919:10925  router */\n      immutable(\"0x4257479addd544711115a099f37ca9612d00131553572b464c479b7443e8b262\")\n        /* \"KipuBankV3.sol\":10928:10934  amount */\n      dup6\n        /* \"KipuBankV3.sol\":10882:10887  token */\n      dup8\n        /* \"KipuBankV3.sol\":10875:10910  IERC20(token).safeIncreaseAllowance */\n      0xffffffffffffffffffffffffffffffffffffffff\n      and\n      tag_234\n      swap1\n        /* \"KipuBankV3.sol\":10875:10935  IERC20(token).safeIncreaseAllowance(address(router), amount) */\n      swap3\n      swap2\n      swap1\n      0xffffffff\n      and\n      jump\t// in\n    tag_233:\n        /* \"KipuBankV3.sol\":10977:10998  address[] memory path */\n      0x00\n        /* \"KipuBankV3.sol\":11015:11016  2 */\n      0x02\n        /* \"KipuBankV3.sol\":11001:11017  new address[](2) */\n      0xffffffffffffffff\n      dup2\n      gt\n      iszero\n      tag_235\n      jumpi\n      tag_236\n      tag_177\n      jump\t// in\n    tag_236:\n    tag_235:\n      mload(0x40)\n      swap1\n      dup1\n      dup3\n      mstore\n      dup1\n      0x20\n      mul\n      0x20\n      add\n      dup3\n      add\n      0x40\n      mstore\n      dup1\n      iszero\n      tag_237\n      jumpi\n      dup2\n      0x20\n      add\n      0x20\n      dup3\n      mul\n      dup1\n      calldatasize\n      dup4\n      calldatacopy\n      dup1\n      dup3\n      add\n      swap2\n      pop\n      pop\n      swap1\n      pop\n    tag_237:\n      pop\n        /* \"KipuBankV3.sol\":10977:11017  address[] memory path = new address[](2) */\n      swap1\n      pop\n        /* \"KipuBankV3.sol\":11037:11042  token */\n      dup6\n        /* \"KipuBankV3.sol\":11027:11031  path */\n      dup2\n        /* \"KipuBankV3.sol\":11032:11033  0 */\n      0x00\n        /* \"KipuBankV3.sol\":11027:11034  path[0] */\n      dup2\n      mload\n      dup2\n      lt\n      tag_238\n      jumpi\n      tag_239\n      tag_185\n      jump\t// in\n    tag_239:\n    tag_238:\n      0x20\n      mul\n      0x20\n      add\n      add\n        /* \"KipuBankV3.sol\":11027:11042  path[0] = token */\n      swap1\n      0xffffffffffffffffffffffffffffffffffffffff\n      and\n      swap1\n      dup2\n      0xffffffffffffffffffffffffffffffffffffffff\n      and\n      dup2\n      mstore\n      pop\n      pop\n        /* \"KipuBankV3.sol\":11062:11066  USDC */\n      immutable(\"0xcbba90175f9c427d3c4d688dfb41cce78f2164c36de91a74e800660b40e1ab55\")\n        /* \"KipuBankV3.sol\":11052:11056  path */\n      dup2\n        /* \"KipuBankV3.sol\":11057:11058  1 */\n      0x01\n        /* \"KipuBankV3.sol\":11052:11059  path[1] */\n      dup2\n      mload\n      dup2\n      lt\n      tag_240\n      jumpi\n      tag_241\n      tag_185\n      jump\t// in\n    tag_241:\n    tag_240:\n      0x20\n      mul\n      0x20\n      add\n      add\n        /* \"KipuBankV3.sol\":11052:11066  path[1] = USDC */\n      swap1\n      0xffffffffffffffffffffffffffffffffffffffff\n      and\n      swap1\n      dup2\n      0xffffffffffffffffffffffffffffffffffffffff\n      and\n      dup2\n      mstore\n      pop\n      pop\n        /* \"KipuBankV3.sol\":11077:11094  uint256 beforeBal */\n      0x00\n        /* \"KipuBankV3.sol\":11104:11108  USDC */\n      immutable(\"0xcbba90175f9c427d3c4d688dfb41cce78f2164c36de91a74e800660b40e1ab55\")\n        /* \"KipuBankV3.sol\":11097:11119  IERC20(USDC).balanceOf */\n      0xffffffffffffffffffffffffffffffffffffffff\n      and\n      0x70a08231\n        /* \"KipuBankV3.sol\":11128:11132  this */\n      address\n        /* \"KipuBankV3.sol\":11097:11134  IERC20(USDC).balanceOf(address(this)) */\n      mload(0x40)\n      dup3\n      0xffffffff\n      and\n      0xe0\n      shl\n      dup2\n      mstore\n      0x04\n      add\n      tag_242\n      swap2\n      swap1\n      tag_68\n      jump\t// in\n    tag_242:\n      0x20\n      mload(0x40)\n      dup1\n      dup4\n      sub\n      dup2\n      dup7\n      gas\n      staticcall\n      iszero\n      dup1\n      iszero\n      tag_244\n      jumpi\n      returndatasize\n      0x00\n      dup1\n      returndatacopy\n      revert(0x00, returndatasize)\n    tag_244:\n      pop\n      pop\n      pop\n      pop\n      mload(0x40)\n      returndatasize\n      not(0x1f)\n      0x1f\n      dup3\n      add\n      and\n      dup3\n      add\n      dup1\n      0x40\n      mstore\n      pop\n      dup2\n      add\n      swap1\n      tag_245\n      swap2\n      swap1\n      tag_192\n      jump\t// in\n    tag_245:\n        /* \"KipuBankV3.sol\":11077:11134  uint256 beforeBal = IERC20(USDC).balanceOf(address(this)) */\n      swap1\n      pop\n        /* \"KipuBankV3.sol\":11144:11150  router */\n      immutable(\"0x4257479addd544711115a099f37ca9612d00131553572b464c479b7443e8b262\")\n        /* \"KipuBankV3.sol\":11144:11175  router.swapExactTokensForTokens */\n      0xffffffffffffffffffffffffffffffffffffffff\n      and\n      0x38ed1739\n        /* \"KipuBankV3.sol\":11176:11182  amount */\n      dup8\n        /* \"KipuBankV3.sol\":11184:11196  amountOutMin */\n      dup8\n        /* \"KipuBankV3.sol\":11198:11202  path */\n      dup6\n        /* \"KipuBankV3.sol\":11212:11216  this */\n      address\n        /* \"KipuBankV3.sol\":11219:11234  block.timestamp */\n      timestamp\n        /* \"KipuBankV3.sol\":11144:11235  router.swapExactTokensForTokens(amount, amountOutMin, path, address(this), block.timestamp) */\n      mload(0x40)\n      dup7\n      0xffffffff\n      and\n      0xe0\n      shl\n      dup2\n      mstore\n      0x04\n      add\n      tag_246\n      swap6\n      swap5\n      swap4\n      swap3\n      swap2\n      swap1\n      tag_247\n      jump\t// in\n    tag_246:\n      0x00\n      mload(0x40)\n      dup1\n      dup4\n      sub\n      dup2\n      0x00\n      dup8\n      gas\n      call\n      iszero\n      dup1\n      iszero\n      tag_249\n      jumpi\n      returndatasize\n      0x00\n      dup1\n      returndatacopy\n      revert(0x00, returndatasize)\n    tag_249:\n      pop\n      pop\n      pop\n      pop\n      mload(0x40)\n      returndatasize\n      0x00\n      dup3\n      returndatacopy\n      returndatasize\n      not(0x1f)\n      0x1f\n      dup3\n      add\n      and\n      dup3\n      add\n      dup1\n      0x40\n      mstore\n      pop\n      dup2\n      add\n      swap1\n      tag_250\n      swap2\n      swap1\n      tag_198\n      jump\t// in\n    tag_250:\n      pop\n        /* \"KipuBankV3.sol\":11245:11261  uint256 afterBal */\n      0x00\n        /* \"KipuBankV3.sol\":11271:11275  USDC */\n      immutable(\"0xcbba90175f9c427d3c4d688dfb41cce78f2164c36de91a74e800660b40e1ab55\")\n        /* \"KipuBankV3.sol\":11264:11286  IERC20(USDC).balanceOf */\n      0xffffffffffffffffffffffffffffffffffffffff\n      and\n      0x70a08231\n        /* \"KipuBankV3.sol\":11295:11299  this */\n      address\n        /* \"KipuBankV3.sol\":11264:11301  IERC20(USDC).balanceOf(address(this)) */\n      mload(0x40)\n      dup3\n      0xffffffff\n      and\n      0xe0\n      shl\n      dup2\n      mstore\n      0x04\n      add\n      tag_251\n      swap2\n      swap1\n      tag_68\n      jump\t// in\n    tag_251:\n      0x20\n      mload(0x40)\n      dup1\n      dup4\n      sub\n      dup2\n      dup7\n      gas\n      staticcall\n      iszero\n      dup1\n      iszero\n      tag_253\n      jumpi\n      returndatasize\n      0x00\n      dup1\n      returndatacopy\n      revert(0x00, returndatasize)\n    tag_253:\n      pop\n      pop\n      pop\n      pop\n      mload(0x40)\n      returndatasize\n      not(0x1f)\n      0x1f\n      dup3\n      add\n      and\n      dup3\n      add\n      dup1\n      0x40\n      mstore\n      pop\n      dup2\n      add\n      swap1\n      tag_254\n      swap2\n      swap1\n      tag_192\n      jump\t// in\n    tag_254:\n        /* \"KipuBankV3.sol\":11245:11301  uint256 afterBal = IERC20(USDC).balanceOf(address(this)) */\n      swap1\n      pop\n        /* \"KipuBankV3.sol\":11311:11326  uint256 outUSDC */\n      0x00\n        /* \"KipuBankV3.sol\":11341:11350  beforeBal */\n      dup3\n        /* \"KipuBankV3.sol\":11330:11338  afterBal */\n      dup3\n        /* \"KipuBankV3.sol\":11330:11350  afterBal - beforeBal */\n      tag_255\n      swap2\n      swap1\n      tag_204\n      jump\t// in\n    tag_255:\n        /* \"KipuBankV3.sol\":11311:11350  uint256 outUSDC  = afterBal - beforeBal */\n      swap1\n      pop\n        /* \"KipuBankV3.sol\":11361:11378  uint256 attempted */\n      0x00\n        /* \"KipuBankV3.sol\":11402:11409  outUSDC */\n      dup2\n        /* \"KipuBankV3.sol\":11381:11399  totalDepositedUsd6 */\n      sload(0x02)\n        /* \"KipuBankV3.sol\":11381:11409  totalDepositedUsd6 + outUSDC */\n      tag_256\n      swap2\n      swap1\n      tag_206\n      jump\t// in\n    tag_256:\n        /* \"KipuBankV3.sol\":11361:11409  uint256 attempted = totalDepositedUsd6 + outUSDC */\n      swap1\n      pop\n        /* \"KipuBankV3.sol\":11435:11446  bankCapUsd6 */\n      immutable(\"0xb1914158f066b099b011ee6b10afe41800ff5ecc2ba6fe68f458d6506944d22e\")\n        /* \"KipuBankV3.sol\":11423:11432  attempted */\n      dup2\n        /* \"KipuBankV3.sol\":11423:11446  attempted > bankCapUsd6 */\n      gt\n        /* \"KipuBankV3.sol\":11419:11490  if (attempted > bankCapUsd6) revert CapExceeded(attempted, bankCapUsd6) */\n      iszero\n      tag_257\n      jumpi\n        /* \"KipuBankV3.sol\":11467:11476  attempted */\n      dup1\n        /* \"KipuBankV3.sol\":11478:11489  bankCapUsd6 */\n      immutable(\"0xb1914158f066b099b011ee6b10afe41800ff5ecc2ba6fe68f458d6506944d22e\")\n        /* \"KipuBankV3.sol\":11455:11490  CapExceeded(attempted, bankCapUsd6) */\n      mload(0x40)\n      0xf480e28500000000000000000000000000000000000000000000000000000000\n      dup2\n      mstore\n      0x04\n      add\n      tag_258\n      swap3\n      swap2\n      swap1\n      tag_209\n      jump\t// in\n    tag_258:\n      mload(0x40)\n      dup1\n      swap2\n      sub\n      swap1\n      revert\n        /* \"KipuBankV3.sol\":11419:11490  if (attempted > bankCapUsd6) revert CapExceeded(attempted, bankCapUsd6) */\n    tag_257:\n        /* \"KipuBankV3.sol\":11531:11538  outUSDC */\n      dup2\n        /* \"KipuBankV3.sol\":11501:11509  balances */\n      0x03\n        /* \"KipuBankV3.sol\":11501:11515  balances[USDC] */\n      0x00\n        /* \"KipuBankV3.sol\":11510:11514  USDC */\n      immutable(\"0xcbba90175f9c427d3c4d688dfb41cce78f2164c36de91a74e800660b40e1ab55\")\n        /* \"KipuBankV3.sol\":11501:11515  balances[USDC] */\n      0xffffffffffffffffffffffffffffffffffffffff\n      and\n      0xffffffffffffffffffffffffffffffffffffffff\n      and\n      dup2\n      mstore\n      0x20\n      add\n      swap1\n      dup2\n      mstore\n      0x20\n      add\n      0x00\n      keccak256\n        /* \"KipuBankV3.sol\":11501:11527  balances[USDC][msg.sender] */\n      0x00\n        /* \"KipuBankV3.sol\":11516:11526  msg.sender */\n      caller\n        /* \"KipuBankV3.sol\":11501:11527  balances[USDC][msg.sender] */\n      0xffffffffffffffffffffffffffffffffffffffff\n      and\n      0xffffffffffffffffffffffffffffffffffffffff\n      and\n      dup2\n      mstore\n      0x20\n      add\n      swap1\n      dup2\n      mstore\n      0x20\n      add\n      0x00\n      keccak256\n      0x00\n        /* \"KipuBankV3.sol\":11501:11538  balances[USDC][msg.sender] += outUSDC */\n      dup3\n      dup3\n      sload\n      tag_259\n      swap2\n      swap1\n      tag_206\n      jump\t// in\n    tag_259:\n      swap3\n      pop\n      pop\n      dup2\n      swap1\n      sstore\n      pop\n        /* \"KipuBankV3.sol\":11569:11578  attempted */\n      dup1\n        /* \"KipuBankV3.sol\":11548:11566  totalDepositedUsd6 */\n      0x02\n        /* \"KipuBankV3.sol\":11548:11578  totalDepositedUsd6 = attempted */\n      dup2\n      swap1\n      sstore\n      pop\n        /* \"KipuBankV3.sol\":11600:11612  depositCount */\n      0x05\n      0x00\n        /* \"KipuBankV3.sol\":11600:11614  depositCount++ */\n      dup2\n      sload\n      dup1\n      swap3\n      swap2\n      swap1\n      0x01\n      add\n      swap2\n      swap1\n      pop\n      sstore\n      pop\n        /* \"KipuBankV3.sol\":11646:11656  msg.sender */\n      caller\n        /* \"KipuBankV3.sol\":11632:11702  Deposit(USDC, msg.sender, amount, balances[USDC][msg.sender], outUSDC) */\n      0xffffffffffffffffffffffffffffffffffffffff\n      and\n        /* \"KipuBankV3.sol\":11640:11644  USDC */\n      immutable(\"0xcbba90175f9c427d3c4d688dfb41cce78f2164c36de91a74e800660b40e1ab55\")\n        /* \"KipuBankV3.sol\":11632:11702  Deposit(USDC, msg.sender, amount, balances[USDC][msg.sender], outUSDC) */\n      0xffffffffffffffffffffffffffffffffffffffff\n      and\n      0x4e2ca0515ed1aef1395f66b5303bb5d6f1bf9d61a353fa53f73f8ac9973fa9f6\n        /* \"KipuBankV3.sol\":11658:11664  amount */\n      dup12\n        /* \"KipuBankV3.sol\":11666:11674  balances */\n      0x03\n        /* \"KipuBankV3.sol\":11666:11680  balances[USDC] */\n      0x00\n        /* \"KipuBankV3.sol\":11675:11679  USDC */\n      immutable(\"0xcbba90175f9c427d3c4d688dfb41cce78f2164c36de91a74e800660b40e1ab55\")\n        /* \"KipuBankV3.sol\":11666:11680  balances[USDC] */\n      0xffffffffffffffffffffffffffffffffffffffff\n      and\n      0xffffffffffffffffffffffffffffffffffffffff\n      and\n      dup2\n      mstore\n      0x20\n      add\n      swap1\n      dup2\n      mstore\n      0x20\n      add\n      0x00\n      keccak256\n        /* \"KipuBankV3.sol\":11666:11692  balances[USDC][msg.sender] */\n      0x00\n        /* \"KipuBankV3.sol\":11681:11691  msg.sender */\n      caller\n        /* \"KipuBankV3.sol\":11666:11692  balances[USDC][msg.sender] */\n      0xffffffffffffffffffffffffffffffffffffffff\n      and\n      0xffffffffffffffffffffffffffffffffffffffff\n      and\n      dup2\n      mstore\n      0x20\n      add\n      swap1\n      dup2\n      mstore\n      0x20\n      add\n      0x00\n      keccak256\n      sload\n        /* \"KipuBankV3.sol\":11694:11701  outUSDC */\n      dup7\n        /* \"KipuBankV3.sol\":11632:11702  Deposit(USDC, msg.sender, amount, balances[USDC][msg.sender], outUSDC) */\n      mload(0x40)\n      tag_260\n      swap4\n      swap3\n      swap2\n      swap1\n      tag_212\n      jump\t// in\n    tag_260:\n      mload(0x40)\n      dup1\n      swap2\n      sub\n      swap1\n      log3\n        /* \"KipuBankV3.sol\":10448:11709  {... */\n      pop\n      pop\n      pop\n      pop\n      pop\n      pop\n        /* \"@openzeppelin/contracts/utils/ReentrancyGuard.sol\":2531:2532  _ */\n      pop\n        /* \"@openzeppelin/contracts/utils/ReentrancyGuard.sol\":2542:2562  _nonReentrantAfter() */\n      tag_261\n        /* \"@openzeppelin/contracts/utils/ReentrancyGuard.sol\":2542:2560  _nonReentrantAfter */\n      tag_214\n        /* \"@openzeppelin/contracts/utils/ReentrancyGuard.sol\":2542:2562  _nonReentrantAfter() */\n      jump\t// in\n    tag_261:\n        /* \"KipuBankV3.sol\":10300:11709  function depositTokenAndSwap(address token, uint256 amount, uint256 amountOutMin)... */\n      pop\n      pop\n      pop\n      jump\t// out\n        /* \"KipuBankV3.sol\":2961:2990  address public immutable USDC */\n    tag_88:\n      immutable(\"0xcbba90175f9c427d3c4d688dfb41cce78f2164c36de91a74e800660b40e1ab55\")\n      dup2\n      jump\t// out\n        /* \"@openzeppelin/contracts/access/AccessControl.sol\":2830:2966  function hasRole(bytes32 role, address account) public view virtual returns (bool) {... */\n    tag_93:\n        /* \"@openzeppelin/contracts/access/AccessControl.sol\":2907:2911  bool */\n      0x00\n        /* \"@openzeppelin/contracts/access/AccessControl.sol\":2930:2936  _roles */\n      dup1\n        /* \"@openzeppelin/contracts/access/AccessControl.sol\":2930:2942  _roles[role] */\n      0x00\n        /* \"@openzeppelin/contracts/access/AccessControl.sol\":2937:2941  role */\n      dup5\n        /* \"@openzeppelin/contracts/access/AccessControl.sol\":2930:2942  _roles[role] */\n      dup2\n      mstore\n      0x20\n      add\n      swap1\n      dup2\n      mstore\n      0x20\n      add\n      0x00\n      keccak256\n        /* \"@openzeppelin/contracts/access/AccessControl.sol\":2930:2950  _roles[role].hasRole */\n      0x00\n      add\n        /* \"@openzeppelin/contracts/access/AccessControl.sol\":2930:2959  _roles[role].hasRole[account] */\n      0x00\n        /* \"@openzeppelin/contracts/access/AccessControl.sol\":2951:2958  account */\n      dup4\n        /* \"@openzeppelin/contracts/access/AccessControl.sol\":2930:2959  _roles[role].hasRole[account] */\n      0xffffffffffffffffffffffffffffffffffffffff\n      and\n      0xffffffffffffffffffffffffffffffffffffffff\n      and\n      dup2\n      mstore\n      0x20\n      add\n      swap1\n      dup2\n      mstore\n      0x20\n      add\n      0x00\n      keccak256\n      0x00\n      swap1\n      sload\n      swap1\n      0x0100\n      exp\n      swap1\n      div\n      0xff\n      and\n        /* \"@openzeppelin/contracts/access/AccessControl.sol\":2923:2959  return _roles[role].hasRole[account] */\n      swap1\n      pop\n        /* \"@openzeppelin/contracts/access/AccessControl.sol\":2830:2966  function hasRole(bytes32 role, address account) public view virtual returns (bool) {... */\n      swap3\n      swap2\n      pop\n      pop\n      jump\t// out\n        /* \"KipuBankV3.sol\":6933:7797  function setTokenConfig(... */\n    tag_99:\n        /* \"KipuBankV3.sol\":2337:2360  keccak256(\"ROLE_ADMIN\") */\n      0x2172861495e7b85edac73e3cd5fbb42dd675baadf627720e687bcfdaca025096\n        /* \"@openzeppelin/contracts/access/AccessControl.sol\":2473:2489  _checkRole(role) */\n      tag_264\n        /* \"@openzeppelin/contracts/access/AccessControl.sol\":2484:2488  role */\n      dup2\n        /* \"@openzeppelin/contracts/access/AccessControl.sol\":2473:2483  _checkRole */\n      tag_160\n        /* \"@openzeppelin/contracts/access/AccessControl.sol\":2473:2489  _checkRole(role) */\n      jump\t// in\n    tag_264:\n        /* \"KipuBankV3.sol\":2413:2414  0 */\n      0x00\n        /* \"KipuBankV3.sol\":7141:7162  token == NATIVE_TOKEN */\n      0xffffffffffffffffffffffffffffffffffffffff\n      and\n        /* \"KipuBankV3.sol\":7141:7146  token */\n      dup7\n        /* \"KipuBankV3.sol\":7141:7162  token == NATIVE_TOKEN */\n      0xffffffffffffffffffffffffffffffffffffffff\n      and\n      sub\n        /* \"KipuBankV3.sol\":7137:7194  if (token == NATIVE_TOKEN) revert UnsupportedToken(token) */\n      tag_266\n      jumpi\n        /* \"KipuBankV3.sol\":7188:7193  token */\n      dup6\n        /* \"KipuBankV3.sol\":7171:7194  UnsupportedToken(token) */\n      mload(0x40)\n      0xbf16aab600000000000000000000000000000000000000000000000000000000\n      dup2\n      mstore\n      0x04\n      add\n      tag_267\n      swap2\n      swap1\n      tag_68\n      jump\t// in\n    tag_267:\n      mload(0x40)\n      dup1\n      swap2\n      sub\n      swap1\n      revert\n        /* \"KipuBankV3.sol\":7137:7194  if (token == NATIVE_TOKEN) revert UnsupportedToken(token) */\n    tag_266:\n        /* \"KipuBankV3.sol\":7205:7228  TokenConfig storage cfg */\n      0x00\n        /* \"KipuBankV3.sol\":7231:7242  tokenConfig */\n      0x04\n        /* \"KipuBankV3.sol\":7231:7249  tokenConfig[token] */\n      0x00\n        /* \"KipuBankV3.sol\":7243:7248  token */\n      dup9\n        /* \"KipuBankV3.sol\":7231:7249  tokenConfig[token] */\n      0xffffffffffffffffffffffffffffffffffffffff\n      and\n      0xffffffffffffffffffffffffffffffffffffffff\n      and\n      dup2\n      mstore\n      0x20\n      add\n      swap1\n      dup2\n      mstore\n      0x20\n      add\n      0x00\n      keccak256\n        /* \"KipuBankV3.sol\":7205:7249  TokenConfig storage cfg = tokenConfig[token] */\n      swap1\n      pop\n        /* \"KipuBankV3.sol\":7275:7284  supported */\n      dup6\n        /* \"KipuBankV3.sol\":7259:7262  cfg */\n      dup2\n        /* \"KipuBankV3.sol\":7259:7272  cfg.supported */\n      0x00\n      add\n      0x00\n        /* \"KipuBankV3.sol\":7259:7284  cfg.supported = supported */\n      0x0100\n      exp\n      dup2\n      sload\n      dup2\n      0xff\n      mul\n      not\n      and\n      swap1\n      dup4\n      iszero\n      iszero\n      mul\n      or\n      swap1\n      sstore\n      pop\n        /* \"KipuBankV3.sol\":7309:7314  false */\n      0x00\n        /* \"KipuBankV3.sol\":7294:7297  cfg */\n      dup2\n        /* \"KipuBankV3.sol\":7294:7306  cfg.isNative */\n      0x00\n      add\n      0x01\n        /* \"KipuBankV3.sol\":7294:7314  cfg.isNative = false */\n      0x0100\n      exp\n      dup2\n      sload\n      dup2\n      0xff\n      mul\n      not\n      and\n      swap1\n      dup4\n      iszero\n      iszero\n      mul\n      or\n      swap1\n      sstore\n      pop\n        /* \"KipuBankV3.sol\":7346:7347  0 */\n      0x00\n        /* \"KipuBankV3.sol\":7329:7342  tokenDecimals */\n      dup6\n        /* \"KipuBankV3.sol\":7329:7347  tokenDecimals == 0 */\n      0xff\n      and\n      sub\n        /* \"KipuBankV3.sol\":7325:7612  if (tokenDecimals == 0) {... */\n      tag_268\n      jumpi\n        /* \"KipuBankV3.sol\":7382:7387  token */\n      dup7\n        /* \"KipuBankV3.sol\":7367:7397  IERC20Metadata(token).decimals */\n      0xffffffffffffffffffffffffffffffffffffffff\n      and\n      0x313ce567\n        /* \"KipuBankV3.sol\":7367:7399  IERC20Metadata(token).decimals() */\n      mload(0x40)\n      dup2\n      0xffffffff\n      and\n      0xe0\n      shl\n      dup2\n      mstore\n      0x04\n      add\n      0x20\n      mload(0x40)\n      dup1\n      dup4\n      sub\n      dup2\n      dup7\n      gas\n      staticcall\n      swap3\n      pop\n      pop\n      pop\n      dup1\n      iszero\n      tag_269\n      jumpi\n      pop\n      mload(0x40)\n      returndatasize\n      not(0x1f)\n      0x1f\n      dup3\n      add\n      and\n      dup3\n      add\n      dup1\n      0x40\n      mstore\n      pop\n      dup2\n      add\n      swap1\n      tag_270\n      swap2\n      swap1\n      tag_271\n      jump\t// in\n    tag_270:\n      0x01\n    tag_269:\n        /* \"KipuBankV3.sol\":7363:7538  try IERC20Metadata(token).decimals() returns (uint8 dec) {... */\n      tag_272\n      jumpi\n        /* \"KipuBankV3.sol\":7521:7523  18 */\n      0x12\n        /* \"KipuBankV3.sol\":7501:7504  cfg */\n      dup2\n        /* \"KipuBankV3.sol\":7501:7518  cfg.tokenDecimals */\n      0x00\n      add\n      0x02\n        /* \"KipuBankV3.sol\":7501:7523  cfg.tokenDecimals = 18 */\n      0x0100\n      exp\n      dup2\n      sload\n      dup2\n      0xff\n      mul\n      not\n      and\n      swap1\n      dup4\n      0xff\n      and\n      mul\n      or\n      swap1\n      sstore\n      pop\n        /* \"KipuBankV3.sol\":7363:7538  try IERC20Metadata(token).decimals() returns (uint8 dec) {... */\n      jump(tag_276)\n    tag_272:\n        /* \"KipuBankV3.sol\":7458:7461  dec */\n      dup1\n        /* \"KipuBankV3.sol\":7438:7441  cfg */\n      dup3\n        /* \"KipuBankV3.sol\":7438:7455  cfg.tokenDecimals */\n      0x00\n      add\n      0x02\n        /* \"KipuBankV3.sol\":7438:7461  cfg.tokenDecimals = dec */\n      0x0100\n      exp\n      dup2\n      sload\n      dup2\n      0xff\n      mul\n      not\n      and\n      swap1\n      dup4\n      0xff\n      and\n      mul\n      or\n      swap1\n      sstore\n      pop\n        /* \"KipuBankV3.sol\":7400:7476  returns (uint8 dec) {... */\n      pop\n        /* \"KipuBankV3.sol\":7363:7538  try IERC20Metadata(token).decimals() returns (uint8 dec) {... */\n    tag_276:\n        /* \"KipuBankV3.sol\":7325:7612  if (tokenDecimals == 0) {... */\n      jump(tag_277)\n    tag_268:\n        /* \"KipuBankV3.sol\":7588:7601  tokenDecimals */\n      dup5\n        /* \"KipuBankV3.sol\":7568:7571  cfg */\n      dup2\n        /* \"KipuBankV3.sol\":7568:7585  cfg.tokenDecimals */\n      0x00\n      add\n      0x02\n        /* \"KipuBankV3.sol\":7568:7601  cfg.tokenDecimals = tokenDecimals */\n      0x0100\n      exp\n      dup2\n      sload\n      dup2\n      0xff\n      mul\n      not\n      and\n      swap1\n      dup4\n      0xff\n      and\n      mul\n      or\n      swap1\n      sstore\n      pop\n        /* \"KipuBankV3.sol\":7325:7612  if (tokenDecimals == 0) {... */\n    tag_277:\n        /* \"KipuBankV3.sol\":7641:7654  withdrawLimit */\n      dup4\n        /* \"KipuBankV3.sol\":7621:7624  cfg */\n      dup2\n        /* \"KipuBankV3.sol\":7621:7638  cfg.withdrawLimit */\n      0x01\n      add\n        /* \"KipuBankV3.sol\":7621:7654  cfg.withdrawLimit = withdrawLimit */\n      dup2\n      swap1\n      sstore\n      pop\n        /* \"KipuBankV3.sol\":7680:7689  priceFeed */\n      dup3\n        /* \"KipuBankV3.sol\":7664:7667  cfg */\n      dup2\n        /* \"KipuBankV3.sol\":7664:7677  cfg.priceFeed */\n      0x02\n      add\n      0x00\n        /* \"KipuBankV3.sol\":7664:7689  cfg.priceFeed = priceFeed */\n      0x0100\n      exp\n      dup2\n      sload\n      dup2\n      0xffffffffffffffffffffffffffffffffffffffff\n      mul\n      not\n      and\n      swap1\n      dup4\n      0xffffffffffffffffffffffffffffffffffffffff\n      and\n      mul\n      or\n      swap1\n      sstore\n      pop\n        /* \"KipuBankV3.sol\":7721:7726  token */\n      dup7\n        /* \"KipuBankV3.sol\":7705:7790  TokenConfigured(token, supported, false, cfg.tokenDecimals, withdrawLimit, priceFeed) */\n      0xffffffffffffffffffffffffffffffffffffffff\n      and\n      0xceec6d18b470b58eabbfc22b7d771c54609acb2bbe777747424f6e9a5a9d5a25\n        /* \"KipuBankV3.sol\":7728:7737  supported */\n      dup8\n        /* \"KipuBankV3.sol\":7739:7744  false */\n      0x00\n        /* \"KipuBankV3.sol\":7746:7749  cfg */\n      dup5\n        /* \"KipuBankV3.sol\":7746:7763  cfg.tokenDecimals */\n      0x00\n      add\n      0x02\n      swap1\n      sload\n      swap1\n      0x0100\n      exp\n      swap1\n      div\n      0xff\n      and\n        /* \"KipuBankV3.sol\":7765:7778  withdrawLimit */\n      dup9\n        /* \"KipuBankV3.sol\":7780:7789  priceFeed */\n      dup9\n        /* \"KipuBankV3.sol\":7705:7790  TokenConfigured(token, supported, false, cfg.tokenDecimals, withdrawLimit, priceFeed) */\n      mload(0x40)\n      tag_278\n      swap6\n      swap5\n      swap4\n      swap3\n      swap2\n      swap1\n      tag_151\n      jump\t// in\n    tag_278:\n      mload(0x40)\n      dup1\n      swap2\n      sub\n      swap1\n      log2\n        /* \"KipuBankV3.sol\":7127:7797  {... */\n      pop\n        /* \"KipuBankV3.sol\":6933:7797  function setTokenConfig(... */\n      pop\n      pop\n      pop\n      pop\n      pop\n      pop\n      jump\t// out\n        /* \"@openzeppelin/contracts/access/AccessControl.sol\":2196:2245  bytes32 public constant DEFAULT_ADMIN_ROLE = 0x00 */\n    tag_102:\n        /* \"@openzeppelin/contracts/access/AccessControl.sol\":2241:2245  0x00 */\n      0x00\n        /* \"@openzeppelin/contracts/access/AccessControl.sol\":2196:2245  bytes32 public constant DEFAULT_ADMIN_ROLE = 0x00 */\n      dup1\n      shl\n      dup2\n      jump\t// out\n        /* \"KipuBankV3.sol\":2912:2955  IUniswapV2Factory  public immutable factory */\n    tag_106:\n      immutable(\"0x38fb4f81377293344a991c247097a0787a704bab978f5dd2d647b3d08b92e996\")\n      dup2\n      jump\t// out\n        /* \"KipuBankV3.sol\":2300:2360  bytes32 public constant ROLE_ADMIN = keccak256(\"ROLE_ADMIN\") */\n    tag_111:\n        /* \"KipuBankV3.sol\":2337:2360  keccak256(\"ROLE_ADMIN\") */\n      0x2172861495e7b85edac73e3cd5fbb42dd675baadf627720e687bcfdaca025096\n        /* \"KipuBankV3.sol\":2300:2360  bytes32 public constant ROLE_ADMIN = keccak256(\"ROLE_ADMIN\") */\n      dup2\n      jump\t// out\n        /* \"KipuBankV3.sol\":7984:8110  function getBalance(address token, address user) external view returns (uint256) {... */\n    tag_117:\n        /* \"KipuBankV3.sol\":8056:8063  uint256 */\n      0x00\n        /* \"KipuBankV3.sol\":8082:8090  balances */\n      0x03\n        /* \"KipuBankV3.sol\":8082:8097  balances[token] */\n      0x00\n        /* \"KipuBankV3.sol\":8091:8096  token */\n      dup5\n        /* \"KipuBankV3.sol\":8082:8097  balances[token] */\n      0xffffffffffffffffffffffffffffffffffffffff\n      and\n      0xffffffffffffffffffffffffffffffffffffffff\n      and\n      dup2\n      mstore\n      0x20\n      add\n      swap1\n      dup2\n      mstore\n      0x20\n      add\n      0x00\n      keccak256\n        /* \"KipuBankV3.sol\":8082:8103  balances[token][user] */\n      0x00\n        /* \"KipuBankV3.sol\":8098:8102  user */\n      dup4\n        /* \"KipuBankV3.sol\":8082:8103  balances[token][user] */\n      0xffffffffffffffffffffffffffffffffffffffff\n      and\n      0xffffffffffffffffffffffffffffffffffffffff\n      and\n      dup2\n      mstore\n      0x20\n      add\n      swap1\n      dup2\n      mstore\n      0x20\n      add\n      0x00\n      keccak256\n      sload\n        /* \"KipuBankV3.sol\":8075:8103  return balances[token][user] */\n      swap1\n      pop\n        /* \"KipuBankV3.sol\":7984:8110  function getBalance(address token, address user) external view returns (uint256) {... */\n      swap3\n      swap2\n      pop\n      pop\n      jump\t// out\n        /* \"@openzeppelin/contracts/access/AccessControl.sol\":4618:4756  function revokeRole(bytes32 role, address account) public virtual onlyRole(getRoleAdmin(role)) {... */\n    tag_122:\n        /* \"@openzeppelin/contracts/access/AccessControl.sol\":4693:4711  getRoleAdmin(role) */\n      tag_280\n        /* \"@openzeppelin/contracts/access/AccessControl.sol\":4706:4710  role */\n      dup3\n        /* \"@openzeppelin/contracts/access/AccessControl.sol\":4693:4705  getRoleAdmin */\n      tag_42\n        /* \"@openzeppelin/contracts/access/AccessControl.sol\":4693:4711  getRoleAdmin(role) */\n      jump\t// in\n    tag_280:\n        /* \"@openzeppelin/contracts/access/AccessControl.sol\":2473:2489  _checkRole(role) */\n      tag_282\n        /* \"@openzeppelin/contracts/access/AccessControl.sol\":2484:2488  role */\n      dup2\n        /* \"@openzeppelin/contracts/access/AccessControl.sol\":2473:2483  _checkRole */\n      tag_160\n        /* \"@openzeppelin/contracts/access/AccessControl.sol\":2473:2489  _checkRole(role) */\n      jump\t// in\n    tag_282:\n        /* \"@openzeppelin/contracts/access/AccessControl.sol\":4723:4749  _revokeRole(role, account) */\n      tag_284\n        /* \"@openzeppelin/contracts/access/AccessControl.sol\":4735:4739  role */\n      dup4\n        /* \"@openzeppelin/contracts/access/AccessControl.sol\":4741:4748  account */\n      dup4\n        /* \"@openzeppelin/contracts/access/AccessControl.sol\":4723:4734  _revokeRole */\n      tag_169\n        /* \"@openzeppelin/contracts/access/AccessControl.sol\":4723:4749  _revokeRole(role, account) */\n      jump\t// in\n    tag_284:\n      pop\n        /* \"@openzeppelin/contracts/access/AccessControl.sol\":4618:4756  function revokeRole(bytes32 role, address account) public virtual onlyRole(getRoleAdmin(role)) {... */\n      pop\n      pop\n      pop\n      jump\t// out\n        /* \"KipuBankV3.sol\":11896:12529  function withdrawUSDC(uint256 amount)... */\n    tag_126:\n        /* \"@openzeppelin/contracts/utils/ReentrancyGuard.sol\":2500:2521  _nonReentrantBefore() */\n      tag_286\n        /* \"@openzeppelin/contracts/utils/ReentrancyGuard.sol\":2500:2519  _nonReentrantBefore */\n      tag_172\n        /* \"@openzeppelin/contracts/utils/ReentrancyGuard.sol\":2500:2521  _nonReentrantBefore() */\n      jump\t// in\n    tag_286:\n        /* \"KipuBankV3.sol\":11976:11982  amount */\n      dup1\n        /* \"KipuBankV3.sol\":6536:6537  0 */\n      0x00\n        /* \"KipuBankV3.sol\":6526:6532  amount */\n      dup2\n        /* \"KipuBankV3.sol\":6526:6537  amount == 0 */\n      sub\n        /* \"KipuBankV3.sol\":6522:6558  if (amount == 0) revert ZeroAmount() */\n      tag_288\n      jumpi\n        /* \"KipuBankV3.sol\":6546:6558  ZeroAmount() */\n      mload(0x40)\n      0x1f2a200500000000000000000000000000000000000000000000000000000000\n      dup2\n      mstore\n      0x04\n      add\n      mload(0x40)\n      dup1\n      swap2\n      sub\n      swap1\n      revert\n        /* \"KipuBankV3.sol\":6522:6558  if (amount == 0) revert ZeroAmount() */\n    tag_288:\n        /* \"KipuBankV3.sol\":11990:12001  uint256 bal */\n      0x00\n        /* \"KipuBankV3.sol\":12004:12012  balances */\n      0x03\n        /* \"KipuBankV3.sol\":12004:12018  balances[USDC] */\n      0x00\n        /* \"KipuBankV3.sol\":12013:12017  USDC */\n      immutable(\"0xcbba90175f9c427d3c4d688dfb41cce78f2164c36de91a74e800660b40e1ab55\")\n        /* \"KipuBankV3.sol\":12004:12018  balances[USDC] */\n      0xffffffffffffffffffffffffffffffffffffffff\n      and\n      0xffffffffffffffffffffffffffffffffffffffff\n      and\n      dup2\n      mstore\n      0x20\n      add\n      swap1\n      dup2\n      mstore\n      0x20\n      add\n      0x00\n      keccak256\n        /* \"KipuBankV3.sol\":12004:12030  balances[USDC][msg.sender] */\n      0x00\n        /* \"KipuBankV3.sol\":12019:12029  msg.sender */\n      caller\n        /* \"KipuBankV3.sol\":12004:12030  balances[USDC][msg.sender] */\n      0xffffffffffffffffffffffffffffffffffffffff\n      and\n      0xffffffffffffffffffffffffffffffffffffffff\n      and\n      dup2\n      mstore\n      0x20\n      add\n      swap1\n      dup2\n      mstore\n      0x20\n      add\n      0x00\n      keccak256\n      sload\n        /* \"KipuBankV3.sol\":11990:12030  uint256 bal = balances[USDC][msg.sender] */\n      swap1\n      pop\n        /* \"KipuBankV3.sol\":12046:12052  amount */\n      dup3\n        /* \"KipuBankV3.sol\":12040:12043  bal */\n      dup2\n        /* \"KipuBankV3.sol\":12040:12052  bal < amount */\n      lt\n        /* \"KipuBankV3.sol\":12036:12093  if (bal < amount) revert InsufficientBalance(bal, amount) */\n      iszero\n      tag_290\n      jumpi\n        /* \"KipuBankV3.sol\":12081:12084  bal */\n      dup1\n        /* \"KipuBankV3.sol\":12086:12092  amount */\n      dup4\n        /* \"KipuBankV3.sol\":12061:12093  InsufficientBalance(bal, amount) */\n      mload(0x40)\n      0xcf47918100000000000000000000000000000000000000000000000000000000\n      dup2\n      mstore\n      0x04\n      add\n      tag_291\n      swap3\n      swap2\n      swap1\n      tag_209\n      jump\t// in\n    tag_291:\n      mload(0x40)\n      dup1\n      swap2\n      sub\n      swap1\n      revert\n        /* \"KipuBankV3.sol\":12036:12093  if (bal < amount) revert InsufficientBalance(bal, amount) */\n    tag_290:\n        /* \"KipuBankV3.sol\":12150:12156  amount */\n      dup3\n        /* \"KipuBankV3.sol\":12144:12147  bal */\n      dup2\n        /* \"KipuBankV3.sol\":12144:12156  bal - amount */\n      tag_292\n      swap2\n      swap1\n      tag_204\n      jump\t// in\n    tag_292:\n        /* \"KipuBankV3.sol\":12115:12123  balances */\n      0x03\n        /* \"KipuBankV3.sol\":12115:12129  balances[USDC] */\n      0x00\n        /* \"KipuBankV3.sol\":12124:12128  USDC */\n      immutable(\"0xcbba90175f9c427d3c4d688dfb41cce78f2164c36de91a74e800660b40e1ab55\")\n        /* \"KipuBankV3.sol\":12115:12129  balances[USDC] */\n      0xffffffffffffffffffffffffffffffffffffffff\n      and\n      0xffffffffffffffffffffffffffffffffffffffff\n      and\n      dup2\n      mstore\n      0x20\n      add\n      swap1\n      dup2\n      mstore\n      0x20\n      add\n      0x00\n      keccak256\n        /* \"KipuBankV3.sol\":12115:12141  balances[USDC][msg.sender] */\n      0x00\n        /* \"KipuBankV3.sol\":12130:12140  msg.sender */\n      caller\n        /* \"KipuBankV3.sol\":12115:12141  balances[USDC][msg.sender] */\n      0xffffffffffffffffffffffffffffffffffffffff\n      and\n      0xffffffffffffffffffffffffffffffffffffffff\n      and\n      dup2\n      mstore\n      0x20\n      add\n      swap1\n      dup2\n      mstore\n      0x20\n      add\n      0x00\n      keccak256\n        /* \"KipuBankV3.sol\":12115:12156  balances[USDC][msg.sender] = bal - amount */\n      dup2\n      swap1\n      sstore\n      pop\n        /* \"KipuBankV3.sol\":12209:12215  amount */\n      dup3\n        /* \"KipuBankV3.sol\":12187:12205  totalDepositedUsd6 */\n      sload(0x02)\n        /* \"KipuBankV3.sol\":12187:12215  totalDepositedUsd6 >= amount */\n      lt\n        /* \"KipuBankV3.sol\":12183:12350  if (totalDepositedUsd6 >= amount) {... */\n      tag_293\n      jumpi\n        /* \"KipuBankV3.sol\":12253:12259  amount */\n      dup3\n        /* \"KipuBankV3.sol\":12231:12249  totalDepositedUsd6 */\n      0x02\n      0x00\n        /* \"KipuBankV3.sol\":12231:12259  totalDepositedUsd6 -= amount */\n      dup3\n      dup3\n      sload\n      sub\n      swap3\n      pop\n      pop\n      dup2\n      swap1\n      sstore\n      pop\n        /* \"KipuBankV3.sol\":12183:12350  if (totalDepositedUsd6 >= amount) {... */\n      jump(tag_294)\n    tag_293:\n        /* \"KipuBankV3.sol\":12311:12312  0 */\n      0x00\n        /* \"KipuBankV3.sol\":12290:12308  totalDepositedUsd6 */\n      0x02\n        /* \"KipuBankV3.sol\":12290:12312  totalDepositedUsd6 = 0 */\n      dup2\n      swap1\n      sstore\n      pop\n        /* \"KipuBankV3.sol\":12183:12350  if (totalDepositedUsd6 >= amount) {... */\n    tag_294:\n        /* \"KipuBankV3.sol\":12359:12372  withdrawCount */\n      0x06\n      0x00\n        /* \"KipuBankV3.sol\":12359:12374  withdrawCount++ */\n      dup2\n      sload\n      dup1\n      swap3\n      swap2\n      swap1\n      0x01\n      add\n      swap2\n      swap1\n      pop\n      sstore\n      pop\n        /* \"KipuBankV3.sol\":12407:12452  IERC20(USDC).safeTransfer(msg.sender, amount) */\n      tag_295\n        /* \"KipuBankV3.sol\":12433:12443  msg.sender */\n      caller\n        /* \"KipuBankV3.sol\":12445:12451  amount */\n      dup5\n        /* \"KipuBankV3.sol\":12414:12418  USDC */\n      immutable(\"0xcbba90175f9c427d3c4d688dfb41cce78f2164c36de91a74e800660b40e1ab55\")\n        /* \"KipuBankV3.sol\":12407:12432  IERC20(USDC).safeTransfer */\n      0xffffffffffffffffffffffffffffffffffffffff\n      and\n      tag_296\n      swap1\n        /* \"KipuBankV3.sol\":12407:12452  IERC20(USDC).safeTransfer(msg.sender, amount) */\n      swap3\n      swap2\n      swap1\n      0xffffffff\n      and\n      jump\t// in\n    tag_295:\n        /* \"KipuBankV3.sol\":12479:12489  msg.sender */\n      caller\n        /* \"KipuBankV3.sol\":12464:12526  Withdraw(USDC, msg.sender, amount, balances[USDC][msg.sender]) */\n      0xffffffffffffffffffffffffffffffffffffffff\n      and\n        /* \"KipuBankV3.sol\":12473:12477  USDC */\n      immutable(\"0xcbba90175f9c427d3c4d688dfb41cce78f2164c36de91a74e800660b40e1ab55\")\n        /* \"KipuBankV3.sol\":12464:12526  Withdraw(USDC, msg.sender, amount, balances[USDC][msg.sender]) */\n      0xffffffffffffffffffffffffffffffffffffffff\n      and\n      0xf341246adaac6f497bc2a656f546ab9e182111d630394f0c57c710a59a2cb567\n        /* \"KipuBankV3.sol\":12491:12497  amount */\n      dup6\n        /* \"KipuBankV3.sol\":12499:12507  balances */\n      0x03\n        /* \"KipuBankV3.sol\":12499:12513  balances[USDC] */\n      0x00\n        /* \"KipuBankV3.sol\":12508:12512  USDC */\n      immutable(\"0xcbba90175f9c427d3c4d688dfb41cce78f2164c36de91a74e800660b40e1ab55\")\n        /* \"KipuBankV3.sol\":12499:12513  balances[USDC] */\n      0xffffffffffffffffffffffffffffffffffffffff\n      and\n      0xffffffffffffffffffffffffffffffffffffffff\n      and\n      dup2\n      mstore\n      0x20\n      add\n      swap1\n      dup2\n      mstore\n      0x20\n      add\n      0x00\n      keccak256\n        /* \"KipuBankV3.sol\":12499:12525  balances[USDC][msg.sender] */\n      0x00\n        /* \"KipuBankV3.sol\":12514:12524  msg.sender */\n      caller\n        /* \"KipuBankV3.sol\":12499:12525  balances[USDC][msg.sender] */\n      0xffffffffffffffffffffffffffffffffffffffff\n      and\n      0xffffffffffffffffffffffffffffffffffffffff\n      and\n      dup2\n      mstore\n      0x20\n      add\n      swap1\n      dup2\n      mstore\n      0x20\n      add\n      0x00\n      keccak256\n      sload\n        /* \"KipuBankV3.sol\":12464:12526  Withdraw(USDC, msg.sender, amount, balances[USDC][msg.sender]) */\n      mload(0x40)\n      tag_297\n      swap3\n      swap2\n      swap1\n      tag_209\n      jump\t// in\n    tag_297:\n      mload(0x40)\n      dup1\n      swap2\n      sub\n      swap1\n      log3\n        /* \"KipuBankV3.sol\":11984:12529  {... */\n      pop\n        /* \"@openzeppelin/contracts/utils/ReentrancyGuard.sol\":2531:2532  _ */\n      pop\n        /* \"@openzeppelin/contracts/utils/ReentrancyGuard.sol\":2542:2562  _nonReentrantAfter() */\n      tag_298\n        /* \"@openzeppelin/contracts/utils/ReentrancyGuard.sol\":2542:2560  _nonReentrantAfter */\n      tag_214\n        /* \"@openzeppelin/contracts/utils/ReentrancyGuard.sol\":2542:2562  _nonReentrantAfter() */\n      jump\t// in\n    tag_298:\n        /* \"KipuBankV3.sol\":11896:12529  function withdrawUSDC(uint256 amount)... */\n      pop\n      jump\t// out\n        /* \"KipuBankV3.sol\":8167:8377  function getUsdBalance(address token, address user) external view returns (uint256) {... */\n    tag_130:\n        /* \"KipuBankV3.sol\":8242:8249  uint256 */\n      0x00\n        /* \"KipuBankV3.sol\":8261:8272  uint256 amt */\n      dup1\n        /* \"KipuBankV3.sol\":8275:8283  balances */\n      0x03\n        /* \"KipuBankV3.sol\":8275:8290  balances[token] */\n      0x00\n        /* \"KipuBankV3.sol\":8284:8289  token */\n      dup6\n        /* \"KipuBankV3.sol\":8275:8290  balances[token] */\n      0xffffffffffffffffffffffffffffffffffffffff\n      and\n      0xffffffffffffffffffffffffffffffffffffffff\n      and\n      dup2\n      mstore\n      0x20\n      add\n      swap1\n      dup2\n      mstore\n      0x20\n      add\n      0x00\n      keccak256\n        /* \"KipuBankV3.sol\":8275:8296  balances[token][user] */\n      0x00\n        /* \"KipuBankV3.sol\":8291:8295  user */\n      dup5\n        /* \"KipuBankV3.sol\":8275:8296  balances[token][user] */\n      0xffffffffffffffffffffffffffffffffffffffff\n      and\n      0xffffffffffffffffffffffffffffffffffffffff\n      and\n      dup2\n      mstore\n      0x20\n      add\n      swap1\n      dup2\n      mstore\n      0x20\n      add\n      0x00\n      keccak256\n      sload\n        /* \"KipuBankV3.sol\":8261:8296  uint256 amt = balances[token][user] */\n      swap1\n      pop\n        /* \"KipuBankV3.sol\":8319:8323  USDC */\n      immutable(\"0xcbba90175f9c427d3c4d688dfb41cce78f2164c36de91a74e800660b40e1ab55\")\n        /* \"KipuBankV3.sol\":8310:8323  token == USDC */\n      0xffffffffffffffffffffffffffffffffffffffff\n      and\n        /* \"KipuBankV3.sol\":8310:8315  token */\n      dup5\n        /* \"KipuBankV3.sol\":8310:8323  token == USDC */\n      0xffffffffffffffffffffffffffffffffffffffff\n      and\n      sub\n        /* \"KipuBankV3.sol\":8306:8335  if (token == USDC) return amt */\n      tag_300\n      jumpi\n        /* \"KipuBankV3.sol\":8332:8335  amt */\n      dup1\n        /* \"KipuBankV3.sol\":8325:8335  return amt */\n      swap2\n      pop\n      pop\n      jump(tag_299)\n        /* \"KipuBankV3.sol\":8306:8335  if (token == USDC) return amt */\n    tag_300:\n        /* \"KipuBankV3.sol\":8352:8370  _toUsd(token, amt) */\n      tag_301\n        /* \"KipuBankV3.sol\":8359:8364  token */\n      dup5\n        /* \"KipuBankV3.sol\":8366:8369  amt */\n      dup3\n        /* \"KipuBankV3.sol\":8352:8358  _toUsd */\n      tag_302\n        /* \"KipuBankV3.sol\":8352:8370  _toUsd(token, amt) */\n      jump\t// in\n    tag_301:\n        /* \"KipuBankV3.sol\":8345:8370  return _toUsd(token, amt) */\n      swap2\n      pop\n      pop\n        /* \"KipuBankV3.sol\":8167:8377  function getUsdBalance(address token, address user) external view returns (uint256) {... */\n    tag_299:\n      swap3\n      swap2\n      pop\n      pop\n      jump\t// out\n        /* \"KipuBankV3.sol\":8610:9186  function depositUSDC(uint256 amount)... */\n    tag_135:\n        /* \"@openzeppelin/contracts/utils/ReentrancyGuard.sol\":2500:2521  _nonReentrantBefore() */\n      tag_304\n        /* \"@openzeppelin/contracts/utils/ReentrancyGuard.sol\":2500:2519  _nonReentrantBefore */\n      tag_172\n        /* \"@openzeppelin/contracts/utils/ReentrancyGuard.sol\":2500:2521  _nonReentrantBefore() */\n      jump\t// in\n    tag_304:\n        /* \"KipuBankV3.sol\":8701:8707  amount */\n      dup1\n        /* \"KipuBankV3.sol\":6536:6537  0 */\n      0x00\n        /* \"KipuBankV3.sol\":6526:6532  amount */\n      dup2\n        /* \"KipuBankV3.sol\":6526:6537  amount == 0 */\n      sub\n        /* \"KipuBankV3.sol\":6522:6558  if (amount == 0) revert ZeroAmount() */\n      tag_306\n      jumpi\n        /* \"KipuBankV3.sol\":6546:6558  ZeroAmount() */\n      mload(0x40)\n      0x1f2a200500000000000000000000000000000000000000000000000000000000\n      dup2\n      mstore\n      0x04\n      add\n      mload(0x40)\n      dup1\n      swap2\n      sub\n      swap1\n      revert\n        /* \"KipuBankV3.sol\":6522:6558  if (amount == 0) revert ZeroAmount() */\n    tag_306:\n        /* \"KipuBankV3.sol\":8723:8740  uint256 attempted */\n      0x00\n        /* \"KipuBankV3.sol\":8764:8770  amount */\n      dup3\n        /* \"KipuBankV3.sol\":8743:8761  totalDepositedUsd6 */\n      sload(0x02)\n        /* \"KipuBankV3.sol\":8743:8770  totalDepositedUsd6 + amount */\n      tag_308\n      swap2\n      swap1\n      tag_206\n      jump\t// in\n    tag_308:\n        /* \"KipuBankV3.sol\":8723:8770  uint256 attempted = totalDepositedUsd6 + amount */\n      swap1\n      pop\n        /* \"KipuBankV3.sol\":8796:8807  bankCapUsd6 */\n      immutable(\"0xb1914158f066b099b011ee6b10afe41800ff5ecc2ba6fe68f458d6506944d22e\")\n        /* \"KipuBankV3.sol\":8784:8793  attempted */\n      dup2\n        /* \"KipuBankV3.sol\":8784:8807  attempted > bankCapUsd6 */\n      gt\n        /* \"KipuBankV3.sol\":8780:8851  if (attempted > bankCapUsd6) revert CapExceeded(attempted, bankCapUsd6) */\n      iszero\n      tag_309\n      jumpi\n        /* \"KipuBankV3.sol\":8828:8837  attempted */\n      dup1\n        /* \"KipuBankV3.sol\":8839:8850  bankCapUsd6 */\n      immutable(\"0xb1914158f066b099b011ee6b10afe41800ff5ecc2ba6fe68f458d6506944d22e\")\n        /* \"KipuBankV3.sol\":8816:8851  CapExceeded(attempted, bankCapUsd6) */\n      mload(0x40)\n      0xf480e28500000000000000000000000000000000000000000000000000000000\n      dup2\n      mstore\n      0x04\n      add\n      tag_310\n      swap3\n      swap2\n      swap1\n      tag_209\n      jump\t// in\n    tag_310:\n      mload(0x40)\n      dup1\n      swap2\n      sub\n      swap1\n      revert\n        /* \"KipuBankV3.sol\":8780:8851  if (attempted > bankCapUsd6) revert CapExceeded(attempted, bankCapUsd6) */\n    tag_309:\n        /* \"KipuBankV3.sol\":8911:8917  amount */\n      dup3\n        /* \"KipuBankV3.sol\":8881:8889  balances */\n      0x03\n        /* \"KipuBankV3.sol\":8881:8895  balances[USDC] */\n      0x00\n        /* \"KipuBankV3.sol\":8890:8894  USDC */\n      immutable(\"0xcbba90175f9c427d3c4d688dfb41cce78f2164c36de91a74e800660b40e1ab55\")\n        /* \"KipuBankV3.sol\":8881:8895  balances[USDC] */\n      0xffffffffffffffffffffffffffffffffffffffff\n      and\n      0xffffffffffffffffffffffffffffffffffffffff\n      and\n      dup2\n      mstore\n      0x20\n      add\n      swap1\n      dup2\n      mstore\n      0x20\n      add\n      0x00\n      keccak256\n        /* \"KipuBankV3.sol\":8881:8907  balances[USDC][msg.sender] */\n      0x00\n        /* \"KipuBankV3.sol\":8896:8906  msg.sender */\n      caller\n        /* \"KipuBankV3.sol\":8881:8907  balances[USDC][msg.sender] */\n      0xffffffffffffffffffffffffffffffffffffffff\n      and\n      0xffffffffffffffffffffffffffffffffffffffff\n      and\n      dup2\n      mstore\n      0x20\n      add\n      swap1\n      dup2\n      mstore\n      0x20\n      add\n      0x00\n      keccak256\n      0x00\n        /* \"KipuBankV3.sol\":8881:8917  balances[USDC][msg.sender] += amount */\n      dup3\n      dup3\n      sload\n      tag_311\n      swap2\n      swap1\n      tag_206\n      jump\t// in\n    tag_311:\n      swap3\n      pop\n      pop\n      dup2\n      swap1\n      sstore\n      pop\n        /* \"KipuBankV3.sol\":8948:8957  attempted */\n      dup1\n        /* \"KipuBankV3.sol\":8927:8945  totalDepositedUsd6 */\n      0x02\n        /* \"KipuBankV3.sol\":8927:8957  totalDepositedUsd6 = attempted */\n      dup2\n      swap1\n      sstore\n      pop\n        /* \"KipuBankV3.sol\":8979:8991  depositCount */\n      0x05\n      0x00\n        /* \"KipuBankV3.sol\":8979:8993  depositCount++ */\n      dup2\n      sload\n      dup1\n      swap3\n      swap2\n      swap1\n      0x01\n      add\n      swap2\n      swap1\n      pop\n      sstore\n      pop\n        /* \"KipuBankV3.sol\":9030:9094  IERC20(USDC).safeTransferFrom(msg.sender, address(this), amount) */\n      tag_312\n        /* \"KipuBankV3.sol\":9060:9070  msg.sender */\n      caller\n        /* \"KipuBankV3.sol\":9080:9084  this */\n      address\n        /* \"KipuBankV3.sol\":9087:9093  amount */\n      dup6\n        /* \"KipuBankV3.sol\":9037:9041  USDC */\n      immutable(\"0xcbba90175f9c427d3c4d688dfb41cce78f2164c36de91a74e800660b40e1ab55\")\n        /* \"KipuBankV3.sol\":9030:9059  IERC20(USDC).safeTransferFrom */\n      0xffffffffffffffffffffffffffffffffffffffff\n      and\n      tag_232\n      swap1\n        /* \"KipuBankV3.sol\":9030:9094  IERC20(USDC).safeTransferFrom(msg.sender, address(this), amount) */\n      swap4\n      swap3\n      swap2\n      swap1\n      0xffffffff\n      and\n      jump\t// in\n    tag_312:\n        /* \"KipuBankV3.sol\":9124:9134  msg.sender */\n      caller\n        /* \"KipuBankV3.sol\":9110:9179  Deposit(USDC, msg.sender, amount, balances[USDC][msg.sender], amount) */\n      0xffffffffffffffffffffffffffffffffffffffff\n      and\n        /* \"KipuBankV3.sol\":9118:9122  USDC */\n      immutable(\"0xcbba90175f9c427d3c4d688dfb41cce78f2164c36de91a74e800660b40e1ab55\")\n        /* \"KipuBankV3.sol\":9110:9179  Deposit(USDC, msg.sender, amount, balances[USDC][msg.sender], amount) */\n      0xffffffffffffffffffffffffffffffffffffffff\n      and\n      0x4e2ca0515ed1aef1395f66b5303bb5d6f1bf9d61a353fa53f73f8ac9973fa9f6\n        /* \"KipuBankV3.sol\":9136:9142  amount */\n      dup6\n        /* \"KipuBankV3.sol\":9144:9152  balances */\n      0x03\n        /* \"KipuBankV3.sol\":9144:9158  balances[USDC] */\n      0x00\n        /* \"KipuBankV3.sol\":9153:9157  USDC */\n      immutable(\"0xcbba90175f9c427d3c4d688dfb41cce78f2164c36de91a74e800660b40e1ab55\")\n        /* \"KipuBankV3.sol\":9144:9158  balances[USDC] */\n      0xffffffffffffffffffffffffffffffffffffffff\n      and\n      0xffffffffffffffffffffffffffffffffffffffff\n      and\n      dup2\n      mstore\n      0x20\n      add\n      swap1\n      dup2\n      mstore\n      0x20\n      add\n      0x00\n      keccak256\n        /* \"KipuBankV3.sol\":9144:9170  balances[USDC][msg.sender] */\n      0x00\n        /* \"KipuBankV3.sol\":9159:9169  msg.sender */\n      caller\n        /* \"KipuBankV3.sol\":9144:9170  balances[USDC][msg.sender] */\n      0xffffffffffffffffffffffffffffffffffffffff\n      and\n      0xffffffffffffffffffffffffffffffffffffffff\n      and\n      dup2\n      mstore\n      0x20\n      add\n      swap1\n      dup2\n      mstore\n      0x20\n      add\n      0x00\n      keccak256\n      sload\n        /* \"KipuBankV3.sol\":9172:9178  amount */\n      dup8\n        /* \"KipuBankV3.sol\":9110:9179  Deposit(USDC, msg.sender, amount, balances[USDC][msg.sender], amount) */\n      mload(0x40)\n      tag_313\n      swap4\n      swap3\n      swap2\n      swap1\n      tag_212\n      jump\t// in\n    tag_313:\n      mload(0x40)\n      dup1\n      swap2\n      sub\n      swap1\n      log3\n        /* \"KipuBankV3.sol\":8713:9186  {... */\n      pop\n        /* \"@openzeppelin/contracts/utils/ReentrancyGuard.sol\":2531:2532  _ */\n      pop\n        /* \"@openzeppelin/contracts/utils/ReentrancyGuard.sol\":2542:2562  _nonReentrantAfter() */\n      tag_314\n        /* \"@openzeppelin/contracts/utils/ReentrancyGuard.sol\":2542:2560  _nonReentrantAfter */\n      tag_214\n        /* \"@openzeppelin/contracts/utils/ReentrancyGuard.sol\":2542:2562  _nonReentrantAfter() */\n      jump\t// in\n    tag_314:\n        /* \"KipuBankV3.sol\":8610:9186  function depositUSDC(uint256 amount)... */\n      pop\n      jump\t// out\n        /* \"KipuBankV3.sol\":2864:2906  IUniswapV2Router02 public immutable router */\n    tag_138:\n      immutable(\"0x4257479addd544711115a099f37ca9612d00131553572b464c479b7443e8b262\")\n      dup2\n      jump\t// out\n        /* \"KipuBankV3.sol\":2709:2745  uint256 public immutable bankCapUsd6 */\n    tag_143:\n      immutable(\"0xb1914158f066b099b011ee6b10afe41800ff5ecc2ba6fe68f458d6506944d22e\")\n      dup2\n      jump\t// out\n        /* \"KipuBankV3.sol\":3224:3274  mapping(address => TokenConfig) public tokenConfig */\n    tag_149:\n      mstore(0x20, 0x04)\n      dup1\n      0x00\n      mstore\n      keccak256(0x00, 0x40)\n      0x00\n      swap2\n      pop\n      swap1\n      pop\n      dup1\n      0x00\n      add\n      0x00\n      swap1\n      sload\n      swap1\n      0x0100\n      exp\n      swap1\n      div\n      0xff\n      and\n      swap1\n      dup1\n      0x00\n      add\n      0x01\n      swap1\n      sload\n      swap1\n      0x0100\n      exp\n      swap1\n      div\n      0xff\n      and\n      swap1\n      dup1\n      0x00\n      add\n      0x02\n      swap1\n      sload\n      swap1\n      0x0100\n      exp\n      swap1\n      div\n      0xff\n      and\n      swap1\n      dup1\n      0x01\n      add\n      sload\n      swap1\n      dup1\n      0x02\n      add\n      0x00\n      swap1\n      sload\n      swap1\n      0x0100\n      exp\n      swap1\n      div\n      0xffffffffffffffffffffffffffffffffffffffff\n      and\n      swap1\n      pop\n      dup6\n      jump\t// out\n        /* \"@openzeppelin/contracts/utils/introspection/ERC165.sol\":730:876  function supportsInterface(bytes4 interfaceId) public view virtual returns (bool) {... */\n    tag_155:\n        /* \"@openzeppelin/contracts/utils/introspection/ERC165.sol\":806:810  bool */\n      0x00\n        /* \"@openzeppelin/contracts/utils/introspection/ERC165.sol\":844:869  type(IERC165).interfaceId */\n      0x01ffc9a700000000000000000000000000000000000000000000000000000000\n        /* \"@openzeppelin/contracts/utils/introspection/ERC165.sol\":829:869  interfaceId == type(IERC165).interfaceId */\n      not(0xffffffffffffffffffffffffffffffffffffffffffffffffffffffff)\n      and\n        /* \"@openzeppelin/contracts/utils/introspection/ERC165.sol\":829:840  interfaceId */\n      dup3\n        /* \"@openzeppelin/contracts/utils/introspection/ERC165.sol\":829:869  interfaceId == type(IERC165).interfaceId */\n      not(0xffffffffffffffffffffffffffffffffffffffffffffffffffffffff)\n      and\n      eq\n        /* \"@openzeppelin/contracts/utils/introspection/ERC165.sol\":822:869  return interfaceId == type(IERC165).interfaceId */\n      swap1\n      pop\n        /* \"@openzeppelin/contracts/utils/introspection/ERC165.sol\":730:876  function supportsInterface(bytes4 interfaceId) public view virtual returns (bool) {... */\n      swap2\n      swap1\n      pop\n      jump\t// out\n        /* \"@openzeppelin/contracts/access/AccessControl.sol\":3175:3278  function _checkRole(bytes32 role) internal view virtual {... */\n    tag_160:\n        /* \"@openzeppelin/contracts/access/AccessControl.sol\":3241:3271  _checkRole(role, _msgSender()) */\n      tag_317\n        /* \"@openzeppelin/contracts/access/AccessControl.sol\":3252:3256  role */\n      dup2\n        /* \"@openzeppelin/contracts/access/AccessControl.sol\":3258:3270  _msgSender() */\n      tag_318\n        /* \"@openzeppelin/contracts/access/AccessControl.sol\":3258:3268  _msgSender */\n      tag_166\n        /* \"@openzeppelin/contracts/access/AccessControl.sol\":3258:3270  _msgSender() */\n      jump\t// in\n    tag_318:\n        /* \"@openzeppelin/contracts/access/AccessControl.sol\":3241:3251  _checkRole */\n      tag_319\n        /* \"@openzeppelin/contracts/access/AccessControl.sol\":3241:3271  _checkRole(role, _msgSender()) */\n      jump\t// in\n    tag_317:\n        /* \"@openzeppelin/contracts/access/AccessControl.sol\":3175:3278  function _checkRole(bytes32 role) internal view virtual {... */\n      pop\n      jump\t// out\n        /* \"@openzeppelin/contracts/access/AccessControl.sol\":6155:6471  function _grantRole(bytes32 role, address account) internal virtual returns (bool) {... */\n    tag_163:\n        /* \"@openzeppelin/contracts/access/AccessControl.sol\":6232:6236  bool */\n      0x00\n        /* \"@openzeppelin/contracts/access/AccessControl.sol\":6253:6275  hasRole(role, account) */\n      tag_321\n        /* \"@openzeppelin/contracts/access/AccessControl.sol\":6261:6265  role */\n      dup4\n        /* \"@openzeppelin/contracts/access/AccessControl.sol\":6267:6274  account */\n      dup4\n        /* \"@openzeppelin/contracts/access/AccessControl.sol\":6253:6260  hasRole */\n      tag_93\n        /* \"@openzeppelin/contracts/access/AccessControl.sol\":6253:6275  hasRole(role, account) */\n      jump\t// in\n    tag_321:\n        /* \"@openzeppelin/contracts/access/AccessControl.sol\":6248:6465  if (!hasRole(role, account)) {... */\n      tag_322\n      jumpi\n        /* \"@openzeppelin/contracts/access/AccessControl.sol\":6323:6327  true */\n      0x01\n        /* \"@openzeppelin/contracts/access/AccessControl.sol\":6291:6297  _roles */\n      0x00\n        /* \"@openzeppelin/contracts/access/AccessControl.sol\":6291:6303  _roles[role] */\n      dup1\n        /* \"@openzeppelin/contracts/access/AccessControl.sol\":6298:6302  role */\n      dup6\n        /* \"@openzeppelin/contracts/access/AccessControl.sol\":6291:6303  _roles[role] */\n      dup2\n      mstore\n      0x20\n      add\n      swap1\n      dup2\n      mstore\n      0x20\n      add\n      0x00\n      keccak256\n        /* \"@openzeppelin/contracts/access/AccessControl.sol\":6291:6311  _roles[role].hasRole */\n      0x00\n      add\n        /* \"@openzeppelin/contracts/access/AccessControl.sol\":6291:6320  _roles[role].hasRole[account] */\n      0x00\n        /* \"@openzeppelin/contracts/access/AccessControl.sol\":6312:6319  account */\n      dup5\n        /* \"@openzeppelin/contracts/access/AccessControl.sol\":6291:6320  _roles[role].hasRole[account] */\n      0xffffffffffffffffffffffffffffffffffffffff\n      and\n      0xffffffffffffffffffffffffffffffffffffffff\n      and\n      dup2\n      mstore\n      0x20\n      add\n      swap1\n      dup2\n      mstore\n      0x20\n      add\n      0x00\n      keccak256\n      0x00\n        /* \"@openzeppelin/contracts/access/AccessControl.sol\":6291:6327  _roles[role].hasRole[account] = true */\n      0x0100\n      exp\n      dup2\n      sload\n      dup2\n      0xff\n      mul\n      not\n      and\n      swap1\n      dup4\n      iszero\n      iszero\n      mul\n      or\n      swap1\n      sstore\n      pop\n        /* \"@openzeppelin/contracts/access/AccessControl.sol\":6373:6385  _msgSender() */\n      tag_323\n        /* \"@openzeppelin/contracts/access/AccessControl.sol\":6373:6383  _msgSender */\n      tag_166\n        /* \"@openzeppelin/contracts/access/AccessControl.sol\":6373:6385  _msgSender() */\n      jump\t// in\n    tag_323:\n        /* \"@openzeppelin/contracts/access/AccessControl.sol\":6346:6386  RoleGranted(role, account, _msgSender()) */\n      0xffffffffffffffffffffffffffffffffffffffff\n      and\n        /* \"@openzeppelin/contracts/access/AccessControl.sol\":6364:6371  account */\n      dup3\n        /* \"@openzeppelin/contracts/access/AccessControl.sol\":6346:6386  RoleGranted(role, account, _msgSender()) */\n      0xffffffffffffffffffffffffffffffffffffffff\n      and\n        /* \"@openzeppelin/contracts/access/AccessControl.sol\":6358:6362  role */\n      dup5\n        /* \"@openzeppelin/contracts/access/AccessControl.sol\":6346:6386  RoleGranted(role, account, _msgSender()) */\n      0x2f8788117e7eff1d82e926ec794901d17c78024a50270940304540a733656f0d\n      mload(0x40)\n      mload(0x40)\n      dup1\n      swap2\n      sub\n      swap1\n      log4\n        /* \"@openzeppelin/contracts/access/AccessControl.sol\":6407:6411  true */\n      0x01\n        /* \"@openzeppelin/contracts/access/AccessControl.sol\":6400:6411  return true */\n      swap1\n      pop\n      jump(tag_320)\n        /* \"@openzeppelin/contracts/access/AccessControl.sol\":6248:6465  if (!hasRole(role, account)) {... */\n    tag_322:\n        /* \"@openzeppelin/contracts/access/AccessControl.sol\":6449:6454  false */\n      0x00\n        /* \"@openzeppelin/contracts/access/AccessControl.sol\":6442:6454  return false */\n      swap1\n      pop\n        /* \"@openzeppelin/contracts/access/AccessControl.sol\":6155:6471  function _grantRole(bytes32 role, address account) internal virtual returns (bool) {... */\n    tag_320:\n      swap3\n      swap2\n      pop\n      pop\n      jump\t// out\n        /* \"@openzeppelin/contracts/utils/Context.sol\":656:752  function _msgSender() internal view virtual returns (address) {... */\n    tag_166:\n        /* \"@openzeppelin/contracts/utils/Context.sol\":709:716  address */\n      0x00\n        /* \"@openzeppelin/contracts/utils/Context.sol\":735:745  msg.sender */\n      caller\n        /* \"@openzeppelin/contracts/utils/Context.sol\":728:745  return msg.sender */\n      swap1\n      pop\n        /* \"@openzeppelin/contracts/utils/Context.sol\":656:752  function _msgSender() internal view virtual returns (address) {... */\n      swap1\n      jump\t// out\n        /* \"@openzeppelin/contracts/access/AccessControl.sol\":6708:7025  function _revokeRole(bytes32 role, address account) internal virtual returns (bool) {... */\n    tag_169:\n        /* \"@openzeppelin/contracts/access/AccessControl.sol\":6786:6790  bool */\n      0x00\n        /* \"@openzeppelin/contracts/access/AccessControl.sol\":6806:6828  hasRole(role, account) */\n      tag_327\n        /* \"@openzeppelin/contracts/access/AccessControl.sol\":6814:6818  role */\n      dup4\n        /* \"@openzeppelin/contracts/access/AccessControl.sol\":6820:6827  account */\n      dup4\n        /* \"@openzeppelin/contracts/access/AccessControl.sol\":6806:6813  hasRole */\n      tag_93\n        /* \"@openzeppelin/contracts/access/AccessControl.sol\":6806:6828  hasRole(role, account) */\n      jump\t// in\n    tag_327:\n        /* \"@openzeppelin/contracts/access/AccessControl.sol\":6802:7019  if (hasRole(role, account)) {... */\n      iszero\n      tag_328\n      jumpi\n        /* \"@openzeppelin/contracts/access/AccessControl.sol\":6876:6881  false */\n      0x00\n        /* \"@openzeppelin/contracts/access/AccessControl.sol\":6844:6850  _roles */\n      dup1\n        /* \"@openzeppelin/contracts/access/AccessControl.sol\":6844:6856  _roles[role] */\n      0x00\n        /* \"@openzeppelin/contracts/access/AccessControl.sol\":6851:6855  role */\n      dup6\n        /* \"@openzeppelin/contracts/access/AccessControl.sol\":6844:6856  _roles[role] */\n      dup2\n      mstore\n      0x20\n      add\n      swap1\n      dup2\n      mstore\n      0x20\n      add\n      0x00\n      keccak256\n        /* \"@openzeppelin/contracts/access/AccessControl.sol\":6844:6864  _roles[role].hasRole */\n      0x00\n      add\n        /* \"@openzeppelin/contracts/access/AccessControl.sol\":6844:6873  _roles[role].hasRole[account] */\n      0x00\n        /* \"@openzeppelin/contracts/access/AccessControl.sol\":6865:6872  account */\n      dup5\n        /* \"@openzeppelin/contracts/access/AccessControl.sol\":6844:6873  _roles[role].hasRole[account] */\n      0xffffffffffffffffffffffffffffffffffffffff\n      and\n      0xffffffffffffffffffffffffffffffffffffffff\n      and\n      dup2\n      mstore\n      0x20\n      add\n      swap1\n      dup2\n      mstore\n      0x20\n      add\n      0x00\n      keccak256\n      0x00\n        /* \"@openzeppelin/contracts/access/AccessControl.sol\":6844:6881  _roles[role].hasRole[account] = false */\n      0x0100\n      exp\n      dup2\n      sload\n      dup2\n      0xff\n      mul\n      not\n      and\n      swap1\n      dup4\n      iszero\n      iszero\n      mul\n      or\n      swap1\n      sstore\n      pop\n        /* \"@openzeppelin/contracts/access/AccessControl.sol\":6927:6939  _msgSender() */\n      tag_329\n        /* \"@openzeppelin/contracts/access/AccessControl.sol\":6927:6937  _msgSender */\n      tag_166\n        /* \"@openzeppelin/contracts/access/AccessControl.sol\":6927:6939  _msgSender() */\n      jump\t// in\n    tag_329:\n        /* \"@openzeppelin/contracts/access/AccessControl.sol\":6900:6940  RoleRevoked(role, account, _msgSender()) */\n      0xffffffffffffffffffffffffffffffffffffffff\n      and\n        /* \"@openzeppelin/contracts/access/AccessControl.sol\":6918:6925  account */\n      dup3\n        /* \"@openzeppelin/contracts/access/AccessControl.sol\":6900:6940  RoleRevoked(role, account, _msgSender()) */\n      0xffffffffffffffffffffffffffffffffffffffff\n      and\n        /* \"@openzeppelin/contracts/access/AccessControl.sol\":6912:6916  role */\n      dup5\n        /* \"@openzeppelin/contracts/access/AccessControl.sol\":6900:6940  RoleRevoked(role, account, _msgSender()) */\n      0xf6391f5c32d9c69d2a47ea670b442974b53935d1edc7fd64eb21e047a839171b\n      mload(0x40)\n      mload(0x40)\n      dup1\n      swap2\n      sub\n      swap1\n      log4\n        /* \"@openzeppelin/contracts/access/AccessControl.sol\":6961:6965  true */\n      0x01\n        /* \"@openzeppelin/contracts/access/AccessControl.sol\":6954:6965  return true */\n      swap1\n      pop\n      jump(tag_326)\n        /* \"@openzeppelin/contracts/access/AccessControl.sol\":6802:7019  if (hasRole(role, account)) {... */\n    tag_328:\n        /* \"@openzeppelin/contracts/access/AccessControl.sol\":7003:7008  false */\n      0x00\n        /* \"@openzeppelin/contracts/access/AccessControl.sol\":6996:7008  return false */\n      swap1\n      pop\n        /* \"@openzeppelin/contracts/access/AccessControl.sol\":6708:7025  function _revokeRole(bytes32 role, address account) internal virtual returns (bool) {... */\n    tag_326:\n      swap3\n      swap2\n      pop\n      pop\n      jump\t// out\n        /* \"@openzeppelin/contracts/utils/ReentrancyGuard.sol\":2575:2882  function _nonReentrantBefore() private {... */\n    tag_172:\n        /* \"@openzeppelin/contracts/utils/ReentrancyGuard.sol\":1899:1900  2 */\n      0x02\n        /* \"@openzeppelin/contracts/utils/ReentrancyGuard.sol\":2702:2709  _status */\n      sload(0x01)\n        /* \"@openzeppelin/contracts/utils/ReentrancyGuard.sol\":2702:2720  _status == ENTERED */\n      sub\n        /* \"@openzeppelin/contracts/utils/ReentrancyGuard.sol\":2698:2784  if (_status == ENTERED) {... */\n      tag_332\n      jumpi\n        /* \"@openzeppelin/contracts/utils/ReentrancyGuard.sol\":2743:2773  ReentrancyGuardReentrantCall() */\n      mload(0x40)\n      0x3ee5aeb500000000000000000000000000000000000000000000000000000000\n      dup2\n      mstore\n      0x04\n      add\n      mload(0x40)\n      dup1\n      swap2\n      sub\n      swap1\n      revert\n        /* \"@openzeppelin/contracts/utils/ReentrancyGuard.sol\":2698:2784  if (_status == ENTERED) {... */\n    tag_332:\n        /* \"@openzeppelin/contracts/utils/ReentrancyGuard.sol\":1899:1900  2 */\n      0x02\n        /* \"@openzeppelin/contracts/utils/ReentrancyGuard.sol\":2858:2865  _status */\n      0x01\n        /* \"@openzeppelin/contracts/utils/ReentrancyGuard.sol\":2858:2875  _status = ENTERED */\n      dup2\n      swap1\n      sstore\n      pop\n        /* \"@openzeppelin/contracts/utils/ReentrancyGuard.sol\":2575:2882  function _nonReentrantBefore() private {... */\n      jump\t// out\n        /* \"@openzeppelin/contracts/utils/ReentrancyGuard.sol\":2888:3096  function _nonReentrantAfter() private {... */\n    tag_214:\n        /* \"@openzeppelin/contracts/utils/ReentrancyGuard.sol\":1857:1858  1 */\n      0x01\n        /* \"@openzeppelin/contracts/utils/ReentrancyGuard.sol\":3068:3075  _status */\n      dup1\n        /* \"@openzeppelin/contracts/utils/ReentrancyGuard.sol\":3068:3089  _status = NOT_ENTERED */\n      dup2\n      swap1\n      sstore\n      pop\n        /* \"@openzeppelin/contracts/utils/ReentrancyGuard.sol\":2888:3096  function _nonReentrantAfter() private {... */\n      jump\t// out\n        /* \"@openzeppelin/contracts/token/ERC20/utils/SafeERC20.sol\":1618:1806  function safeTransferFrom(IERC20 token, address from, address to, uint256 value) internal {... */\n    tag_232:\n        /* \"@openzeppelin/contracts/token/ERC20/utils/SafeERC20.sol\":1718:1799  _callOptionalReturn(token, abi.encodeCall(token.transferFrom, (from, to, value))) */\n      tag_335\n        /* \"@openzeppelin/contracts/token/ERC20/utils/SafeERC20.sol\":1738:1743  token */\n      dup5\n        /* \"@openzeppelin/contracts/token/ERC20/utils/SafeERC20.sol\":1760:1765  token */\n      dup6\n        /* \"@openzeppelin/contracts/token/ERC20/utils/SafeERC20.sol\":1760:1778  token.transferFrom */\n      0xffffffffffffffffffffffffffffffffffffffff\n      and\n      0x23b872dd\n        /* \"@openzeppelin/contracts/token/ERC20/utils/SafeERC20.sol\":1781:1785  from */\n      dup7\n        /* \"@openzeppelin/contracts/token/ERC20/utils/SafeERC20.sol\":1787:1789  to */\n      dup7\n        /* \"@openzeppelin/contracts/token/ERC20/utils/SafeERC20.sol\":1791:1796  value */\n      dup7\n        /* \"@openzeppelin/contracts/token/ERC20/utils/SafeERC20.sol\":1745:1798  abi.encodeCall(token.transferFrom, (from, to, value)) */\n      add(0x24, mload(0x40))\n      tag_336\n      swap4\n      swap3\n      swap2\n      swap1\n      tag_337\n      jump\t// in\n    tag_336:\n      mload(0x40)\n      0x20\n      dup2\n      dup4\n      sub\n      sub\n      dup2\n      mstore\n      swap1\n      0x40\n      mstore\n      swap2\n      pop\n      0xe0\n      shl\n      0x20\n      dup3\n      add\n      dup1\n      mload\n      0xffffffffffffffffffffffffffffffffffffffffffffffffffffffff\n      dup4\n      dup2\n      dup4\n      and\n      or\n      dup4\n      mstore\n      pop\n      pop\n      pop\n      pop\n        /* \"@openzeppelin/contracts/token/ERC20/utils/SafeERC20.sol\":1718:1737  _callOptionalReturn */\n      tag_338\n        /* \"@openzeppelin/contracts/token/ERC20/utils/SafeERC20.sol\":1718:1799  _callOptionalReturn(token, abi.encodeCall(token.transferFrom, (from, to, value))) */\n      jump\t// in\n    tag_335:\n        /* \"@openzeppelin/contracts/token/ERC20/utils/SafeERC20.sol\":1618:1806  function safeTransferFrom(IERC20 token, address from, address to, uint256 value) internal {... */\n      pop\n      pop\n      pop\n      pop\n      jump\t// out\n        /* \"@openzeppelin/contracts/token/ERC20/utils/SafeERC20.sol\":3146:3371  function safeIncreaseAllowance(IERC20 token, address spender, uint256 value) internal {... */\n    tag_234:\n        /* \"@openzeppelin/contracts/token/ERC20/utils/SafeERC20.sol\":3242:3262  uint256 oldAllowance */\n      0x00\n        /* \"@openzeppelin/contracts/token/ERC20/utils/SafeERC20.sol\":3265:3270  token */\n      dup4\n        /* \"@openzeppelin/contracts/token/ERC20/utils/SafeERC20.sol\":3265:3280  token.allowance */\n      0xffffffffffffffffffffffffffffffffffffffff\n      and\n      0xdd62ed3e\n        /* \"@openzeppelin/contracts/token/ERC20/utils/SafeERC20.sol\":3289:3293  this */\n      address\n        /* \"@openzeppelin/contracts/token/ERC20/utils/SafeERC20.sol\":3296:3303  spender */\n      dup6\n        /* \"@openzeppelin/contracts/token/ERC20/utils/SafeERC20.sol\":3265:3304  token.allowance(address(this), spender) */\n      mload(0x40)\n      dup4\n      0xffffffff\n      and\n      0xe0\n      shl\n      dup2\n      mstore\n      0x04\n      add\n      tag_340\n      swap3\n      swap2\n      swap1\n      tag_225\n      jump\t// in\n    tag_340:\n      0x20\n      mload(0x40)\n      dup1\n      dup4\n      sub\n      dup2\n      dup7\n      gas\n      staticcall\n      iszero\n      dup1\n      iszero\n      tag_342\n      jumpi\n      returndatasize\n      0x00\n      dup1\n      returndatacopy\n      revert(0x00, returndatasize)\n    tag_342:\n      pop\n      pop\n      pop\n      pop\n      mload(0x40)\n      returndatasize\n      not(0x1f)\n      0x1f\n      dup3\n      add\n      and\n      dup3\n      add\n      dup1\n      0x40\n      mstore\n      pop\n      dup2\n      add\n      swap1\n      tag_343\n      swap2\n      swap1\n      tag_192\n      jump\t// in\n    tag_343:\n        /* \"@openzeppelin/contracts/token/ERC20/utils/SafeERC20.sol\":3242:3304  uint256 oldAllowance = token.allowance(address(this), spender) */\n      swap1\n      pop\n        /* \"@openzeppelin/contracts/token/ERC20/utils/SafeERC20.sol\":3314:3364  forceApprove(token, spender, oldAllowance + value) */\n      tag_344\n        /* \"@openzeppelin/contracts/token/ERC20/utils/SafeERC20.sol\":3327:3332  token */\n      dup5\n        /* \"@openzeppelin/contracts/token/ERC20/utils/SafeERC20.sol\":3334:3341  spender */\n      dup5\n        /* \"@openzeppelin/contracts/token/ERC20/utils/SafeERC20.sol\":3358:3363  value */\n      dup5\n        /* \"@openzeppelin/contracts/token/ERC20/utils/SafeERC20.sol\":3343:3355  oldAllowance */\n      dup5\n        /* \"@openzeppelin/contracts/token/ERC20/utils/SafeERC20.sol\":3343:3363  oldAllowance + value */\n      tag_345\n      swap2\n      swap1\n      tag_206\n      jump\t// in\n    tag_345:\n        /* \"@openzeppelin/contracts/token/ERC20/utils/SafeERC20.sol\":3314:3326  forceApprove */\n      tag_346\n        /* \"@openzeppelin/contracts/token/ERC20/utils/SafeERC20.sol\":3314:3364  forceApprove(token, spender, oldAllowance + value) */\n      jump\t// in\n    tag_344:\n        /* \"@openzeppelin/contracts/token/ERC20/utils/SafeERC20.sol\":3232:3371  {... */\n      pop\n        /* \"@openzeppelin/contracts/token/ERC20/utils/SafeERC20.sol\":3146:3371  function safeIncreaseAllowance(IERC20 token, address spender, uint256 value) internal {... */\n      pop\n      pop\n      pop\n      jump\t// out\n        /* \"@openzeppelin/contracts/token/ERC20/utils/SafeERC20.sol\":1219:1379  function safeTransfer(IERC20 token, address to, uint256 value) internal {... */\n    tag_296:\n        /* \"@openzeppelin/contracts/token/ERC20/utils/SafeERC20.sol\":1301:1372  _callOptionalReturn(token, abi.encodeCall(token.transfer, (to, value))) */\n      tag_348\n        /* \"@openzeppelin/contracts/token/ERC20/utils/SafeERC20.sol\":1321:1326  token */\n      dup4\n        /* \"@openzeppelin/contracts/token/ERC20/utils/SafeERC20.sol\":1343:1348  token */\n      dup5\n        /* \"@openzeppelin/contracts/token/ERC20/utils/SafeERC20.sol\":1343:1357  token.transfer */\n      0xffffffffffffffffffffffffffffffffffffffff\n      and\n      0xa9059cbb\n        /* \"@openzeppelin/contracts/token/ERC20/utils/SafeERC20.sol\":1360:1362  to */\n      dup6\n        /* \"@openzeppelin/contracts/token/ERC20/utils/SafeERC20.sol\":1364:1369  value */\n      dup6\n        /* \"@openzeppelin/contracts/token/ERC20/utils/SafeERC20.sol\":1328:1371  abi.encodeCall(token.transfer, (to, value)) */\n      add(0x24, mload(0x40))\n      tag_349\n      swap3\n      swap2\n      swap1\n      tag_350\n      jump\t// in\n    tag_349:\n      mload(0x40)\n      0x20\n      dup2\n      dup4\n      sub\n      sub\n      dup2\n      mstore\n      swap1\n      0x40\n      mstore\n      swap2\n      pop\n      0xe0\n      shl\n      0x20\n      dup3\n      add\n      dup1\n      mload\n      0xffffffffffffffffffffffffffffffffffffffffffffffffffffffff\n      dup4\n      dup2\n      dup4\n      and\n      or\n      dup4\n      mstore\n      pop\n      pop\n      pop\n      pop\n        /* \"@openzeppelin/contracts/token/ERC20/utils/SafeERC20.sol\":1301:1320  _callOptionalReturn */\n      tag_338\n        /* \"@openzeppelin/contracts/token/ERC20/utils/SafeERC20.sol\":1301:1372  _callOptionalReturn(token, abi.encodeCall(token.transfer, (to, value))) */\n      jump\t// in\n    tag_348:\n        /* \"@openzeppelin/contracts/token/ERC20/utils/SafeERC20.sol\":1219:1379  function safeTransfer(IERC20 token, address to, uint256 value) internal {... */\n      pop\n      pop\n      pop\n      jump\t// out\n        /* \"KipuBankV3.sol\":12731:13719  function _toUsd(address token, uint256 amount) internal view returns (uint256 usd6) {... */\n    tag_302:\n        /* \"KipuBankV3.sol\":12801:12813  uint256 usd6 */\n      0x00\n        /* \"KipuBankV3.sol\":12839:12840  0 */\n      dup1\n        /* \"KipuBankV3.sol\":12829:12835  amount */\n      dup3\n        /* \"KipuBankV3.sol\":12829:12840  amount == 0 */\n      sub\n        /* \"KipuBankV3.sol\":12825:12850  if (amount == 0) return 0 */\n      tag_352\n      jumpi\n        /* \"KipuBankV3.sol\":12849:12850  0 */\n      0x00\n        /* \"KipuBankV3.sol\":12842:12850  return 0 */\n      swap1\n      pop\n      jump(tag_351)\n        /* \"KipuBankV3.sol\":12825:12850  if (amount == 0) return 0 */\n    tag_352:\n        /* \"KipuBankV3.sol\":12860:12882  TokenConfig memory cfg */\n      0x00\n        /* \"KipuBankV3.sol\":12885:12896  tokenConfig */\n      0x04\n        /* \"KipuBankV3.sol\":12885:12903  tokenConfig[token] */\n      0x00\n        /* \"KipuBankV3.sol\":12897:12902  token */\n      dup6\n        /* \"KipuBankV3.sol\":12885:12903  tokenConfig[token] */\n      0xffffffffffffffffffffffffffffffffffffffff\n      and\n      0xffffffffffffffffffffffffffffffffffffffff\n      and\n      dup2\n      mstore\n      0x20\n      add\n      swap1\n      dup2\n      mstore\n      0x20\n      add\n      0x00\n      keccak256\n        /* \"KipuBankV3.sol\":12860:12903  TokenConfig memory cfg = tokenConfig[token] */\n      mload(0x40)\n      dup1\n      0xa0\n      add\n      0x40\n      mstore\n      swap1\n      dup2\n      0x00\n      dup3\n      add\n      0x00\n      swap1\n      sload\n      swap1\n      0x0100\n      exp\n      swap1\n      div\n      0xff\n      and\n      iszero\n      iszero\n      iszero\n      iszero\n      dup2\n      mstore\n      0x20\n      add\n      0x00\n      dup3\n      add\n      0x01\n      swap1\n      sload\n      swap1\n      0x0100\n      exp\n      swap1\n      div\n      0xff\n      and\n      iszero\n      iszero\n      iszero\n      iszero\n      dup2\n      mstore\n      0x20\n      add\n      0x00\n      dup3\n      add\n      0x02\n      swap1\n      sload\n      swap1\n      0x0100\n      exp\n      swap1\n      div\n      0xff\n      and\n      0xff\n      and\n      0xff\n      and\n      dup2\n      mstore\n      0x20\n      add\n      0x01\n      dup3\n      add\n      sload\n      dup2\n      mstore\n      0x20\n      add\n      0x02\n      dup3\n      add\n      0x00\n      swap1\n      sload\n      swap1\n      0x0100\n      exp\n      swap1\n      div\n      0xffffffffffffffffffffffffffffffffffffffff\n      and\n      0xffffffffffffffffffffffffffffffffffffffff\n      and\n      0xffffffffffffffffffffffffffffffffffffffff\n      and\n      dup2\n      mstore\n      pop\n      pop\n      swap1\n      pop\n        /* \"KipuBankV3.sol\":12913:12925  address feed */\n      0x00\n        /* \"KipuBankV3.sol\":12928:12931  cfg */\n      dup2\n        /* \"KipuBankV3.sol\":12928:12941  cfg.priceFeed */\n      0x80\n      add\n      mload\n        /* \"KipuBankV3.sol\":12913:12941  address feed = cfg.priceFeed */\n      swap1\n      pop\n        /* \"KipuBankV3.sol\":12971:12972  0 */\n      0x00\n        /* \"KipuBankV3.sol\":12955:12973  feed == address(0) */\n      0xffffffffffffffffffffffffffffffffffffffff\n      and\n        /* \"KipuBankV3.sol\":12955:12959  feed */\n      dup2\n        /* \"KipuBankV3.sol\":12955:12973  feed == address(0) */\n      0xffffffffffffffffffffffffffffffffffffffff\n      and\n      sub\n        /* \"KipuBankV3.sol\":12951:13004  if (feed == address(0)) revert PriceFeedNotSet(token) */\n      tag_353\n      jumpi\n        /* \"KipuBankV3.sol\":12998:13003  token */\n      dup5\n        /* \"KipuBankV3.sol\":12982:13004  PriceFeedNotSet(token) */\n      mload(0x40)\n      0x8a7a791d00000000000000000000000000000000000000000000000000000000\n      dup2\n      mstore\n      0x04\n      add\n      tag_354\n      swap2\n      swap1\n      tag_68\n      jump\t// in\n    tag_354:\n      mload(0x40)\n      dup1\n      swap2\n      sub\n      swap1\n      revert\n        /* \"KipuBankV3.sol\":12951:13004  if (feed == address(0)) revert PriceFeedNotSet(token) */\n    tag_353:\n        /* \"KipuBankV3.sol\":13018:13030  int256 price */\n      0x00\n        /* \"KipuBankV3.sol\":13059:13063  feed */\n      dup2\n        /* \"KipuBankV3.sol\":13037:13080  AggregatorV3Interface(feed).latestRoundData */\n      0xffffffffffffffffffffffffffffffffffffffff\n      and\n      0xfeaf968c\n        /* \"KipuBankV3.sol\":13037:13082  AggregatorV3Interface(feed).latestRoundData() */\n      mload(0x40)\n      dup2\n      0xffffffff\n      and\n      0xe0\n      shl\n      dup2\n      mstore\n      0x04\n      add\n      0xa0\n      mload(0x40)\n      dup1\n      dup4\n      sub\n      dup2\n      dup7\n      gas\n      staticcall\n      iszero\n      dup1\n      iszero\n      tag_356\n      jumpi\n      returndatasize\n      0x00\n      dup1\n      returndatacopy\n      revert(0x00, returndatasize)\n    tag_356:\n      pop\n      pop\n      pop\n      pop\n      mload(0x40)\n      returndatasize\n      not(0x1f)\n      0x1f\n      dup3\n      add\n      and\n      dup3\n      add\n      dup1\n      0x40\n      mstore\n      pop\n      dup2\n      add\n      swap1\n      tag_357\n      swap2\n      swap1\n      tag_358\n      jump\t// in\n    tag_357:\n        /* \"KipuBankV3.sol\":13015:13082  (, int256 price,,,) = AggregatorV3Interface(feed).latestRoundData() */\n      pop\n      pop\n      pop\n      swap2\n      pop\n      pop\n        /* \"KipuBankV3.sol\":13105:13106  0 */\n      0x00\n        /* \"KipuBankV3.sol\":13096:13101  price */\n      dup2\n        /* \"KipuBankV3.sol\":13096:13106  price <= 0 */\n      sgt\n        /* \"KipuBankV3.sol\":13092:13130  if (price <= 0) revert PriceNegative() */\n      tag_359\n      jumpi\n        /* \"KipuBankV3.sol\":13115:13130  PriceNegative() */\n      mload(0x40)\n      0x4fd58d4b00000000000000000000000000000000000000000000000000000000\n      dup2\n      mstore\n      0x04\n      add\n      mload(0x40)\n      dup1\n      swap2\n      sub\n      swap1\n      revert\n        /* \"KipuBankV3.sol\":13092:13130  if (price <= 0) revert PriceNegative() */\n    tag_359:\n        /* \"KipuBankV3.sol\":13209:13218  uint256 p */\n      0x00\n        /* \"KipuBankV3.sol\":13229:13234  price */\n      dup2\n        /* \"KipuBankV3.sol\":13209:13235  uint256 p = uint256(price) */\n      swap1\n      pop\n        /* \"KipuBankV3.sol\":13245:13253  uint8 pd */\n      0x00\n        /* \"KipuBankV3.sol\":13278:13282  feed */\n      dup4\n        /* \"KipuBankV3.sol\":13256:13292  AggregatorV3Interface(feed).decimals */\n      0xffffffffffffffffffffffffffffffffffffffff\n      and\n      0x313ce567\n        /* \"KipuBankV3.sol\":13256:13294  AggregatorV3Interface(feed).decimals() */\n      mload(0x40)\n      dup2\n      0xffffffff\n      and\n      0xe0\n      shl\n      dup2\n      mstore\n      0x04\n      add\n      0x20\n      mload(0x40)\n      dup1\n      dup4\n      sub\n      dup2\n      dup7\n      gas\n      staticcall\n      iszero\n      dup1\n      iszero\n      tag_361\n      jumpi\n      returndatasize\n      0x00\n      dup1\n      returndatacopy\n      revert(0x00, returndatasize)\n    tag_361:\n      pop\n      pop\n      pop\n      pop\n      mload(0x40)\n      returndatasize\n      not(0x1f)\n      0x1f\n      dup3\n      add\n      and\n      dup3\n      add\n      dup1\n      0x40\n      mstore\n      pop\n      dup2\n      add\n      swap1\n      tag_362\n      swap2\n      swap1\n      tag_271\n      jump\t// in\n    tag_362:\n        /* \"KipuBankV3.sol\":13245:13294  uint8 pd = AggregatorV3Interface(feed).decimals() */\n      swap1\n      pop\n        /* \"KipuBankV3.sol\":13304:13321  uint256 numerator */\n      0x00\n        /* \"KipuBankV3.sol\":13333:13334  p */\n      dup3\n        /* \"KipuBankV3.sol\":13324:13330  amount */\n      dup9\n        /* \"KipuBankV3.sol\":13324:13334  amount * p */\n      tag_363\n      swap2\n      swap1\n      tag_364\n      jump\t// in\n    tag_363:\n        /* \"KipuBankV3.sol\":13304:13334  uint256 numerator = amount * p */\n      swap1\n      pop\n        /* \"KipuBankV3.sol\":13354:13355  0 */\n      0x00\n        /* \"KipuBankV3.sol\":13349:13351  pd */\n      dup3\n        /* \"KipuBankV3.sol\":13349:13355  pd > 0 */\n      0xff\n      and\n      gt\n        /* \"KipuBankV3.sol\":13345:13416  if (pd > 0) {... */\n      iszero\n      tag_365\n      jumpi\n        /* \"KipuBankV3.sol\":13402:13404  pd */\n      dup2\n        /* \"KipuBankV3.sol\":13396:13398  10 */\n      0x0a\n        /* \"KipuBankV3.sol\":13396:13404  10 ** pd */\n      tag_366\n      swap2\n      swap1\n      tag_367\n      jump\t// in\n    tag_366:\n        /* \"KipuBankV3.sol\":13383:13392  numerator */\n      dup2\n        /* \"KipuBankV3.sol\":13383:13405  numerator / (10 ** pd) */\n      tag_368\n      swap2\n      swap1\n      tag_369\n      jump\t// in\n    tag_368:\n        /* \"KipuBankV3.sol\":13371:13405  numerator = numerator / (10 ** pd) */\n      swap1\n      pop\n        /* \"KipuBankV3.sol\":13345:13416  if (pd > 0) {... */\n    tag_365:\n        /* \"KipuBankV3.sol\":2458:2459  6 */\n      0x06\n        /* \"KipuBankV3.sol\":13430:13463  cfg.tokenDecimals >= USD_DECIMALS */\n      0xff\n      and\n        /* \"KipuBankV3.sol\":13430:13433  cfg */\n      dup7\n        /* \"KipuBankV3.sol\":13430:13447  cfg.tokenDecimals */\n      0x40\n      add\n      mload\n        /* \"KipuBankV3.sol\":13430:13463  cfg.tokenDecimals >= USD_DECIMALS */\n      0xff\n      and\n      lt\n        /* \"KipuBankV3.sol\":13426:13713  if (cfg.tokenDecimals >= USD_DECIMALS) {... */\n      tag_370\n      jumpi\n        /* \"KipuBankV3.sol\":13479:13493  uint256 factor */\n      0x00\n        /* \"KipuBankV3.sol\":2458:2459  6 */\n      0x06\n        /* \"KipuBankV3.sol\":13503:13506  cfg */\n      dup8\n        /* \"KipuBankV3.sol\":13503:13520  cfg.tokenDecimals */\n      0x40\n      add\n      mload\n        /* \"KipuBankV3.sol\":13503:13535  cfg.tokenDecimals - USD_DECIMALS */\n      tag_371\n      swap2\n      swap1\n      tag_372\n      jump\t// in\n    tag_371:\n        /* \"KipuBankV3.sol\":13496:13498  10 */\n      0x0a\n        /* \"KipuBankV3.sol\":13496:13536  10 ** (cfg.tokenDecimals - USD_DECIMALS) */\n      tag_373\n      swap2\n      swap1\n      tag_367\n      jump\t// in\n    tag_373:\n        /* \"KipuBankV3.sol\":13479:13536  uint256 factor = 10 ** (cfg.tokenDecimals - USD_DECIMALS) */\n      swap1\n      pop\n        /* \"KipuBankV3.sol\":13569:13575  factor */\n      dup1\n        /* \"KipuBankV3.sol\":13557:13566  numerator */\n      dup3\n        /* \"KipuBankV3.sol\":13557:13575  numerator / factor */\n      tag_374\n      swap2\n      swap1\n      tag_369\n      jump\t// in\n    tag_374:\n        /* \"KipuBankV3.sol\":13550:13575  usd6 = numerator / factor */\n      swap8\n      pop\n        /* \"KipuBankV3.sol\":13465:13586  {... */\n      pop\n        /* \"KipuBankV3.sol\":13426:13713  if (cfg.tokenDecimals >= USD_DECIMALS) {... */\n      jump(tag_375)\n    tag_370:\n        /* \"KipuBankV3.sol\":13606:13620  uint256 factor */\n      0x00\n        /* \"KipuBankV3.sol\":13645:13648  cfg */\n      dup7\n        /* \"KipuBankV3.sol\":13645:13662  cfg.tokenDecimals */\n      0x40\n      add\n      mload\n        /* \"KipuBankV3.sol\":2458:2459  6 */\n      0x06\n        /* \"KipuBankV3.sol\":13630:13662  USD_DECIMALS - cfg.tokenDecimals */\n      tag_376\n      swap2\n      swap1\n      tag_372\n      jump\t// in\n    tag_376:\n        /* \"KipuBankV3.sol\":13623:13625  10 */\n      0x0a\n        /* \"KipuBankV3.sol\":13623:13663  10 ** (USD_DECIMALS - cfg.tokenDecimals) */\n      tag_377\n      swap2\n      swap1\n      tag_367\n      jump\t// in\n    tag_377:\n        /* \"KipuBankV3.sol\":13606:13663  uint256 factor = 10 ** (USD_DECIMALS - cfg.tokenDecimals) */\n      swap1\n      pop\n        /* \"KipuBankV3.sol\":13696:13702  factor */\n      dup1\n        /* \"KipuBankV3.sol\":13684:13693  numerator */\n      dup3\n        /* \"KipuBankV3.sol\":13684:13702  numerator * factor */\n      tag_378\n      swap2\n      swap1\n      tag_364\n      jump\t// in\n    tag_378:\n        /* \"KipuBankV3.sol\":13677:13702  usd6 = numerator * factor */\n      swap8\n      pop\n        /* \"KipuBankV3.sol\":13592:13713  {... */\n      pop\n        /* \"KipuBankV3.sol\":13426:13713  if (cfg.tokenDecimals >= USD_DECIMALS) {... */\n    tag_375:\n        /* \"KipuBankV3.sol\":12815:13719  {... */\n      pop\n      pop\n      pop\n      pop\n      pop\n      pop\n        /* \"KipuBankV3.sol\":12731:13719  function _toUsd(address token, uint256 amount) internal view returns (uint256 usd6) {... */\n    tag_351:\n      swap3\n      swap2\n      pop\n      pop\n      jump\t// out\n        /* \"@openzeppelin/contracts/access/AccessControl.sol\":3408:3605  function _checkRole(bytes32 role, address account) internal view virtual {... */\n    tag_319:\n        /* \"@openzeppelin/contracts/access/AccessControl.sol\":3496:3518  hasRole(role, account) */\n      tag_380\n        /* \"@openzeppelin/contracts/access/AccessControl.sol\":3504:3508  role */\n      dup3\n        /* \"@openzeppelin/contracts/access/AccessControl.sol\":3510:3517  account */\n      dup3\n        /* \"@openzeppelin/contracts/access/AccessControl.sol\":3496:3503  hasRole */\n      tag_93\n        /* \"@openzeppelin/contracts/access/AccessControl.sol\":3496:3518  hasRole(role, account) */\n      jump\t// in\n    tag_380:\n        /* \"@openzeppelin/contracts/access/AccessControl.sol\":3491:3599  if (!hasRole(role, account)) {... */\n      tag_381\n      jumpi\n        /* \"@openzeppelin/contracts/access/AccessControl.sol\":3574:3581  account */\n      dup1\n        /* \"@openzeppelin/contracts/access/AccessControl.sol\":3583:3587  role */\n      dup3\n        /* \"@openzeppelin/contracts/access/AccessControl.sol\":3541:3588  AccessControlUnauthorizedAccount(account, role) */\n      mload(0x40)\n      0xe2517d3f00000000000000000000000000000000000000000000000000000000\n      dup2\n      mstore\n      0x04\n      add\n      tag_382\n      swap3\n      swap2\n      swap1\n      tag_383\n      jump\t// in\n    tag_382:\n      mload(0x40)\n      dup1\n      swap2\n      sub\n      swap1\n      revert\n        /* \"@openzeppelin/contracts/access/AccessControl.sol\":3491:3599  if (!hasRole(role, account)) {... */\n    tag_381:\n        /* \"@openzeppelin/contracts/access/AccessControl.sol\":3408:3605  function _checkRole(bytes32 role, address account) internal view virtual {... */\n      pop\n      pop\n      jump\t// out\n        /* \"@openzeppelin/contracts/token/ERC20/utils/SafeERC20.sol\":8370:9090  function _callOptionalReturn(IERC20 token, bytes memory data) private {... */\n    tag_338:\n        /* \"@openzeppelin/contracts/token/ERC20/utils/SafeERC20.sol\":8450:8468  uint256 returnSize */\n      0x00\n        /* \"@openzeppelin/contracts/token/ERC20/utils/SafeERC20.sol\":8478:8497  uint256 returnValue */\n      dup1\n        /* \"@openzeppelin/contracts/token/ERC20/utils/SafeERC20.sol\":8616:8620  0x20 */\n      0x20\n        /* \"@openzeppelin/contracts/token/ERC20/utils/SafeERC20.sol\":8613:8614  0 */\n      0x00\n        /* \"@openzeppelin/contracts/token/ERC20/utils/SafeERC20.sol\":8606:8610  data */\n      dup5\n        /* \"@openzeppelin/contracts/token/ERC20/utils/SafeERC20.sol\":8600:8611  mload(data) */\n      mload\n        /* \"@openzeppelin/contracts/token/ERC20/utils/SafeERC20.sol\":8593:8597  0x20 */\n      0x20\n        /* \"@openzeppelin/contracts/token/ERC20/utils/SafeERC20.sol\":8587:8591  data */\n      dup7\n        /* \"@openzeppelin/contracts/token/ERC20/utils/SafeERC20.sol\":8583:8598  add(data, 0x20) */\n      add\n        /* \"@openzeppelin/contracts/token/ERC20/utils/SafeERC20.sol\":8580:8581  0 */\n      0x00\n        /* \"@openzeppelin/contracts/token/ERC20/utils/SafeERC20.sol\":8573:8578  token */\n      dup9\n        /* \"@openzeppelin/contracts/token/ERC20/utils/SafeERC20.sol\":8566:8571  gas() */\n      gas\n        /* \"@openzeppelin/contracts/token/ERC20/utils/SafeERC20.sol\":8561:8621  call(gas(), token, 0, add(data, 0x20), mload(data), 0, 0x20) */\n      call\n        /* \"@openzeppelin/contracts/token/ERC20/utils/SafeERC20.sol\":8673:8680  success */\n      dup1\n        /* \"@openzeppelin/contracts/token/ERC20/utils/SafeERC20.sol\":8663:8839  if iszero(success) {... */\n      tag_385\n      jumpi\n        /* \"@openzeppelin/contracts/token/ERC20/utils/SafeERC20.sol\":8717:8721  0x40 */\n      0x40\n        /* \"@openzeppelin/contracts/token/ERC20/utils/SafeERC20.sol\":8711:8722  mload(0x40) */\n      mload\n        /* \"@openzeppelin/contracts/token/ERC20/utils/SafeERC20.sol\":8762:8778  returndatasize() */\n      returndatasize\n        /* \"@openzeppelin/contracts/token/ERC20/utils/SafeERC20.sol\":8759:8760  0 */\n      0x00\n        /* \"@openzeppelin/contracts/token/ERC20/utils/SafeERC20.sol\":8754:8757  ptr */\n      dup3\n        /* \"@openzeppelin/contracts/token/ERC20/utils/SafeERC20.sol\":8739:8779  returndatacopy(ptr, 0, returndatasize()) */\n      returndatacopy\n        /* \"@openzeppelin/contracts/token/ERC20/utils/SafeERC20.sol\":8808:8824  returndatasize() */\n      returndatasize\n        /* \"@openzeppelin/contracts/token/ERC20/utils/SafeERC20.sol\":8803:8806  ptr */\n      dup2\n        /* \"@openzeppelin/contracts/token/ERC20/utils/SafeERC20.sol\":8796:8825  revert(ptr, returndatasize()) */\n      revert\n        /* \"@openzeppelin/contracts/token/ERC20/utils/SafeERC20.sol\":8663:8839  if iszero(success) {... */\n    tag_385:\n        /* \"@openzeppelin/contracts/token/ERC20/utils/SafeERC20.sol\":8866:8882  returndatasize() */\n      returndatasize\n        /* \"@openzeppelin/contracts/token/ERC20/utils/SafeERC20.sol\":8852:8882  returnSize := returndatasize() */\n      swap3\n      pop\n        /* \"@openzeppelin/contracts/token/ERC20/utils/SafeERC20.sol\":8916:8917  0 */\n      0x00\n        /* \"@openzeppelin/contracts/token/ERC20/utils/SafeERC20.sol\":8910:8918  mload(0) */\n      mload\n        /* \"@openzeppelin/contracts/token/ERC20/utils/SafeERC20.sol\":8895:8918  returnValue := mload(0) */\n      swap2\n      pop\n        /* \"@openzeppelin/contracts/token/ERC20/utils/SafeERC20.sol\":8532:8928  {... */\n      pop\n        /* \"@openzeppelin/contracts/token/ERC20/utils/SafeERC20.sol\":8956:8957  0 */\n      0x00\n        /* \"@openzeppelin/contracts/token/ERC20/utils/SafeERC20.sol\":8942:8952  returnSize */\n      dup3\n        /* \"@openzeppelin/contracts/token/ERC20/utils/SafeERC20.sol\":8942:8957  returnSize == 0 */\n      eq\n        /* \"@openzeppelin/contracts/token/ERC20/utils/SafeERC20.sol\":8942:9010  returnSize == 0 ? address(token).code.length == 0 : returnValue != 1 */\n      tag_386\n      jumpi\n        /* \"@openzeppelin/contracts/token/ERC20/utils/SafeERC20.sol\":9009:9010  1 */\n      0x01\n        /* \"@openzeppelin/contracts/token/ERC20/utils/SafeERC20.sol\":8994:9005  returnValue */\n      dup2\n        /* \"@openzeppelin/contracts/token/ERC20/utils/SafeERC20.sol\":8994:9010  returnValue != 1 */\n      eq\n      iszero\n        /* \"@openzeppelin/contracts/token/ERC20/utils/SafeERC20.sol\":8942:9010  returnSize == 0 ? address(token).code.length == 0 : returnValue != 1 */\n      jump(tag_387)\n    tag_386:\n        /* \"@openzeppelin/contracts/token/ERC20/utils/SafeERC20.sol\":8990:8991  0 */\n      0x00\n        /* \"@openzeppelin/contracts/token/ERC20/utils/SafeERC20.sol\":8968:8973  token */\n      dup5\n        /* \"@openzeppelin/contracts/token/ERC20/utils/SafeERC20.sol\":8960:8986  address(token).code.length */\n      0xffffffffffffffffffffffffffffffffffffffff\n      and\n      extcodesize\n        /* \"@openzeppelin/contracts/token/ERC20/utils/SafeERC20.sol\":8960:8991  address(token).code.length == 0 */\n      eq\n        /* \"@openzeppelin/contracts/token/ERC20/utils/SafeERC20.sol\":8942:9010  returnSize == 0 ? address(token).code.length == 0 : returnValue != 1 */\n    tag_387:\n        /* \"@openzeppelin/contracts/token/ERC20/utils/SafeERC20.sol\":8938:9084  if (returnSize == 0 ? address(token).code.length == 0 : returnValue != 1) {... */\n      iszero\n      tag_388\n      jumpi\n        /* \"@openzeppelin/contracts/token/ERC20/utils/SafeERC20.sol\":9066:9071  token */\n      dup4\n        /* \"@openzeppelin/contracts/token/ERC20/utils/SafeERC20.sol\":9033:9073  SafeERC20FailedOperation(address(token)) */\n      mload(0x40)\n      0x5274afe700000000000000000000000000000000000000000000000000000000\n      dup2\n      mstore\n      0x04\n      add\n      tag_389\n      swap2\n      swap1\n      tag_68\n      jump\t// in\n    tag_389:\n      mload(0x40)\n      dup1\n      swap2\n      sub\n      swap1\n      revert\n        /* \"@openzeppelin/contracts/token/ERC20/utils/SafeERC20.sol\":8938:9084  if (returnSize == 0 ? address(token).code.length == 0 : returnValue != 1) {... */\n    tag_388:\n        /* \"@openzeppelin/contracts/token/ERC20/utils/SafeERC20.sol\":8440:9090  {... */\n      pop\n      pop\n        /* \"@openzeppelin/contracts/token/ERC20/utils/SafeERC20.sol\":8370:9090  function _callOptionalReturn(IERC20 token, bytes memory data) private {... */\n      pop\n      pop\n      jump\t// out\n        /* \"@openzeppelin/contracts/token/ERC20/utils/SafeERC20.sol\":5084:5464  function forceApprove(IERC20 token, address spender, uint256 value) internal {... */\n    tag_346:\n        /* \"@openzeppelin/contracts/token/ERC20/utils/SafeERC20.sol\":5171:5196  bytes memory approvalCall */\n      0x00\n        /* \"@openzeppelin/contracts/token/ERC20/utils/SafeERC20.sol\":5214:5219  token */\n      dup4\n        /* \"@openzeppelin/contracts/token/ERC20/utils/SafeERC20.sol\":5214:5227  token.approve */\n      0xffffffffffffffffffffffffffffffffffffffff\n      and\n      0x095ea7b3\n        /* \"@openzeppelin/contracts/token/ERC20/utils/SafeERC20.sol\":5230:5237  spender */\n      dup5\n        /* \"@openzeppelin/contracts/token/ERC20/utils/SafeERC20.sol\":5239:5244  value */\n      dup5\n        /* \"@openzeppelin/contracts/token/ERC20/utils/SafeERC20.sol\":5199:5246  abi.encodeCall(token.approve, (spender, value)) */\n      add(0x24, mload(0x40))\n      tag_391\n      swap3\n      swap2\n      swap1\n      tag_350\n      jump\t// in\n    tag_391:\n      mload(0x40)\n      0x20\n      dup2\n      dup4\n      sub\n      sub\n      dup2\n      mstore\n      swap1\n      0x40\n      mstore\n      swap2\n      pop\n      0xe0\n      shl\n      0x20\n      dup3\n      add\n      dup1\n      mload\n      0xffffffffffffffffffffffffffffffffffffffffffffffffffffffff\n      dup4\n      dup2\n      dup4\n      and\n      or\n      dup4\n      mstore\n      pop\n      pop\n      pop\n      pop\n        /* \"@openzeppelin/contracts/token/ERC20/utils/SafeERC20.sol\":5171:5246  bytes memory approvalCall = abi.encodeCall(token.approve, (spender, value)) */\n      swap1\n      pop\n        /* \"@openzeppelin/contracts/token/ERC20/utils/SafeERC20.sol\":5262:5306  _callOptionalReturnBool(token, approvalCall) */\n      tag_392\n        /* \"@openzeppelin/contracts/token/ERC20/utils/SafeERC20.sol\":5286:5291  token */\n      dup5\n        /* \"@openzeppelin/contracts/token/ERC20/utils/SafeERC20.sol\":5293:5305  approvalCall */\n      dup3\n        /* \"@openzeppelin/contracts/token/ERC20/utils/SafeERC20.sol\":5262:5285  _callOptionalReturnBool */\n      tag_393\n        /* \"@openzeppelin/contracts/token/ERC20/utils/SafeERC20.sol\":5262:5306  _callOptionalReturnBool(token, approvalCall) */\n      jump\t// in\n    tag_392:\n        /* \"@openzeppelin/contracts/token/ERC20/utils/SafeERC20.sol\":5257:5458  if (!_callOptionalReturnBool(token, approvalCall)) {... */\n      tag_394\n      jumpi\n        /* \"@openzeppelin/contracts/token/ERC20/utils/SafeERC20.sol\":5322:5393  _callOptionalReturn(token, abi.encodeCall(token.approve, (spender, 0))) */\n      tag_395\n        /* \"@openzeppelin/contracts/token/ERC20/utils/SafeERC20.sol\":5342:5347  token */\n      dup5\n        /* \"@openzeppelin/contracts/token/ERC20/utils/SafeERC20.sol\":5364:5369  token */\n      dup6\n        /* \"@openzeppelin/contracts/token/ERC20/utils/SafeERC20.sol\":5364:5377  token.approve */\n      0xffffffffffffffffffffffffffffffffffffffff\n      and\n      0x095ea7b3\n        /* \"@openzeppelin/contracts/token/ERC20/utils/SafeERC20.sol\":5380:5387  spender */\n      dup7\n        /* \"@openzeppelin/contracts/token/ERC20/utils/SafeERC20.sol\":5389:5390  0 */\n      0x00\n        /* \"@openzeppelin/contracts/token/ERC20/utils/SafeERC20.sol\":5349:5392  abi.encodeCall(token.approve, (spender, 0)) */\n      add(0x24, mload(0x40))\n      tag_396\n      swap3\n      swap2\n      swap1\n      tag_397\n      jump\t// in\n    tag_396:\n      mload(0x40)\n      0x20\n      dup2\n      dup4\n      sub\n      sub\n      dup2\n      mstore\n      swap1\n      0x40\n      mstore\n      swap2\n      pop\n      0xe0\n      shl\n      0x20\n      dup3\n      add\n      dup1\n      mload\n      0xffffffffffffffffffffffffffffffffffffffffffffffffffffffff\n      dup4\n      dup2\n      dup4\n      and\n      or\n      dup4\n      mstore\n      pop\n      pop\n      pop\n      pop\n        /* \"@openzeppelin/contracts/token/ERC20/utils/SafeERC20.sol\":5322:5341  _callOptionalReturn */\n      tag_338\n        /* \"@openzeppelin/contracts/token/ERC20/utils/SafeERC20.sol\":5322:5393  _callOptionalReturn(token, abi.encodeCall(token.approve, (spender, 0))) */\n      jump\t// in\n    tag_395:\n        /* \"@openzeppelin/contracts/token/ERC20/utils/SafeERC20.sol\":5407:5447  _callOptionalReturn(token, approvalCall) */\n      tag_398\n        /* \"@openzeppelin/contracts/token/ERC20/utils/SafeERC20.sol\":5427:5432  token */\n      dup5\n        /* \"@openzeppelin/contracts/token/ERC20/utils/SafeERC20.sol\":5434:5446  approvalCall */\n      dup3\n        /* \"@openzeppelin/contracts/token/ERC20/utils/SafeERC20.sol\":5407:5426  _callOptionalReturn */\n      tag_338\n        /* \"@openzeppelin/contracts/token/ERC20/utils/SafeERC20.sol\":5407:5447  _callOptionalReturn(token, approvalCall) */\n      jump\t// in\n    tag_398:\n        /* \"@openzeppelin/contracts/token/ERC20/utils/SafeERC20.sol\":5257:5458  if (!_callOptionalReturnBool(token, approvalCall)) {... */\n    tag_394:\n        /* \"@openzeppelin/contracts/token/ERC20/utils/SafeERC20.sol\":5161:5464  {... */\n      pop\n        /* \"@openzeppelin/contracts/token/ERC20/utils/SafeERC20.sol\":5084:5464  function forceApprove(IERC20 token, address spender, uint256 value) internal {... */\n      pop\n      pop\n      pop\n      jump\t// out\n        /* \"@openzeppelin/contracts/token/ERC20/utils/SafeERC20.sol\":9592:10072  function _callOptionalReturnBool(IERC20 token, bytes memory data) private returns (bool) {... */\n    tag_393:\n        /* \"@openzeppelin/contracts/token/ERC20/utils/SafeERC20.sol\":9675:9679  bool */\n      0x00\n        /* \"@openzeppelin/contracts/token/ERC20/utils/SafeERC20.sol\":9691:9703  bool success */\n      dup1\n        /* \"@openzeppelin/contracts/token/ERC20/utils/SafeERC20.sol\":9713:9731  uint256 returnSize */\n      0x00\n        /* \"@openzeppelin/contracts/token/ERC20/utils/SafeERC20.sol\":9741:9760  uint256 returnValue */\n      dup1\n        /* \"@openzeppelin/contracts/token/ERC20/utils/SafeERC20.sol\":9875:9879  0x20 */\n      0x20\n        /* \"@openzeppelin/contracts/token/ERC20/utils/SafeERC20.sol\":9872:9873  0 */\n      0x00\n        /* \"@openzeppelin/contracts/token/ERC20/utils/SafeERC20.sol\":9865:9869  data */\n      dup7\n        /* \"@openzeppelin/contracts/token/ERC20/utils/SafeERC20.sol\":9859:9870  mload(data) */\n      mload\n        /* \"@openzeppelin/contracts/token/ERC20/utils/SafeERC20.sol\":9852:9856  0x20 */\n      0x20\n        /* \"@openzeppelin/contracts/token/ERC20/utils/SafeERC20.sol\":9846:9850  data */\n      dup9\n        /* \"@openzeppelin/contracts/token/ERC20/utils/SafeERC20.sol\":9842:9857  add(data, 0x20) */\n      add\n        /* \"@openzeppelin/contracts/token/ERC20/utils/SafeERC20.sol\":9839:9840  0 */\n      0x00\n        /* \"@openzeppelin/contracts/token/ERC20/utils/SafeERC20.sol\":9832:9837  token */\n      dup11\n        /* \"@openzeppelin/contracts/token/ERC20/utils/SafeERC20.sol\":9825:9830  gas() */\n      gas\n        /* \"@openzeppelin/contracts/token/ERC20/utils/SafeERC20.sol\":9820:9880  call(gas(), token, 0, add(data, 0x20), mload(data), 0, 0x20) */\n      call\n        /* \"@openzeppelin/contracts/token/ERC20/utils/SafeERC20.sol\":9809:9880  success := call(gas(), token, 0, add(data, 0x20), mload(data), 0, 0x20) */\n      swap3\n      pop\n        /* \"@openzeppelin/contracts/token/ERC20/utils/SafeERC20.sol\":9907:9923  returndatasize() */\n      returndatasize\n        /* \"@openzeppelin/contracts/token/ERC20/utils/SafeERC20.sol\":9893:9923  returnSize := returndatasize() */\n      swap2\n      pop\n        /* \"@openzeppelin/contracts/token/ERC20/utils/SafeERC20.sol\":9957:9958  0 */\n      0x00\n        /* \"@openzeppelin/contracts/token/ERC20/utils/SafeERC20.sol\":9951:9959  mload(0) */\n      mload\n        /* \"@openzeppelin/contracts/token/ERC20/utils/SafeERC20.sol\":9936:9959  returnValue := mload(0) */\n      swap1\n      pop\n        /* \"@openzeppelin/contracts/token/ERC20/utils/SafeERC20.sol\":9985:9992  success */\n      dup3\n        /* \"@openzeppelin/contracts/token/ERC20/utils/SafeERC20.sol\":9985:10065  success && (returnSize == 0 ? address(token).code.length > 0 : returnValue == 1) */\n      dup1\n      iszero\n      tag_400\n      jumpi\n      pop\n        /* \"@openzeppelin/contracts/token/ERC20/utils/SafeERC20.sol\":10011:10012  0 */\n      0x00\n        /* \"@openzeppelin/contracts/token/ERC20/utils/SafeERC20.sol\":9997:10007  returnSize */\n      dup3\n        /* \"@openzeppelin/contracts/token/ERC20/utils/SafeERC20.sol\":9997:10012  returnSize == 0 */\n      eq\n        /* \"@openzeppelin/contracts/token/ERC20/utils/SafeERC20.sol\":9997:10064  returnSize == 0 ? address(token).code.length > 0 : returnValue == 1 */\n      tag_401\n      jumpi\n        /* \"@openzeppelin/contracts/token/ERC20/utils/SafeERC20.sol\":10063:10064  1 */\n      0x01\n        /* \"@openzeppelin/contracts/token/ERC20/utils/SafeERC20.sol\":10048:10059  returnValue */\n      dup2\n        /* \"@openzeppelin/contracts/token/ERC20/utils/SafeERC20.sol\":10048:10064  returnValue == 1 */\n      eq\n        /* \"@openzeppelin/contracts/token/ERC20/utils/SafeERC20.sol\":9997:10064  returnSize == 0 ? address(token).code.length > 0 : returnValue == 1 */\n      jump(tag_402)\n    tag_401:\n        /* \"@openzeppelin/contracts/token/ERC20/utils/SafeERC20.sol\":10044:10045  0 */\n      0x00\n        /* \"@openzeppelin/contracts/token/ERC20/utils/SafeERC20.sol\":10023:10028  token */\n      dup7\n        /* \"@openzeppelin/contracts/token/ERC20/utils/SafeERC20.sol\":10015:10041  address(token).code.length */\n      0xffffffffffffffffffffffffffffffffffffffff\n      and\n      extcodesize\n        /* \"@openzeppelin/contracts/token/ERC20/utils/SafeERC20.sol\":10015:10045  address(token).code.length > 0 */\n      gt\n        /* \"@openzeppelin/contracts/token/ERC20/utils/SafeERC20.sol\":9997:10064  returnSize == 0 ? address(token).code.length > 0 : returnValue == 1 */\n    tag_402:\n        /* \"@openzeppelin/contracts/token/ERC20/utils/SafeERC20.sol\":9985:10065  success && (returnSize == 0 ? address(token).code.length > 0 : returnValue == 1) */\n    tag_400:\n        /* \"@openzeppelin/contracts/token/ERC20/utils/SafeERC20.sol\":9978:10065  return success && (returnSize == 0 ? address(token).code.length > 0 : returnValue == 1) */\n      swap4\n      pop\n      pop\n      pop\n      pop\n        /* \"@openzeppelin/contracts/token/ERC20/utils/SafeERC20.sol\":9592:10072  function _callOptionalReturnBool(IERC20 token, bytes memory data) private returns (bool) {... */\n      swap3\n      swap2\n      pop\n      pop\n      jump\t// out\n        /* \"#utility.yul\":7:82   */\n    tag_403:\n        /* \"#utility.yul\":40:46   */\n      0x00\n        /* \"#utility.yul\":73:75   */\n      0x40\n        /* \"#utility.yul\":67:76   */\n      mload\n        /* \"#utility.yul\":57:76   */\n      swap1\n      pop\n        /* \"#utility.yul\":7:82   */\n      swap1\n      jump\t// out\n        /* \"#utility.yul\":88:205   */\n    tag_404:\n        /* \"#utility.yul\":197:198   */\n      0x00\n        /* \"#utility.yul\":194:195   */\n      dup1\n        /* \"#utility.yul\":187:199   */\n      revert\n        /* \"#utility.yul\":211:328   */\n    tag_405:\n        /* \"#utility.yul\":320:321   */\n      0x00\n        /* \"#utility.yul\":317:318   */\n      dup1\n        /* \"#utility.yul\":310:322   */\n      revert\n        /* \"#utility.yul\":334:483   */\n    tag_406:\n        /* \"#utility.yul\":370:377   */\n      0x00\n        /* \"#utility.yul\":410:476   */\n      0xffffffff00000000000000000000000000000000000000000000000000000000\n        /* \"#utility.yul\":403:408   */\n      dup3\n        /* \"#utility.yul\":399:477   */\n      and\n        /* \"#utility.yul\":388:477   */\n      swap1\n      pop\n        /* \"#utility.yul\":334:483   */\n      swap2\n      swap1\n      pop\n      jump\t// out\n        /* \"#utility.yul\":489:609   */\n    tag_407:\n        /* \"#utility.yul\":561:584   */\n      tag_475\n        /* \"#utility.yul\":578:583   */\n      dup2\n        /* \"#utility.yul\":561:584   */\n      tag_406\n      jump\t// in\n    tag_475:\n        /* \"#utility.yul\":554:559   */\n      dup2\n        /* \"#utility.yul\":551:585   */\n      eq\n        /* \"#utility.yul\":541:603   */\n      tag_476\n      jumpi\n        /* \"#utility.yul\":599:600   */\n      0x00\n        /* \"#utility.yul\":596:597   */\n      dup1\n        /* \"#utility.yul\":589:601   */\n      revert\n        /* \"#utility.yul\":541:603   */\n    tag_476:\n        /* \"#utility.yul\":489:609   */\n      pop\n      jump\t// out\n        /* \"#utility.yul\":615:752   */\n    tag_408:\n        /* \"#utility.yul\":660:665   */\n      0x00\n        /* \"#utility.yul\":698:704   */\n      dup2\n        /* \"#utility.yul\":685:705   */\n      calldataload\n        /* \"#utility.yul\":676:705   */\n      swap1\n      pop\n        /* \"#utility.yul\":714:746   */\n      tag_478\n        /* \"#utility.yul\":740:745   */\n      dup2\n        /* \"#utility.yul\":714:746   */\n      tag_407\n      jump\t// in\n    tag_478:\n        /* \"#utility.yul\":615:752   */\n      swap3\n      swap2\n      pop\n      pop\n      jump\t// out\n        /* \"#utility.yul\":758:1085   */\n    tag_34:\n        /* \"#utility.yul\":816:822   */\n      0x00\n        /* \"#utility.yul\":865:867   */\n      0x20\n        /* \"#utility.yul\":853:862   */\n      dup3\n        /* \"#utility.yul\":844:851   */\n      dup5\n        /* \"#utility.yul\":840:863   */\n      sub\n        /* \"#utility.yul\":836:868   */\n      slt\n        /* \"#utility.yul\":833:952   */\n      iszero\n      tag_480\n      jumpi\n        /* \"#utility.yul\":871:950   */\n      tag_481\n      tag_404\n      jump\t// in\n    tag_481:\n        /* \"#utility.yul\":833:952   */\n    tag_480:\n        /* \"#utility.yul\":991:992   */\n      0x00\n        /* \"#utility.yul\":1016:1068   */\n      tag_482\n        /* \"#utility.yul\":1060:1067   */\n      dup5\n        /* \"#utility.yul\":1051:1057   */\n      dup3\n        /* \"#utility.yul\":1040:1049   */\n      dup6\n        /* \"#utility.yul\":1036:1058   */\n      add\n        /* \"#utility.yul\":1016:1068   */\n      tag_408\n      jump\t// in\n    tag_482:\n        /* \"#utility.yul\":1006:1068   */\n      swap2\n      pop\n        /* \"#utility.yul\":962:1078   */\n      pop\n        /* \"#utility.yul\":758:1085   */\n      swap3\n      swap2\n      pop\n      pop\n      jump\t// out\n        /* \"#utility.yul\":1091:1181   */\n    tag_409:\n        /* \"#utility.yul\":1125:1132   */\n      0x00\n        /* \"#utility.yul\":1168:1173   */\n      dup2\n        /* \"#utility.yul\":1161:1174   */\n      iszero\n        /* \"#utility.yul\":1154:1175   */\n      iszero\n        /* \"#utility.yul\":1143:1175   */\n      swap1\n      pop\n        /* \"#utility.yul\":1091:1181   */\n      swap2\n      swap1\n      pop\n      jump\t// out\n        /* \"#utility.yul\":1187:1296   */\n    tag_410:\n        /* \"#utility.yul\":1268:1289   */\n      tag_485\n        /* \"#utility.yul\":1283:1288   */\n      dup2\n        /* \"#utility.yul\":1268:1289   */\n      tag_409\n      jump\t// in\n    tag_485:\n        /* \"#utility.yul\":1263:1266   */\n      dup3\n        /* \"#utility.yul\":1256:1290   */\n      mstore\n        /* \"#utility.yul\":1187:1296   */\n      pop\n      pop\n      jump\t// out\n        /* \"#utility.yul\":1302:1512   */\n    tag_37:\n        /* \"#utility.yul\":1389:1393   */\n      0x00\n        /* \"#utility.yul\":1427:1429   */\n      0x20\n        /* \"#utility.yul\":1416:1425   */\n      dup3\n        /* \"#utility.yul\":1412:1430   */\n      add\n        /* \"#utility.yul\":1404:1430   */\n      swap1\n      pop\n        /* \"#utility.yul\":1440:1505   */\n      tag_487\n        /* \"#utility.yul\":1502:1503   */\n      0x00\n        /* \"#utility.yul\":1491:1500   */\n      dup4\n        /* \"#utility.yul\":1487:1504   */\n      add\n        /* \"#utility.yul\":1478:1484   */\n      dup5\n        /* \"#utility.yul\":1440:1505   */\n      tag_410\n      jump\t// in\n    tag_487:\n        /* \"#utility.yul\":1302:1512   */\n      swap3\n      swap2\n      pop\n      pop\n      jump\t// out\n        /* \"#utility.yul\":1518:1595   */\n    tag_411:\n        /* \"#utility.yul\":1555:1562   */\n      0x00\n        /* \"#utility.yul\":1584:1589   */\n      dup2\n        /* \"#utility.yul\":1573:1589   */\n      swap1\n      pop\n        /* \"#utility.yul\":1518:1595   */\n      swap2\n      swap1\n      pop\n      jump\t// out\n        /* \"#utility.yul\":1601:1723   */\n    tag_412:\n        /* \"#utility.yul\":1674:1698   */\n      tag_490\n        /* \"#utility.yul\":1692:1697   */\n      dup2\n        /* \"#utility.yul\":1674:1698   */\n      tag_411\n      jump\t// in\n    tag_490:\n        /* \"#utility.yul\":1667:1672   */\n      dup2\n        /* \"#utility.yul\":1664:1699   */\n      eq\n        /* \"#utility.yul\":1654:1717   */\n      tag_491\n      jumpi\n        /* \"#utility.yul\":1713:1714   */\n      0x00\n        /* \"#utility.yul\":1710:1711   */\n      dup1\n        /* \"#utility.yul\":1703:1715   */\n      revert\n        /* \"#utility.yul\":1654:1717   */\n    tag_491:\n        /* \"#utility.yul\":1601:1723   */\n      pop\n      jump\t// out\n        /* \"#utility.yul\":1729:1868   */\n    tag_413:\n        /* \"#utility.yul\":1775:1780   */\n      0x00\n        /* \"#utility.yul\":1813:1819   */\n      dup2\n        /* \"#utility.yul\":1800:1820   */\n      calldataload\n        /* \"#utility.yul\":1791:1820   */\n      swap1\n      pop\n        /* \"#utility.yul\":1829:1862   */\n      tag_493\n        /* \"#utility.yul\":1856:1861   */\n      dup2\n        /* \"#utility.yul\":1829:1862   */\n      tag_412\n      jump\t// in\n    tag_493:\n        /* \"#utility.yul\":1729:1868   */\n      swap3\n      swap2\n      pop\n      pop\n      jump\t// out\n        /* \"#utility.yul\":1874:2203   */\n    tag_41:\n        /* \"#utility.yul\":1933:1939   */\n      0x00\n        /* \"#utility.yul\":1982:1984   */\n      0x20\n        /* \"#utility.yul\":1970:1979   */\n      dup3\n        /* \"#utility.yul\":1961:1968   */\n      dup5\n        /* \"#utility.yul\":1957:1980   */\n      sub\n        /* \"#utility.yul\":1953:1985   */\n      slt\n        /* \"#utility.yul\":1950:2069   */\n      iszero\n      tag_495\n      jumpi\n        /* \"#utility.yul\":1988:2067   */\n      tag_496\n      tag_404\n      jump\t// in\n    tag_496:\n        /* \"#utility.yul\":1950:2069   */\n    tag_495:\n        /* \"#utility.yul\":2108:2109   */\n      0x00\n        /* \"#utility.yul\":2133:2186   */\n      tag_497\n        /* \"#utility.yul\":2178:2185   */\n      dup5\n        /* \"#utility.yul\":2169:2175   */\n      dup3\n        /* \"#utility.yul\":2158:2167   */\n      dup6\n        /* \"#utility.yul\":2154:2176   */\n      add\n        /* \"#utility.yul\":2133:2186   */\n      tag_413\n      jump\t// in\n    tag_497:\n        /* \"#utility.yul\":2123:2186   */\n      swap2\n      pop\n        /* \"#utility.yul\":2079:2196   */\n      pop\n        /* \"#utility.yul\":1874:2203   */\n      swap3\n      swap2\n      pop\n      pop\n      jump\t// out\n        /* \"#utility.yul\":2209:2327   */\n    tag_414:\n        /* \"#utility.yul\":2296:2320   */\n      tag_499\n        /* \"#utility.yul\":2314:2319   */\n      dup2\n        /* \"#utility.yul\":2296:2320   */\n      tag_411\n      jump\t// in\n    tag_499:\n        /* \"#utility.yul\":2291:2294   */\n      dup3\n        /* \"#utility.yul\":2284:2321   */\n      mstore\n        /* \"#utility.yul\":2209:2327   */\n      pop\n      pop\n      jump\t// out\n        /* \"#utility.yul\":2333:2555   */\n    tag_44:\n        /* \"#utility.yul\":2426:2430   */\n      0x00\n        /* \"#utility.yul\":2464:2466   */\n      0x20\n        /* \"#utility.yul\":2453:2462   */\n      dup3\n        /* \"#utility.yul\":2449:2467   */\n      add\n        /* \"#utility.yul\":2441:2467   */\n      swap1\n      pop\n        /* \"#utility.yul\":2477:2548   */\n      tag_501\n        /* \"#utility.yul\":2545:2546   */\n      0x00\n        /* \"#utility.yul\":2534:2543   */\n      dup4\n        /* \"#utility.yul\":2530:2547   */\n      add\n        /* \"#utility.yul\":2521:2527   */\n      dup5\n        /* \"#utility.yul\":2477:2548   */\n      tag_414\n      jump\t// in\n    tag_501:\n        /* \"#utility.yul\":2333:2555   */\n      swap3\n      swap2\n      pop\n      pop\n      jump\t// out\n        /* \"#utility.yul\":2561:2638   */\n    tag_415:\n        /* \"#utility.yul\":2598:2605   */\n      0x00\n        /* \"#utility.yul\":2627:2632   */\n      dup2\n        /* \"#utility.yul\":2616:2632   */\n      swap1\n      pop\n        /* \"#utility.yul\":2561:2638   */\n      swap2\n      swap1\n      pop\n      jump\t// out\n        /* \"#utility.yul\":2644:2762   */\n    tag_416:\n        /* \"#utility.yul\":2731:2755   */\n      tag_504\n        /* \"#utility.yul\":2749:2754   */\n      dup2\n        /* \"#utility.yul\":2731:2755   */\n      tag_415\n      jump\t// in\n    tag_504:\n        /* \"#utility.yul\":2726:2729   */\n      dup3\n        /* \"#utility.yul\":2719:2756   */\n      mstore\n        /* \"#utility.yul\":2644:2762   */\n      pop\n      pop\n      jump\t// out\n        /* \"#utility.yul\":2768:2990   */\n    tag_49:\n        /* \"#utility.yul\":2861:2865   */\n      0x00\n        /* \"#utility.yul\":2899:2901   */\n      0x20\n        /* \"#utility.yul\":2888:2897   */\n      dup3\n        /* \"#utility.yul\":2884:2902   */\n      add\n        /* \"#utility.yul\":2876:2902   */\n      swap1\n      pop\n        /* \"#utility.yul\":2912:2983   */\n      tag_506\n        /* \"#utility.yul\":2980:2981   */\n      0x00\n        /* \"#utility.yul\":2969:2978   */\n      dup4\n        /* \"#utility.yul\":2965:2982   */\n      add\n        /* \"#utility.yul\":2956:2962   */\n      dup5\n        /* \"#utility.yul\":2912:2983   */\n      tag_416\n      jump\t// in\n    tag_506:\n        /* \"#utility.yul\":2768:2990   */\n      swap3\n      swap2\n      pop\n      pop\n      jump\t// out\n        /* \"#utility.yul\":2996:3122   */\n    tag_417:\n        /* \"#utility.yul\":3033:3040   */\n      0x00\n        /* \"#utility.yul\":3073:3115   */\n      0xffffffffffffffffffffffffffffffffffffffff\n        /* \"#utility.yul\":3066:3071   */\n      dup3\n        /* \"#utility.yul\":3062:3116   */\n      and\n        /* \"#utility.yul\":3051:3116   */\n      swap1\n      pop\n        /* \"#utility.yul\":2996:3122   */\n      swap2\n      swap1\n      pop\n      jump\t// out\n        /* \"#utility.yul\":3128:3224   */\n    tag_418:\n        /* \"#utility.yul\":3165:3172   */\n      0x00\n        /* \"#utility.yul\":3194:3218   */\n      tag_509\n        /* \"#utility.yul\":3212:3217   */\n      dup3\n        /* \"#utility.yul\":3194:3218   */\n      tag_417\n      jump\t// in\n    tag_509:\n        /* \"#utility.yul\":3183:3218   */\n      swap1\n      pop\n        /* \"#utility.yul\":3128:3224   */\n      swap2\n      swap1\n      pop\n      jump\t// out\n        /* \"#utility.yul\":3230:3352   */\n    tag_419:\n        /* \"#utility.yul\":3303:3327   */\n      tag_511\n        /* \"#utility.yul\":3321:3326   */\n      dup2\n        /* \"#utility.yul\":3303:3327   */\n      tag_418\n      jump\t// in\n    tag_511:\n        /* \"#utility.yul\":3296:3301   */\n      dup2\n        /* \"#utility.yul\":3293:3328   */\n      eq\n        /* \"#utility.yul\":3283:3346   */\n      tag_512\n      jumpi\n        /* \"#utility.yul\":3342:3343   */\n      0x00\n        /* \"#utility.yul\":3339:3340   */\n      dup1\n        /* \"#utility.yul\":3332:3344   */\n      revert\n        /* \"#utility.yul\":3283:3346   */\n    tag_512:\n        /* \"#utility.yul\":3230:3352   */\n      pop\n      jump\t// out\n        /* \"#utility.yul\":3358:3497   */\n    tag_420:\n        /* \"#utility.yul\":3404:3409   */\n      0x00\n        /* \"#utility.yul\":3442:3448   */\n      dup2\n        /* \"#utility.yul\":3429:3449   */\n      calldataload\n        /* \"#utility.yul\":3420:3449   */\n      swap1\n      pop\n        /* \"#utility.yul\":3458:3491   */\n      tag_514\n        /* \"#utility.yul\":3485:3490   */\n      dup2\n        /* \"#utility.yul\":3458:3491   */\n      tag_419\n      jump\t// in\n    tag_514:\n        /* \"#utility.yul\":3358:3497   */\n      swap3\n      swap2\n      pop\n      pop\n      jump\t// out\n        /* \"#utility.yul\":3503:3977   */\n    tag_57:\n        /* \"#utility.yul\":3571:3577   */\n      0x00\n        /* \"#utility.yul\":3579:3585   */\n      dup1\n        /* \"#utility.yul\":3628:3630   */\n      0x40\n        /* \"#utility.yul\":3616:3625   */\n      dup4\n        /* \"#utility.yul\":3607:3614   */\n      dup6\n        /* \"#utility.yul\":3603:3626   */\n      sub\n        /* \"#utility.yul\":3599:3631   */\n      slt\n        /* \"#utility.yul\":3596:3715   */\n      iszero\n      tag_516\n      jumpi\n        /* \"#utility.yul\":3634:3713   */\n      tag_517\n      tag_404\n      jump\t// in\n    tag_517:\n        /* \"#utility.yul\":3596:3715   */\n    tag_516:\n        /* \"#utility.yul\":3754:3755   */\n      0x00\n        /* \"#utility.yul\":3779:3832   */\n      tag_518\n        /* \"#utility.yul\":3824:3831   */\n      dup6\n        /* \"#utility.yul\":3815:3821   */\n      dup3\n        /* \"#utility.yul\":3804:3813   */\n      dup7\n        /* \"#utility.yul\":3800:3822   */\n      add\n        /* \"#utility.yul\":3779:3832   */\n      tag_413\n      jump\t// in\n    tag_518:\n        /* \"#utility.yul\":3769:3832   */\n      swap3\n      pop\n        /* \"#utility.yul\":3725:3842   */\n      pop\n        /* \"#utility.yul\":3881:3883   */\n      0x20\n        /* \"#utility.yul\":3907:3960   */\n      tag_519\n        /* \"#utility.yul\":3952:3959   */\n      dup6\n        /* \"#utility.yul\":3943:3949   */\n      dup3\n        /* \"#utility.yul\":3932:3941   */\n      dup7\n        /* \"#utility.yul\":3928:3950   */\n      add\n        /* \"#utility.yul\":3907:3960   */\n      tag_420\n      jump\t// in\n    tag_519:\n        /* \"#utility.yul\":3897:3960   */\n      swap2\n      pop\n        /* \"#utility.yul\":3852:3970   */\n      pop\n        /* \"#utility.yul\":3503:3977   */\n      swap3\n      pop\n      swap3\n      swap1\n      pop\n      jump\t// out\n        /* \"#utility.yul\":3983:4069   */\n    tag_421:\n        /* \"#utility.yul\":4018:4025   */\n      0x00\n        /* \"#utility.yul\":4058:4062   */\n      0xff\n        /* \"#utility.yul\":4051:4056   */\n      dup3\n        /* \"#utility.yul\":4047:4063   */\n      and\n        /* \"#utility.yul\":4036:4063   */\n      swap1\n      pop\n        /* \"#utility.yul\":3983:4069   */\n      swap2\n      swap1\n      pop\n      jump\t// out\n        /* \"#utility.yul\":4075:4187   */\n    tag_422:\n        /* \"#utility.yul\":4158:4180   */\n      tag_522\n        /* \"#utility.yul\":4174:4179   */\n      dup2\n        /* \"#utility.yul\":4158:4180   */\n      tag_421\n      jump\t// in\n    tag_522:\n        /* \"#utility.yul\":4153:4156   */\n      dup3\n        /* \"#utility.yul\":4146:4181   */\n      mstore\n        /* \"#utility.yul\":4075:4187   */\n      pop\n      pop\n      jump\t// out\n        /* \"#utility.yul\":4193:4407   */\n    tag_63:\n        /* \"#utility.yul\":4282:4286   */\n      0x00\n        /* \"#utility.yul\":4320:4322   */\n      0x20\n        /* \"#utility.yul\":4309:4318   */\n      dup3\n        /* \"#utility.yul\":4305:4323   */\n      add\n        /* \"#utility.yul\":4297:4323   */\n      swap1\n      pop\n        /* \"#utility.yul\":4333:4400   */\n      tag_524\n        /* \"#utility.yul\":4397:4398   */\n      0x00\n        /* \"#utility.yul\":4386:4395   */\n      dup4\n        /* \"#utility.yul\":4382:4399   */\n      add\n        /* \"#utility.yul\":4373:4379   */\n      dup5\n        /* \"#utility.yul\":4333:4400   */\n      tag_422\n      jump\t// in\n    tag_524:\n        /* \"#utility.yul\":4193:4407   */\n      swap3\n      swap2\n      pop\n      pop\n      jump\t// out\n        /* \"#utility.yul\":4413:4531   */\n    tag_423:\n        /* \"#utility.yul\":4500:4524   */\n      tag_526\n        /* \"#utility.yul\":4518:4523   */\n      dup2\n        /* \"#utility.yul\":4500:4524   */\n      tag_418\n      jump\t// in\n    tag_526:\n        /* \"#utility.yul\":4495:4498   */\n      dup3\n        /* \"#utility.yul\":4488:4525   */\n      mstore\n        /* \"#utility.yul\":4413:4531   */\n      pop\n      pop\n      jump\t// out\n        /* \"#utility.yul\":4537:4759   */\n    tag_68:\n        /* \"#utility.yul\":4630:4634   */\n      0x00\n        /* \"#utility.yul\":4668:4670   */\n      0x20\n        /* \"#utility.yul\":4657:4666   */\n      dup3\n        /* \"#utility.yul\":4653:4671   */\n      add\n        /* \"#utility.yul\":4645:4671   */\n      swap1\n      pop\n        /* \"#utility.yul\":4681:4752   */\n      tag_528\n        /* \"#utility.yul\":4749:4750   */\n      0x00\n        /* \"#utility.yul\":4738:4747   */\n      dup4\n        /* \"#utility.yul\":4734:4751   */\n      add\n        /* \"#utility.yul\":4725:4731   */\n      dup5\n        /* \"#utility.yul\":4681:4752   */\n      tag_423\n      jump\t// in\n    tag_528:\n        /* \"#utility.yul\":4537:4759   */\n      swap3\n      swap2\n      pop\n      pop\n      jump\t// out\n        /* \"#utility.yul\":4765:4887   */\n    tag_424:\n        /* \"#utility.yul\":4838:4862   */\n      tag_530\n        /* \"#utility.yul\":4856:4861   */\n      dup2\n        /* \"#utility.yul\":4838:4862   */\n      tag_415\n      jump\t// in\n    tag_530:\n        /* \"#utility.yul\":4831:4836   */\n      dup2\n        /* \"#utility.yul\":4828:4863   */\n      eq\n        /* \"#utility.yul\":4818:4881   */\n      tag_531\n      jumpi\n        /* \"#utility.yul\":4877:4878   */\n      0x00\n        /* \"#utility.yul\":4874:4875   */\n      dup1\n        /* \"#utility.yul\":4867:4879   */\n      revert\n        /* \"#utility.yul\":4818:4881   */\n    tag_531:\n        /* \"#utility.yul\":4765:4887   */\n      pop\n      jump\t// out\n        /* \"#utility.yul\":4893:5032   */\n    tag_425:\n        /* \"#utility.yul\":4939:4944   */\n      0x00\n        /* \"#utility.yul\":4977:4983   */\n      dup2\n        /* \"#utility.yul\":4964:4984   */\n      calldataload\n        /* \"#utility.yul\":4955:4984   */\n      swap1\n      pop\n        /* \"#utility.yul\":4993:5026   */\n      tag_533\n        /* \"#utility.yul\":5020:5025   */\n      dup2\n        /* \"#utility.yul\":4993:5026   */\n      tag_424\n      jump\t// in\n    tag_533:\n        /* \"#utility.yul\":4893:5032   */\n      swap3\n      swap2\n      pop\n      pop\n      jump\t// out\n        /* \"#utility.yul\":5038:5367   */\n    tag_79:\n        /* \"#utility.yul\":5097:5103   */\n      0x00\n        /* \"#utility.yul\":5146:5148   */\n      0x20\n        /* \"#utility.yul\":5134:5143   */\n      dup3\n        /* \"#utility.yul\":5125:5132   */\n      dup5\n        /* \"#utility.yul\":5121:5144   */\n      sub\n        /* \"#utility.yul\":5117:5149   */\n      slt\n        /* \"#utility.yul\":5114:5233   */\n      iszero\n      tag_535\n      jumpi\n        /* \"#utility.yul\":5152:5231   */\n      tag_536\n      tag_404\n      jump\t// in\n    tag_536:\n        /* \"#utility.yul\":5114:5233   */\n    tag_535:\n        /* \"#utility.yul\":5272:5273   */\n      0x00\n        /* \"#utility.yul\":5297:5350   */\n      tag_537\n        /* \"#utility.yul\":5342:5349   */\n      dup5\n        /* \"#utility.yul\":5333:5339   */\n      dup3\n        /* \"#utility.yul\":5322:5331   */\n      dup6\n        /* \"#utility.yul\":5318:5340   */\n      add\n        /* \"#utility.yul\":5297:5350   */\n      tag_425\n      jump\t// in\n    tag_537:\n        /* \"#utility.yul\":5287:5350   */\n      swap2\n      pop\n        /* \"#utility.yul\":5243:5360   */\n      pop\n        /* \"#utility.yul\":5038:5367   */\n      swap3\n      swap2\n      pop\n      pop\n      jump\t// out\n        /* \"#utility.yul\":5373:5992   */\n    tag_84:\n        /* \"#utility.yul\":5450:5456   */\n      0x00\n        /* \"#utility.yul\":5458:5464   */\n      dup1\n        /* \"#utility.yul\":5466:5472   */\n      0x00\n        /* \"#utility.yul\":5515:5517   */\n      0x60\n        /* \"#utility.yul\":5503:5512   */\n      dup5\n        /* \"#utility.yul\":5494:5501   */\n      dup7\n        /* \"#utility.yul\":5490:5513   */\n      sub\n        /* \"#utility.yul\":5486:5518   */\n      slt\n        /* \"#utility.yul\":5483:5602   */\n      iszero\n      tag_539\n      jumpi\n        /* \"#utility.yul\":5521:5600   */\n      tag_540\n      tag_404\n      jump\t// in\n    tag_540:\n        /* \"#utility.yul\":5483:5602   */\n    tag_539:\n        /* \"#utility.yul\":5641:5642   */\n      0x00\n        /* \"#utility.yul\":5666:5719   */\n      tag_541\n        /* \"#utility.yul\":5711:5718   */\n      dup7\n        /* \"#utility.yul\":5702:5708   */\n      dup3\n        /* \"#utility.yul\":5691:5700   */\n      dup8\n        /* \"#utility.yul\":5687:5709   */\n      add\n        /* \"#utility.yul\":5666:5719   */\n      tag_420\n      jump\t// in\n    tag_541:\n        /* \"#utility.yul\":5656:5719   */\n      swap4\n      pop\n        /* \"#utility.yul\":5612:5729   */\n      pop\n        /* \"#utility.yul\":5768:5770   */\n      0x20\n        /* \"#utility.yul\":5794:5847   */\n      tag_542\n        /* \"#utility.yul\":5839:5846   */\n      dup7\n        /* \"#utility.yul\":5830:5836   */\n      dup3\n        /* \"#utility.yul\":5819:5828   */\n      dup8\n        /* \"#utility.yul\":5815:5837   */\n      add\n        /* \"#utility.yul\":5794:5847   */\n      tag_425\n      jump\t// in\n    tag_542:\n        /* \"#utility.yul\":5784:5847   */\n      swap3\n      pop\n        /* \"#utility.yul\":5739:5857   */\n      pop\n        /* \"#utility.yul\":5896:5898   */\n      0x40\n        /* \"#utility.yul\":5922:5975   */\n      tag_543\n        /* \"#utility.yul\":5967:5974   */\n      dup7\n        /* \"#utility.yul\":5958:5964   */\n      dup3\n        /* \"#utility.yul\":5947:5956   */\n      dup8\n        /* \"#utility.yul\":5943:5965   */\n      add\n        /* \"#utility.yul\":5922:5975   */\n      tag_425\n      jump\t// in\n    tag_543:\n        /* \"#utility.yul\":5912:5975   */\n      swap2\n      pop\n        /* \"#utility.yul\":5867:5985   */\n      pop\n        /* \"#utility.yul\":5373:5992   */\n      swap3\n      pop\n      swap3\n      pop\n      swap3\n      jump\t// out\n        /* \"#utility.yul\":5998:6114   */\n    tag_426:\n        /* \"#utility.yul\":6068:6089   */\n      tag_545\n        /* \"#utility.yul\":6083:6088   */\n      dup2\n        /* \"#utility.yul\":6068:6089   */\n      tag_409\n      jump\t// in\n    tag_545:\n        /* \"#utility.yul\":6061:6066   */\n      dup2\n        /* \"#utility.yul\":6058:6090   */\n      eq\n        /* \"#utility.yul\":6048:6108   */\n      tag_546\n      jumpi\n        /* \"#utility.yul\":6104:6105   */\n      0x00\n        /* \"#utility.yul\":6101:6102   */\n      dup1\n        /* \"#utility.yul\":6094:6106   */\n      revert\n        /* \"#utility.yul\":6048:6108   */\n    tag_546:\n        /* \"#utility.yul\":5998:6114   */\n      pop\n      jump\t// out\n        /* \"#utility.yul\":6120:6253   */\n    tag_427:\n        /* \"#utility.yul\":6163:6168   */\n      0x00\n        /* \"#utility.yul\":6201:6207   */\n      dup2\n        /* \"#utility.yul\":6188:6208   */\n      calldataload\n        /* \"#utility.yul\":6179:6208   */\n      swap1\n      pop\n        /* \"#utility.yul\":6217:6247   */\n      tag_548\n        /* \"#utility.yul\":6241:6246   */\n      dup2\n        /* \"#utility.yul\":6217:6247   */\n      tag_426\n      jump\t// in\n    tag_548:\n        /* \"#utility.yul\":6120:6253   */\n      swap3\n      swap2\n      pop\n      pop\n      jump\t// out\n        /* \"#utility.yul\":6259:6377   */\n    tag_428:\n        /* \"#utility.yul\":6330:6352   */\n      tag_550\n        /* \"#utility.yul\":6346:6351   */\n      dup2\n        /* \"#utility.yul\":6330:6352   */\n      tag_421\n      jump\t// in\n    tag_550:\n        /* \"#utility.yul\":6323:6328   */\n      dup2\n        /* \"#utility.yul\":6320:6353   */\n      eq\n        /* \"#utility.yul\":6310:6371   */\n      tag_551\n      jumpi\n        /* \"#utility.yul\":6367:6368   */\n      0x00\n        /* \"#utility.yul\":6364:6365   */\n      dup1\n        /* \"#utility.yul\":6357:6369   */\n      revert\n        /* \"#utility.yul\":6310:6371   */\n    tag_551:\n        /* \"#utility.yul\":6259:6377   */\n      pop\n      jump\t// out\n        /* \"#utility.yul\":6383:6518   */\n    tag_429:\n        /* \"#utility.yul\":6427:6432   */\n      0x00\n        /* \"#utility.yul\":6465:6471   */\n      dup2\n        /* \"#utility.yul\":6452:6472   */\n      calldataload\n        /* \"#utility.yul\":6443:6472   */\n      swap1\n      pop\n        /* \"#utility.yul\":6481:6512   */\n      tag_553\n        /* \"#utility.yul\":6506:6511   */\n      dup2\n        /* \"#utility.yul\":6481:6512   */\n      tag_428\n      jump\t// in\n    tag_553:\n        /* \"#utility.yul\":6383:6518   */\n      swap3\n      swap2\n      pop\n      pop\n      jump\t// out\n        /* \"#utility.yul\":6524:7425   */\n    tag_98:\n        /* \"#utility.yul\":6614:6620   */\n      0x00\n        /* \"#utility.yul\":6622:6628   */\n      dup1\n        /* \"#utility.yul\":6630:6636   */\n      0x00\n        /* \"#utility.yul\":6638:6644   */\n      dup1\n        /* \"#utility.yul\":6646:6652   */\n      0x00\n        /* \"#utility.yul\":6695:6698   */\n      0xa0\n        /* \"#utility.yul\":6683:6692   */\n      dup7\n        /* \"#utility.yul\":6674:6681   */\n      dup9\n        /* \"#utility.yul\":6670:6693   */\n      sub\n        /* \"#utility.yul\":6666:6699   */\n      slt\n        /* \"#utility.yul\":6663:6783   */\n      iszero\n      tag_555\n      jumpi\n        /* \"#utility.yul\":6702:6781   */\n      tag_556\n      tag_404\n      jump\t// in\n    tag_556:\n        /* \"#utility.yul\":6663:6783   */\n    tag_555:\n        /* \"#utility.yul\":6822:6823   */\n      0x00\n        /* \"#utility.yul\":6847:6900   */\n      tag_557\n        /* \"#utility.yul\":6892:6899   */\n      dup9\n        /* \"#utility.yul\":6883:6889   */\n      dup3\n        /* \"#utility.yul\":6872:6881   */\n      dup10\n        /* \"#utility.yul\":6868:6890   */\n      add\n        /* \"#utility.yul\":6847:6900   */\n      tag_420\n      jump\t// in\n    tag_557:\n        /* \"#utility.yul\":6837:6900   */\n      swap6\n      pop\n        /* \"#utility.yul\":6793:6910   */\n      pop\n        /* \"#utility.yul\":6949:6951   */\n      0x20\n        /* \"#utility.yul\":6975:7025   */\n      tag_558\n        /* \"#utility.yul\":7017:7024   */\n      dup9\n        /* \"#utility.yul\":7008:7014   */\n      dup3\n        /* \"#utility.yul\":6997:7006   */\n      dup10\n        /* \"#utility.yul\":6993:7015   */\n      add\n        /* \"#utility.yul\":6975:7025   */\n      tag_427\n      jump\t// in\n    tag_558:\n        /* \"#utility.yul\":6965:7025   */\n      swap5\n      pop\n        /* \"#utility.yul\":6920:7035   */\n      pop\n        /* \"#utility.yul\":7074:7076   */\n      0x40\n        /* \"#utility.yul\":7100:7151   */\n      tag_559\n        /* \"#utility.yul\":7143:7150   */\n      dup9\n        /* \"#utility.yul\":7134:7140   */\n      dup3\n        /* \"#utility.yul\":7123:7132   */\n      dup10\n        /* \"#utility.yul\":7119:7141   */\n      add\n        /* \"#utility.yul\":7100:7151   */\n      tag_429\n      jump\t// in\n    tag_559:\n        /* \"#utility.yul\":7090:7151   */\n      swap4\n      pop\n        /* \"#utility.yul\":7045:7161   */\n      pop\n        /* \"#utility.yul\":7200:7202   */\n      0x60\n        /* \"#utility.yul\":7226:7279   */\n      tag_560\n        /* \"#utility.yul\":7271:7278   */\n      dup9\n        /* \"#utility.yul\":7262:7268   */\n      dup3\n        /* \"#utility.yul\":7251:7260   */\n      dup10\n        /* \"#utility.yul\":7247:7269   */\n      add\n        /* \"#utility.yul\":7226:7279   */\n      tag_425\n      jump\t// in\n    tag_560:\n        /* \"#utility.yul\":7216:7279   */\n      swap3\n      pop\n        /* \"#utility.yul\":7171:7289   */\n      pop\n        /* \"#utility.yul\":7328:7331   */\n      0x80\n        /* \"#utility.yul\":7355:7408   */\n      tag_561\n        /* \"#utility.yul\":7400:7407   */\n      dup9\n        /* \"#utility.yul\":7391:7397   */\n      dup3\n        /* \"#utility.yul\":7380:7389   */\n      dup10\n        /* \"#utility.yul\":7376:7398   */\n      add\n        /* \"#utility.yul\":7355:7408   */\n      tag_420\n      jump\t// in\n    tag_561:\n        /* \"#utility.yul\":7345:7408   */\n      swap2\n      pop\n        /* \"#utility.yul\":7299:7418   */\n      pop\n        /* \"#utility.yul\":6524:7425   */\n      swap3\n      swap6\n      pop\n      swap3\n      swap6\n      swap1\n      swap4\n      pop\n      jump\t// out\n        /* \"#utility.yul\":7431:7491   */\n    tag_430:\n        /* \"#utility.yul\":7459:7462   */\n      0x00\n        /* \"#utility.yul\":7480:7485   */\n      dup2\n        /* \"#utility.yul\":7473:7485   */\n      swap1\n      pop\n        /* \"#utility.yul\":7431:7491   */\n      swap2\n      swap1\n      pop\n      jump\t// out\n        /* \"#utility.yul\":7497:7639   */\n    tag_431:\n        /* \"#utility.yul\":7547:7556   */\n      0x00\n        /* \"#utility.yul\":7580:7633   */\n      tag_564\n        /* \"#utility.yul\":7598:7632   */\n      tag_565\n        /* \"#utility.yul\":7607:7631   */\n      tag_566\n        /* \"#utility.yul\":7625:7630   */\n      dup5\n        /* \"#utility.yul\":7607:7631   */\n      tag_417\n      jump\t// in\n    tag_566:\n        /* \"#utility.yul\":7598:7632   */\n      tag_430\n      jump\t// in\n    tag_565:\n        /* \"#utility.yul\":7580:7633   */\n      tag_417\n      jump\t// in\n    tag_564:\n        /* \"#utility.yul\":7567:7633   */\n      swap1\n      pop\n        /* \"#utility.yul\":7497:7639   */\n      swap2\n      swap1\n      pop\n      jump\t// out\n        /* \"#utility.yul\":7645:7771   */\n    tag_432:\n        /* \"#utility.yul\":7695:7704   */\n      0x00\n        /* \"#utility.yul\":7728:7765   */\n      tag_568\n        /* \"#utility.yul\":7759:7764   */\n      dup3\n        /* \"#utility.yul\":7728:7765   */\n      tag_431\n      jump\t// in\n    tag_568:\n        /* \"#utility.yul\":7715:7765   */\n      swap1\n      pop\n        /* \"#utility.yul\":7645:7771   */\n      swap2\n      swap1\n      pop\n      jump\t// out\n        /* \"#utility.yul\":7777:7929   */\n    tag_433:\n        /* \"#utility.yul\":7853:7862   */\n      0x00\n        /* \"#utility.yul\":7886:7923   */\n      tag_570\n        /* \"#utility.yul\":7917:7922   */\n      dup3\n        /* \"#utility.yul\":7886:7923   */\n      tag_432\n      jump\t// in\n    tag_570:\n        /* \"#utility.yul\":7873:7923   */\n      swap1\n      pop\n        /* \"#utility.yul\":7777:7929   */\n      swap2\n      swap1\n      pop\n      jump\t// out\n        /* \"#utility.yul\":7935:8118   */\n    tag_434:\n        /* \"#utility.yul\":8048:8111   */\n      tag_572\n        /* \"#utility.yul\":8105:8110   */\n      dup2\n        /* \"#utility.yul\":8048:8111   */\n      tag_433\n      jump\t// in\n    tag_572:\n        /* \"#utility.yul\":8043:8046   */\n      dup3\n        /* \"#utility.yul\":8036:8112   */\n      mstore\n        /* \"#utility.yul\":7935:8118   */\n      pop\n      pop\n      jump\t// out\n        /* \"#utility.yul\":8124:8398   */\n    tag_108:\n        /* \"#utility.yul\":8243:8247   */\n      0x00\n        /* \"#utility.yul\":8281:8283   */\n      0x20\n        /* \"#utility.yul\":8270:8279   */\n      dup3\n        /* \"#utility.yul\":8266:8284   */\n      add\n        /* \"#utility.yul\":8258:8284   */\n      swap1\n      pop\n        /* \"#utility.yul\":8294:8391   */\n      tag_574\n        /* \"#utility.yul\":8388:8389   */\n      0x00\n        /* \"#utility.yul\":8377:8386   */\n      dup4\n        /* \"#utility.yul\":8373:8390   */\n      add\n        /* \"#utility.yul\":8364:8370   */\n      dup5\n        /* \"#utility.yul\":8294:8391   */\n      tag_434\n      jump\t// in\n    tag_574:\n        /* \"#utility.yul\":8124:8398   */\n      swap3\n      swap2\n      pop\n      pop\n      jump\t// out\n        /* \"#utility.yul\":8404:8878   */\n    tag_116:\n        /* \"#utility.yul\":8472:8478   */\n      0x00\n        /* \"#utility.yul\":8480:8486   */\n      dup1\n        /* \"#utility.yul\":8529:8531   */\n      0x40\n        /* \"#utility.yul\":8517:8526   */\n      dup4\n        /* \"#utility.yul\":8508:8515   */\n      dup6\n        /* \"#utility.yul\":8504:8527   */\n      sub\n        /* \"#utility.yul\":8500:8532   */\n      slt\n        /* \"#utility.yul\":8497:8616   */\n      iszero\n      tag_576\n      jumpi\n        /* \"#utility.yul\":8535:8614   */\n      tag_577\n      tag_404\n      jump\t// in\n    tag_577:\n        /* \"#utility.yul\":8497:8616   */\n    tag_576:\n        /* \"#utility.yul\":8655:8656   */\n      0x00\n        /* \"#utility.yul\":8680:8733   */\n      tag_578\n        /* \"#utility.yul\":8725:8732   */\n      dup6\n        /* \"#utility.yul\":8716:8722   */\n      dup3\n        /* \"#utility.yul\":8705:8714   */\n      dup7\n        /* \"#utility.yul\":8701:8723   */\n      add\n        /* \"#utility.yul\":8680:8733   */\n      tag_420\n      jump\t// in\n    tag_578:\n        /* \"#utility.yul\":8670:8733   */\n      swap3\n      pop\n        /* \"#utility.yul\":8626:8743   */\n      pop\n        /* \"#utility.yul\":8782:8784   */\n      0x20\n        /* \"#utility.yul\":8808:8861   */\n      tag_579\n        /* \"#utility.yul\":8853:8860   */\n      dup6\n        /* \"#utility.yul\":8844:8850   */\n      dup3\n        /* \"#utility.yul\":8833:8842   */\n      dup7\n        /* \"#utility.yul\":8829:8851   */\n      add\n        /* \"#utility.yul\":8808:8861   */\n      tag_420\n      jump\t// in\n    tag_579:\n        /* \"#utility.yul\":8798:8861   */\n      swap2\n      pop\n        /* \"#utility.yul\":8753:8871   */\n      pop\n        /* \"#utility.yul\":8404:8878   */\n      swap3\n      pop\n      swap3\n      swap1\n      pop\n      jump\t// out\n        /* \"#utility.yul\":8884:9037   */\n    tag_435:\n        /* \"#utility.yul\":8961:8970   */\n      0x00\n        /* \"#utility.yul\":8994:9031   */\n      tag_581\n        /* \"#utility.yul\":9025:9030   */\n      dup3\n        /* \"#utility.yul\":8994:9031   */\n      tag_432\n      jump\t// in\n    tag_581:\n        /* \"#utility.yul\":8981:9031   */\n      swap1\n      pop\n        /* \"#utility.yul\":8884:9037   */\n      swap2\n      swap1\n      pop\n      jump\t// out\n        /* \"#utility.yul\":9043:9228   */\n    tag_436:\n        /* \"#utility.yul\":9157:9221   */\n      tag_583\n        /* \"#utility.yul\":9215:9220   */\n      dup2\n        /* \"#utility.yul\":9157:9221   */\n      tag_435\n      jump\t// in\n    tag_583:\n        /* \"#utility.yul\":9152:9155   */\n      dup3\n        /* \"#utility.yul\":9145:9222   */\n      mstore\n        /* \"#utility.yul\":9043:9228   */\n      pop\n      pop\n      jump\t// out\n        /* \"#utility.yul\":9234:9510   */\n    tag_140:\n        /* \"#utility.yul\":9354:9358   */\n      0x00\n        /* \"#utility.yul\":9392:9394   */\n      0x20\n        /* \"#utility.yul\":9381:9390   */\n      dup3\n        /* \"#utility.yul\":9377:9395   */\n      add\n        /* \"#utility.yul\":9369:9395   */\n      swap1\n      pop\n        /* \"#utility.yul\":9405:9503   */\n      tag_585\n        /* \"#utility.yul\":9500:9501   */\n      0x00\n        /* \"#utility.yul\":9489:9498   */\n      dup4\n        /* \"#utility.yul\":9485:9502   */\n      add\n        /* \"#utility.yul\":9476:9482   */\n      dup5\n        /* \"#utility.yul\":9405:9503   */\n      tag_436\n      jump\t// in\n    tag_585:\n        /* \"#utility.yul\":9234:9510   */\n      swap3\n      swap2\n      pop\n      pop\n      jump\t// out\n        /* \"#utility.yul\":9516:9845   */\n    tag_148:\n        /* \"#utility.yul\":9575:9581   */\n      0x00\n        /* \"#utility.yul\":9624:9626   */\n      0x20\n        /* \"#utility.yul\":9612:9621   */\n      dup3\n        /* \"#utility.yul\":9603:9610   */\n      dup5\n        /* \"#utility.yul\":9599:9622   */\n      sub\n        /* \"#utility.yul\":9595:9627   */\n      slt\n        /* \"#utility.yul\":9592:9711   */\n      iszero\n      tag_587\n      jumpi\n        /* \"#utility.yul\":9630:9709   */\n      tag_588\n      tag_404\n      jump\t// in\n    tag_588:\n        /* \"#utility.yul\":9592:9711   */\n    tag_587:\n        /* \"#utility.yul\":9750:9751   */\n      0x00\n        /* \"#utility.yul\":9775:9828   */\n      tag_589\n        /* \"#utility.yul\":9820:9827   */\n      dup5\n        /* \"#utility.yul\":9811:9817   */\n      dup3\n        /* \"#utility.yul\":9800:9809   */\n      dup6\n        /* \"#utility.yul\":9796:9818   */\n      add\n        /* \"#utility.yul\":9775:9828   */\n      tag_420\n      jump\t// in\n    tag_589:\n        /* \"#utility.yul\":9765:9828   */\n      swap2\n      pop\n        /* \"#utility.yul\":9721:9838   */\n      pop\n        /* \"#utility.yul\":9516:9845   */\n      swap3\n      swap2\n      pop\n      pop\n      jump\t// out\n        /* \"#utility.yul\":9851:10483   */\n    tag_151:\n        /* \"#utility.yul\":10040:10044   */\n      0x00\n        /* \"#utility.yul\":10078:10081   */\n      0xa0\n        /* \"#utility.yul\":10067:10076   */\n      dup3\n        /* \"#utility.yul\":10063:10082   */\n      add\n        /* \"#utility.yul\":10055:10082   */\n      swap1\n      pop\n        /* \"#utility.yul\":10092:10157   */\n      tag_591\n        /* \"#utility.yul\":10154:10155   */\n      0x00\n        /* \"#utility.yul\":10143:10152   */\n      dup4\n        /* \"#utility.yul\":10139:10156   */\n      add\n        /* \"#utility.yul\":10130:10136   */\n      dup9\n        /* \"#utility.yul\":10092:10157   */\n      tag_410\n      jump\t// in\n    tag_591:\n        /* \"#utility.yul\":10167:10233   */\n      tag_592\n        /* \"#utility.yul\":10229:10231   */\n      0x20\n        /* \"#utility.yul\":10218:10227   */\n      dup4\n        /* \"#utility.yul\":10214:10232   */\n      add\n        /* \"#utility.yul\":10205:10211   */\n      dup8\n        /* \"#utility.yul\":10167:10233   */\n      tag_410\n      jump\t// in\n    tag_592:\n        /* \"#utility.yul\":10243:10311   */\n      tag_593\n        /* \"#utility.yul\":10307:10309   */\n      0x40\n        /* \"#utility.yul\":10296:10305   */\n      dup4\n        /* \"#utility.yul\":10292:10310   */\n      add\n        /* \"#utility.yul\":10283:10289   */\n      dup7\n        /* \"#utility.yul\":10243:10311   */\n      tag_422\n      jump\t// in\n    tag_593:\n        /* \"#utility.yul\":10321:10393   */\n      tag_594\n        /* \"#utility.yul\":10389:10391   */\n      0x60\n        /* \"#utility.yul\":10378:10387   */\n      dup4\n        /* \"#utility.yul\":10374:10392   */\n      add\n        /* \"#utility.yul\":10365:10371   */\n      dup6\n        /* \"#utility.yul\":10321:10393   */\n      tag_416\n      jump\t// in\n    tag_594:\n        /* \"#utility.yul\":10403:10476   */\n      tag_595\n        /* \"#utility.yul\":10471:10474   */\n      0x80\n        /* \"#utility.yul\":10460:10469   */\n      dup4\n        /* \"#utility.yul\":10456:10475   */\n      add\n        /* \"#utility.yul\":10447:10453   */\n      dup5\n        /* \"#utility.yul\":10403:10476   */\n      tag_423\n      jump\t// in\n    tag_595:\n        /* \"#utility.yul\":9851:10483   */\n      swap7\n      swap6\n      pop\n      pop\n      pop\n      pop\n      pop\n      pop\n      jump\t// out\n        /* \"#utility.yul\":10489:10669   */\n    tag_177:\n        /* \"#utility.yul\":10537:10614   */\n      0x4e487b7100000000000000000000000000000000000000000000000000000000\n        /* \"#utility.yul\":10534:10535   */\n      0x00\n        /* \"#utility.yul\":10527:10615   */\n      mstore\n        /* \"#utility.yul\":10634:10638   */\n      0x41\n        /* \"#utility.yul\":10631:10632   */\n      0x04\n        /* \"#utility.yul\":10624:10639   */\n      mstore\n        /* \"#utility.yul\":10658:10662   */\n      0x24\n        /* \"#utility.yul\":10655:10656   */\n      0x00\n        /* \"#utility.yul\":10648:10663   */\n      revert\n        /* \"#utility.yul\":10675:10818   */\n    tag_437:\n        /* \"#utility.yul\":10732:10737   */\n      0x00\n        /* \"#utility.yul\":10763:10769   */\n      dup2\n        /* \"#utility.yul\":10757:10770   */\n      mload\n        /* \"#utility.yul\":10748:10770   */\n      swap1\n      pop\n        /* \"#utility.yul\":10779:10812   */\n      tag_598\n        /* \"#utility.yul\":10806:10811   */\n      dup2\n        /* \"#utility.yul\":10779:10812   */\n      tag_419\n      jump\t// in\n    tag_598:\n        /* \"#utility.yul\":10675:10818   */\n      swap3\n      swap2\n      pop\n      pop\n      jump\t// out\n        /* \"#utility.yul\":10824:11175   */\n    tag_182:\n        /* \"#utility.yul\":10894:10900   */\n      0x00\n        /* \"#utility.yul\":10943:10945   */\n      0x20\n        /* \"#utility.yul\":10931:10940   */\n      dup3\n        /* \"#utility.yul\":10922:10929   */\n      dup5\n        /* \"#utility.yul\":10918:10941   */\n      sub\n        /* \"#utility.yul\":10914:10946   */\n      slt\n        /* \"#utility.yul\":10911:11030   */\n      iszero\n      tag_600\n      jumpi\n        /* \"#utility.yul\":10949:11028   */\n      tag_601\n      tag_404\n      jump\t// in\n    tag_601:\n        /* \"#utility.yul\":10911:11030   */\n    tag_600:\n        /* \"#utility.yul\":11069:11070   */\n      0x00\n        /* \"#utility.yul\":11094:11158   */\n      tag_602\n        /* \"#utility.yul\":11150:11157   */\n      dup5\n        /* \"#utility.yul\":11141:11147   */\n      dup3\n        /* \"#utility.yul\":11130:11139   */\n      dup6\n        /* \"#utility.yul\":11126:11148   */\n      add\n        /* \"#utility.yul\":11094:11158   */\n      tag_437\n      jump\t// in\n    tag_602:\n        /* \"#utility.yul\":11084:11158   */\n      swap2\n      pop\n        /* \"#utility.yul\":11040:11168   */\n      pop\n        /* \"#utility.yul\":10824:11175   */\n      swap3\n      swap2\n      pop\n      pop\n      jump\t// out\n        /* \"#utility.yul\":11181:11361   */\n    tag_185:\n        /* \"#utility.yul\":11229:11306   */\n      0x4e487b7100000000000000000000000000000000000000000000000000000000\n        /* \"#utility.yul\":11226:11227   */\n      0x00\n        /* \"#utility.yul\":11219:11307   */\n      mstore\n        /* \"#utility.yul\":11326:11330   */\n      0x32\n        /* \"#utility.yul\":11323:11324   */\n      0x04\n        /* \"#utility.yul\":11316:11331   */\n      mstore\n        /* \"#utility.yul\":11350:11354   */\n      0x24\n        /* \"#utility.yul\":11347:11348   */\n      0x00\n        /* \"#utility.yul\":11340:11355   */\n      revert\n        /* \"#utility.yul\":11367:11510   */\n    tag_438:\n        /* \"#utility.yul\":11424:11429   */\n      0x00\n        /* \"#utility.yul\":11455:11461   */\n      dup2\n        /* \"#utility.yul\":11449:11462   */\n      mload\n        /* \"#utility.yul\":11440:11462   */\n      swap1\n      pop\n        /* \"#utility.yul\":11471:11504   */\n      tag_605\n        /* \"#utility.yul\":11498:11503   */\n      dup2\n        /* \"#utility.yul\":11471:11504   */\n      tag_424\n      jump\t// in\n    tag_605:\n        /* \"#utility.yul\":11367:11510   */\n      swap3\n      swap2\n      pop\n      pop\n      jump\t// out\n        /* \"#utility.yul\":11516:11867   */\n    tag_192:\n        /* \"#utility.yul\":11586:11592   */\n      0x00\n        /* \"#utility.yul\":11635:11637   */\n      0x20\n        /* \"#utility.yul\":11623:11632   */\n      dup3\n        /* \"#utility.yul\":11614:11621   */\n      dup5\n        /* \"#utility.yul\":11610:11633   */\n      sub\n        /* \"#utility.yul\":11606:11638   */\n      slt\n        /* \"#utility.yul\":11603:11722   */\n      iszero\n      tag_607\n      jumpi\n        /* \"#utility.yul\":11641:11720   */\n      tag_608\n      tag_404\n      jump\t// in\n    tag_608:\n        /* \"#utility.yul\":11603:11722   */\n    tag_607:\n        /* \"#utility.yul\":11761:11762   */\n      0x00\n        /* \"#utility.yul\":11786:11850   */\n      tag_609\n        /* \"#utility.yul\":11842:11849   */\n      dup5\n        /* \"#utility.yul\":11833:11839   */\n      dup3\n        /* \"#utility.yul\":11822:11831   */\n      dup6\n        /* \"#utility.yul\":11818:11840   */\n      add\n        /* \"#utility.yul\":11786:11850   */\n      tag_438\n      jump\t// in\n    tag_609:\n        /* \"#utility.yul\":11776:11850   */\n      swap2\n      pop\n        /* \"#utility.yul\":11732:11860   */\n      pop\n        /* \"#utility.yul\":11516:11867   */\n      swap3\n      swap2\n      pop\n      pop\n      jump\t// out\n        /* \"#utility.yul\":11873:11987   */\n    tag_439:\n        /* \"#utility.yul\":11940:11946   */\n      0x00\n        /* \"#utility.yul\":11974:11979   */\n      dup2\n        /* \"#utility.yul\":11968:11980   */\n      mload\n        /* \"#utility.yul\":11958:11980   */\n      swap1\n      pop\n        /* \"#utility.yul\":11873:11987   */\n      swap2\n      swap1\n      pop\n      jump\t// out\n        /* \"#utility.yul\":11993:12177   */\n    tag_440:\n        /* \"#utility.yul\":12092:12103   */\n      0x00\n        /* \"#utility.yul\":12126:12132   */\n      dup3\n        /* \"#utility.yul\":12121:12124   */\n      dup3\n        /* \"#utility.yul\":12114:12133   */\n      mstore\n        /* \"#utility.yul\":12166:12170   */\n      0x20\n        /* \"#utility.yul\":12161:12164   */\n      dup3\n        /* \"#utility.yul\":12157:12171   */\n      add\n        /* \"#utility.yul\":12142:12171   */\n      swap1\n      pop\n        /* \"#utility.yul\":11993:12177   */\n      swap3\n      swap2\n      pop\n      pop\n      jump\t// out\n        /* \"#utility.yul\":12183:12315   */\n    tag_441:\n        /* \"#utility.yul\":12250:12254   */\n      0x00\n        /* \"#utility.yul\":12273:12276   */\n      dup2\n        /* \"#utility.yul\":12265:12276   */\n      swap1\n      pop\n        /* \"#utility.yul\":12303:12307   */\n      0x20\n        /* \"#utility.yul\":12298:12301   */\n      dup3\n        /* \"#utility.yul\":12294:12308   */\n      add\n        /* \"#utility.yul\":12286:12308   */\n      swap1\n      pop\n        /* \"#utility.yul\":12183:12315   */\n      swap2\n      swap1\n      pop\n      jump\t// out\n        /* \"#utility.yul\":12321:12429   */\n    tag_442:\n        /* \"#utility.yul\":12398:12422   */\n      tag_614\n        /* \"#utility.yul\":12416:12421   */\n      dup2\n        /* \"#utility.yul\":12398:12422   */\n      tag_418\n      jump\t// in\n    tag_614:\n        /* \"#utility.yul\":12393:12396   */\n      dup3\n        /* \"#utility.yul\":12386:12423   */\n      mstore\n        /* \"#utility.yul\":12321:12429   */\n      pop\n      pop\n      jump\t// out\n        /* \"#utility.yul\":12435:12614   */\n    tag_443:\n        /* \"#utility.yul\":12504:12514   */\n      0x00\n        /* \"#utility.yul\":12525:12571   */\n      tag_616\n        /* \"#utility.yul\":12567:12570   */\n      dup4\n        /* \"#utility.yul\":12559:12565   */\n      dup4\n        /* \"#utility.yul\":12525:12571   */\n      tag_442\n      jump\t// in\n    tag_616:\n        /* \"#utility.yul\":12603:12607   */\n      0x20\n        /* \"#utility.yul\":12598:12601   */\n      dup4\n        /* \"#utility.yul\":12594:12608   */\n      add\n        /* \"#utility.yul\":12580:12608   */\n      swap1\n      pop\n        /* \"#utility.yul\":12435:12614   */\n      swap3\n      swap2\n      pop\n      pop\n      jump\t// out\n        /* \"#utility.yul\":12620:12733   */\n    tag_444:\n        /* \"#utility.yul\":12690:12694   */\n      0x00\n        /* \"#utility.yul\":12722:12726   */\n      0x20\n        /* \"#utility.yul\":12717:12720   */\n      dup3\n        /* \"#utility.yul\":12713:12727   */\n      add\n        /* \"#utility.yul\":12705:12727   */\n      swap1\n      pop\n        /* \"#utility.yul\":12620:12733   */\n      swap2\n      swap1\n      pop\n      jump\t// out\n        /* \"#utility.yul\":12769:13501   */\n    tag_445:\n        /* \"#utility.yul\":12888:12891   */\n      0x00\n        /* \"#utility.yul\":12917:12971   */\n      tag_619\n        /* \"#utility.yul\":12965:12970   */\n      dup3\n        /* \"#utility.yul\":12917:12971   */\n      tag_439\n      jump\t// in\n    tag_619:\n        /* \"#utility.yul\":12987:13073   */\n      tag_620\n        /* \"#utility.yul\":13066:13072   */\n      dup2\n        /* \"#utility.yul\":13061:13064   */\n      dup6\n        /* \"#utility.yul\":12987:13073   */\n      tag_440\n      jump\t// in\n    tag_620:\n        /* \"#utility.yul\":12980:13073   */\n      swap4\n      pop\n        /* \"#utility.yul\":13097:13153   */\n      tag_621\n        /* \"#utility.yul\":13147:13152   */\n      dup4\n        /* \"#utility.yul\":13097:13153   */\n      tag_441\n      jump\t// in\n    tag_621:\n        /* \"#utility.yul\":13176:13183   */\n      dup1\n        /* \"#utility.yul\":13207:13208   */\n      0x00\n        /* \"#utility.yul\":13192:13476   */\n    tag_622:\n        /* \"#utility.yul\":13217:13223   */\n      dup4\n        /* \"#utility.yul\":13214:13215   */\n      dup2\n        /* \"#utility.yul\":13211:13224   */\n      lt\n        /* \"#utility.yul\":13192:13476   */\n      iszero\n      tag_624\n      jumpi\n        /* \"#utility.yul\":13293:13299   */\n      dup2\n        /* \"#utility.yul\":13287:13300   */\n      mload\n        /* \"#utility.yul\":13320:13383   */\n      tag_625\n        /* \"#utility.yul\":13379:13382   */\n      dup9\n        /* \"#utility.yul\":13364:13377   */\n      dup3\n        /* \"#utility.yul\":13320:13383   */\n      tag_443\n      jump\t// in\n    tag_625:\n        /* \"#utility.yul\":13313:13383   */\n      swap8\n      pop\n        /* \"#utility.yul\":13406:13466   */\n      tag_626\n        /* \"#utility.yul\":13459:13465   */\n      dup4\n        /* \"#utility.yul\":13406:13466   */\n      tag_444\n      jump\t// in\n    tag_626:\n        /* \"#utility.yul\":13396:13466   */\n      swap3\n      pop\n        /* \"#utility.yul\":13252:13476   */\n      pop\n        /* \"#utility.yul\":13239:13240   */\n      0x01\n        /* \"#utility.yul\":13236:13237   */\n      dup2\n        /* \"#utility.yul\":13232:13241   */\n      add\n        /* \"#utility.yul\":13227:13241   */\n      swap1\n      pop\n        /* \"#utility.yul\":13192:13476   */\n      jump(tag_622)\n    tag_624:\n        /* \"#utility.yul\":13196:13210   */\n      pop\n        /* \"#utility.yul\":13492:13495   */\n      dup6\n        /* \"#utility.yul\":13485:13495   */\n      swap4\n      pop\n        /* \"#utility.yul\":12893:13501   */\n      pop\n      pop\n      pop\n        /* \"#utility.yul\":12769:13501   */\n      swap3\n      swap2\n      pop\n      pop\n      jump\t// out\n        /* \"#utility.yul\":13507:14211   */\n    tag_194:\n        /* \"#utility.yul\":13734:13738   */\n      0x00\n        /* \"#utility.yul\":13772:13775   */\n      0x80\n        /* \"#utility.yul\":13761:13770   */\n      dup3\n        /* \"#utility.yul\":13757:13776   */\n      add\n        /* \"#utility.yul\":13749:13776   */\n      swap1\n      pop\n        /* \"#utility.yul\":13786:13857   */\n      tag_628\n        /* \"#utility.yul\":13854:13855   */\n      0x00\n        /* \"#utility.yul\":13843:13852   */\n      dup4\n        /* \"#utility.yul\":13839:13856   */\n      add\n        /* \"#utility.yul\":13830:13836   */\n      dup8\n        /* \"#utility.yul\":13786:13857   */\n      tag_416\n      jump\t// in\n    tag_628:\n        /* \"#utility.yul\":13904:13913   */\n      dup2\n        /* \"#utility.yul\":13898:13902   */\n      dup2\n        /* \"#utility.yul\":13894:13914   */\n      sub\n        /* \"#utility.yul\":13889:13891   */\n      0x20\n        /* \"#utility.yul\":13878:13887   */\n      dup4\n        /* \"#utility.yul\":13874:13892   */\n      add\n        /* \"#utility.yul\":13867:13915   */\n      mstore\n        /* \"#utility.yul\":13932:14040   */\n      tag_629\n        /* \"#utility.yul\":14035:14039   */\n      dup2\n        /* \"#utility.yul\":14026:14032   */\n      dup7\n        /* \"#utility.yul\":13932:14040   */\n      tag_445\n      jump\t// in\n    tag_629:\n        /* \"#utility.yul\":13924:14040   */\n      swap1\n      pop\n        /* \"#utility.yul\":14050:14122   */\n      tag_630\n        /* \"#utility.yul\":14118:14120   */\n      0x40\n        /* \"#utility.yul\":14107:14116   */\n      dup4\n        /* \"#utility.yul\":14103:14121   */\n      add\n        /* \"#utility.yul\":14094:14100   */\n      dup6\n        /* \"#utility.yul\":14050:14122   */\n      tag_423\n      jump\t// in\n    tag_630:\n        /* \"#utility.yul\":14132:14204   */\n      tag_631\n        /* \"#utility.yul\":14200:14202   */\n      0x60\n        /* \"#utility.yul\":14189:14198   */\n      dup4\n        /* \"#utility.yul\":14185:14203   */\n      add\n        /* \"#utility.yul\":14176:14182   */\n      dup5\n        /* \"#utility.yul\":14132:14204   */\n      tag_416\n      jump\t// in\n    tag_631:\n        /* \"#utility.yul\":13507:14211   */\n      swap6\n      swap5\n      pop\n      pop\n      pop\n      pop\n      pop\n      jump\t// out\n        /* \"#utility.yul\":14217:14334   */\n    tag_446:\n        /* \"#utility.yul\":14326:14327   */\n      0x00\n        /* \"#utility.yul\":14323:14324   */\n      dup1\n        /* \"#utility.yul\":14316:14328   */\n      revert\n        /* \"#utility.yul\":14340:14442   */\n    tag_447:\n        /* \"#utility.yul\":14381:14387   */\n      0x00\n        /* \"#utility.yul\":14432:14434   */\n      0x1f\n        /* \"#utility.yul\":14428:14435   */\n      not\n        /* \"#utility.yul\":14423:14425   */\n      0x1f\n        /* \"#utility.yul\":14416:14421   */\n      dup4\n        /* \"#utility.yul\":14412:14426   */\n      add\n        /* \"#utility.yul\":14408:14436   */\n      and\n        /* \"#utility.yul\":14398:14436   */\n      swap1\n      pop\n        /* \"#utility.yul\":14340:14442   */\n      swap2\n      swap1\n      pop\n      jump\t// out\n        /* \"#utility.yul\":14448:14729   */\n    tag_448:\n        /* \"#utility.yul\":14531:14558   */\n      tag_635\n        /* \"#utility.yul\":14553:14557   */\n      dup3\n        /* \"#utility.yul\":14531:14558   */\n      tag_447\n      jump\t// in\n    tag_635:\n        /* \"#utility.yul\":14523:14529   */\n      dup2\n        /* \"#utility.yul\":14519:14559   */\n      add\n        /* \"#utility.yul\":14661:14667   */\n      dup2\n        /* \"#utility.yul\":14649:14659   */\n      dup2\n        /* \"#utility.yul\":14646:14668   */\n      lt\n        /* \"#utility.yul\":14625:14643   */\n      0xffffffffffffffff\n        /* \"#utility.yul\":14613:14623   */\n      dup3\n        /* \"#utility.yul\":14610:14644   */\n      gt\n        /* \"#utility.yul\":14607:14669   */\n      or\n        /* \"#utility.yul\":14604:14692   */\n      iszero\n      tag_636\n      jumpi\n        /* \"#utility.yul\":14672:14690   */\n      tag_637\n      tag_177\n      jump\t// in\n    tag_637:\n        /* \"#utility.yul\":14604:14692   */\n    tag_636:\n        /* \"#utility.yul\":14712:14722   */\n      dup1\n        /* \"#utility.yul\":14708:14710   */\n      0x40\n        /* \"#utility.yul\":14701:14723   */\n      mstore\n        /* \"#utility.yul\":14491:14729   */\n      pop\n        /* \"#utility.yul\":14448:14729   */\n      pop\n      pop\n      jump\t// out\n        /* \"#utility.yul\":14735:14864   */\n    tag_449:\n        /* \"#utility.yul\":14769:14775   */\n      0x00\n        /* \"#utility.yul\":14796:14816   */\n      tag_639\n      tag_403\n      jump\t// in\n    tag_639:\n        /* \"#utility.yul\":14786:14816   */\n      swap1\n      pop\n        /* \"#utility.yul\":14825:14858   */\n      tag_640\n        /* \"#utility.yul\":14853:14857   */\n      dup3\n        /* \"#utility.yul\":14845:14851   */\n      dup3\n        /* \"#utility.yul\":14825:14858   */\n      tag_448\n      jump\t// in\n    tag_640:\n        /* \"#utility.yul\":14735:14864   */\n      swap2\n      swap1\n      pop\n      jump\t// out\n        /* \"#utility.yul\":14870:15181   */\n    tag_450:\n        /* \"#utility.yul\":14947:14951   */\n      0x00\n        /* \"#utility.yul\":15037:15055   */\n      0xffffffffffffffff\n        /* \"#utility.yul\":15029:15035   */\n      dup3\n        /* \"#utility.yul\":15026:15056   */\n      gt\n        /* \"#utility.yul\":15023:15079   */\n      iszero\n      tag_642\n      jumpi\n        /* \"#utility.yul\":15059:15077   */\n      tag_643\n      tag_177\n      jump\t// in\n    tag_643:\n        /* \"#utility.yul\":15023:15079   */\n    tag_642:\n        /* \"#utility.yul\":15109:15113   */\n      0x20\n        /* \"#utility.yul\":15101:15107   */\n      dup3\n        /* \"#utility.yul\":15097:15114   */\n      mul\n        /* \"#utility.yul\":15089:15114   */\n      swap1\n      pop\n        /* \"#utility.yul\":15169:15173   */\n      0x20\n        /* \"#utility.yul\":15163:15167   */\n      dup2\n        /* \"#utility.yul\":15159:15174   */\n      add\n        /* \"#utility.yul\":15151:15174   */\n      swap1\n      pop\n        /* \"#utility.yul\":14870:15181   */\n      swap2\n      swap1\n      pop\n      jump\t// out\n        /* \"#utility.yul\":15187:15304   */\n    tag_451:\n        /* \"#utility.yul\":15296:15297   */\n      0x00\n        /* \"#utility.yul\":15293:15294   */\n      dup1\n        /* \"#utility.yul\":15286:15298   */\n      revert\n        /* \"#utility.yul\":15327:16059   */\n    tag_452:\n        /* \"#utility.yul\":15434:15439   */\n      0x00\n        /* \"#utility.yul\":15459:15540   */\n      tag_646\n        /* \"#utility.yul\":15475:15539   */\n      tag_647\n        /* \"#utility.yul\":15532:15538   */\n      dup5\n        /* \"#utility.yul\":15475:15539   */\n      tag_450\n      jump\t// in\n    tag_647:\n        /* \"#utility.yul\":15459:15540   */\n      tag_449\n      jump\t// in\n    tag_646:\n        /* \"#utility.yul\":15450:15540   */\n      swap1\n      pop\n        /* \"#utility.yul\":15560:15565   */\n      dup1\n        /* \"#utility.yul\":15589:15595   */\n      dup4\n        /* \"#utility.yul\":15582:15587   */\n      dup3\n        /* \"#utility.yul\":15575:15596   */\n      mstore\n        /* \"#utility.yul\":15623:15627   */\n      0x20\n        /* \"#utility.yul\":15616:15621   */\n      dup3\n        /* \"#utility.yul\":15612:15628   */\n      add\n        /* \"#utility.yul\":15605:15628   */\n      swap1\n      pop\n        /* \"#utility.yul\":15676:15680   */\n      0x20\n        /* \"#utility.yul\":15668:15674   */\n      dup5\n        /* \"#utility.yul\":15664:15681   */\n      mul\n        /* \"#utility.yul\":15656:15662   */\n      dup4\n        /* \"#utility.yul\":15652:15682   */\n      add\n        /* \"#utility.yul\":15705:15708   */\n      dup6\n        /* \"#utility.yul\":15697:15703   */\n      dup2\n        /* \"#utility.yul\":15694:15709   */\n      gt\n        /* \"#utility.yul\":15691:15813   */\n      iszero\n      tag_648\n      jumpi\n        /* \"#utility.yul\":15724:15803   */\n      tag_649\n      tag_451\n      jump\t// in\n    tag_649:\n        /* \"#utility.yul\":15691:15813   */\n    tag_648:\n        /* \"#utility.yul\":15839:15845   */\n      dup4\n        /* \"#utility.yul\":15822:16053   */\n    tag_650:\n        /* \"#utility.yul\":15856:15862   */\n      dup2\n        /* \"#utility.yul\":15851:15854   */\n      dup2\n        /* \"#utility.yul\":15848:15863   */\n      lt\n        /* \"#utility.yul\":15822:16053   */\n      iszero\n      tag_652\n      jumpi\n        /* \"#utility.yul\":15931:15934   */\n      dup1\n        /* \"#utility.yul\":15960:16008   */\n      tag_653\n        /* \"#utility.yul\":16004:16007   */\n      dup9\n        /* \"#utility.yul\":15992:16002   */\n      dup3\n        /* \"#utility.yul\":15960:16008   */\n      tag_438\n      jump\t// in\n    tag_653:\n        /* \"#utility.yul\":15955:15958   */\n      dup5\n        /* \"#utility.yul\":15948:16009   */\n      mstore\n        /* \"#utility.yul\":16038:16042   */\n      0x20\n        /* \"#utility.yul\":16033:16036   */\n      dup5\n        /* \"#utility.yul\":16029:16043   */\n      add\n        /* \"#utility.yul\":16022:16043   */\n      swap4\n      pop\n        /* \"#utility.yul\":15898:16053   */\n      pop\n        /* \"#utility.yul\":15882:15886   */\n      0x20\n        /* \"#utility.yul\":15877:15880   */\n      dup2\n        /* \"#utility.yul\":15873:15887   */\n      add\n        /* \"#utility.yul\":15866:15887   */\n      swap1\n      pop\n        /* \"#utility.yul\":15822:16053   */\n      jump(tag_650)\n    tag_652:\n        /* \"#utility.yul\":15826:15847   */\n      pop\n        /* \"#utility.yul\":15440:16059   */\n      pop\n      pop\n        /* \"#utility.yul\":15327:16059   */\n      swap4\n      swap3\n      pop\n      pop\n      pop\n      jump\t// out\n        /* \"#utility.yul\":16082:16467   */\n    tag_453:\n        /* \"#utility.yul\":16164:16169   */\n      0x00\n        /* \"#utility.yul\":16213:16216   */\n      dup3\n        /* \"#utility.yul\":16206:16210   */\n      0x1f\n        /* \"#utility.yul\":16198:16204   */\n      dup4\n        /* \"#utility.yul\":16194:16211   */\n      add\n        /* \"#utility.yul\":16190:16217   */\n      slt\n        /* \"#utility.yul\":16180:16302   */\n      tag_655\n      jumpi\n        /* \"#utility.yul\":16221:16300   */\n      tag_656\n      tag_446\n      jump\t// in\n    tag_656:\n        /* \"#utility.yul\":16180:16302   */\n    tag_655:\n        /* \"#utility.yul\":16331:16337   */\n      dup2\n        /* \"#utility.yul\":16325:16338   */\n      mload\n        /* \"#utility.yul\":16356:16461   */\n      tag_657\n        /* \"#utility.yul\":16457:16460   */\n      dup5\n        /* \"#utility.yul\":16449:16455   */\n      dup3\n        /* \"#utility.yul\":16442:16446   */\n      0x20\n        /* \"#utility.yul\":16434:16440   */\n      dup7\n        /* \"#utility.yul\":16430:16447   */\n      add\n        /* \"#utility.yul\":16356:16461   */\n      tag_452\n      jump\t// in\n    tag_657:\n        /* \"#utility.yul\":16347:16461   */\n      swap2\n      pop\n        /* \"#utility.yul\":16170:16467   */\n      pop\n        /* \"#utility.yul\":16082:16467   */\n      swap3\n      swap2\n      pop\n      pop\n      jump\t// out\n        /* \"#utility.yul\":16473:17027   */\n    tag_198:\n        /* \"#utility.yul\":16568:16574   */\n      0x00\n        /* \"#utility.yul\":16617:16619   */\n      0x20\n        /* \"#utility.yul\":16605:16614   */\n      dup3\n        /* \"#utility.yul\":16596:16603   */\n      dup5\n        /* \"#utility.yul\":16592:16615   */\n      sub\n        /* \"#utility.yul\":16588:16620   */\n      slt\n        /* \"#utility.yul\":16585:16704   */\n      iszero\n      tag_659\n      jumpi\n        /* \"#utility.yul\":16623:16702   */\n      tag_660\n      tag_404\n      jump\t// in\n    tag_660:\n        /* \"#utility.yul\":16585:16704   */\n    tag_659:\n        /* \"#utility.yul\":16764:16765   */\n      0x00\n        /* \"#utility.yul\":16753:16762   */\n      dup3\n        /* \"#utility.yul\":16749:16766   */\n      add\n        /* \"#utility.yul\":16743:16767   */\n      mload\n        /* \"#utility.yul\":16794:16812   */\n      0xffffffffffffffff\n        /* \"#utility.yul\":16786:16792   */\n      dup2\n        /* \"#utility.yul\":16783:16813   */\n      gt\n        /* \"#utility.yul\":16780:16897   */\n      iszero\n      tag_661\n      jumpi\n        /* \"#utility.yul\":16816:16895   */\n      tag_662\n      tag_405\n      jump\t// in\n    tag_662:\n        /* \"#utility.yul\":16780:16897   */\n    tag_661:\n        /* \"#utility.yul\":16921:17010   */\n      tag_663\n        /* \"#utility.yul\":17002:17009   */\n      dup5\n        /* \"#utility.yul\":16993:16999   */\n      dup3\n        /* \"#utility.yul\":16982:16991   */\n      dup6\n        /* \"#utility.yul\":16978:17000   */\n      add\n        /* \"#utility.yul\":16921:17010   */\n      tag_453\n      jump\t// in\n    tag_663:\n        /* \"#utility.yul\":16911:17010   */\n      swap2\n      pop\n        /* \"#utility.yul\":16714:17020   */\n      pop\n        /* \"#utility.yul\":16473:17027   */\n      swap3\n      swap2\n      pop\n      pop\n      jump\t// out\n        /* \"#utility.yul\":17033:17213   */\n    tag_454:\n        /* \"#utility.yul\":17081:17158   */\n      0x4e487b7100000000000000000000000000000000000000000000000000000000\n        /* \"#utility.yul\":17078:17079   */\n      0x00\n        /* \"#utility.yul\":17071:17159   */\n      mstore\n        /* \"#utility.yul\":17178:17182   */\n      0x11\n        /* \"#utility.yul\":17175:17176   */\n      0x04\n        /* \"#utility.yul\":17168:17183   */\n      mstore\n        /* \"#utility.yul\":17202:17206   */\n      0x24\n        /* \"#utility.yul\":17199:17200   */\n      0x00\n        /* \"#utility.yul\":17192:17207   */\n      revert\n        /* \"#utility.yul\":17219:17413   */\n    tag_204:\n        /* \"#utility.yul\":17259:17263   */\n      0x00\n        /* \"#utility.yul\":17279:17299   */\n      tag_666\n        /* \"#utility.yul\":17297:17298   */\n      dup3\n        /* \"#utility.yul\":17279:17299   */\n      tag_415\n      jump\t// in\n    tag_666:\n        /* \"#utility.yul\":17274:17299   */\n      swap2\n      pop\n        /* \"#utility.yul\":17313:17333   */\n      tag_667\n        /* \"#utility.yul\":17331:17332   */\n      dup4\n        /* \"#utility.yul\":17313:17333   */\n      tag_415\n      jump\t// in\n    tag_667:\n        /* \"#utility.yul\":17308:17333   */\n      swap3\n      pop\n        /* \"#utility.yul\":17357:17358   */\n      dup3\n        /* \"#utility.yul\":17354:17355   */\n      dup3\n        /* \"#utility.yul\":17350:17359   */\n      sub\n        /* \"#utility.yul\":17342:17359   */\n      swap1\n      pop\n        /* \"#utility.yul\":17381:17382   */\n      dup2\n        /* \"#utility.yul\":17375:17379   */\n      dup2\n        /* \"#utility.yul\":17372:17383   */\n      gt\n        /* \"#utility.yul\":17369:17406   */\n      iszero\n      tag_668\n      jumpi\n        /* \"#utility.yul\":17386:17404   */\n      tag_669\n      tag_454\n      jump\t// in\n    tag_669:\n        /* \"#utility.yul\":17369:17406   */\n    tag_668:\n        /* \"#utility.yul\":17219:17413   */\n      swap3\n      swap2\n      pop\n      pop\n      jump\t// out\n        /* \"#utility.yul\":17419:17610   */\n    tag_206:\n        /* \"#utility.yul\":17459:17462   */\n      0x00\n        /* \"#utility.yul\":17478:17498   */\n      tag_671\n        /* \"#utility.yul\":17496:17497   */\n      dup3\n        /* \"#utility.yul\":17478:17498   */\n      tag_415\n      jump\t// in\n    tag_671:\n        /* \"#utility.yul\":17473:17498   */\n      swap2\n      pop\n        /* \"#utility.yul\":17512:17532   */\n      tag_672\n        /* \"#utility.yul\":17530:17531   */\n      dup4\n        /* \"#utility.yul\":17512:17532   */\n      tag_415\n      jump\t// in\n    tag_672:\n        /* \"#utility.yul\":17507:17532   */\n      swap3\n      pop\n        /* \"#utility.yul\":17555:17556   */\n      dup3\n        /* \"#utility.yul\":17552:17553   */\n      dup3\n        /* \"#utility.yul\":17548:17557   */\n      add\n        /* \"#utility.yul\":17541:17557   */\n      swap1\n      pop\n        /* \"#utility.yul\":17576:17579   */\n      dup1\n        /* \"#utility.yul\":17573:17574   */\n      dup3\n        /* \"#utility.yul\":17570:17580   */\n      gt\n        /* \"#utility.yul\":17567:17603   */\n      iszero\n      tag_673\n      jumpi\n        /* \"#utility.yul\":17583:17601   */\n      tag_674\n      tag_454\n      jump\t// in\n    tag_674:\n        /* \"#utility.yul\":17567:17603   */\n    tag_673:\n        /* \"#utility.yul\":17419:17610   */\n      swap3\n      swap2\n      pop\n      pop\n      jump\t// out\n        /* \"#utility.yul\":17616:17948   */\n    tag_209:\n        /* \"#utility.yul\":17737:17741   */\n      0x00\n        /* \"#utility.yul\":17775:17777   */\n      0x40\n        /* \"#utility.yul\":17764:17773   */\n      dup3\n        /* \"#utility.yul\":17760:17778   */\n      add\n        /* \"#utility.yul\":17752:17778   */\n      swap1\n      pop\n        /* \"#utility.yul\":17788:17859   */\n      tag_676\n        /* \"#utility.yul\":17856:17857   */\n      0x00\n        /* \"#utility.yul\":17845:17854   */\n      dup4\n        /* \"#utility.yul\":17841:17858   */\n      add\n        /* \"#utility.yul\":17832:17838   */\n      dup6\n        /* \"#utility.yul\":17788:17859   */\n      tag_416\n      jump\t// in\n    tag_676:\n        /* \"#utility.yul\":17869:17941   */\n      tag_677\n        /* \"#utility.yul\":17937:17939   */\n      0x20\n        /* \"#utility.yul\":17926:17935   */\n      dup4\n        /* \"#utility.yul\":17922:17940   */\n      add\n        /* \"#utility.yul\":17913:17919   */\n      dup5\n        /* \"#utility.yul\":17869:17941   */\n      tag_416\n      jump\t// in\n    tag_677:\n        /* \"#utility.yul\":17616:17948   */\n      swap4\n      swap3\n      pop\n      pop\n      pop\n      jump\t// out\n        /* \"#utility.yul\":17954:18396   */\n    tag_212:\n        /* \"#utility.yul\":18103:18107   */\n      0x00\n        /* \"#utility.yul\":18141:18143   */\n      0x60\n        /* \"#utility.yul\":18130:18139   */\n      dup3\n        /* \"#utility.yul\":18126:18144   */\n      add\n        /* \"#utility.yul\":18118:18144   */\n      swap1\n      pop\n        /* \"#utility.yul\":18154:18225   */\n      tag_679\n        /* \"#utility.yul\":18222:18223   */\n      0x00\n        /* \"#utility.yul\":18211:18220   */\n      dup4\n        /* \"#utility.yul\":18207:18224   */\n      add\n        /* \"#utility.yul\":18198:18204   */\n      dup7\n        /* \"#utility.yul\":18154:18225   */\n      tag_416\n      jump\t// in\n    tag_679:\n        /* \"#utility.yul\":18235:18307   */\n      tag_680\n        /* \"#utility.yul\":18303:18305   */\n      0x20\n        /* \"#utility.yul\":18292:18301   */\n      dup4\n        /* \"#utility.yul\":18288:18306   */\n      add\n        /* \"#utility.yul\":18279:18285   */\n      dup6\n        /* \"#utility.yul\":18235:18307   */\n      tag_416\n      jump\t// in\n    tag_680:\n        /* \"#utility.yul\":18317:18389   */\n      tag_681\n        /* \"#utility.yul\":18385:18387   */\n      0x40\n        /* \"#utility.yul\":18374:18383   */\n      dup4\n        /* \"#utility.yul\":18370:18388   */\n      add\n        /* \"#utility.yul\":18361:18367   */\n      dup5\n        /* \"#utility.yul\":18317:18389   */\n      tag_416\n      jump\t// in\n    tag_681:\n        /* \"#utility.yul\":17954:18396   */\n      swap5\n      swap4\n      pop\n      pop\n      pop\n      pop\n      jump\t// out\n        /* \"#utility.yul\":18402:18734   */\n    tag_225:\n        /* \"#utility.yul\":18523:18527   */\n      0x00\n        /* \"#utility.yul\":18561:18563   */\n      0x40\n        /* \"#utility.yul\":18550:18559   */\n      dup3\n        /* \"#utility.yul\":18546:18564   */\n      add\n        /* \"#utility.yul\":18538:18564   */\n      swap1\n      pop\n        /* \"#utility.yul\":18574:18645   */\n      tag_683\n        /* \"#utility.yul\":18642:18643   */\n      0x00\n        /* \"#utility.yul\":18631:18640   */\n      dup4\n        /* \"#utility.yul\":18627:18644   */\n      add\n        /* \"#utility.yul\":18618:18624   */\n      dup6\n        /* \"#utility.yul\":18574:18645   */\n      tag_423\n      jump\t// in\n    tag_683:\n        /* \"#utility.yul\":18655:18727   */\n      tag_684\n        /* \"#utility.yul\":18723:18725   */\n      0x20\n        /* \"#utility.yul\":18712:18721   */\n      dup4\n        /* \"#utility.yul\":18708:18726   */\n      add\n        /* \"#utility.yul\":18699:18705   */\n      dup5\n        /* \"#utility.yul\":18655:18727   */\n      tag_423\n      jump\t// in\n    tag_684:\n        /* \"#utility.yul\":18402:18734   */\n      swap4\n      swap3\n      pop\n      pop\n      pop\n      jump\t// out\n        /* \"#utility.yul\":18740:19555   */\n    tag_247:\n        /* \"#utility.yul\":18995:18999   */\n      0x00\n        /* \"#utility.yul\":19033:19036   */\n      0xa0\n        /* \"#utility.yul\":19022:19031   */\n      dup3\n        /* \"#utility.yul\":19018:19037   */\n      add\n        /* \"#utility.yul\":19010:19037   */\n      swap1\n      pop\n        /* \"#utility.yul\":19047:19118   */\n      tag_686\n        /* \"#utility.yul\":19115:19116   */\n      0x00\n        /* \"#utility.yul\":19104:19113   */\n      dup4\n        /* \"#utility.yul\":19100:19117   */\n      add\n        /* \"#utility.yul\":19091:19097   */\n      dup9\n        /* \"#utility.yul\":19047:19118   */\n      tag_416\n      jump\t// in\n    tag_686:\n        /* \"#utility.yul\":19128:19200   */\n      tag_687\n        /* \"#utility.yul\":19196:19198   */\n      0x20\n        /* \"#utility.yul\":19185:19194   */\n      dup4\n        /* \"#utility.yul\":19181:19199   */\n      add\n        /* \"#utility.yul\":19172:19178   */\n      dup8\n        /* \"#utility.yul\":19128:19200   */\n      tag_416\n      jump\t// in\n    tag_687:\n        /* \"#utility.yul\":19247:19256   */\n      dup2\n        /* \"#utility.yul\":19241:19245   */\n      dup2\n        /* \"#utility.yul\":19237:19257   */\n      sub\n        /* \"#utility.yul\":19232:19234   */\n      0x40\n        /* \"#utility.yul\":19221:19230   */\n      dup4\n        /* \"#utility.yul\":19217:19235   */\n      add\n        /* \"#utility.yul\":19210:19258   */\n      mstore\n        /* \"#utility.yul\":19275:19383   */\n      tag_688\n        /* \"#utility.yul\":19378:19382   */\n      dup2\n        /* \"#utility.yul\":19369:19375   */\n      dup7\n        /* \"#utility.yul\":19275:19383   */\n      tag_445\n      jump\t// in\n    tag_688:\n        /* \"#utility.yul\":19267:19383   */\n      swap1\n      pop\n        /* \"#utility.yul\":19393:19465   */\n      tag_689\n        /* \"#utility.yul\":19461:19463   */\n      0x60\n        /* \"#utility.yul\":19450:19459   */\n      dup4\n        /* \"#utility.yul\":19446:19464   */\n      add\n        /* \"#utility.yul\":19437:19443   */\n      dup6\n        /* \"#utility.yul\":19393:19465   */\n      tag_423\n      jump\t// in\n    tag_689:\n        /* \"#utility.yul\":19475:19548   */\n      tag_690\n        /* \"#utility.yul\":19543:19546   */\n      0x80\n        /* \"#utility.yul\":19532:19541   */\n      dup4\n        /* \"#utility.yul\":19528:19547   */\n      add\n        /* \"#utility.yul\":19519:19525   */\n      dup5\n        /* \"#utility.yul\":19475:19548   */\n      tag_416\n      jump\t// in\n    tag_690:\n        /* \"#utility.yul\":18740:19555   */\n      swap7\n      swap6\n      pop\n      pop\n      pop\n      pop\n      pop\n      pop\n      jump\t// out\n        /* \"#utility.yul\":19561:19700   */\n    tag_455:\n        /* \"#utility.yul\":19616:19621   */\n      0x00\n        /* \"#utility.yul\":19647:19653   */\n      dup2\n        /* \"#utility.yul\":19641:19654   */\n      mload\n        /* \"#utility.yul\":19632:19654   */\n      swap1\n      pop\n        /* \"#utility.yul\":19663:19694   */\n      tag_692\n        /* \"#utility.yul\":19688:19693   */\n      dup2\n        /* \"#utility.yul\":19663:19694   */\n      tag_428\n      jump\t// in\n    tag_692:\n        /* \"#utility.yul\":19561:19700   */\n      swap3\n      swap2\n      pop\n      pop\n      jump\t// out\n        /* \"#utility.yul\":19706:20053   */\n    tag_271:\n        /* \"#utility.yul\":19774:19780   */\n      0x00\n        /* \"#utility.yul\":19823:19825   */\n      0x20\n        /* \"#utility.yul\":19811:19820   */\n      dup3\n        /* \"#utility.yul\":19802:19809   */\n      dup5\n        /* \"#utility.yul\":19798:19821   */\n      sub\n        /* \"#utility.yul\":19794:19826   */\n      slt\n        /* \"#utility.yul\":19791:19910   */\n      iszero\n      tag_694\n      jumpi\n        /* \"#utility.yul\":19829:19908   */\n      tag_695\n      tag_404\n      jump\t// in\n    tag_695:\n        /* \"#utility.yul\":19791:19910   */\n    tag_694:\n        /* \"#utility.yul\":19949:19950   */\n      0x00\n        /* \"#utility.yul\":19974:20036   */\n      tag_696\n        /* \"#utility.yul\":20028:20035   */\n      dup5\n        /* \"#utility.yul\":20019:20025   */\n      dup3\n        /* \"#utility.yul\":20008:20017   */\n      dup6\n        /* \"#utility.yul\":20004:20026   */\n      add\n        /* \"#utility.yul\":19974:20036   */\n      tag_455\n      jump\t// in\n    tag_696:\n        /* \"#utility.yul\":19964:20036   */\n      swap2\n      pop\n        /* \"#utility.yul\":19920:20046   */\n      pop\n        /* \"#utility.yul\":19706:20053   */\n      swap3\n      swap2\n      pop\n      pop\n      jump\t// out\n        /* \"#utility.yul\":20059:20501   */\n    tag_337:\n        /* \"#utility.yul\":20208:20212   */\n      0x00\n        /* \"#utility.yul\":20246:20248   */\n      0x60\n        /* \"#utility.yul\":20235:20244   */\n      dup3\n        /* \"#utility.yul\":20231:20249   */\n      add\n        /* \"#utility.yul\":20223:20249   */\n      swap1\n      pop\n        /* \"#utility.yul\":20259:20330   */\n      tag_698\n        /* \"#utility.yul\":20327:20328   */\n      0x00\n        /* \"#utility.yul\":20316:20325   */\n      dup4\n        /* \"#utility.yul\":20312:20329   */\n      add\n        /* \"#utility.yul\":20303:20309   */\n      dup7\n        /* \"#utility.yul\":20259:20330   */\n      tag_423\n      jump\t// in\n    tag_698:\n        /* \"#utility.yul\":20340:20412   */\n      tag_699\n        /* \"#utility.yul\":20408:20410   */\n      0x20\n        /* \"#utility.yul\":20397:20406   */\n      dup4\n        /* \"#utility.yul\":20393:20411   */\n      add\n        /* \"#utility.yul\":20384:20390   */\n      dup6\n        /* \"#utility.yul\":20340:20412   */\n      tag_423\n      jump\t// in\n    tag_699:\n        /* \"#utility.yul\":20422:20494   */\n      tag_700\n        /* \"#utility.yul\":20490:20492   */\n      0x40\n        /* \"#utility.yul\":20479:20488   */\n      dup4\n        /* \"#utility.yul\":20475:20493   */\n      add\n        /* \"#utility.yul\":20466:20472   */\n      dup5\n        /* \"#utility.yul\":20422:20494   */\n      tag_416\n      jump\t// in\n    tag_700:\n        /* \"#utility.yul\":20059:20501   */\n      swap5\n      swap4\n      pop\n      pop\n      pop\n      pop\n      jump\t// out\n        /* \"#utility.yul\":20507:20839   */\n    tag_350:\n        /* \"#utility.yul\":20628:20632   */\n      0x00\n        /* \"#utility.yul\":20666:20668   */\n      0x40\n        /* \"#utility.yul\":20655:20664   */\n      dup3\n        /* \"#utility.yul\":20651:20669   */\n      add\n        /* \"#utility.yul\":20643:20669   */\n      swap1\n      pop\n        /* \"#utility.yul\":20679:20750   */\n      tag_702\n        /* \"#utility.yul\":20747:20748   */\n      0x00\n        /* \"#utility.yul\":20736:20745   */\n      dup4\n        /* \"#utility.yul\":20732:20749   */\n      add\n        /* \"#utility.yul\":20723:20729   */\n      dup6\n        /* \"#utility.yul\":20679:20750   */\n      tag_423\n      jump\t// in\n    tag_702:\n        /* \"#utility.yul\":20760:20832   */\n      tag_703\n        /* \"#utility.yul\":20828:20830   */\n      0x20\n        /* \"#utility.yul\":20817:20826   */\n      dup4\n        /* \"#utility.yul\":20813:20831   */\n      add\n        /* \"#utility.yul\":20804:20810   */\n      dup5\n        /* \"#utility.yul\":20760:20832   */\n      tag_416\n      jump\t// in\n    tag_703:\n        /* \"#utility.yul\":20507:20839   */\n      swap4\n      swap3\n      pop\n      pop\n      pop\n      jump\t// out\n        /* \"#utility.yul\":20845:20950   */\n    tag_456:\n        /* \"#utility.yul\":20881:20888   */\n      0x00\n        /* \"#utility.yul\":20921:20943   */\n      0xffffffffffffffffffff\n        /* \"#utility.yul\":20914:20919   */\n      dup3\n        /* \"#utility.yul\":20910:20944   */\n      and\n        /* \"#utility.yul\":20899:20944   */\n      swap1\n      pop\n        /* \"#utility.yul\":20845:20950   */\n      swap2\n      swap1\n      pop\n      jump\t// out\n        /* \"#utility.yul\":20956:21076   */\n    tag_457:\n        /* \"#utility.yul\":21028:21051   */\n      tag_706\n        /* \"#utility.yul\":21045:21050   */\n      dup2\n        /* \"#utility.yul\":21028:21051   */\n      tag_456\n      jump\t// in\n    tag_706:\n        /* \"#utility.yul\":21021:21026   */\n      dup2\n        /* \"#utility.yul\":21018:21052   */\n      eq\n        /* \"#utility.yul\":21008:21070   */\n      tag_707\n      jumpi\n        /* \"#utility.yul\":21066:21067   */\n      0x00\n        /* \"#utility.yul\":21063:21064   */\n      dup1\n        /* \"#utility.yul\":21056:21068   */\n      revert\n        /* \"#utility.yul\":21008:21070   */\n    tag_707:\n        /* \"#utility.yul\":20956:21076   */\n      pop\n      jump\t// out\n        /* \"#utility.yul\":21082:21223   */\n    tag_458:\n        /* \"#utility.yul\":21138:21143   */\n      0x00\n        /* \"#utility.yul\":21169:21175   */\n      dup2\n        /* \"#utility.yul\":21163:21176   */\n      mload\n        /* \"#utility.yul\":21154:21176   */\n      swap1\n      pop\n        /* \"#utility.yul\":21185:21217   */\n      tag_709\n        /* \"#utility.yul\":21211:21216   */\n      dup2\n        /* \"#utility.yul\":21185:21217   */\n      tag_457\n      jump\t// in\n    tag_709:\n        /* \"#utility.yul\":21082:21223   */\n      swap3\n      swap2\n      pop\n      pop\n      jump\t// out\n        /* \"#utility.yul\":21229:21305   */\n    tag_459:\n        /* \"#utility.yul\":21265:21272   */\n      0x00\n        /* \"#utility.yul\":21294:21299   */\n      dup2\n        /* \"#utility.yul\":21283:21299   */\n      swap1\n      pop\n        /* \"#utility.yul\":21229:21305   */\n      swap2\n      swap1\n      pop\n      jump\t// out\n        /* \"#utility.yul\":21311:21431   */\n    tag_460:\n        /* \"#utility.yul\":21383:21406   */\n      tag_712\n        /* \"#utility.yul\":21400:21405   */\n      dup2\n        /* \"#utility.yul\":21383:21406   */\n      tag_459\n      jump\t// in\n    tag_712:\n        /* \"#utility.yul\":21376:21381   */\n      dup2\n        /* \"#utility.yul\":21373:21407   */\n      eq\n        /* \"#utility.yul\":21363:21425   */\n      tag_713\n      jumpi\n        /* \"#utility.yul\":21421:21422   */\n      0x00\n        /* \"#utility.yul\":21418:21419   */\n      dup1\n        /* \"#utility.yul\":21411:21423   */\n      revert\n        /* \"#utility.yul\":21363:21425   */\n    tag_713:\n        /* \"#utility.yul\":21311:21431   */\n      pop\n      jump\t// out\n        /* \"#utility.yul\":21437:21578   */\n    tag_461:\n        /* \"#utility.yul\":21493:21498   */\n      0x00\n        /* \"#utility.yul\":21524:21530   */\n      dup2\n        /* \"#utility.yul\":21518:21531   */\n      mload\n        /* \"#utility.yul\":21509:21531   */\n      swap1\n      pop\n        /* \"#utility.yul\":21540:21572   */\n      tag_715\n        /* \"#utility.yul\":21566:21571   */\n      dup2\n        /* \"#utility.yul\":21540:21572   */\n      tag_460\n      jump\t// in\n    tag_715:\n        /* \"#utility.yul\":21437:21578   */\n      swap3\n      swap2\n      pop\n      pop\n      jump\t// out\n        /* \"#utility.yul\":21584:22555   */\n    tag_358:\n        /* \"#utility.yul\":21687:21693   */\n      0x00\n        /* \"#utility.yul\":21695:21701   */\n      dup1\n        /* \"#utility.yul\":21703:21709   */\n      0x00\n        /* \"#utility.yul\":21711:21717   */\n      dup1\n        /* \"#utility.yul\":21719:21725   */\n      0x00\n        /* \"#utility.yul\":21768:21771   */\n      0xa0\n        /* \"#utility.yul\":21756:21765   */\n      dup7\n        /* \"#utility.yul\":21747:21754   */\n      dup9\n        /* \"#utility.yul\":21743:21766   */\n      sub\n        /* \"#utility.yul\":21739:21772   */\n      slt\n        /* \"#utility.yul\":21736:21856   */\n      iszero\n      tag_717\n      jumpi\n        /* \"#utility.yul\":21775:21854   */\n      tag_718\n      tag_404\n      jump\t// in\n    tag_718:\n        /* \"#utility.yul\":21736:21856   */\n    tag_717:\n        /* \"#utility.yul\":21895:21896   */\n      0x00\n        /* \"#utility.yul\":21920:21983   */\n      tag_719\n        /* \"#utility.yul\":21975:21982   */\n      dup9\n        /* \"#utility.yul\":21966:21972   */\n      dup3\n        /* \"#utility.yul\":21955:21964   */\n      dup10\n        /* \"#utility.yul\":21951:21973   */\n      add\n        /* \"#utility.yul\":21920:21983   */\n      tag_458\n      jump\t// in\n    tag_719:\n        /* \"#utility.yul\":21910:21983   */\n      swap6\n      pop\n        /* \"#utility.yul\":21866:21993   */\n      pop\n        /* \"#utility.yul\":22032:22034   */\n      0x20\n        /* \"#utility.yul\":22058:22121   */\n      tag_720\n        /* \"#utility.yul\":22113:22120   */\n      dup9\n        /* \"#utility.yul\":22104:22110   */\n      dup3\n        /* \"#utility.yul\":22093:22102   */\n      dup10\n        /* \"#utility.yul\":22089:22111   */\n      add\n        /* \"#utility.yul\":22058:22121   */\n      tag_461\n      jump\t// in\n    tag_720:\n        /* \"#utility.yul\":22048:22121   */\n      swap5\n      pop\n        /* \"#utility.yul\":22003:22131   */\n      pop\n        /* \"#utility.yul\":22170:22172   */\n      0x40\n        /* \"#utility.yul\":22196:22260   */\n      tag_721\n        /* \"#utility.yul\":22252:22259   */\n      dup9\n        /* \"#utility.yul\":22243:22249   */\n      dup3\n        /* \"#utility.yul\":22232:22241   */\n      dup10\n        /* \"#utility.yul\":22228:22250   */\n      add\n        /* \"#utility.yul\":22196:22260   */\n      tag_438\n      jump\t// in\n    tag_721:\n        /* \"#utility.yul\":22186:22260   */\n      swap4\n      pop\n        /* \"#utility.yul\":22141:22270   */\n      pop\n        /* \"#utility.yul\":22309:22311   */\n      0x60\n        /* \"#utility.yul\":22335:22399   */\n      tag_722\n        /* \"#utility.yul\":22391:22398   */\n      dup9\n        /* \"#utility.yul\":22382:22388   */\n      dup3\n        /* \"#utility.yul\":22371:22380   */\n      dup10\n        /* \"#utility.yul\":22367:22389   */\n      add\n        /* \"#utility.yul\":22335:22399   */\n      tag_438\n      jump\t// in\n    tag_722:\n        /* \"#utility.yul\":22325:22399   */\n      swap3\n      pop\n        /* \"#utility.yul\":22280:22409   */\n      pop\n        /* \"#utility.yul\":22448:22451   */\n      0x80\n        /* \"#utility.yul\":22475:22538   */\n      tag_723\n        /* \"#utility.yul\":22530:22537   */\n      dup9\n        /* \"#utility.yul\":22521:22527   */\n      dup3\n        /* \"#utility.yul\":22510:22519   */\n      dup10\n        /* \"#utility.yul\":22506:22528   */\n      add\n        /* \"#utility.yul\":22475:22538   */\n      tag_458\n      jump\t// in\n    tag_723:\n        /* \"#utility.yul\":22465:22538   */\n      swap2\n      pop\n        /* \"#utility.yul\":22419:22548   */\n      pop\n        /* \"#utility.yul\":21584:22555   */\n      swap3\n      swap6\n      pop\n      swap3\n      swap6\n      swap1\n      swap4\n      pop\n      jump\t// out\n        /* \"#utility.yul\":22561:22971   */\n    tag_364:\n        /* \"#utility.yul\":22601:22608   */\n      0x00\n        /* \"#utility.yul\":22624:22644   */\n      tag_725\n        /* \"#utility.yul\":22642:22643   */\n      dup3\n        /* \"#utility.yul\":22624:22644   */\n      tag_415\n      jump\t// in\n    tag_725:\n        /* \"#utility.yul\":22619:22644   */\n      swap2\n      pop\n        /* \"#utility.yul\":22658:22678   */\n      tag_726\n        /* \"#utility.yul\":22676:22677   */\n      dup4\n        /* \"#utility.yul\":22658:22678   */\n      tag_415\n      jump\t// in\n    tag_726:\n        /* \"#utility.yul\":22653:22678   */\n      swap3\n      pop\n        /* \"#utility.yul\":22713:22714   */\n      dup3\n        /* \"#utility.yul\":22710:22711   */\n      dup3\n        /* \"#utility.yul\":22706:22715   */\n      mul\n        /* \"#utility.yul\":22735:22765   */\n      tag_727\n        /* \"#utility.yul\":22753:22764   */\n      dup2\n        /* \"#utility.yul\":22735:22765   */\n      tag_415\n      jump\t// in\n    tag_727:\n        /* \"#utility.yul\":22724:22765   */\n      swap2\n      pop\n        /* \"#utility.yul\":22914:22915   */\n      dup3\n        /* \"#utility.yul\":22905:22912   */\n      dup3\n        /* \"#utility.yul\":22901:22916   */\n      div\n        /* \"#utility.yul\":22898:22899   */\n      dup5\n        /* \"#utility.yul\":22895:22917   */\n      eq\n        /* \"#utility.yul\":22875:22876   */\n      dup4\n        /* \"#utility.yul\":22868:22877   */\n      iszero\n        /* \"#utility.yul\":22848:22931   */\n      or\n        /* \"#utility.yul\":22825:22964   */\n      tag_728\n      jumpi\n        /* \"#utility.yul\":22944:22962   */\n      tag_729\n      tag_454\n      jump\t// in\n    tag_729:\n        /* \"#utility.yul\":22825:22964   */\n    tag_728:\n        /* \"#utility.yul\":22609:22971   */\n      pop\n        /* \"#utility.yul\":22561:22971   */\n      swap3\n      swap2\n      pop\n      pop\n      jump\t// out\n        /* \"#utility.yul\":22977:23079   */\n    tag_462:\n        /* \"#utility.yul\":23019:23027   */\n      0x00\n        /* \"#utility.yul\":23066:23071   */\n      dup2\n        /* \"#utility.yul\":23063:23064   */\n      0x01\n        /* \"#utility.yul\":23059:23072   */\n      shr\n        /* \"#utility.yul\":23038:23072   */\n      swap1\n      pop\n        /* \"#utility.yul\":22977:23079   */\n      swap2\n      swap1\n      pop\n      jump\t// out\n        /* \"#utility.yul\":23085:23933   */\n    tag_463:\n        /* \"#utility.yul\":23146:23151   */\n      0x00\n        /* \"#utility.yul\":23153:23157   */\n      dup1\n        /* \"#utility.yul\":23177:23183   */\n      dup3\n        /* \"#utility.yul\":23168:23183   */\n      swap2\n      pop\n        /* \"#utility.yul\":23201:23206   */\n      dup4\n        /* \"#utility.yul\":23192:23206   */\n      swap1\n      pop\n        /* \"#utility.yul\":23215:23927   */\n    tag_732:\n        /* \"#utility.yul\":23236:23237   */\n      0x01\n        /* \"#utility.yul\":23226:23234   */\n      dup6\n        /* \"#utility.yul\":23223:23238   */\n      gt\n        /* \"#utility.yul\":23215:23927   */\n      iszero\n      tag_734\n      jumpi\n        /* \"#utility.yul\":23331:23335   */\n      dup1\n        /* \"#utility.yul\":23326:23329   */\n      dup7\n        /* \"#utility.yul\":23322:23336   */\n      div\n        /* \"#utility.yul\":23316:23320   */\n      dup2\n        /* \"#utility.yul\":23313:23337   */\n      gt\n        /* \"#utility.yul\":23310:23360   */\n      iszero\n      tag_735\n      jumpi\n        /* \"#utility.yul\":23340:23358   */\n      tag_736\n      tag_454\n      jump\t// in\n    tag_736:\n        /* \"#utility.yul\":23310:23360   */\n    tag_735:\n        /* \"#utility.yul\":23390:23391   */\n      0x01\n        /* \"#utility.yul\":23380:23388   */\n      dup6\n        /* \"#utility.yul\":23376:23392   */\n      and\n        /* \"#utility.yul\":23373:23824   */\n      iszero\n      tag_737\n      jumpi\n        /* \"#utility.yul\":23805:23809   */\n      dup1\n        /* \"#utility.yul\":23798:23803   */\n      dup3\n        /* \"#utility.yul\":23794:23810   */\n      mul\n        /* \"#utility.yul\":23785:23810   */\n      swap2\n      pop\n        /* \"#utility.yul\":23373:23824   */\n    tag_737:\n        /* \"#utility.yul\":23855:23859   */\n      dup1\n        /* \"#utility.yul\":23849:23853   */\n      dup2\n        /* \"#utility.yul\":23845:23860   */\n      mul\n        /* \"#utility.yul\":23837:23860   */\n      swap1\n      pop\n        /* \"#utility.yul\":23885:23917   */\n      tag_738\n        /* \"#utility.yul\":23908:23916   */\n      dup6\n        /* \"#utility.yul\":23885:23917   */\n      tag_462\n      jump\t// in\n    tag_738:\n        /* \"#utility.yul\":23873:23917   */\n      swap5\n      pop\n        /* \"#utility.yul\":23215:23927   */\n      jump(tag_732)\n    tag_734:\n        /* \"#utility.yul\":23085:23933   */\n      swap5\n      pop\n      swap5\n      swap3\n      pop\n      pop\n      pop\n      jump\t// out\n        /* \"#utility.yul\":23939:25012   */\n    tag_464:\n        /* \"#utility.yul\":23993:23998   */\n      0x00\n        /* \"#utility.yul\":24184:24192   */\n      dup3\n        /* \"#utility.yul\":24174:24214   */\n      tag_740\n      jumpi\n        /* \"#utility.yul\":24205:24206   */\n      0x01\n        /* \"#utility.yul\":24196:24206   */\n      swap1\n      pop\n        /* \"#utility.yul\":24207:24212   */\n      jump(tag_739)\n        /* \"#utility.yul\":24174:24214   */\n    tag_740:\n        /* \"#utility.yul\":24233:24237   */\n      dup2\n        /* \"#utility.yul\":24223:24259   */\n      tag_741\n      jumpi\n        /* \"#utility.yul\":24250:24251   */\n      0x00\n        /* \"#utility.yul\":24241:24251   */\n      swap1\n      pop\n        /* \"#utility.yul\":24252:24257   */\n      jump(tag_739)\n        /* \"#utility.yul\":24223:24259   */\n    tag_741:\n        /* \"#utility.yul\":24319:24323   */\n      dup2\n        /* \"#utility.yul\":24367:24368   */\n      0x01\n        /* \"#utility.yul\":24362:24389   */\n      dup2\n      eq\n      tag_743\n      jumpi\n        /* \"#utility.yul\":24403:24404   */\n      0x02\n        /* \"#utility.yul\":24398:24589   */\n      dup2\n      eq\n      tag_744\n      jumpi\n        /* \"#utility.yul\":24312:24589   */\n      jump(tag_742)\n        /* \"#utility.yul\":24362:24389   */\n    tag_743:\n        /* \"#utility.yul\":24380:24381   */\n      0x01\n        /* \"#utility.yul\":24371:24381   */\n      swap2\n      pop\n        /* \"#utility.yul\":24382:24387   */\n      pop\n      jump(tag_739)\n        /* \"#utility.yul\":24398:24589   */\n    tag_744:\n        /* \"#utility.yul\":24443:24446   */\n      0xff\n        /* \"#utility.yul\":24433:24441   */\n      dup5\n        /* \"#utility.yul\":24430:24447   */\n      gt\n        /* \"#utility.yul\":24427:24470   */\n      iszero\n      tag_745\n      jumpi\n        /* \"#utility.yul\":24450:24468   */\n      tag_746\n      tag_454\n      jump\t// in\n    tag_746:\n        /* \"#utility.yul\":24427:24470   */\n    tag_745:\n        /* \"#utility.yul\":24499:24507   */\n      dup4\n        /* \"#utility.yul\":24496:24497   */\n      0x02\n        /* \"#utility.yul\":24492:24508   */\n      exp\n        /* \"#utility.yul\":24483:24508   */\n      swap2\n      pop\n        /* \"#utility.yul\":24534:24537   */\n      dup5\n        /* \"#utility.yul\":24527:24532   */\n      dup3\n        /* \"#utility.yul\":24524:24538   */\n      gt\n        /* \"#utility.yul\":24521:24561   */\n      iszero\n      tag_747\n      jumpi\n        /* \"#utility.yul\":24541:24559   */\n      tag_748\n      tag_454\n      jump\t// in\n    tag_748:\n        /* \"#utility.yul\":24521:24561   */\n    tag_747:\n        /* \"#utility.yul\":24574:24579   */\n      pop\n      jump(tag_739)\n        /* \"#utility.yul\":24312:24589   */\n    tag_742:\n      pop\n        /* \"#utility.yul\":24698:24700   */\n      0x20\n        /* \"#utility.yul\":24688:24696   */\n      dup4\n        /* \"#utility.yul\":24685:24701   */\n      lt\n        /* \"#utility.yul\":24679:24682   */\n      0x0133\n        /* \"#utility.yul\":24673:24677   */\n      dup4\n        /* \"#utility.yul\":24670:24683   */\n      lt\n        /* \"#utility.yul\":24666:24702   */\n      and\n        /* \"#utility.yul\":24648:24650   */\n      0x4e\n        /* \"#utility.yul\":24638:24646   */\n      dup5\n        /* \"#utility.yul\":24635:24651   */\n      lt\n        /* \"#utility.yul\":24630:24632   */\n      0x0b\n        /* \"#utility.yul\":24624:24628   */\n      dup5\n        /* \"#utility.yul\":24621:24633   */\n      lt\n        /* \"#utility.yul\":24617:24652   */\n      and\n        /* \"#utility.yul\":24601:24712   */\n      or\n        /* \"#utility.yul\":24598:24844   */\n      iszero\n      tag_749\n      jumpi\n        /* \"#utility.yul\":24754:24762   */\n      dup3\n        /* \"#utility.yul\":24748:24752   */\n      dup3\n        /* \"#utility.yul\":24744:24763   */\n      exp\n        /* \"#utility.yul\":24735:24763   */\n      swap1\n      pop\n        /* \"#utility.yul\":24789:24792   */\n      dup4\n        /* \"#utility.yul\":24782:24787   */\n      dup2\n        /* \"#utility.yul\":24779:24793   */\n      gt\n        /* \"#utility.yul\":24776:24816   */\n      iszero\n      tag_750\n      jumpi\n        /* \"#utility.yul\":24796:24814   */\n      tag_751\n      tag_454\n      jump\t// in\n    tag_751:\n        /* \"#utility.yul\":24776:24816   */\n    tag_750:\n        /* \"#utility.yul\":24829:24834   */\n      jump(tag_739)\n        /* \"#utility.yul\":24598:24844   */\n    tag_749:\n        /* \"#utility.yul\":24869:24911   */\n      tag_752\n        /* \"#utility.yul\":24907:24910   */\n      dup5\n        /* \"#utility.yul\":24897:24905   */\n      dup5\n        /* \"#utility.yul\":24891:24895   */\n      dup5\n        /* \"#utility.yul\":24888:24889   */\n      0x01\n        /* \"#utility.yul\":24869:24911   */\n      tag_463\n      jump\t// in\n    tag_752:\n        /* \"#utility.yul\":24854:24911   */\n      swap3\n      pop\n      swap1\n      pop\n        /* \"#utility.yul\":24943:24947   */\n      dup2\n        /* \"#utility.yul\":24938:24941   */\n      dup5\n        /* \"#utility.yul\":24934:24948   */\n      div\n        /* \"#utility.yul\":24927:24932   */\n      dup2\n        /* \"#utility.yul\":24924:24949   */\n      gt\n        /* \"#utility.yul\":24921:24972   */\n      iszero\n      tag_753\n      jumpi\n        /* \"#utility.yul\":24952:24970   */\n      tag_754\n      tag_454\n      jump\t// in\n    tag_754:\n        /* \"#utility.yul\":24921:24972   */\n    tag_753:\n        /* \"#utility.yul\":25001:25005   */\n      dup2\n        /* \"#utility.yul\":24994:24999   */\n      dup2\n        /* \"#utility.yul\":24990:25006   */\n      mul\n        /* \"#utility.yul\":24981:25006   */\n      swap1\n      pop\n        /* \"#utility.yul\":23939:25012   */\n    tag_739:\n      swap4\n      swap3\n      pop\n      pop\n      pop\n      jump\t// out\n        /* \"#utility.yul\":25018:25299   */\n    tag_367:\n        /* \"#utility.yul\":25076:25081   */\n      0x00\n        /* \"#utility.yul\":25100:25123   */\n      tag_756\n        /* \"#utility.yul\":25118:25122   */\n      dup3\n        /* \"#utility.yul\":25100:25123   */\n      tag_415\n      jump\t// in\n    tag_756:\n        /* \"#utility.yul\":25092:25123   */\n      swap2\n      pop\n        /* \"#utility.yul\":25144:25169   */\n      tag_757\n        /* \"#utility.yul\":25160:25168   */\n      dup4\n        /* \"#utility.yul\":25144:25169   */\n      tag_421\n      jump\t// in\n    tag_757:\n        /* \"#utility.yul\":25132:25169   */\n      swap3\n      pop\n        /* \"#utility.yul\":25188:25292   */\n      tag_758\n        /* \"#utility.yul\":25225:25291   */\n      0xffffffffffffffffffffffffffffffffffffffffffffffffffffffffffffffff\n        /* \"#utility.yul\":25215:25223   */\n      dup5\n        /* \"#utility.yul\":25209:25213   */\n      dup5\n        /* \"#utility.yul\":25188:25292   */\n      tag_464\n      jump\t// in\n    tag_758:\n        /* \"#utility.yul\":25179:25292   */\n      swap1\n      pop\n        /* \"#utility.yul\":25018:25299   */\n      swap3\n      swap2\n      pop\n      pop\n      jump\t// out\n        /* \"#utility.yul\":25305:25485   */\n    tag_465:\n        /* \"#utility.yul\":25353:25430   */\n      0x4e487b7100000000000000000000000000000000000000000000000000000000\n        /* \"#utility.yul\":25350:25351   */\n      0x00\n        /* \"#utility.yul\":25343:25431   */\n      mstore\n        /* \"#utility.yul\":25450:25454   */\n      0x12\n        /* \"#utility.yul\":25447:25448   */\n      0x04\n        /* \"#utility.yul\":25440:25455   */\n      mstore\n        /* \"#utility.yul\":25474:25478   */\n      0x24\n        /* \"#utility.yul\":25471:25472   */\n      0x00\n        /* \"#utility.yul\":25464:25479   */\n      revert\n        /* \"#utility.yul\":25491:25676   */\n    tag_369:\n        /* \"#utility.yul\":25531:25532   */\n      0x00\n        /* \"#utility.yul\":25548:25568   */\n      tag_761\n        /* \"#utility.yul\":25566:25567   */\n      dup3\n        /* \"#utility.yul\":25548:25568   */\n      tag_415\n      jump\t// in\n    tag_761:\n        /* \"#utility.yul\":25543:25568   */\n      swap2\n      pop\n        /* \"#utility.yul\":25582:25602   */\n      tag_762\n        /* \"#utility.yul\":25600:25601   */\n      dup4\n        /* \"#utility.yul\":25582:25602   */\n      tag_415\n      jump\t// in\n    tag_762:\n        /* \"#utility.yul\":25577:25602   */\n      swap3\n      pop\n        /* \"#utility.yul\":25621:25622   */\n      dup3\n        /* \"#utility.yul\":25611:25646   */\n      tag_763\n      jumpi\n        /* \"#utility.yul\":25626:25644   */\n      tag_764\n      tag_465\n      jump\t// in\n    tag_764:\n        /* \"#utility.yul\":25611:25646   */\n    tag_763:\n        /* \"#utility.yul\":25668:25669   */\n      dup3\n        /* \"#utility.yul\":25665:25666   */\n      dup3\n        /* \"#utility.yul\":25661:25670   */\n      div\n        /* \"#utility.yul\":25656:25670   */\n      swap1\n      pop\n        /* \"#utility.yul\":25491:25676   */\n      swap3\n      swap2\n      pop\n      pop\n      jump\t// out\n        /* \"#utility.yul\":25682:25873   */\n    tag_372:\n        /* \"#utility.yul\":25720:25724   */\n      0x00\n        /* \"#utility.yul\":25740:25758   */\n      tag_766\n        /* \"#utility.yul\":25756:25757   */\n      dup3\n        /* \"#utility.yul\":25740:25758   */\n      tag_421\n      jump\t// in\n    tag_766:\n        /* \"#utility.yul\":25735:25758   */\n      swap2\n      pop\n        /* \"#utility.yul\":25772:25790   */\n      tag_767\n        /* \"#utility.yul\":25788:25789   */\n      dup4\n        /* \"#utility.yul\":25772:25790   */\n      tag_421\n      jump\t// in\n    tag_767:\n        /* \"#utility.yul\":25767:25790   */\n      swap3\n      pop\n        /* \"#utility.yul\":25814:25815   */\n      dup3\n        /* \"#utility.yul\":25811:25812   */\n      dup3\n        /* \"#utility.yul\":25807:25816   */\n      sub\n        /* \"#utility.yul\":25799:25816   */\n      swap1\n      pop\n        /* \"#utility.yul\":25838:25842   */\n      0xff\n        /* \"#utility.yul\":25832:25836   */\n      dup2\n        /* \"#utility.yul\":25829:25843   */\n      gt\n        /* \"#utility.yul\":25826:25866   */\n      iszero\n      tag_768\n      jumpi\n        /* \"#utility.yul\":25846:25864   */\n      tag_769\n      tag_454\n      jump\t// in\n    tag_769:\n        /* \"#utility.yul\":25826:25866   */\n    tag_768:\n        /* \"#utility.yul\":25682:25873   */\n      swap3\n      swap2\n      pop\n      pop\n      jump\t// out\n        /* \"#utility.yul\":25879:26211   */\n    tag_383:\n        /* \"#utility.yul\":26000:26004   */\n      0x00\n        /* \"#utility.yul\":26038:26040   */\n      0x40\n        /* \"#utility.yul\":26027:26036   */\n      dup3\n        /* \"#utility.yul\":26023:26041   */\n      add\n        /* \"#utility.yul\":26015:26041   */\n      swap1\n      pop\n        /* \"#utility.yul\":26051:26122   */\n      tag_771\n        /* \"#utility.yul\":26119:26120   */\n      0x00\n        /* \"#utility.yul\":26108:26117   */\n      dup4\n        /* \"#utility.yul\":26104:26121   */\n      add\n        /* \"#utility.yul\":26095:26101   */\n      dup6\n        /* \"#utility.yul\":26051:26122   */\n      tag_423\n      jump\t// in\n    tag_771:\n        /* \"#utility.yul\":26132:26204   */\n      tag_772\n        /* \"#utility.yul\":26200:26202   */\n      0x20\n        /* \"#utility.yul\":26189:26198   */\n      dup4\n        /* \"#utility.yul\":26185:26203   */\n      add\n        /* \"#utility.yul\":26176:26182   */\n      dup5\n        /* \"#utility.yul\":26132:26204   */\n      tag_414\n      jump\t// in\n    tag_772:\n        /* \"#utility.yul\":25879:26211   */\n      swap4\n      swap3\n      pop\n      pop\n      pop\n      jump\t// out\n        /* \"#utility.yul\":26217:26302   */\n    tag_466:\n        /* \"#utility.yul\":26262:26269   */\n      0x00\n        /* \"#utility.yul\":26291:26296   */\n      dup2\n        /* \"#utility.yul\":26280:26296   */\n      swap1\n      pop\n        /* \"#utility.yul\":26217:26302   */\n      swap2\n      swap1\n      pop\n      jump\t// out\n        /* \"#utility.yul\":26308:26466   */\n    tag_467:\n        /* \"#utility.yul\":26366:26375   */\n      0x00\n        /* \"#utility.yul\":26399:26460   */\n      tag_775\n        /* \"#utility.yul\":26417:26459   */\n      tag_776\n        /* \"#utility.yul\":26426:26458   */\n      tag_777\n        /* \"#utility.yul\":26452:26457   */\n      dup5\n        /* \"#utility.yul\":26426:26458   */\n      tag_466\n      jump\t// in\n    tag_777:\n        /* \"#utility.yul\":26417:26459   */\n      tag_430\n      jump\t// in\n    tag_776:\n        /* \"#utility.yul\":26399:26460   */\n      tag_415\n      jump\t// in\n    tag_775:\n        /* \"#utility.yul\":26386:26460   */\n      swap1\n      pop\n        /* \"#utility.yul\":26308:26466   */\n      swap2\n      swap1\n      pop\n      jump\t// out\n        /* \"#utility.yul\":26472:26619   */\n    tag_468:\n        /* \"#utility.yul\":26567:26612   */\n      tag_779\n        /* \"#utility.yul\":26606:26611   */\n      dup2\n        /* \"#utility.yul\":26567:26612   */\n      tag_467\n      jump\t// in\n    tag_779:\n        /* \"#utility.yul\":26562:26565   */\n      dup3\n        /* \"#utility.yul\":26555:26613   */\n      mstore\n        /* \"#utility.yul\":26472:26619   */\n      pop\n      pop\n      jump\t// out\n        /* \"#utility.yul\":26625:26973   */\n    tag_397:\n        /* \"#utility.yul\":26754:26758   */\n      0x00\n        /* \"#utility.yul\":26792:26794   */\n      0x40\n        /* \"#utility.yul\":26781:26790   */\n      dup3\n        /* \"#utility.yul\":26777:26795   */\n      add\n        /* \"#utility.yul\":26769:26795   */\n      swap1\n      pop\n        /* \"#utility.yul\":26805:26876   */\n      tag_781\n        /* \"#utility.yul\":26873:26874   */\n      0x00\n        /* \"#utility.yul\":26862:26871   */\n      dup4\n        /* \"#utility.yul\":26858:26875   */\n      add\n        /* \"#utility.yul\":26849:26855   */\n      dup6\n        /* \"#utility.yul\":26805:26876   */\n      tag_423\n      jump\t// in\n    tag_781:\n        /* \"#utility.yul\":26886:26966   */\n      tag_782\n        /* \"#utility.yul\":26962:26964   */\n      0x20\n        /* \"#utility.yul\":26951:26960   */\n      dup4\n        /* \"#utility.yul\":26947:26965   */\n      add\n        /* \"#utility.yul\":26938:26944   */\n      dup5\n        /* \"#utility.yul\":26886:26966   */\n      tag_468\n      jump\t// in\n    tag_782:\n        /* \"#utility.yul\":26625:26973   */\n      swap4\n      swap3\n      pop\n      pop\n      pop\n      jump\t// out\n\n    auxdata: 0xa26469706673582212209785165f90a8a5446f4da5a26a86887018276690a6ad4e146e200831f70da6fb64736f6c634300081a0033\n}\n",
				"bytecode": {
					"linkReferences": {},
					"object": "610100604052348015610010575f80fd5b506040516146cc3803806146cc833981810160405281019061003291906108a4565b600180819055505f8603610072576040517f1f2a200500000000000000000000000000000000000000000000000000000000815260040160405180910390fd5b5f73ffffffffffffffffffffffffffffffffffffffff168473ffffffffffffffffffffffffffffffffffffffff1614806100d757505f73ffffffffffffffffffffffffffffffffffffffff168373ffffffffffffffffffffffffffffffffffffffff16145b8061010d57505f73ffffffffffffffffffffffffffffffffffffffff168273ffffffffffffffffffffffffffffffffffffffff16145b1561014f575f6040517fbf16aab6000000000000000000000000000000000000000000000000000000008152600401610146919061093c565b60405180910390fd5b85608081815250508373ffffffffffffffffffffffffffffffffffffffff1660e08173ffffffffffffffffffffffffffffffffffffffff16815250508273ffffffffffffffffffffffffffffffffffffffff1660a08173ffffffffffffffffffffffffffffffffffffffff16815250508173ffffffffffffffffffffffffffffffffffffffff1660c08173ffffffffffffffffffffffffffffffffffffffff16815250506102055f801b3361066d60201b60201c565b506102367f2172861495e7b85edac73e3cd5fbb42dd675baadf627720e687bcfdaca0250963361066d60201b60201c565b5061023f6107cc565b6001815f01901515908115158152505060018160200190151590811515815250506012816040019060ff16908160ff16815250508181606001818152505085816080019073ffffffffffffffffffffffffffffffffffffffff16908173ffffffffffffffffffffffffffffffffffffffff16815250508060045f8073ffffffffffffffffffffffffffffffffffffffff1673ffffffffffffffffffffffffffffffffffffffff1681526020019081526020015f205f820151815f015f6101000a81548160ff0219169083151502179055506020820151815f0160016101000a81548160ff0219169083151502179055506040820151815f0160026101000a81548160ff021916908360ff160217905550606082015181600101556080820151816002015f6101000a81548173ffffffffffffffffffffffffffffffffffffffff021916908373ffffffffffffffffffffffffffffffffffffffff1602179055509050505f73ffffffffffffffffffffffffffffffffffffffff167fceec6d18b470b58eabbfc22b7d771c54609acb2bbe777747424f6e9a5a9d5a256001806012868b6040516103f29594939291906109cc565b60405180910390a2506104036107cc565b6001815f0190151590811515815250505f8160200190151590811515815250505f6006905060e05173ffffffffffffffffffffffffffffffffffffffff1663313ce5676040518163ffffffff1660e01b8152600401602060405180830381865afa92505050801561049257506040513d601f19601f8201168201806040525081019061048f9190610a47565b60015b1561049c57809150505b80826040019060ff16908160ff16815250507fffffffffffffffffffffffffffffffffffffffffffffffffffffffffffffffff8260600181815250505f826080019073ffffffffffffffffffffffffffffffffffffffff16908173ffffffffffffffffffffffffffffffffffffffff16815250508160045f60e05173ffffffffffffffffffffffffffffffffffffffff1673ffffffffffffffffffffffffffffffffffffffff1681526020019081526020015f205f820151815f015f6101000a81548160ff0219169083151502179055506020820151815f0160016101000a81548160ff0219169083151502179055506040820151815f0160026101000a81548160ff021916908360ff160217905550606082015181600101556080820151816002015f6101000a81548173ffffffffffffffffffffffffffffffffffffffff021916908373ffffffffffffffffffffffffffffffffffffffff16021790555090505060e05173ffffffffffffffffffffffffffffffffffffffff167fceec6d18b470b58eabbfc22b7d771c54609acb2bbe777747424f6e9a5a9d5a2560015f8486606001518760800151604051610658959493929190610a81565b60405180910390a25050505050505050610ad2565b5f61067e838361076260201b60201c565b6107585760015f808581526020019081526020015f205f015f8473ffffffffffffffffffffffffffffffffffffffff1673ffffffffffffffffffffffffffffffffffffffff1681526020019081526020015f205f6101000a81548160ff0219169083151502179055506106f56107c560201b60201c565b73ffffffffffffffffffffffffffffffffffffffff168273ffffffffffffffffffffffffffffffffffffffff16847f2f8788117e7eff1d82e926ec794901d17c78024a50270940304540a733656f0d60405160405180910390a46001905061075c565b5f90505b92915050565b5f805f8481526020019081526020015f205f015f8373ffffffffffffffffffffffffffffffffffffffff1673ffffffffffffffffffffffffffffffffffffffff1681526020019081526020015f205f9054906101000a900460ff16905092915050565b5f33905090565b6040518060a001604052805f151581526020015f151581526020015f60ff1681526020015f81526020015f73ffffffffffffffffffffffffffffffffffffffff1681525090565b5f80fd5b5f819050919050565b61082981610817565b8114610833575f80fd5b50565b5f8151905061084481610820565b92915050565b5f73ffffffffffffffffffffffffffffffffffffffff82169050919050565b5f6108738261084a565b9050919050565b61088381610869565b811461088d575f80fd5b50565b5f8151905061089e8161087a565b92915050565b5f805f805f8060c087890312156108be576108bd610813565b5b5f6108cb89828a01610836565b96505060206108dc89828a01610890565b95505060406108ed89828a01610890565b94505060606108fe89828a01610890565b935050608061090f89828a01610890565b92505060a061092089828a01610836565b9150509295509295509295565b61093681610869565b82525050565b5f60208201905061094f5f83018461092d565b92915050565b5f8115159050919050565b61096981610955565b82525050565b5f819050919050565b5f60ff82169050919050565b5f819050919050565b5f6109a76109a261099d8461096f565b610984565b610978565b9050919050565b6109b78161098d565b82525050565b6109c681610817565b82525050565b5f60a0820190506109df5f830188610960565b6109ec6020830187610960565b6109f960408301866109ae565b610a0660608301856109bd565b610a13608083018461092d565b9695505050505050565b610a2681610978565b8114610a30575f80fd5b50565b5f81519050610a4181610a1d565b92915050565b5f60208284031215610a5c57610a5b610813565b5b5f610a6984828501610a33565b91505092915050565b610a7b81610978565b82525050565b5f60a082019050610a945f830188610960565b610aa16020830187610960565b610aae6040830186610a72565b610abb60608301856109bd565b610ac8608083018461092d565b9695505050505050565b60805160a05160c05160e051613acb610c015f395f818161088e015281816108fe01528181610a3e01528181610b8301528181610c5c01528181610cb801528181610e2801528181610ef601528181610fa90152818161111a0152818161118a015281816112ca0152818161140f015281816114e8015281816115440152818161160601528181611a6601528181611b5401528181611c2801528181611c8501528181611ce101528181611e1701528181611f650152818161202d0152818161208b01526120e701525f8181610eb9015261193401525f81816107b401528181610998015281816110370152818161122401526121a201525f8181610af801528181610b2101528181611384015281816113ad01528181611eda01528181611f0301526121c60152613acb5ff3fe608060405260043610610165575f3560e01c806391d14854116100d0578063d547741f11610089578063f688bcfb11610063578063f688bcfb1461051b578063f887ea4014610543578063f9bda21f1461056d578063fe136c4e1461059757610165565b8063d547741f1461048f578063db81f99b146104b7578063dcb6e250146104df57610165565b806391d14854146103715780639c50adee146103ad578063a217fddf146103d5578063c45a0155146103ff578063d391014b14610429578063d4fac45d1461045357610165565b806331f7d9641161012257806331f7d9641461028757806336568abe146102b15780634cc05a71146102d95780635358fbda1461030357806372806f701461031f57806389a302711461034757610165565b806301ffc9a714610169578063248a9ca3146101a557806329608ba6146101e15780632dfdf0b51461020b5780632f2ff15d146102355780632f6ee6951461025d575b5f80fd5b348015610174575f80fd5b5061018f600480360381019061018a9190612cae565b6105d7565b60405161019c9190612cf3565b60405180910390f35b3480156101b0575f80fd5b506101cb60048036038101906101c69190612d3f565b610650565b6040516101d89190612d79565b60405180910390f35b3480156101ec575f80fd5b506101f561066c565b6040516102029190612daa565b60405180910390f35b348015610216575f80fd5b5061021f610672565b60405161022c9190612daa565b60405180910390f35b348015610240575f80fd5b5061025b60048036038101906102569190612e1d565b610678565b005b348015610268575f80fd5b5061027161069a565b60405161027e9190612e76565b60405180910390f35b348015610292575f80fd5b5061029b61069f565b6040516102a89190612e9e565b60405180910390f35b3480156102bc575f80fd5b506102d760048036038101906102d29190612e1d565b6106a3565b005b3480156102e4575f80fd5b506102ed61071e565b6040516102fa9190612daa565b60405180910390f35b61031d60048036038101906103189190612ee1565b610724565b005b34801561032a575f80fd5b5061034560048036038101906103409190612f0c565b610d74565b005b348015610352575f80fd5b5061035b611604565b6040516103689190612e9e565b60405180910390f35b34801561037c575f80fd5b5061039760048036038101906103929190612e1d565b611628565b6040516103a49190612cf3565b60405180910390f35b3480156103b8575f80fd5b506103d360048036038101906103ce9190612fb0565b61168b565b005b3480156103e0575f80fd5b506103e961192c565b6040516103f69190612d79565b60405180910390f35b34801561040a575f80fd5b50610413611932565b6040516104209190613082565b60405180910390f35b348015610434575f80fd5b5061043d611956565b60405161044a9190612d79565b60405180910390f35b34801561045e575f80fd5b506104796004803603810190610474919061309b565b61197a565b6040516104869190612daa565b60405180910390f35b34801561049a575f80fd5b506104b560048036038101906104b09190612e1d565b6119fc565b005b3480156104c2575f80fd5b506104dd60048036038101906104d89190612ee1565b611a1e565b005b3480156104ea575f80fd5b506105056004803603810190610500919061309b565b611d98565b6040516105129190612daa565b60405180910390f35b348015610526575f80fd5b50610541600480360381019061053c9190612ee1565b611e85565b005b34801561054e575f80fd5b506105576121a0565b60405161056491906130f9565b60405180910390f35b348015610578575f80fd5b506105816121c4565b60405161058e9190612daa565b60405180910390f35b3480156105a2575f80fd5b506105bd60048036038101906105b89190613112565b6121e8565b6040516105ce95949392919061313d565b60405180910390f35b5f7f7965db0b000000000000000000000000000000000000000000000000000000007bffffffffffffffffffffffffffffffffffffffffffffffffffffffff1916827bffffffffffffffffffffffffffffffffffffffffffffffffffffffff1916148061064957506106488261225d565b5b9050919050565b5f805f8381526020019081526020015f20600101549050919050565b60025481565b60055481565b61068182610650565b61068a816122c6565b61069483836122da565b50505050565b600681565b5f81565b6106ab6123c3565b73ffffffffffffffffffffffffffffffffffffffff168173ffffffffffffffffffffffffffffffffffffffff161461070f576040517f6697b23200000000000000000000000000000000000000000000000000000000815260040160405180910390fd5b61071982826123ca565b505050565b60065481565b61072c6124b3565b5f3403610765576040517f1f2a200500000000000000000000000000000000000000000000000000000000815260040160405180910390fd5b5f600267ffffffffffffffff8111156107815761078061318e565b5b6040519080825280602002602001820160405280156107af5781602001602082028036833780820191505090505b5090507f000000000000000000000000000000000000000000000000000000000000000073ffffffffffffffffffffffffffffffffffffffff1663ad5c46486040518163ffffffff1660e01b8152600401602060405180830381865afa15801561081b573d5f803e3d5ffd5b505050506040513d601f19601f8201168201806040525081019061083f91906131cf565b815f81518110610852576108516131fa565b5b602002602001019073ffffffffffffffffffffffffffffffffffffffff16908173ffffffffffffffffffffffffffffffffffffffff16815250507f0000000000000000000000000000000000000000000000000000000000000000816001815181106108c1576108c06131fa565b5b602002602001019073ffffffffffffffffffffffffffffffffffffffff16908173ffffffffffffffffffffffffffffffffffffffff16815250505f7f000000000000000000000000000000000000000000000000000000000000000073ffffffffffffffffffffffffffffffffffffffff166370a08231306040518263ffffffff1660e01b81526004016109559190612e9e565b602060405180830381865afa158015610970573d5f803e3d5ffd5b505050506040513d601f19601f82011682018060405250810190610994919061323b565b90507f000000000000000000000000000000000000000000000000000000000000000073ffffffffffffffffffffffffffffffffffffffff16637ff36ab534858530426040518663ffffffff1660e01b81526004016109f6949392919061331d565b5f6040518083038185885af1158015610a11573d5f803e3d5ffd5b50505050506040513d5f823e3d601f19601f82011682018060405250810190610a3a919061348a565b505f7f000000000000000000000000000000000000000000000000000000000000000073ffffffffffffffffffffffffffffffffffffffff166370a08231306040518263ffffffff1660e01b8152600401610a959190612e9e565b602060405180830381865afa158015610ab0573d5f803e3d5ffd5b505050506040513d601f19601f82011682018060405250810190610ad4919061323b565b90505f8282610ae391906134fe565b90505f81600254610af49190613531565b90507f0000000000000000000000000000000000000000000000000000000000000000811115610b7d57807f00000000000000000000000000000000000000000000000000000000000000006040517ff480e285000000000000000000000000000000000000000000000000000000008152600401610b74929190613564565b60405180910390fd5b8160035f7f000000000000000000000000000000000000000000000000000000000000000073ffffffffffffffffffffffffffffffffffffffff1673ffffffffffffffffffffffffffffffffffffffff1681526020019081526020015f205f3373ffffffffffffffffffffffffffffffffffffffff1673ffffffffffffffffffffffffffffffffffffffff1681526020019081526020015f205f828254610c249190613531565b925050819055508060028190555060055f81548092919060010191905055503373ffffffffffffffffffffffffffffffffffffffff167f000000000000000000000000000000000000000000000000000000000000000073ffffffffffffffffffffffffffffffffffffffff167f4e2ca0515ed1aef1395f66b5303bb5d6f1bf9d61a353fa53f73f8ac9973fa9f63460035f7f000000000000000000000000000000000000000000000000000000000000000073ffffffffffffffffffffffffffffffffffffffff1673ffffffffffffffffffffffffffffffffffffffff1681526020019081526020015f205f3373ffffffffffffffffffffffffffffffffffffffff1673ffffffffffffffffffffffffffffffffffffffff1681526020019081526020015f205486604051610d5c9392919061358b565b60405180910390a35050505050610d716124f9565b50565b610d7c6124b3565b815f8103610db6576040517f1f2a200500000000000000000000000000000000000000000000000000000000815260040160405180910390fd5b5f73ffffffffffffffffffffffffffffffffffffffff168473ffffffffffffffffffffffffffffffffffffffff1603610e2657836040517fbf16aab6000000000000000000000000000000000000000000000000000000008152600401610e1d9190612e9e565b60405180910390fd5b7f000000000000000000000000000000000000000000000000000000000000000073ffffffffffffffffffffffffffffffffffffffff168473ffffffffffffffffffffffffffffffffffffffff1603610eb657836040517fbf16aab6000000000000000000000000000000000000000000000000000000008152600401610ead9190612e9e565b60405180910390fd5b5f7f000000000000000000000000000000000000000000000000000000000000000073ffffffffffffffffffffffffffffffffffffffff1663e6a43905867f00000000000000000000000000000000000000000000000000000000000000006040518363ffffffff1660e01b8152600401610f329291906135c0565b602060405180830381865afa158015610f4d573d5f803e3d5ffd5b505050506040513d601f19601f82011682018060405250810190610f7191906131cf565b90505f73ffffffffffffffffffffffffffffffffffffffff168173ffffffffffffffffffffffffffffffffffffffff160361100557847f00000000000000000000000000000000000000000000000000000000000000006040517f6de2b625000000000000000000000000000000000000000000000000000000008152600401610ffc9291906135c0565b60405180910390fd5b6110323330868873ffffffffffffffffffffffffffffffffffffffff16612502909392919063ffffffff16565b61107d7f0000000000000000000000000000000000000000000000000000000000000000858773ffffffffffffffffffffffffffffffffffffffff166125849092919063ffffffff16565b5f600267ffffffffffffffff8111156110995761109861318e565b5b6040519080825280602002602001820160405280156110c75781602001602082028036833780820191505090505b50905085815f815181106110de576110dd6131fa565b5b602002602001019073ffffffffffffffffffffffffffffffffffffffff16908173ffffffffffffffffffffffffffffffffffffffff16815250507f00000000000000000000000000000000000000000000000000000000000000008160018151811061114d5761114c6131fa565b5b602002602001019073ffffffffffffffffffffffffffffffffffffffff16908173ffffffffffffffffffffffffffffffffffffffff16815250505f7f000000000000000000000000000000000000000000000000000000000000000073ffffffffffffffffffffffffffffffffffffffff166370a08231306040518263ffffffff1660e01b81526004016111e19190612e9e565b602060405180830381865afa1580156111fc573d5f803e3d5ffd5b505050506040513d601f19601f82011682018060405250810190611220919061323b565b90507f000000000000000000000000000000000000000000000000000000000000000073ffffffffffffffffffffffffffffffffffffffff166338ed173987878530426040518663ffffffff1660e01b81526004016112839594939291906135e7565b5f604051808303815f875af115801561129e573d5f803e3d5ffd5b505050506040513d5f823e3d601f19601f820116820180604052508101906112c6919061348a565b505f7f000000000000000000000000000000000000000000000000000000000000000073ffffffffffffffffffffffffffffffffffffffff166370a08231306040518263ffffffff1660e01b81526004016113219190612e9e565b602060405180830381865afa15801561133c573d5f803e3d5ffd5b505050506040513d601f19601f82011682018060405250810190611360919061323b565b90505f828261136f91906134fe565b90505f816002546113809190613531565b90507f000000000000000000000000000000000000000000000000000000000000000081111561140957807f00000000000000000000000000000000000000000000000000000000000000006040517ff480e285000000000000000000000000000000000000000000000000000000008152600401611400929190613564565b60405180910390fd5b8160035f7f000000000000000000000000000000000000000000000000000000000000000073ffffffffffffffffffffffffffffffffffffffff1673ffffffffffffffffffffffffffffffffffffffff1681526020019081526020015f205f3373ffffffffffffffffffffffffffffffffffffffff1673ffffffffffffffffffffffffffffffffffffffff1681526020019081526020015f205f8282546114b09190613531565b925050819055508060028190555060055f81548092919060010191905055503373ffffffffffffffffffffffffffffffffffffffff167f000000000000000000000000000000000000000000000000000000000000000073ffffffffffffffffffffffffffffffffffffffff167f4e2ca0515ed1aef1395f66b5303bb5d6f1bf9d61a353fa53f73f8ac9973fa9f68b60035f7f000000000000000000000000000000000000000000000000000000000000000073ffffffffffffffffffffffffffffffffffffffff1673ffffffffffffffffffffffffffffffffffffffff1681526020019081526020015f205f3373ffffffffffffffffffffffffffffffffffffffff1673ffffffffffffffffffffffffffffffffffffffff1681526020019081526020015f2054866040516115e89392919061358b565b60405180910390a3505050505050506115ff6124f9565b505050565b7f000000000000000000000000000000000000000000000000000000000000000081565b5f805f8481526020019081526020015f205f015f8373ffffffffffffffffffffffffffffffffffffffff1673ffffffffffffffffffffffffffffffffffffffff1681526020019081526020015f205f9054906101000a900460ff16905092915050565b7f2172861495e7b85edac73e3cd5fbb42dd675baadf627720e687bcfdaca0250966116b5816122c6565b5f73ffffffffffffffffffffffffffffffffffffffff168673ffffffffffffffffffffffffffffffffffffffff160361172557856040517fbf16aab600000000000000000000000000000000000000000000000000000000815260040161171c9190612e9e565b60405180910390fd5b5f60045f8873ffffffffffffffffffffffffffffffffffffffff1673ffffffffffffffffffffffffffffffffffffffff1681526020019081526020015f20905085815f015f6101000a81548160ff0219169083151502179055505f815f0160016101000a81548160ff0219169083151502179055505f8560ff1603611855578673ffffffffffffffffffffffffffffffffffffffff1663313ce5676040518163ffffffff1660e01b8152600401602060405180830381865afa92505050801561180c57506040513d601f19601f820116820180604052508101906118099190613653565b60015b611832576012815f0160026101000a81548160ff021916908360ff160217905550611850565b80825f0160026101000a81548160ff021916908360ff160217905550505b611872565b84815f0160026101000a81548160ff021916908360ff1602179055505b83816001018190555082816002015f6101000a81548173ffffffffffffffffffffffffffffffffffffffff021916908373ffffffffffffffffffffffffffffffffffffffff1602179055508673ffffffffffffffffffffffffffffffffffffffff167fceec6d18b470b58eabbfc22b7d771c54609acb2bbe777747424f6e9a5a9d5a25875f845f0160029054906101000a900460ff16888860405161191b95949392919061313d565b60405180910390a250505050505050565b5f801b81565b7f000000000000000000000000000000000000000000000000000000000000000081565b7f2172861495e7b85edac73e3cd5fbb42dd675baadf627720e687bcfdaca02509681565b5f60035f8473ffffffffffffffffffffffffffffffffffffffff1673ffffffffffffffffffffffffffffffffffffffff1681526020019081526020015f205f8373ffffffffffffffffffffffffffffffffffffffff1673ffffffffffffffffffffffffffffffffffffffff1681526020019081526020015f2054905092915050565b611a0582610650565b611a0e816122c6565b611a1883836123ca565b50505050565b611a266124b3565b805f8103611a60576040517f1f2a200500000000000000000000000000000000000000000000000000000000815260040160405180910390fd5b5f60035f7f000000000000000000000000000000000000000000000000000000000000000073ffffffffffffffffffffffffffffffffffffffff1673ffffffffffffffffffffffffffffffffffffffff1681526020019081526020015f205f3373ffffffffffffffffffffffffffffffffffffffff1673ffffffffffffffffffffffffffffffffffffffff1681526020019081526020015f2054905082811015611b435780836040517fcf479181000000000000000000000000000000000000000000000000000000008152600401611b3a929190613564565b60405180910390fd5b8281611b4f91906134fe565b60035f7f000000000000000000000000000000000000000000000000000000000000000073ffffffffffffffffffffffffffffffffffffffff1673ffffffffffffffffffffffffffffffffffffffff1681526020019081526020015f205f3373ffffffffffffffffffffffffffffffffffffffff1673ffffffffffffffffffffffffffffffffffffffff1681526020019081526020015f20819055508260025410611c08578260025f8282540392505081905550611c10565b5f6002819055505b60065f8154809291906001019190505550611c6c33847f000000000000000000000000000000000000000000000000000000000000000073ffffffffffffffffffffffffffffffffffffffff1661261d9092919063ffffffff16565b3373ffffffffffffffffffffffffffffffffffffffff167f000000000000000000000000000000000000000000000000000000000000000073ffffffffffffffffffffffffffffffffffffffff167ff341246adaac6f497bc2a656f546ab9e182111d630394f0c57c710a59a2cb5678560035f7f000000000000000000000000000000000000000000000000000000000000000073ffffffffffffffffffffffffffffffffffffffff1673ffffffffffffffffffffffffffffffffffffffff1681526020019081526020015f205f3373ffffffffffffffffffffffffffffffffffffffff1673ffffffffffffffffffffffffffffffffffffffff1681526020019081526020015f2054604051611d83929190613564565b60405180910390a35050611d956124f9565b50565b5f8060035f8573ffffffffffffffffffffffffffffffffffffffff1673ffffffffffffffffffffffffffffffffffffffff1681526020019081526020015f205f8473ffffffffffffffffffffffffffffffffffffffff1673ffffffffffffffffffffffffffffffffffffffff1681526020019081526020015f205490507f000000000000000000000000000000000000000000000000000000000000000073ffffffffffffffffffffffffffffffffffffffff168473ffffffffffffffffffffffffffffffffffffffff1603611e715780915050611e7f565b611e7b848261269c565b9150505b92915050565b611e8d6124b3565b805f8103611ec7576040517f1f2a200500000000000000000000000000000000000000000000000000000000815260040160405180910390fd5b5f82600254611ed69190613531565b90507f0000000000000000000000000000000000000000000000000000000000000000811115611f5f57807f00000000000000000000000000000000000000000000000000000000000000006040517ff480e285000000000000000000000000000000000000000000000000000000008152600401611f56929190613564565b60405180910390fd5b8260035f7f000000000000000000000000000000000000000000000000000000000000000073ffffffffffffffffffffffffffffffffffffffff1673ffffffffffffffffffffffffffffffffffffffff1681526020019081526020015f205f3373ffffffffffffffffffffffffffffffffffffffff1673ffffffffffffffffffffffffffffffffffffffff1681526020019081526020015f205f8282546120069190613531565b925050819055508060028190555060055f81548092919060010191905055506120723330857f000000000000000000000000000000000000000000000000000000000000000073ffffffffffffffffffffffffffffffffffffffff16612502909392919063ffffffff16565b3373ffffffffffffffffffffffffffffffffffffffff167f000000000000000000000000000000000000000000000000000000000000000073ffffffffffffffffffffffffffffffffffffffff167f4e2ca0515ed1aef1395f66b5303bb5d6f1bf9d61a353fa53f73f8ac9973fa9f68560035f7f000000000000000000000000000000000000000000000000000000000000000073ffffffffffffffffffffffffffffffffffffffff1673ffffffffffffffffffffffffffffffffffffffff1681526020019081526020015f205f3373ffffffffffffffffffffffffffffffffffffffff1673ffffffffffffffffffffffffffffffffffffffff1681526020019081526020015f20548760405161218b9392919061358b565b60405180910390a3505061219d6124f9565b50565b7f000000000000000000000000000000000000000000000000000000000000000081565b7f000000000000000000000000000000000000000000000000000000000000000081565b6004602052805f5260405f205f91509050805f015f9054906101000a900460ff1690805f0160019054906101000a900460ff1690805f0160029054906101000a900460ff1690806001015490806002015f9054906101000a900473ffffffffffffffffffffffffffffffffffffffff16905085565b5f7f01ffc9a7000000000000000000000000000000000000000000000000000000007bffffffffffffffffffffffffffffffffffffffffffffffffffffffff1916827bffffffffffffffffffffffffffffffffffffffffffffffffffffffff1916149050919050565b6122d7816122d26123c3565b6129f6565b50565b5f6122e58383611628565b6123b95760015f808581526020019081526020015f205f015f8473ffffffffffffffffffffffffffffffffffffffff1673ffffffffffffffffffffffffffffffffffffffff1681526020019081526020015f205f6101000a81548160ff0219169083151502179055506123566123c3565b73ffffffffffffffffffffffffffffffffffffffff168273ffffffffffffffffffffffffffffffffffffffff16847f2f8788117e7eff1d82e926ec794901d17c78024a50270940304540a733656f0d60405160405180910390a4600190506123bd565b5f90505b92915050565b5f33905090565b5f6123d58383611628565b156124a9575f805f8581526020019081526020015f205f015f8473ffffffffffffffffffffffffffffffffffffffff1673ffffffffffffffffffffffffffffffffffffffff1681526020019081526020015f205f6101000a81548160ff0219169083151502179055506124466123c3565b73ffffffffffffffffffffffffffffffffffffffff168273ffffffffffffffffffffffffffffffffffffffff16847ff6391f5c32d9c69d2a47ea670b442974b53935d1edc7fd64eb21e047a839171b60405160405180910390a4600190506124ad565b5f90505b92915050565b6002600154036124ef576040517f3ee5aeb500000000000000000000000000000000000000000000000000000000815260040160405180910390fd5b6002600181905550565b60018081905550565b61257e848573ffffffffffffffffffffffffffffffffffffffff166323b872dd8686866040516024016125379392919061367e565b604051602081830303815290604052915060e01b6020820180517bffffffffffffffffffffffffffffffffffffffffffffffffffffffff8381831617835250505050612a47565b50505050565b5f8373ffffffffffffffffffffffffffffffffffffffff1663dd62ed3e30856040518363ffffffff1660e01b81526004016125c09291906135c0565b602060405180830381865afa1580156125db573d5f803e3d5ffd5b505050506040513d601f19601f820116820180604052508101906125ff919061323b565b9050612617848484846126129190613531565b612ae2565b50505050565b612697838473ffffffffffffffffffffffffffffffffffffffff1663a9059cbb85856040516024016126509291906136b3565b604051602081830303815290604052915060e01b6020820180517bffffffffffffffffffffffffffffffffffffffffffffffffffffffff8381831617835250505050612a47565b505050565b5f8082036126ac575f90506129f0565b5f60045f8573ffffffffffffffffffffffffffffffffffffffff1673ffffffffffffffffffffffffffffffffffffffff1681526020019081526020015f206040518060a00160405290815f82015f9054906101000a900460ff161515151581526020015f820160019054906101000a900460ff161515151581526020015f820160029054906101000a900460ff1660ff1660ff16815260200160018201548152602001600282015f9054906101000a900473ffffffffffffffffffffffffffffffffffffffff1673ffffffffffffffffffffffffffffffffffffffff1673ffffffffffffffffffffffffffffffffffffffff168152505090505f816080015190505f73ffffffffffffffffffffffffffffffffffffffff168173ffffffffffffffffffffffffffffffffffffffff160361281d57846040517f8a7a791d0000000000000000000000000000000000000000000000000000000081526004016128149190612e9e565b60405180910390fd5b5f8173ffffffffffffffffffffffffffffffffffffffff1663feaf968c6040518163ffffffff1660e01b815260040160a060405180830381865afa158015612867573d5f803e3d5ffd5b505050506040513d601f19601f8201168201806040525081019061288b919061374c565b5050509150505f81136128ca576040517f4fd58d4b00000000000000000000000000000000000000000000000000000000815260040160405180910390fd5b5f8190505f8373ffffffffffffffffffffffffffffffffffffffff1663313ce5676040518163ffffffff1660e01b8152600401602060405180830381865afa158015612918573d5f803e3d5ffd5b505050506040513d601f19601f8201168201806040525081019061293c9190613653565b90505f828861294b91906137c3565b90505f8260ff1611156129735781600a6129659190613933565b8161297091906139aa565b90505b600660ff16866040015160ff16106129b9575f6006876040015161299791906139da565b600a6129a39190613933565b905080826129b191906139aa565b9750506129e9565b5f866040015160066129cb91906139da565b600a6129d79190613933565b905080826129e591906137c3565b9750505b5050505050505b92915050565b612a008282611628565b612a435780826040517fe2517d3f000000000000000000000000000000000000000000000000000000008152600401612a3a929190613a0e565b60405180910390fd5b5050565b5f8060205f8451602086015f885af180612a66576040513d5f823e3d81fd5b3d92505f519150505f8214612a7f576001811415612a9a565b5f8473ffffffffffffffffffffffffffffffffffffffff163b145b15612adc57836040517f5274afe7000000000000000000000000000000000000000000000000000000008152600401612ad39190612e9e565b60405180910390fd5b50505050565b5f8373ffffffffffffffffffffffffffffffffffffffff1663095ea7b38484604051602401612b129291906136b3565b604051602081830303815290604052915060e01b6020820180517bffffffffffffffffffffffffffffffffffffffffffffffffffffffff83818316178352505050509050612b608482612bef565b612be957612bde848573ffffffffffffffffffffffffffffffffffffffff1663095ea7b3865f604051602401612b97929190613a6e565b604051602081830303815290604052915060e01b6020820180517bffffffffffffffffffffffffffffffffffffffffffffffffffffffff8381831617835250505050612a47565b612be88482612a47565b5b50505050565b5f805f8060205f8651602088015f8a5af192503d91505f519050828015612c3d57505f8214612c215760018114612c3c565b5f8673ffffffffffffffffffffffffffffffffffffffff163b115b5b935050505092915050565b5f604051905090565b5f80fd5b5f80fd5b5f7fffffffff0000000000000000000000000000000000000000000000000000000082169050919050565b612c8d81612c59565b8114612c97575f80fd5b50565b5f81359050612ca881612c84565b92915050565b5f60208284031215612cc357612cc2612c51565b5b5f612cd084828501612c9a565b91505092915050565b5f8115159050919050565b612ced81612cd9565b82525050565b5f602082019050612d065f830184612ce4565b92915050565b5f819050919050565b612d1e81612d0c565b8114612d28575f80fd5b50565b5f81359050612d3981612d15565b92915050565b5f60208284031215612d5457612d53612c51565b5b5f612d6184828501612d2b565b91505092915050565b612d7381612d0c565b82525050565b5f602082019050612d8c5f830184612d6a565b92915050565b5f819050919050565b612da481612d92565b82525050565b5f602082019050612dbd5f830184612d9b565b92915050565b5f73ffffffffffffffffffffffffffffffffffffffff82169050919050565b5f612dec82612dc3565b9050919050565b612dfc81612de2565b8114612e06575f80fd5b50565b5f81359050612e1781612df3565b92915050565b5f8060408385031215612e3357612e32612c51565b5b5f612e4085828601612d2b565b9250506020612e5185828601612e09565b9150509250929050565b5f60ff82169050919050565b612e7081612e5b565b82525050565b5f602082019050612e895f830184612e67565b92915050565b612e9881612de2565b82525050565b5f602082019050612eb15f830184612e8f565b92915050565b612ec081612d92565b8114612eca575f80fd5b50565b5f81359050612edb81612eb7565b92915050565b5f60208284031215612ef657612ef5612c51565b5b5f612f0384828501612ecd565b91505092915050565b5f805f60608486031215612f2357612f22612c51565b5b5f612f3086828701612e09565b9350506020612f4186828701612ecd565b9250506040612f5286828701612ecd565b9150509250925092565b612f6581612cd9565b8114612f6f575f80fd5b50565b5f81359050612f8081612f5c565b92915050565b612f8f81612e5b565b8114612f99575f80fd5b50565b5f81359050612faa81612f86565b92915050565b5f805f805f60a08688031215612fc957612fc8612c51565b5b5f612fd688828901612e09565b9550506020612fe788828901612f72565b9450506040612ff888828901612f9c565b935050606061300988828901612ecd565b925050608061301a88828901612e09565b9150509295509295909350565b5f819050919050565b5f61304a61304561304084612dc3565b613027565b612dc3565b9050919050565b5f61305b82613030565b9050919050565b5f61306c82613051565b9050919050565b61307c81613062565b82525050565b5f6020820190506130955f830184613073565b92915050565b5f80604083850312156130b1576130b0612c51565b5b5f6130be85828601612e09565b92505060206130cf85828601612e09565b9150509250929050565b5f6130e382613051565b9050919050565b6130f3816130d9565b82525050565b5f60208201905061310c5f8301846130ea565b92915050565b5f6020828403121561312757613126612c51565b5b5f61313484828501612e09565b91505092915050565b5f60a0820190506131505f830188612ce4565b61315d6020830187612ce4565b61316a6040830186612e67565b6131776060830185612d9b565b6131846080830184612e8f565b9695505050505050565b7f4e487b71000000000000000000000000000000000000000000000000000000005f52604160045260245ffd5b5f815190506131c981612df3565b92915050565b5f602082840312156131e4576131e3612c51565b5b5f6131f1848285016131bb565b91505092915050565b7f4e487b71000000000000000000000000000000000000000000000000000000005f52603260045260245ffd5b5f8151905061323581612eb7565b92915050565b5f602082840312156132505761324f612c51565b5b5f61325d84828501613227565b91505092915050565b5f81519050919050565b5f82825260208201905092915050565b5f819050602082019050919050565b61329881612de2565b82525050565b5f6132a9838361328f565b60208301905092915050565b5f602082019050919050565b5f6132cb82613266565b6132d58185613270565b93506132e083613280565b805f5b838110156133105781516132f7888261329e565b9750613302836132b5565b9250506001810190506132e3565b5085935050505092915050565b5f6080820190506133305f830187612d9b565b818103602083015261334281866132c1565b90506133516040830185612e8f565b61335e6060830184612d9b565b95945050505050565b5f80fd5b5f601f19601f8301169050919050565b6133848261336b565b810181811067ffffffffffffffff821117156133a3576133a261318e565b5b80604052505050565b5f6133b5612c48565b90506133c1828261337b565b919050565b5f67ffffffffffffffff8211156133e0576133df61318e565b5b602082029050602081019050919050565b5f80fd5b5f613407613402846133c6565b6133ac565b9050808382526020820190506020840283018581111561342a576134296133f1565b5b835b81811015613453578061343f8882613227565b84526020840193505060208101905061342c565b5050509392505050565b5f82601f83011261347157613470613367565b5b81516134818482602086016133f5565b91505092915050565b5f6020828403121561349f5761349e612c51565b5b5f82015167ffffffffffffffff8111156134bc576134bb612c55565b5b6134c88482850161345d565b91505092915050565b7f4e487b71000000000000000000000000000000000000000000000000000000005f52601160045260245ffd5b5f61350882612d92565b915061351383612d92565b925082820390508181111561352b5761352a6134d1565b5b92915050565b5f61353b82612d92565b915061354683612d92565b925082820190508082111561355e5761355d6134d1565b5b92915050565b5f6040820190506135775f830185612d9b565b6135846020830184612d9b565b9392505050565b5f60608201905061359e5f830186612d9b565b6135ab6020830185612d9b565b6135b86040830184612d9b565b949350505050565b5f6040820190506135d35f830185612e8f565b6135e06020830184612e8f565b9392505050565b5f60a0820190506135fa5f830188612d9b565b6136076020830187612d9b565b818103604083015261361981866132c1565b90506136286060830185612e8f565b6136356080830184612d9b565b9695505050505050565b5f8151905061364d81612f86565b92915050565b5f6020828403121561366857613667612c51565b5b5f6136758482850161363f565b91505092915050565b5f6060820190506136915f830186612e8f565b61369e6020830185612e8f565b6136ab6040830184612d9b565b949350505050565b5f6040820190506136c65f830185612e8f565b6136d36020830184612d9b565b9392505050565b5f69ffffffffffffffffffff82169050919050565b6136f8816136da565b8114613702575f80fd5b50565b5f81519050613713816136ef565b92915050565b5f819050919050565b61372b81613719565b8114613735575f80fd5b50565b5f8151905061374681613722565b92915050565b5f805f805f60a0868803121561376557613764612c51565b5b5f61377288828901613705565b955050602061378388828901613738565b945050604061379488828901613227565b93505060606137a588828901613227565b92505060806137b688828901613705565b9150509295509295909350565b5f6137cd82612d92565b91506137d883612d92565b92508282026137e681612d92565b915082820484148315176137fd576137fc6134d1565b5b5092915050565b5f8160011c9050919050565b5f808291508390505b600185111561385957808604811115613835576138346134d1565b5b60018516156138445780820291505b808102905061385285613804565b9450613819565b94509492505050565b5f82613871576001905061392c565b8161387e575f905061392c565b8160018114613894576002811461389e576138cd565b600191505061392c565b60ff8411156138b0576138af6134d1565b5b8360020a9150848211156138c7576138c66134d1565b5b5061392c565b5060208310610133831016604e8410600b84101617156139025782820a9050838111156138fd576138fc6134d1565b5b61392c565b61390f8484846001613810565b92509050818404811115613926576139256134d1565b5b81810290505b9392505050565b5f61393d82612d92565b915061394883612e5b565b92506139757fffffffffffffffffffffffffffffffffffffffffffffffffffffffffffffffff8484613862565b905092915050565b7f4e487b71000000000000000000000000000000000000000000000000000000005f52601260045260245ffd5b5f6139b482612d92565b91506139bf83612d92565b9250826139cf576139ce61397d565b5b828204905092915050565b5f6139e482612e5b565b91506139ef83612e5b565b9250828203905060ff811115613a0857613a076134d1565b5b92915050565b5f604082019050613a215f830185612e8f565b613a2e6020830184612d6a565b9392505050565b5f819050919050565b5f613a58613a53613a4e84613a35565b613027565b612d92565b9050919050565b613a6881613a3e565b82525050565b5f604082019050613a815f830185612e8f565b613a8e6020830184613a5f565b939250505056fea26469706673582212209785165f90a8a5446f4da5a26a86887018276690a6ad4e146e200831f70da6fb64736f6c634300081a0033",
					"opcodes": "PUSH2 0x100 PUSH1 0x40 MSTORE CALLVALUE DUP1 ISZERO PUSH2 0x10 JUMPI PUSH0 DUP1 REVERT JUMPDEST POP PUSH1 0x40 MLOAD PUSH2 0x46CC CODESIZE SUB DUP1 PUSH2 0x46CC DUP4 CODECOPY DUP2 DUP2 ADD PUSH1 0x40 MSTORE DUP2 ADD SWAP1 PUSH2 0x32 SWAP2 SWAP1 PUSH2 0x8A4 JUMP JUMPDEST PUSH1 0x1 DUP1 DUP2 SWAP1 SSTORE POP PUSH0 DUP7 SUB PUSH2 0x72 JUMPI PUSH1 0x40 MLOAD PUSH32 0x1F2A200500000000000000000000000000000000000000000000000000000000 DUP2 MSTORE PUSH1 0x4 ADD PUSH1 0x40 MLOAD DUP1 SWAP2 SUB SWAP1 REVERT JUMPDEST PUSH0 PUSH20 0xFFFFFFFFFFFFFFFFFFFFFFFFFFFFFFFFFFFFFFFF AND DUP5 PUSH20 0xFFFFFFFFFFFFFFFFFFFFFFFFFFFFFFFFFFFFFFFF AND EQ DUP1 PUSH2 0xD7 JUMPI POP PUSH0 PUSH20 0xFFFFFFFFFFFFFFFFFFFFFFFFFFFFFFFFFFFFFFFF AND DUP4 PUSH20 0xFFFFFFFFFFFFFFFFFFFFFFFFFFFFFFFFFFFFFFFF AND EQ JUMPDEST DUP1 PUSH2 0x10D JUMPI POP PUSH0 PUSH20 0xFFFFFFFFFFFFFFFFFFFFFFFFFFFFFFFFFFFFFFFF AND DUP3 PUSH20 0xFFFFFFFFFFFFFFFFFFFFFFFFFFFFFFFFFFFFFFFF AND EQ JUMPDEST ISZERO PUSH2 0x14F JUMPI PUSH0 PUSH1 0x40 MLOAD PUSH32 0xBF16AAB600000000000000000000000000000000000000000000000000000000 DUP2 MSTORE PUSH1 0x4 ADD PUSH2 0x146 SWAP2 SWAP1 PUSH2 0x93C JUMP JUMPDEST PUSH1 0x40 MLOAD DUP1 SWAP2 SUB SWAP1 REVERT JUMPDEST DUP6 PUSH1 0x80 DUP2 DUP2 MSTORE POP POP DUP4 PUSH20 0xFFFFFFFFFFFFFFFFFFFFFFFFFFFFFFFFFFFFFFFF AND PUSH1 0xE0 DUP2 PUSH20 0xFFFFFFFFFFFFFFFFFFFFFFFFFFFFFFFFFFFFFFFF AND DUP2 MSTORE POP POP DUP3 PUSH20 0xFFFFFFFFFFFFFFFFFFFFFFFFFFFFFFFFFFFFFFFF AND PUSH1 0xA0 DUP2 PUSH20 0xFFFFFFFFFFFFFFFFFFFFFFFFFFFFFFFFFFFFFFFF AND DUP2 MSTORE POP POP DUP2 PUSH20 0xFFFFFFFFFFFFFFFFFFFFFFFFFFFFFFFFFFFFFFFF AND PUSH1 0xC0 DUP2 PUSH20 0xFFFFFFFFFFFFFFFFFFFFFFFFFFFFFFFFFFFFFFFF AND DUP2 MSTORE POP POP PUSH2 0x205 PUSH0 DUP1 SHL CALLER PUSH2 0x66D PUSH1 0x20 SHL PUSH1 0x20 SHR JUMP JUMPDEST POP PUSH2 0x236 PUSH32 0x2172861495E7B85EDAC73E3CD5FBB42DD675BAADF627720E687BCFDACA025096 CALLER PUSH2 0x66D PUSH1 0x20 SHL PUSH1 0x20 SHR JUMP JUMPDEST POP PUSH2 0x23F PUSH2 0x7CC JUMP JUMPDEST PUSH1 0x1 DUP2 PUSH0 ADD SWAP1 ISZERO ISZERO SWAP1 DUP2 ISZERO ISZERO DUP2 MSTORE POP POP PUSH1 0x1 DUP2 PUSH1 0x20 ADD SWAP1 ISZERO ISZERO SWAP1 DUP2 ISZERO ISZERO DUP2 MSTORE POP POP PUSH1 0x12 DUP2 PUSH1 0x40 ADD SWAP1 PUSH1 0xFF AND SWAP1 DUP2 PUSH1 0xFF AND DUP2 MSTORE POP POP DUP2 DUP2 PUSH1 0x60 ADD DUP2 DUP2 MSTORE POP POP DUP6 DUP2 PUSH1 0x80 ADD SWAP1 PUSH20 0xFFFFFFFFFFFFFFFFFFFFFFFFFFFFFFFFFFFFFFFF AND SWAP1 DUP2 PUSH20 0xFFFFFFFFFFFFFFFFFFFFFFFFFFFFFFFFFFFFFFFF AND DUP2 MSTORE POP POP DUP1 PUSH1 0x4 PUSH0 DUP1 PUSH20 0xFFFFFFFFFFFFFFFFFFFFFFFFFFFFFFFFFFFFFFFF AND PUSH20 0xFFFFFFFFFFFFFFFFFFFFFFFFFFFFFFFFFFFFFFFF AND DUP2 MSTORE PUSH1 0x20 ADD SWAP1 DUP2 MSTORE PUSH1 0x20 ADD PUSH0 KECCAK256 PUSH0 DUP3 ADD MLOAD DUP2 PUSH0 ADD PUSH0 PUSH2 0x100 EXP DUP2 SLOAD DUP2 PUSH1 0xFF MUL NOT AND SWAP1 DUP4 ISZERO ISZERO MUL OR SWAP1 SSTORE POP PUSH1 0x20 DUP3 ADD MLOAD DUP2 PUSH0 ADD PUSH1 0x1 PUSH2 0x100 EXP DUP2 SLOAD DUP2 PUSH1 0xFF MUL NOT AND SWAP1 DUP4 ISZERO ISZERO MUL OR SWAP1 SSTORE POP PUSH1 0x40 DUP3 ADD MLOAD DUP2 PUSH0 ADD PUSH1 0x2 PUSH2 0x100 EXP DUP2 SLOAD DUP2 PUSH1 0xFF MUL NOT AND SWAP1 DUP4 PUSH1 0xFF AND MUL OR SWAP1 SSTORE POP PUSH1 0x60 DUP3 ADD MLOAD DUP2 PUSH1 0x1 ADD SSTORE PUSH1 0x80 DUP3 ADD MLOAD DUP2 PUSH1 0x2 ADD PUSH0 PUSH2 0x100 EXP DUP2 SLOAD DUP2 PUSH20 0xFFFFFFFFFFFFFFFFFFFFFFFFFFFFFFFFFFFFFFFF MUL NOT AND SWAP1 DUP4 PUSH20 0xFFFFFFFFFFFFFFFFFFFFFFFFFFFFFFFFFFFFFFFF AND MUL OR SWAP1 SSTORE POP SWAP1 POP POP PUSH0 PUSH20 0xFFFFFFFFFFFFFFFFFFFFFFFFFFFFFFFFFFFFFFFF AND PUSH32 0xCEEC6D18B470B58EABBFC22B7D771C54609ACB2BBE777747424F6E9A5A9D5A25 PUSH1 0x1 DUP1 PUSH1 0x12 DUP7 DUP12 PUSH1 0x40 MLOAD PUSH2 0x3F2 SWAP6 SWAP5 SWAP4 SWAP3 SWAP2 SWAP1 PUSH2 0x9CC JUMP JUMPDEST PUSH1 0x40 MLOAD DUP1 SWAP2 SUB SWAP1 LOG2 POP PUSH2 0x403 PUSH2 0x7CC JUMP JUMPDEST PUSH1 0x1 DUP2 PUSH0 ADD SWAP1 ISZERO ISZERO SWAP1 DUP2 ISZERO ISZERO DUP2 MSTORE POP POP PUSH0 DUP2 PUSH1 0x20 ADD SWAP1 ISZERO ISZERO SWAP1 DUP2 ISZERO ISZERO DUP2 MSTORE POP POP PUSH0 PUSH1 0x6 SWAP1 POP PUSH1 0xE0 MLOAD PUSH20 0xFFFFFFFFFFFFFFFFFFFFFFFFFFFFFFFFFFFFFFFF AND PUSH4 0x313CE567 PUSH1 0x40 MLOAD DUP2 PUSH4 0xFFFFFFFF AND PUSH1 0xE0 SHL DUP2 MSTORE PUSH1 0x4 ADD PUSH1 0x20 PUSH1 0x40 MLOAD DUP1 DUP4 SUB DUP2 DUP7 GAS STATICCALL SWAP3 POP POP POP DUP1 ISZERO PUSH2 0x492 JUMPI POP PUSH1 0x40 MLOAD RETURNDATASIZE PUSH1 0x1F NOT PUSH1 0x1F DUP3 ADD AND DUP3 ADD DUP1 PUSH1 0x40 MSTORE POP DUP2 ADD SWAP1 PUSH2 0x48F SWAP2 SWAP1 PUSH2 0xA47 JUMP JUMPDEST PUSH1 0x1 JUMPDEST ISZERO PUSH2 0x49C JUMPI DUP1 SWAP2 POP POP JUMPDEST DUP1 DUP3 PUSH1 0x40 ADD SWAP1 PUSH1 0xFF AND SWAP1 DUP2 PUSH1 0xFF AND DUP2 MSTORE POP POP PUSH32 0xFFFFFFFFFFFFFFFFFFFFFFFFFFFFFFFFFFFFFFFFFFFFFFFFFFFFFFFFFFFFFFFF DUP3 PUSH1 0x60 ADD DUP2 DUP2 MSTORE POP POP PUSH0 DUP3 PUSH1 0x80 ADD SWAP1 PUSH20 0xFFFFFFFFFFFFFFFFFFFFFFFFFFFFFFFFFFFFFFFF AND SWAP1 DUP2 PUSH20 0xFFFFFFFFFFFFFFFFFFFFFFFFFFFFFFFFFFFFFFFF AND DUP2 MSTORE POP POP DUP2 PUSH1 0x4 PUSH0 PUSH1 0xE0 MLOAD PUSH20 0xFFFFFFFFFFFFFFFFFFFFFFFFFFFFFFFFFFFFFFFF AND PUSH20 0xFFFFFFFFFFFFFFFFFFFFFFFFFFFFFFFFFFFFFFFF AND DUP2 MSTORE PUSH1 0x20 ADD SWAP1 DUP2 MSTORE PUSH1 0x20 ADD PUSH0 KECCAK256 PUSH0 DUP3 ADD MLOAD DUP2 PUSH0 ADD PUSH0 PUSH2 0x100 EXP DUP2 SLOAD DUP2 PUSH1 0xFF MUL NOT AND SWAP1 DUP4 ISZERO ISZERO MUL OR SWAP1 SSTORE POP PUSH1 0x20 DUP3 ADD MLOAD DUP2 PUSH0 ADD PUSH1 0x1 PUSH2 0x100 EXP DUP2 SLOAD DUP2 PUSH1 0xFF MUL NOT AND SWAP1 DUP4 ISZERO ISZERO MUL OR SWAP1 SSTORE POP PUSH1 0x40 DUP3 ADD MLOAD DUP2 PUSH0 ADD PUSH1 0x2 PUSH2 0x100 EXP DUP2 SLOAD DUP2 PUSH1 0xFF MUL NOT AND SWAP1 DUP4 PUSH1 0xFF AND MUL OR SWAP1 SSTORE POP PUSH1 0x60 DUP3 ADD MLOAD DUP2 PUSH1 0x1 ADD SSTORE PUSH1 0x80 DUP3 ADD MLOAD DUP2 PUSH1 0x2 ADD PUSH0 PUSH2 0x100 EXP DUP2 SLOAD DUP2 PUSH20 0xFFFFFFFFFFFFFFFFFFFFFFFFFFFFFFFFFFFFFFFF MUL NOT AND SWAP1 DUP4 PUSH20 0xFFFFFFFFFFFFFFFFFFFFFFFFFFFFFFFFFFFFFFFF AND MUL OR SWAP1 SSTORE POP SWAP1 POP POP PUSH1 0xE0 MLOAD PUSH20 0xFFFFFFFFFFFFFFFFFFFFFFFFFFFFFFFFFFFFFFFF AND PUSH32 0xCEEC6D18B470B58EABBFC22B7D771C54609ACB2BBE777747424F6E9A5A9D5A25 PUSH1 0x1 PUSH0 DUP5 DUP7 PUSH1 0x60 ADD MLOAD DUP8 PUSH1 0x80 ADD MLOAD PUSH1 0x40 MLOAD PUSH2 0x658 SWAP6 SWAP5 SWAP4 SWAP3 SWAP2 SWAP1 PUSH2 0xA81 JUMP JUMPDEST PUSH1 0x40 MLOAD DUP1 SWAP2 SUB SWAP1 LOG2 POP POP POP POP POP POP POP POP PUSH2 0xAD2 JUMP JUMPDEST PUSH0 PUSH2 0x67E DUP4 DUP4 PUSH2 0x762 PUSH1 0x20 SHL PUSH1 0x20 SHR JUMP JUMPDEST PUSH2 0x758 JUMPI PUSH1 0x1 PUSH0 DUP1 DUP6 DUP2 MSTORE PUSH1 0x20 ADD SWAP1 DUP2 MSTORE PUSH1 0x20 ADD PUSH0 KECCAK256 PUSH0 ADD PUSH0 DUP5 PUSH20 0xFFFFFFFFFFFFFFFFFFFFFFFFFFFFFFFFFFFFFFFF AND PUSH20 0xFFFFFFFFFFFFFFFFFFFFFFFFFFFFFFFFFFFFFFFF AND DUP2 MSTORE PUSH1 0x20 ADD SWAP1 DUP2 MSTORE PUSH1 0x20 ADD PUSH0 KECCAK256 PUSH0 PUSH2 0x100 EXP DUP2 SLOAD DUP2 PUSH1 0xFF MUL NOT AND SWAP1 DUP4 ISZERO ISZERO MUL OR SWAP1 SSTORE POP PUSH2 0x6F5 PUSH2 0x7C5 PUSH1 0x20 SHL PUSH1 0x20 SHR JUMP JUMPDEST PUSH20 0xFFFFFFFFFFFFFFFFFFFFFFFFFFFFFFFFFFFFFFFF AND DUP3 PUSH20 0xFFFFFFFFFFFFFFFFFFFFFFFFFFFFFFFFFFFFFFFF AND DUP5 PUSH32 0x2F8788117E7EFF1D82E926EC794901D17C78024A50270940304540A733656F0D PUSH1 0x40 MLOAD PUSH1 0x40 MLOAD DUP1 SWAP2 SUB SWAP1 LOG4 PUSH1 0x1 SWAP1 POP PUSH2 0x75C JUMP JUMPDEST PUSH0 SWAP1 POP JUMPDEST SWAP3 SWAP2 POP POP JUMP JUMPDEST PUSH0 DUP1 PUSH0 DUP5 DUP2 MSTORE PUSH1 0x20 ADD SWAP1 DUP2 MSTORE PUSH1 0x20 ADD PUSH0 KECCAK256 PUSH0 ADD PUSH0 DUP4 PUSH20 0xFFFFFFFFFFFFFFFFFFFFFFFFFFFFFFFFFFFFFFFF AND PUSH20 0xFFFFFFFFFFFFFFFFFFFFFFFFFFFFFFFFFFFFFFFF AND DUP2 MSTORE PUSH1 0x20 ADD SWAP1 DUP2 MSTORE PUSH1 0x20 ADD PUSH0 KECCAK256 PUSH0 SWAP1 SLOAD SWAP1 PUSH2 0x100 EXP SWAP1 DIV PUSH1 0xFF AND SWAP1 POP SWAP3 SWAP2 POP POP JUMP JUMPDEST PUSH0 CALLER SWAP1 POP SWAP1 JUMP JUMPDEST PUSH1 0x40 MLOAD DUP1 PUSH1 0xA0 ADD PUSH1 0x40 MSTORE DUP1 PUSH0 ISZERO ISZERO DUP2 MSTORE PUSH1 0x20 ADD PUSH0 ISZERO ISZERO DUP2 MSTORE PUSH1 0x20 ADD PUSH0 PUSH1 0xFF AND DUP2 MSTORE PUSH1 0x20 ADD PUSH0 DUP2 MSTORE PUSH1 0x20 ADD PUSH0 PUSH20 0xFFFFFFFFFFFFFFFFFFFFFFFFFFFFFFFFFFFFFFFF AND DUP2 MSTORE POP SWAP1 JUMP JUMPDEST PUSH0 DUP1 REVERT JUMPDEST PUSH0 DUP2 SWAP1 POP SWAP2 SWAP1 POP JUMP JUMPDEST PUSH2 0x829 DUP2 PUSH2 0x817 JUMP JUMPDEST DUP2 EQ PUSH2 0x833 JUMPI PUSH0 DUP1 REVERT JUMPDEST POP JUMP JUMPDEST PUSH0 DUP2 MLOAD SWAP1 POP PUSH2 0x844 DUP2 PUSH2 0x820 JUMP JUMPDEST SWAP3 SWAP2 POP POP JUMP JUMPDEST PUSH0 PUSH20 0xFFFFFFFFFFFFFFFFFFFFFFFFFFFFFFFFFFFFFFFF DUP3 AND SWAP1 POP SWAP2 SWAP1 POP JUMP JUMPDEST PUSH0 PUSH2 0x873 DUP3 PUSH2 0x84A JUMP JUMPDEST SWAP1 POP SWAP2 SWAP1 POP JUMP JUMPDEST PUSH2 0x883 DUP2 PUSH2 0x869 JUMP JUMPDEST DUP2 EQ PUSH2 0x88D JUMPI PUSH0 DUP1 REVERT JUMPDEST POP JUMP JUMPDEST PUSH0 DUP2 MLOAD SWAP1 POP PUSH2 0x89E DUP2 PUSH2 0x87A JUMP JUMPDEST SWAP3 SWAP2 POP POP JUMP JUMPDEST PUSH0 DUP1 PUSH0 DUP1 PUSH0 DUP1 PUSH1 0xC0 DUP8 DUP10 SUB SLT ISZERO PUSH2 0x8BE JUMPI PUSH2 0x8BD PUSH2 0x813 JUMP JUMPDEST JUMPDEST PUSH0 PUSH2 0x8CB DUP10 DUP3 DUP11 ADD PUSH2 0x836 JUMP JUMPDEST SWAP7 POP POP PUSH1 0x20 PUSH2 0x8DC DUP10 DUP3 DUP11 ADD PUSH2 0x890 JUMP JUMPDEST SWAP6 POP POP PUSH1 0x40 PUSH2 0x8ED DUP10 DUP3 DUP11 ADD PUSH2 0x890 JUMP JUMPDEST SWAP5 POP POP PUSH1 0x60 PUSH2 0x8FE DUP10 DUP3 DUP11 ADD PUSH2 0x890 JUMP JUMPDEST SWAP4 POP POP PUSH1 0x80 PUSH2 0x90F DUP10 DUP3 DUP11 ADD PUSH2 0x890 JUMP JUMPDEST SWAP3 POP POP PUSH1 0xA0 PUSH2 0x920 DUP10 DUP3 DUP11 ADD PUSH2 0x836 JUMP JUMPDEST SWAP2 POP POP SWAP3 SWAP6 POP SWAP3 SWAP6 POP SWAP3 SWAP6 JUMP JUMPDEST PUSH2 0x936 DUP2 PUSH2 0x869 JUMP JUMPDEST DUP3 MSTORE POP POP JUMP JUMPDEST PUSH0 PUSH1 0x20 DUP3 ADD SWAP1 POP PUSH2 0x94F PUSH0 DUP4 ADD DUP5 PUSH2 0x92D JUMP JUMPDEST SWAP3 SWAP2 POP POP JUMP JUMPDEST PUSH0 DUP2 ISZERO ISZERO SWAP1 POP SWAP2 SWAP1 POP JUMP JUMPDEST PUSH2 0x969 DUP2 PUSH2 0x955 JUMP JUMPDEST DUP3 MSTORE POP POP JUMP JUMPDEST PUSH0 DUP2 SWAP1 POP SWAP2 SWAP1 POP JUMP JUMPDEST PUSH0 PUSH1 0xFF DUP3 AND SWAP1 POP SWAP2 SWAP1 POP JUMP JUMPDEST PUSH0 DUP2 SWAP1 POP SWAP2 SWAP1 POP JUMP JUMPDEST PUSH0 PUSH2 0x9A7 PUSH2 0x9A2 PUSH2 0x99D DUP5 PUSH2 0x96F JUMP JUMPDEST PUSH2 0x984 JUMP JUMPDEST PUSH2 0x978 JUMP JUMPDEST SWAP1 POP SWAP2 SWAP1 POP JUMP JUMPDEST PUSH2 0x9B7 DUP2 PUSH2 0x98D JUMP JUMPDEST DUP3 MSTORE POP POP JUMP JUMPDEST PUSH2 0x9C6 DUP2 PUSH2 0x817 JUMP JUMPDEST DUP3 MSTORE POP POP JUMP JUMPDEST PUSH0 PUSH1 0xA0 DUP3 ADD SWAP1 POP PUSH2 0x9DF PUSH0 DUP4 ADD DUP9 PUSH2 0x960 JUMP JUMPDEST PUSH2 0x9EC PUSH1 0x20 DUP4 ADD DUP8 PUSH2 0x960 JUMP JUMPDEST PUSH2 0x9F9 PUSH1 0x40 DUP4 ADD DUP7 PUSH2 0x9AE JUMP JUMPDEST PUSH2 0xA06 PUSH1 0x60 DUP4 ADD DUP6 PUSH2 0x9BD JUMP JUMPDEST PUSH2 0xA13 PUSH1 0x80 DUP4 ADD DUP5 PUSH2 0x92D JUMP JUMPDEST SWAP7 SWAP6 POP POP POP POP POP POP JUMP JUMPDEST PUSH2 0xA26 DUP2 PUSH2 0x978 JUMP JUMPDEST DUP2 EQ PUSH2 0xA30 JUMPI PUSH0 DUP1 REVERT JUMPDEST POP JUMP JUMPDEST PUSH0 DUP2 MLOAD SWAP1 POP PUSH2 0xA41 DUP2 PUSH2 0xA1D JUMP JUMPDEST SWAP3 SWAP2 POP POP JUMP JUMPDEST PUSH0 PUSH1 0x20 DUP3 DUP5 SUB SLT ISZERO PUSH2 0xA5C JUMPI PUSH2 0xA5B PUSH2 0x813 JUMP JUMPDEST JUMPDEST PUSH0 PUSH2 0xA69 DUP5 DUP3 DUP6 ADD PUSH2 0xA33 JUMP JUMPDEST SWAP2 POP POP SWAP3 SWAP2 POP POP JUMP JUMPDEST PUSH2 0xA7B DUP2 PUSH2 0x978 JUMP JUMPDEST DUP3 MSTORE POP POP JUMP JUMPDEST PUSH0 PUSH1 0xA0 DUP3 ADD SWAP1 POP PUSH2 0xA94 PUSH0 DUP4 ADD DUP9 PUSH2 0x960 JUMP JUMPDEST PUSH2 0xAA1 PUSH1 0x20 DUP4 ADD DUP8 PUSH2 0x960 JUMP JUMPDEST PUSH2 0xAAE PUSH1 0x40 DUP4 ADD DUP7 PUSH2 0xA72 JUMP JUMPDEST PUSH2 0xABB PUSH1 0x60 DUP4 ADD DUP6 PUSH2 0x9BD JUMP JUMPDEST PUSH2 0xAC8 PUSH1 0x80 DUP4 ADD DUP5 PUSH2 0x92D JUMP JUMPDEST SWAP7 SWAP6 POP POP POP POP POP POP JUMP JUMPDEST PUSH1 0x80 MLOAD PUSH1 0xA0 MLOAD PUSH1 0xC0 MLOAD PUSH1 0xE0 MLOAD PUSH2 0x3ACB PUSH2 0xC01 PUSH0 CODECOPY PUSH0 DUP2 DUP2 PUSH2 0x88E ADD MSTORE DUP2 DUP2 PUSH2 0x8FE ADD MSTORE DUP2 DUP2 PUSH2 0xA3E ADD MSTORE DUP2 DUP2 PUSH2 0xB83 ADD MSTORE DUP2 DUP2 PUSH2 0xC5C ADD MSTORE DUP2 DUP2 PUSH2 0xCB8 ADD MSTORE DUP2 DUP2 PUSH2 0xE28 ADD MSTORE DUP2 DUP2 PUSH2 0xEF6 ADD MSTORE DUP2 DUP2 PUSH2 0xFA9 ADD MSTORE DUP2 DUP2 PUSH2 0x111A ADD MSTORE DUP2 DUP2 PUSH2 0x118A ADD MSTORE DUP2 DUP2 PUSH2 0x12CA ADD MSTORE DUP2 DUP2 PUSH2 0x140F ADD MSTORE DUP2 DUP2 PUSH2 0x14E8 ADD MSTORE DUP2 DUP2 PUSH2 0x1544 ADD MSTORE DUP2 DUP2 PUSH2 0x1606 ADD MSTORE DUP2 DUP2 PUSH2 0x1A66 ADD MSTORE DUP2 DUP2 PUSH2 0x1B54 ADD MSTORE DUP2 DUP2 PUSH2 0x1C28 ADD MSTORE DUP2 DUP2 PUSH2 0x1C85 ADD MSTORE DUP2 DUP2 PUSH2 0x1CE1 ADD MSTORE DUP2 DUP2 PUSH2 0x1E17 ADD MSTORE DUP2 DUP2 PUSH2 0x1F65 ADD MSTORE DUP2 DUP2 PUSH2 0x202D ADD MSTORE DUP2 DUP2 PUSH2 0x208B ADD MSTORE PUSH2 0x20E7 ADD MSTORE PUSH0 DUP2 DUP2 PUSH2 0xEB9 ADD MSTORE PUSH2 0x1934 ADD MSTORE PUSH0 DUP2 DUP2 PUSH2 0x7B4 ADD MSTORE DUP2 DUP2 PUSH2 0x998 ADD MSTORE DUP2 DUP2 PUSH2 0x1037 ADD MSTORE DUP2 DUP2 PUSH2 0x1224 ADD MSTORE PUSH2 0x21A2 ADD MSTORE PUSH0 DUP2 DUP2 PUSH2 0xAF8 ADD MSTORE DUP2 DUP2 PUSH2 0xB21 ADD MSTORE DUP2 DUP2 PUSH2 0x1384 ADD MSTORE DUP2 DUP2 PUSH2 0x13AD ADD MSTORE DUP2 DUP2 PUSH2 0x1EDA ADD MSTORE DUP2 DUP2 PUSH2 0x1F03 ADD MSTORE PUSH2 0x21C6 ADD MSTORE PUSH2 0x3ACB PUSH0 RETURN INVALID PUSH1 0x80 PUSH1 0x40 MSTORE PUSH1 0x4 CALLDATASIZE LT PUSH2 0x165 JUMPI PUSH0 CALLDATALOAD PUSH1 0xE0 SHR DUP1 PUSH4 0x91D14854 GT PUSH2 0xD0 JUMPI DUP1 PUSH4 0xD547741F GT PUSH2 0x89 JUMPI DUP1 PUSH4 0xF688BCFB GT PUSH2 0x63 JUMPI DUP1 PUSH4 0xF688BCFB EQ PUSH2 0x51B JUMPI DUP1 PUSH4 0xF887EA40 EQ PUSH2 0x543 JUMPI DUP1 PUSH4 0xF9BDA21F EQ PUSH2 0x56D JUMPI DUP1 PUSH4 0xFE136C4E EQ PUSH2 0x597 JUMPI PUSH2 0x165 JUMP JUMPDEST DUP1 PUSH4 0xD547741F EQ PUSH2 0x48F JUMPI DUP1 PUSH4 0xDB81F99B EQ PUSH2 0x4B7 JUMPI DUP1 PUSH4 0xDCB6E250 EQ PUSH2 0x4DF JUMPI PUSH2 0x165 JUMP JUMPDEST DUP1 PUSH4 0x91D14854 EQ PUSH2 0x371 JUMPI DUP1 PUSH4 0x9C50ADEE EQ PUSH2 0x3AD JUMPI DUP1 PUSH4 0xA217FDDF EQ PUSH2 0x3D5 JUMPI DUP1 PUSH4 0xC45A0155 EQ PUSH2 0x3FF JUMPI DUP1 PUSH4 0xD391014B EQ PUSH2 0x429 JUMPI DUP1 PUSH4 0xD4FAC45D EQ PUSH2 0x453 JUMPI PUSH2 0x165 JUMP JUMPDEST DUP1 PUSH4 0x31F7D964 GT PUSH2 0x122 JUMPI DUP1 PUSH4 0x31F7D964 EQ PUSH2 0x287 JUMPI DUP1 PUSH4 0x36568ABE EQ PUSH2 0x2B1 JUMPI DUP1 PUSH4 0x4CC05A71 EQ PUSH2 0x2D9 JUMPI DUP1 PUSH4 0x5358FBDA EQ PUSH2 0x303 JUMPI DUP1 PUSH4 0x72806F70 EQ PUSH2 0x31F JUMPI DUP1 PUSH4 0x89A30271 EQ PUSH2 0x347 JUMPI PUSH2 0x165 JUMP JUMPDEST DUP1 PUSH4 0x1FFC9A7 EQ PUSH2 0x169 JUMPI DUP1 PUSH4 0x248A9CA3 EQ PUSH2 0x1A5 JUMPI DUP1 PUSH4 0x29608BA6 EQ PUSH2 0x1E1 JUMPI DUP1 PUSH4 0x2DFDF0B5 EQ PUSH2 0x20B JUMPI DUP1 PUSH4 0x2F2FF15D EQ PUSH2 0x235 JUMPI DUP1 PUSH4 0x2F6EE695 EQ PUSH2 0x25D JUMPI JUMPDEST PUSH0 DUP1 REVERT JUMPDEST CALLVALUE DUP1 ISZERO PUSH2 0x174 JUMPI PUSH0 DUP1 REVERT JUMPDEST POP PUSH2 0x18F PUSH1 0x4 DUP1 CALLDATASIZE SUB DUP2 ADD SWAP1 PUSH2 0x18A SWAP2 SWAP1 PUSH2 0x2CAE JUMP JUMPDEST PUSH2 0x5D7 JUMP JUMPDEST PUSH1 0x40 MLOAD PUSH2 0x19C SWAP2 SWAP1 PUSH2 0x2CF3 JUMP JUMPDEST PUSH1 0x40 MLOAD DUP1 SWAP2 SUB SWAP1 RETURN JUMPDEST CALLVALUE DUP1 ISZERO PUSH2 0x1B0 JUMPI PUSH0 DUP1 REVERT JUMPDEST POP PUSH2 0x1CB PUSH1 0x4 DUP1 CALLDATASIZE SUB DUP2 ADD SWAP1 PUSH2 0x1C6 SWAP2 SWAP1 PUSH2 0x2D3F JUMP JUMPDEST PUSH2 0x650 JUMP JUMPDEST PUSH1 0x40 MLOAD PUSH2 0x1D8 SWAP2 SWAP1 PUSH2 0x2D79 JUMP JUMPDEST PUSH1 0x40 MLOAD DUP1 SWAP2 SUB SWAP1 RETURN JUMPDEST CALLVALUE DUP1 ISZERO PUSH2 0x1EC JUMPI PUSH0 DUP1 REVERT JUMPDEST POP PUSH2 0x1F5 PUSH2 0x66C JUMP JUMPDEST PUSH1 0x40 MLOAD PUSH2 0x202 SWAP2 SWAP1 PUSH2 0x2DAA JUMP JUMPDEST PUSH1 0x40 MLOAD DUP1 SWAP2 SUB SWAP1 RETURN JUMPDEST CALLVALUE DUP1 ISZERO PUSH2 0x216 JUMPI PUSH0 DUP1 REVERT JUMPDEST POP PUSH2 0x21F PUSH2 0x672 JUMP JUMPDEST PUSH1 0x40 MLOAD PUSH2 0x22C SWAP2 SWAP1 PUSH2 0x2DAA JUMP JUMPDEST PUSH1 0x40 MLOAD DUP1 SWAP2 SUB SWAP1 RETURN JUMPDEST CALLVALUE DUP1 ISZERO PUSH2 0x240 JUMPI PUSH0 DUP1 REVERT JUMPDEST POP PUSH2 0x25B PUSH1 0x4 DUP1 CALLDATASIZE SUB DUP2 ADD SWAP1 PUSH2 0x256 SWAP2 SWAP1 PUSH2 0x2E1D JUMP JUMPDEST PUSH2 0x678 JUMP JUMPDEST STOP JUMPDEST CALLVALUE DUP1 ISZERO PUSH2 0x268 JUMPI PUSH0 DUP1 REVERT JUMPDEST POP PUSH2 0x271 PUSH2 0x69A JUMP JUMPDEST PUSH1 0x40 MLOAD PUSH2 0x27E SWAP2 SWAP1 PUSH2 0x2E76 JUMP JUMPDEST PUSH1 0x40 MLOAD DUP1 SWAP2 SUB SWAP1 RETURN JUMPDEST CALLVALUE DUP1 ISZERO PUSH2 0x292 JUMPI PUSH0 DUP1 REVERT JUMPDEST POP PUSH2 0x29B PUSH2 0x69F JUMP JUMPDEST PUSH1 0x40 MLOAD PUSH2 0x2A8 SWAP2 SWAP1 PUSH2 0x2E9E JUMP JUMPDEST PUSH1 0x40 MLOAD DUP1 SWAP2 SUB SWAP1 RETURN JUMPDEST CALLVALUE DUP1 ISZERO PUSH2 0x2BC JUMPI PUSH0 DUP1 REVERT JUMPDEST POP PUSH2 0x2D7 PUSH1 0x4 DUP1 CALLDATASIZE SUB DUP2 ADD SWAP1 PUSH2 0x2D2 SWAP2 SWAP1 PUSH2 0x2E1D JUMP JUMPDEST PUSH2 0x6A3 JUMP JUMPDEST STOP JUMPDEST CALLVALUE DUP1 ISZERO PUSH2 0x2E4 JUMPI PUSH0 DUP1 REVERT JUMPDEST POP PUSH2 0x2ED PUSH2 0x71E JUMP JUMPDEST PUSH1 0x40 MLOAD PUSH2 0x2FA SWAP2 SWAP1 PUSH2 0x2DAA JUMP JUMPDEST PUSH1 0x40 MLOAD DUP1 SWAP2 SUB SWAP1 RETURN JUMPDEST PUSH2 0x31D PUSH1 0x4 DUP1 CALLDATASIZE SUB DUP2 ADD SWAP1 PUSH2 0x318 SWAP2 SWAP1 PUSH2 0x2EE1 JUMP JUMPDEST PUSH2 0x724 JUMP JUMPDEST STOP JUMPDEST CALLVALUE DUP1 ISZERO PUSH2 0x32A JUMPI PUSH0 DUP1 REVERT JUMPDEST POP PUSH2 0x345 PUSH1 0x4 DUP1 CALLDATASIZE SUB DUP2 ADD SWAP1 PUSH2 0x340 SWAP2 SWAP1 PUSH2 0x2F0C JUMP JUMPDEST PUSH2 0xD74 JUMP JUMPDEST STOP JUMPDEST CALLVALUE DUP1 ISZERO PUSH2 0x352 JUMPI PUSH0 DUP1 REVERT JUMPDEST POP PUSH2 0x35B PUSH2 0x1604 JUMP JUMPDEST PUSH1 0x40 MLOAD PUSH2 0x368 SWAP2 SWAP1 PUSH2 0x2E9E JUMP JUMPDEST PUSH1 0x40 MLOAD DUP1 SWAP2 SUB SWAP1 RETURN JUMPDEST CALLVALUE DUP1 ISZERO PUSH2 0x37C JUMPI PUSH0 DUP1 REVERT JUMPDEST POP PUSH2 0x397 PUSH1 0x4 DUP1 CALLDATASIZE SUB DUP2 ADD SWAP1 PUSH2 0x392 SWAP2 SWAP1 PUSH2 0x2E1D JUMP JUMPDEST PUSH2 0x1628 JUMP JUMPDEST PUSH1 0x40 MLOAD PUSH2 0x3A4 SWAP2 SWAP1 PUSH2 0x2CF3 JUMP JUMPDEST PUSH1 0x40 MLOAD DUP1 SWAP2 SUB SWAP1 RETURN JUMPDEST CALLVALUE DUP1 ISZERO PUSH2 0x3B8 JUMPI PUSH0 DUP1 REVERT JUMPDEST POP PUSH2 0x3D3 PUSH1 0x4 DUP1 CALLDATASIZE SUB DUP2 ADD SWAP1 PUSH2 0x3CE SWAP2 SWAP1 PUSH2 0x2FB0 JUMP JUMPDEST PUSH2 0x168B JUMP JUMPDEST STOP JUMPDEST CALLVALUE DUP1 ISZERO PUSH2 0x3E0 JUMPI PUSH0 DUP1 REVERT JUMPDEST POP PUSH2 0x3E9 PUSH2 0x192C JUMP JUMPDEST PUSH1 0x40 MLOAD PUSH2 0x3F6 SWAP2 SWAP1 PUSH2 0x2D79 JUMP JUMPDEST PUSH1 0x40 MLOAD DUP1 SWAP2 SUB SWAP1 RETURN JUMPDEST CALLVALUE DUP1 ISZERO PUSH2 0x40A JUMPI PUSH0 DUP1 REVERT JUMPDEST POP PUSH2 0x413 PUSH2 0x1932 JUMP JUMPDEST PUSH1 0x40 MLOAD PUSH2 0x420 SWAP2 SWAP1 PUSH2 0x3082 JUMP JUMPDEST PUSH1 0x40 MLOAD DUP1 SWAP2 SUB SWAP1 RETURN JUMPDEST CALLVALUE DUP1 ISZERO PUSH2 0x434 JUMPI PUSH0 DUP1 REVERT JUMPDEST POP PUSH2 0x43D PUSH2 0x1956 JUMP JUMPDEST PUSH1 0x40 MLOAD PUSH2 0x44A SWAP2 SWAP1 PUSH2 0x2D79 JUMP JUMPDEST PUSH1 0x40 MLOAD DUP1 SWAP2 SUB SWAP1 RETURN JUMPDEST CALLVALUE DUP1 ISZERO PUSH2 0x45E JUMPI PUSH0 DUP1 REVERT JUMPDEST POP PUSH2 0x479 PUSH1 0x4 DUP1 CALLDATASIZE SUB DUP2 ADD SWAP1 PUSH2 0x474 SWAP2 SWAP1 PUSH2 0x309B JUMP JUMPDEST PUSH2 0x197A JUMP JUMPDEST PUSH1 0x40 MLOAD PUSH2 0x486 SWAP2 SWAP1 PUSH2 0x2DAA JUMP JUMPDEST PUSH1 0x40 MLOAD DUP1 SWAP2 SUB SWAP1 RETURN JUMPDEST CALLVALUE DUP1 ISZERO PUSH2 0x49A JUMPI PUSH0 DUP1 REVERT JUMPDEST POP PUSH2 0x4B5 PUSH1 0x4 DUP1 CALLDATASIZE SUB DUP2 ADD SWAP1 PUSH2 0x4B0 SWAP2 SWAP1 PUSH2 0x2E1D JUMP JUMPDEST PUSH2 0x19FC JUMP JUMPDEST STOP JUMPDEST CALLVALUE DUP1 ISZERO PUSH2 0x4C2 JUMPI PUSH0 DUP1 REVERT JUMPDEST POP PUSH2 0x4DD PUSH1 0x4 DUP1 CALLDATASIZE SUB DUP2 ADD SWAP1 PUSH2 0x4D8 SWAP2 SWAP1 PUSH2 0x2EE1 JUMP JUMPDEST PUSH2 0x1A1E JUMP JUMPDEST STOP JUMPDEST CALLVALUE DUP1 ISZERO PUSH2 0x4EA JUMPI PUSH0 DUP1 REVERT JUMPDEST POP PUSH2 0x505 PUSH1 0x4 DUP1 CALLDATASIZE SUB DUP2 ADD SWAP1 PUSH2 0x500 SWAP2 SWAP1 PUSH2 0x309B JUMP JUMPDEST PUSH2 0x1D98 JUMP JUMPDEST PUSH1 0x40 MLOAD PUSH2 0x512 SWAP2 SWAP1 PUSH2 0x2DAA JUMP JUMPDEST PUSH1 0x40 MLOAD DUP1 SWAP2 SUB SWAP1 RETURN JUMPDEST CALLVALUE DUP1 ISZERO PUSH2 0x526 JUMPI PUSH0 DUP1 REVERT JUMPDEST POP PUSH2 0x541 PUSH1 0x4 DUP1 CALLDATASIZE SUB DUP2 ADD SWAP1 PUSH2 0x53C SWAP2 SWAP1 PUSH2 0x2EE1 JUMP JUMPDEST PUSH2 0x1E85 JUMP JUMPDEST STOP JUMPDEST CALLVALUE DUP1 ISZERO PUSH2 0x54E JUMPI PUSH0 DUP1 REVERT JUMPDEST POP PUSH2 0x557 PUSH2 0x21A0 JUMP JUMPDEST PUSH1 0x40 MLOAD PUSH2 0x564 SWAP2 SWAP1 PUSH2 0x30F9 JUMP JUMPDEST PUSH1 0x40 MLOAD DUP1 SWAP2 SUB SWAP1 RETURN JUMPDEST CALLVALUE DUP1 ISZERO PUSH2 0x578 JUMPI PUSH0 DUP1 REVERT JUMPDEST POP PUSH2 0x581 PUSH2 0x21C4 JUMP JUMPDEST PUSH1 0x40 MLOAD PUSH2 0x58E SWAP2 SWAP1 PUSH2 0x2DAA JUMP JUMPDEST PUSH1 0x40 MLOAD DUP1 SWAP2 SUB SWAP1 RETURN JUMPDEST CALLVALUE DUP1 ISZERO PUSH2 0x5A2 JUMPI PUSH0 DUP1 REVERT JUMPDEST POP PUSH2 0x5BD PUSH1 0x4 DUP1 CALLDATASIZE SUB DUP2 ADD SWAP1 PUSH2 0x5B8 SWAP2 SWAP1 PUSH2 0x3112 JUMP JUMPDEST PUSH2 0x21E8 JUMP JUMPDEST PUSH1 0x40 MLOAD PUSH2 0x5CE SWAP6 SWAP5 SWAP4 SWAP3 SWAP2 SWAP1 PUSH2 0x313D JUMP JUMPDEST PUSH1 0x40 MLOAD DUP1 SWAP2 SUB SWAP1 RETURN JUMPDEST PUSH0 PUSH32 0x7965DB0B00000000000000000000000000000000000000000000000000000000 PUSH28 0xFFFFFFFFFFFFFFFFFFFFFFFFFFFFFFFFFFFFFFFFFFFFFFFFFFFFFFFF NOT AND DUP3 PUSH28 0xFFFFFFFFFFFFFFFFFFFFFFFFFFFFFFFFFFFFFFFFFFFFFFFFFFFFFFFF NOT AND EQ DUP1 PUSH2 0x649 JUMPI POP PUSH2 0x648 DUP3 PUSH2 0x225D JUMP JUMPDEST JUMPDEST SWAP1 POP SWAP2 SWAP1 POP JUMP JUMPDEST PUSH0 DUP1 PUSH0 DUP4 DUP2 MSTORE PUSH1 0x20 ADD SWAP1 DUP2 MSTORE PUSH1 0x20 ADD PUSH0 KECCAK256 PUSH1 0x1 ADD SLOAD SWAP1 POP SWAP2 SWAP1 POP JUMP JUMPDEST PUSH1 0x2 SLOAD DUP2 JUMP JUMPDEST PUSH1 0x5 SLOAD DUP2 JUMP JUMPDEST PUSH2 0x681 DUP3 PUSH2 0x650 JUMP JUMPDEST PUSH2 0x68A DUP2 PUSH2 0x22C6 JUMP JUMPDEST PUSH2 0x694 DUP4 DUP4 PUSH2 0x22DA JUMP JUMPDEST POP POP POP POP JUMP JUMPDEST PUSH1 0x6 DUP2 JUMP JUMPDEST PUSH0 DUP2 JUMP JUMPDEST PUSH2 0x6AB PUSH2 0x23C3 JUMP JUMPDEST PUSH20 0xFFFFFFFFFFFFFFFFFFFFFFFFFFFFFFFFFFFFFFFF AND DUP2 PUSH20 0xFFFFFFFFFFFFFFFFFFFFFFFFFFFFFFFFFFFFFFFF AND EQ PUSH2 0x70F JUMPI PUSH1 0x40 MLOAD PUSH32 0x6697B23200000000000000000000000000000000000000000000000000000000 DUP2 MSTORE PUSH1 0x4 ADD PUSH1 0x40 MLOAD DUP1 SWAP2 SUB SWAP1 REVERT JUMPDEST PUSH2 0x719 DUP3 DUP3 PUSH2 0x23CA JUMP JUMPDEST POP POP POP JUMP JUMPDEST PUSH1 0x6 SLOAD DUP2 JUMP JUMPDEST PUSH2 0x72C PUSH2 0x24B3 JUMP JUMPDEST PUSH0 CALLVALUE SUB PUSH2 0x765 JUMPI PUSH1 0x40 MLOAD PUSH32 0x1F2A200500000000000000000000000000000000000000000000000000000000 DUP2 MSTORE PUSH1 0x4 ADD PUSH1 0x40 MLOAD DUP1 SWAP2 SUB SWAP1 REVERT JUMPDEST PUSH0 PUSH1 0x2 PUSH8 0xFFFFFFFFFFFFFFFF DUP2 GT ISZERO PUSH2 0x781 JUMPI PUSH2 0x780 PUSH2 0x318E JUMP JUMPDEST JUMPDEST PUSH1 0x40 MLOAD SWAP1 DUP1 DUP3 MSTORE DUP1 PUSH1 0x20 MUL PUSH1 0x20 ADD DUP3 ADD PUSH1 0x40 MSTORE DUP1 ISZERO PUSH2 0x7AF JUMPI DUP2 PUSH1 0x20 ADD PUSH1 0x20 DUP3 MUL DUP1 CALLDATASIZE DUP4 CALLDATACOPY DUP1 DUP3 ADD SWAP2 POP POP SWAP1 POP JUMPDEST POP SWAP1 POP PUSH32 0x0 PUSH20 0xFFFFFFFFFFFFFFFFFFFFFFFFFFFFFFFFFFFFFFFF AND PUSH4 0xAD5C4648 PUSH1 0x40 MLOAD DUP2 PUSH4 0xFFFFFFFF AND PUSH1 0xE0 SHL DUP2 MSTORE PUSH1 0x4 ADD PUSH1 0x20 PUSH1 0x40 MLOAD DUP1 DUP4 SUB DUP2 DUP7 GAS STATICCALL ISZERO DUP1 ISZERO PUSH2 0x81B JUMPI RETURNDATASIZE PUSH0 DUP1 RETURNDATACOPY RETURNDATASIZE PUSH0 REVERT JUMPDEST POP POP POP POP PUSH1 0x40 MLOAD RETURNDATASIZE PUSH1 0x1F NOT PUSH1 0x1F DUP3 ADD AND DUP3 ADD DUP1 PUSH1 0x40 MSTORE POP DUP2 ADD SWAP1 PUSH2 0x83F SWAP2 SWAP1 PUSH2 0x31CF JUMP JUMPDEST DUP2 PUSH0 DUP2 MLOAD DUP2 LT PUSH2 0x852 JUMPI PUSH2 0x851 PUSH2 0x31FA JUMP JUMPDEST JUMPDEST PUSH1 0x20 MUL PUSH1 0x20 ADD ADD SWAP1 PUSH20 0xFFFFFFFFFFFFFFFFFFFFFFFFFFFFFFFFFFFFFFFF AND SWAP1 DUP2 PUSH20 0xFFFFFFFFFFFFFFFFFFFFFFFFFFFFFFFFFFFFFFFF AND DUP2 MSTORE POP POP PUSH32 0x0 DUP2 PUSH1 0x1 DUP2 MLOAD DUP2 LT PUSH2 0x8C1 JUMPI PUSH2 0x8C0 PUSH2 0x31FA JUMP JUMPDEST JUMPDEST PUSH1 0x20 MUL PUSH1 0x20 ADD ADD SWAP1 PUSH20 0xFFFFFFFFFFFFFFFFFFFFFFFFFFFFFFFFFFFFFFFF AND SWAP1 DUP2 PUSH20 0xFFFFFFFFFFFFFFFFFFFFFFFFFFFFFFFFFFFFFFFF AND DUP2 MSTORE POP POP PUSH0 PUSH32 0x0 PUSH20 0xFFFFFFFFFFFFFFFFFFFFFFFFFFFFFFFFFFFFFFFF AND PUSH4 0x70A08231 ADDRESS PUSH1 0x40 MLOAD DUP3 PUSH4 0xFFFFFFFF AND PUSH1 0xE0 SHL DUP2 MSTORE PUSH1 0x4 ADD PUSH2 0x955 SWAP2 SWAP1 PUSH2 0x2E9E JUMP JUMPDEST PUSH1 0x20 PUSH1 0x40 MLOAD DUP1 DUP4 SUB DUP2 DUP7 GAS STATICCALL ISZERO DUP1 ISZERO PUSH2 0x970 JUMPI RETURNDATASIZE PUSH0 DUP1 RETURNDATACOPY RETURNDATASIZE PUSH0 REVERT JUMPDEST POP POP POP POP PUSH1 0x40 MLOAD RETURNDATASIZE PUSH1 0x1F NOT PUSH1 0x1F DUP3 ADD AND DUP3 ADD DUP1 PUSH1 0x40 MSTORE POP DUP2 ADD SWAP1 PUSH2 0x994 SWAP2 SWAP1 PUSH2 0x323B JUMP JUMPDEST SWAP1 POP PUSH32 0x0 PUSH20 0xFFFFFFFFFFFFFFFFFFFFFFFFFFFFFFFFFFFFFFFF AND PUSH4 0x7FF36AB5 CALLVALUE DUP6 DUP6 ADDRESS TIMESTAMP PUSH1 0x40 MLOAD DUP7 PUSH4 0xFFFFFFFF AND PUSH1 0xE0 SHL DUP2 MSTORE PUSH1 0x4 ADD PUSH2 0x9F6 SWAP5 SWAP4 SWAP3 SWAP2 SWAP1 PUSH2 0x331D JUMP JUMPDEST PUSH0 PUSH1 0x40 MLOAD DUP1 DUP4 SUB DUP2 DUP6 DUP9 GAS CALL ISZERO DUP1 ISZERO PUSH2 0xA11 JUMPI RETURNDATASIZE PUSH0 DUP1 RETURNDATACOPY RETURNDATASIZE PUSH0 REVERT JUMPDEST POP POP POP POP POP PUSH1 0x40 MLOAD RETURNDATASIZE PUSH0 DUP3 RETURNDATACOPY RETURNDATASIZE PUSH1 0x1F NOT PUSH1 0x1F DUP3 ADD AND DUP3 ADD DUP1 PUSH1 0x40 MSTORE POP DUP2 ADD SWAP1 PUSH2 0xA3A SWAP2 SWAP1 PUSH2 0x348A JUMP JUMPDEST POP PUSH0 PUSH32 0x0 PUSH20 0xFFFFFFFFFFFFFFFFFFFFFFFFFFFFFFFFFFFFFFFF AND PUSH4 0x70A08231 ADDRESS PUSH1 0x40 MLOAD DUP3 PUSH4 0xFFFFFFFF AND PUSH1 0xE0 SHL DUP2 MSTORE PUSH1 0x4 ADD PUSH2 0xA95 SWAP2 SWAP1 PUSH2 0x2E9E JUMP JUMPDEST PUSH1 0x20 PUSH1 0x40 MLOAD DUP1 DUP4 SUB DUP2 DUP7 GAS STATICCALL ISZERO DUP1 ISZERO PUSH2 0xAB0 JUMPI RETURNDATASIZE PUSH0 DUP1 RETURNDATACOPY RETURNDATASIZE PUSH0 REVERT JUMPDEST POP POP POP POP PUSH1 0x40 MLOAD RETURNDATASIZE PUSH1 0x1F NOT PUSH1 0x1F DUP3 ADD AND DUP3 ADD DUP1 PUSH1 0x40 MSTORE POP DUP2 ADD SWAP1 PUSH2 0xAD4 SWAP2 SWAP1 PUSH2 0x323B JUMP JUMPDEST SWAP1 POP PUSH0 DUP3 DUP3 PUSH2 0xAE3 SWAP2 SWAP1 PUSH2 0x34FE JUMP JUMPDEST SWAP1 POP PUSH0 DUP2 PUSH1 0x2 SLOAD PUSH2 0xAF4 SWAP2 SWAP1 PUSH2 0x3531 JUMP JUMPDEST SWAP1 POP PUSH32 0x0 DUP2 GT ISZERO PUSH2 0xB7D JUMPI DUP1 PUSH32 0x0 PUSH1 0x40 MLOAD PUSH32 0xF480E28500000000000000000000000000000000000000000000000000000000 DUP2 MSTORE PUSH1 0x4 ADD PUSH2 0xB74 SWAP3 SWAP2 SWAP1 PUSH2 0x3564 JUMP JUMPDEST PUSH1 0x40 MLOAD DUP1 SWAP2 SUB SWAP1 REVERT JUMPDEST DUP2 PUSH1 0x3 PUSH0 PUSH32 0x0 PUSH20 0xFFFFFFFFFFFFFFFFFFFFFFFFFFFFFFFFFFFFFFFF AND PUSH20 0xFFFFFFFFFFFFFFFFFFFFFFFFFFFFFFFFFFFFFFFF AND DUP2 MSTORE PUSH1 0x20 ADD SWAP1 DUP2 MSTORE PUSH1 0x20 ADD PUSH0 KECCAK256 PUSH0 CALLER PUSH20 0xFFFFFFFFFFFFFFFFFFFFFFFFFFFFFFFFFFFFFFFF AND PUSH20 0xFFFFFFFFFFFFFFFFFFFFFFFFFFFFFFFFFFFFFFFF AND DUP2 MSTORE PUSH1 0x20 ADD SWAP1 DUP2 MSTORE PUSH1 0x20 ADD PUSH0 KECCAK256 PUSH0 DUP3 DUP3 SLOAD PUSH2 0xC24 SWAP2 SWAP1 PUSH2 0x3531 JUMP JUMPDEST SWAP3 POP POP DUP2 SWAP1 SSTORE POP DUP1 PUSH1 0x2 DUP2 SWAP1 SSTORE POP PUSH1 0x5 PUSH0 DUP2 SLOAD DUP1 SWAP3 SWAP2 SWAP1 PUSH1 0x1 ADD SWAP2 SWAP1 POP SSTORE POP CALLER PUSH20 0xFFFFFFFFFFFFFFFFFFFFFFFFFFFFFFFFFFFFFFFF AND PUSH32 0x0 PUSH20 0xFFFFFFFFFFFFFFFFFFFFFFFFFFFFFFFFFFFFFFFF AND PUSH32 0x4E2CA0515ED1AEF1395F66B5303BB5D6F1BF9D61A353FA53F73F8AC9973FA9F6 CALLVALUE PUSH1 0x3 PUSH0 PUSH32 0x0 PUSH20 0xFFFFFFFFFFFFFFFFFFFFFFFFFFFFFFFFFFFFFFFF AND PUSH20 0xFFFFFFFFFFFFFFFFFFFFFFFFFFFFFFFFFFFFFFFF AND DUP2 MSTORE PUSH1 0x20 ADD SWAP1 DUP2 MSTORE PUSH1 0x20 ADD PUSH0 KECCAK256 PUSH0 CALLER PUSH20 0xFFFFFFFFFFFFFFFFFFFFFFFFFFFFFFFFFFFFFFFF AND PUSH20 0xFFFFFFFFFFFFFFFFFFFFFFFFFFFFFFFFFFFFFFFF AND DUP2 MSTORE PUSH1 0x20 ADD SWAP1 DUP2 MSTORE PUSH1 0x20 ADD PUSH0 KECCAK256 SLOAD DUP7 PUSH1 0x40 MLOAD PUSH2 0xD5C SWAP4 SWAP3 SWAP2 SWAP1 PUSH2 0x358B JUMP JUMPDEST PUSH1 0x40 MLOAD DUP1 SWAP2 SUB SWAP1 LOG3 POP POP POP POP POP PUSH2 0xD71 PUSH2 0x24F9 JUMP JUMPDEST POP JUMP JUMPDEST PUSH2 0xD7C PUSH2 0x24B3 JUMP JUMPDEST DUP2 PUSH0 DUP2 SUB PUSH2 0xDB6 JUMPI PUSH1 0x40 MLOAD PUSH32 0x1F2A200500000000000000000000000000000000000000000000000000000000 DUP2 MSTORE PUSH1 0x4 ADD PUSH1 0x40 MLOAD DUP1 SWAP2 SUB SWAP1 REVERT JUMPDEST PUSH0 PUSH20 0xFFFFFFFFFFFFFFFFFFFFFFFFFFFFFFFFFFFFFFFF AND DUP5 PUSH20 0xFFFFFFFFFFFFFFFFFFFFFFFFFFFFFFFFFFFFFFFF AND SUB PUSH2 0xE26 JUMPI DUP4 PUSH1 0x40 MLOAD PUSH32 0xBF16AAB600000000000000000000000000000000000000000000000000000000 DUP2 MSTORE PUSH1 0x4 ADD PUSH2 0xE1D SWAP2 SWAP1 PUSH2 0x2E9E JUMP JUMPDEST PUSH1 0x40 MLOAD DUP1 SWAP2 SUB SWAP1 REVERT JUMPDEST PUSH32 0x0 PUSH20 0xFFFFFFFFFFFFFFFFFFFFFFFFFFFFFFFFFFFFFFFF AND DUP5 PUSH20 0xFFFFFFFFFFFFFFFFFFFFFFFFFFFFFFFFFFFFFFFF AND SUB PUSH2 0xEB6 JUMPI DUP4 PUSH1 0x40 MLOAD PUSH32 0xBF16AAB600000000000000000000000000000000000000000000000000000000 DUP2 MSTORE PUSH1 0x4 ADD PUSH2 0xEAD SWAP2 SWAP1 PUSH2 0x2E9E JUMP JUMPDEST PUSH1 0x40 MLOAD DUP1 SWAP2 SUB SWAP1 REVERT JUMPDEST PUSH0 PUSH32 0x0 PUSH20 0xFFFFFFFFFFFFFFFFFFFFFFFFFFFFFFFFFFFFFFFF AND PUSH4 0xE6A43905 DUP7 PUSH32 0x0 PUSH1 0x40 MLOAD DUP4 PUSH4 0xFFFFFFFF AND PUSH1 0xE0 SHL DUP2 MSTORE PUSH1 0x4 ADD PUSH2 0xF32 SWAP3 SWAP2 SWAP1 PUSH2 0x35C0 JUMP JUMPDEST PUSH1 0x20 PUSH1 0x40 MLOAD DUP1 DUP4 SUB DUP2 DUP7 GAS STATICCALL ISZERO DUP1 ISZERO PUSH2 0xF4D JUMPI RETURNDATASIZE PUSH0 DUP1 RETURNDATACOPY RETURNDATASIZE PUSH0 REVERT JUMPDEST POP POP POP POP PUSH1 0x40 MLOAD RETURNDATASIZE PUSH1 0x1F NOT PUSH1 0x1F DUP3 ADD AND DUP3 ADD DUP1 PUSH1 0x40 MSTORE POP DUP2 ADD SWAP1 PUSH2 0xF71 SWAP2 SWAP1 PUSH2 0x31CF JUMP JUMPDEST SWAP1 POP PUSH0 PUSH20 0xFFFFFFFFFFFFFFFFFFFFFFFFFFFFFFFFFFFFFFFF AND DUP2 PUSH20 0xFFFFFFFFFFFFFFFFFFFFFFFFFFFFFFFFFFFFFFFF AND SUB PUSH2 0x1005 JUMPI DUP5 PUSH32 0x0 PUSH1 0x40 MLOAD PUSH32 0x6DE2B62500000000000000000000000000000000000000000000000000000000 DUP2 MSTORE PUSH1 0x4 ADD PUSH2 0xFFC SWAP3 SWAP2 SWAP1 PUSH2 0x35C0 JUMP JUMPDEST PUSH1 0x40 MLOAD DUP1 SWAP2 SUB SWAP1 REVERT JUMPDEST PUSH2 0x1032 CALLER ADDRESS DUP7 DUP9 PUSH20 0xFFFFFFFFFFFFFFFFFFFFFFFFFFFFFFFFFFFFFFFF AND PUSH2 0x2502 SWAP1 SWAP4 SWAP3 SWAP2 SWAP1 PUSH4 0xFFFFFFFF AND JUMP JUMPDEST PUSH2 0x107D PUSH32 0x0 DUP6 DUP8 PUSH20 0xFFFFFFFFFFFFFFFFFFFFFFFFFFFFFFFFFFFFFFFF AND PUSH2 0x2584 SWAP1 SWAP3 SWAP2 SWAP1 PUSH4 0xFFFFFFFF AND JUMP JUMPDEST PUSH0 PUSH1 0x2 PUSH8 0xFFFFFFFFFFFFFFFF DUP2 GT ISZERO PUSH2 0x1099 JUMPI PUSH2 0x1098 PUSH2 0x318E JUMP JUMPDEST JUMPDEST PUSH1 0x40 MLOAD SWAP1 DUP1 DUP3 MSTORE DUP1 PUSH1 0x20 MUL PUSH1 0x20 ADD DUP3 ADD PUSH1 0x40 MSTORE DUP1 ISZERO PUSH2 0x10C7 JUMPI DUP2 PUSH1 0x20 ADD PUSH1 0x20 DUP3 MUL DUP1 CALLDATASIZE DUP4 CALLDATACOPY DUP1 DUP3 ADD SWAP2 POP POP SWAP1 POP JUMPDEST POP SWAP1 POP DUP6 DUP2 PUSH0 DUP2 MLOAD DUP2 LT PUSH2 0x10DE JUMPI PUSH2 0x10DD PUSH2 0x31FA JUMP JUMPDEST JUMPDEST PUSH1 0x20 MUL PUSH1 0x20 ADD ADD SWAP1 PUSH20 0xFFFFFFFFFFFFFFFFFFFFFFFFFFFFFFFFFFFFFFFF AND SWAP1 DUP2 PUSH20 0xFFFFFFFFFFFFFFFFFFFFFFFFFFFFFFFFFFFFFFFF AND DUP2 MSTORE POP POP PUSH32 0x0 DUP2 PUSH1 0x1 DUP2 MLOAD DUP2 LT PUSH2 0x114D JUMPI PUSH2 0x114C PUSH2 0x31FA JUMP JUMPDEST JUMPDEST PUSH1 0x20 MUL PUSH1 0x20 ADD ADD SWAP1 PUSH20 0xFFFFFFFFFFFFFFFFFFFFFFFFFFFFFFFFFFFFFFFF AND SWAP1 DUP2 PUSH20 0xFFFFFFFFFFFFFFFFFFFFFFFFFFFFFFFFFFFFFFFF AND DUP2 MSTORE POP POP PUSH0 PUSH32 0x0 PUSH20 0xFFFFFFFFFFFFFFFFFFFFFFFFFFFFFFFFFFFFFFFF AND PUSH4 0x70A08231 ADDRESS PUSH1 0x40 MLOAD DUP3 PUSH4 0xFFFFFFFF AND PUSH1 0xE0 SHL DUP2 MSTORE PUSH1 0x4 ADD PUSH2 0x11E1 SWAP2 SWAP1 PUSH2 0x2E9E JUMP JUMPDEST PUSH1 0x20 PUSH1 0x40 MLOAD DUP1 DUP4 SUB DUP2 DUP7 GAS STATICCALL ISZERO DUP1 ISZERO PUSH2 0x11FC JUMPI RETURNDATASIZE PUSH0 DUP1 RETURNDATACOPY RETURNDATASIZE PUSH0 REVERT JUMPDEST POP POP POP POP PUSH1 0x40 MLOAD RETURNDATASIZE PUSH1 0x1F NOT PUSH1 0x1F DUP3 ADD AND DUP3 ADD DUP1 PUSH1 0x40 MSTORE POP DUP2 ADD SWAP1 PUSH2 0x1220 SWAP2 SWAP1 PUSH2 0x323B JUMP JUMPDEST SWAP1 POP PUSH32 0x0 PUSH20 0xFFFFFFFFFFFFFFFFFFFFFFFFFFFFFFFFFFFFFFFF AND PUSH4 0x38ED1739 DUP8 DUP8 DUP6 ADDRESS TIMESTAMP PUSH1 0x40 MLOAD DUP7 PUSH4 0xFFFFFFFF AND PUSH1 0xE0 SHL DUP2 MSTORE PUSH1 0x4 ADD PUSH2 0x1283 SWAP6 SWAP5 SWAP4 SWAP3 SWAP2 SWAP1 PUSH2 0x35E7 JUMP JUMPDEST PUSH0 PUSH1 0x40 MLOAD DUP1 DUP4 SUB DUP2 PUSH0 DUP8 GAS CALL ISZERO DUP1 ISZERO PUSH2 0x129E JUMPI RETURNDATASIZE PUSH0 DUP1 RETURNDATACOPY RETURNDATASIZE PUSH0 REVERT JUMPDEST POP POP POP POP PUSH1 0x40 MLOAD RETURNDATASIZE PUSH0 DUP3 RETURNDATACOPY RETURNDATASIZE PUSH1 0x1F NOT PUSH1 0x1F DUP3 ADD AND DUP3 ADD DUP1 PUSH1 0x40 MSTORE POP DUP2 ADD SWAP1 PUSH2 0x12C6 SWAP2 SWAP1 PUSH2 0x348A JUMP JUMPDEST POP PUSH0 PUSH32 0x0 PUSH20 0xFFFFFFFFFFFFFFFFFFFFFFFFFFFFFFFFFFFFFFFF AND PUSH4 0x70A08231 ADDRESS PUSH1 0x40 MLOAD DUP3 PUSH4 0xFFFFFFFF AND PUSH1 0xE0 SHL DUP2 MSTORE PUSH1 0x4 ADD PUSH2 0x1321 SWAP2 SWAP1 PUSH2 0x2E9E JUMP JUMPDEST PUSH1 0x20 PUSH1 0x40 MLOAD DUP1 DUP4 SUB DUP2 DUP7 GAS STATICCALL ISZERO DUP1 ISZERO PUSH2 0x133C JUMPI RETURNDATASIZE PUSH0 DUP1 RETURNDATACOPY RETURNDATASIZE PUSH0 REVERT JUMPDEST POP POP POP POP PUSH1 0x40 MLOAD RETURNDATASIZE PUSH1 0x1F NOT PUSH1 0x1F DUP3 ADD AND DUP3 ADD DUP1 PUSH1 0x40 MSTORE POP DUP2 ADD SWAP1 PUSH2 0x1360 SWAP2 SWAP1 PUSH2 0x323B JUMP JUMPDEST SWAP1 POP PUSH0 DUP3 DUP3 PUSH2 0x136F SWAP2 SWAP1 PUSH2 0x34FE JUMP JUMPDEST SWAP1 POP PUSH0 DUP2 PUSH1 0x2 SLOAD PUSH2 0x1380 SWAP2 SWAP1 PUSH2 0x3531 JUMP JUMPDEST SWAP1 POP PUSH32 0x0 DUP2 GT ISZERO PUSH2 0x1409 JUMPI DUP1 PUSH32 0x0 PUSH1 0x40 MLOAD PUSH32 0xF480E28500000000000000000000000000000000000000000000000000000000 DUP2 MSTORE PUSH1 0x4 ADD PUSH2 0x1400 SWAP3 SWAP2 SWAP1 PUSH2 0x3564 JUMP JUMPDEST PUSH1 0x40 MLOAD DUP1 SWAP2 SUB SWAP1 REVERT JUMPDEST DUP2 PUSH1 0x3 PUSH0 PUSH32 0x0 PUSH20 0xFFFFFFFFFFFFFFFFFFFFFFFFFFFFFFFFFFFFFFFF AND PUSH20 0xFFFFFFFFFFFFFFFFFFFFFFFFFFFFFFFFFFFFFFFF AND DUP2 MSTORE PUSH1 0x20 ADD SWAP1 DUP2 MSTORE PUSH1 0x20 ADD PUSH0 KECCAK256 PUSH0 CALLER PUSH20 0xFFFFFFFFFFFFFFFFFFFFFFFFFFFFFFFFFFFFFFFF AND PUSH20 0xFFFFFFFFFFFFFFFFFFFFFFFFFFFFFFFFFFFFFFFF AND DUP2 MSTORE PUSH1 0x20 ADD SWAP1 DUP2 MSTORE PUSH1 0x20 ADD PUSH0 KECCAK256 PUSH0 DUP3 DUP3 SLOAD PUSH2 0x14B0 SWAP2 SWAP1 PUSH2 0x3531 JUMP JUMPDEST SWAP3 POP POP DUP2 SWAP1 SSTORE POP DUP1 PUSH1 0x2 DUP2 SWAP1 SSTORE POP PUSH1 0x5 PUSH0 DUP2 SLOAD DUP1 SWAP3 SWAP2 SWAP1 PUSH1 0x1 ADD SWAP2 SWAP1 POP SSTORE POP CALLER PUSH20 0xFFFFFFFFFFFFFFFFFFFFFFFFFFFFFFFFFFFFFFFF AND PUSH32 0x0 PUSH20 0xFFFFFFFFFFFFFFFFFFFFFFFFFFFFFFFFFFFFFFFF AND PUSH32 0x4E2CA0515ED1AEF1395F66B5303BB5D6F1BF9D61A353FA53F73F8AC9973FA9F6 DUP12 PUSH1 0x3 PUSH0 PUSH32 0x0 PUSH20 0xFFFFFFFFFFFFFFFFFFFFFFFFFFFFFFFFFFFFFFFF AND PUSH20 0xFFFFFFFFFFFFFFFFFFFFFFFFFFFFFFFFFFFFFFFF AND DUP2 MSTORE PUSH1 0x20 ADD SWAP1 DUP2 MSTORE PUSH1 0x20 ADD PUSH0 KECCAK256 PUSH0 CALLER PUSH20 0xFFFFFFFFFFFFFFFFFFFFFFFFFFFFFFFFFFFFFFFF AND PUSH20 0xFFFFFFFFFFFFFFFFFFFFFFFFFFFFFFFFFFFFFFFF AND DUP2 MSTORE PUSH1 0x20 ADD SWAP1 DUP2 MSTORE PUSH1 0x20 ADD PUSH0 KECCAK256 SLOAD DUP7 PUSH1 0x40 MLOAD PUSH2 0x15E8 SWAP4 SWAP3 SWAP2 SWAP1 PUSH2 0x358B JUMP JUMPDEST PUSH1 0x40 MLOAD DUP1 SWAP2 SUB SWAP1 LOG3 POP POP POP POP POP POP POP PUSH2 0x15FF PUSH2 0x24F9 JUMP JUMPDEST POP POP POP JUMP JUMPDEST PUSH32 0x0 DUP2 JUMP JUMPDEST PUSH0 DUP1 PUSH0 DUP5 DUP2 MSTORE PUSH1 0x20 ADD SWAP1 DUP2 MSTORE PUSH1 0x20 ADD PUSH0 KECCAK256 PUSH0 ADD PUSH0 DUP4 PUSH20 0xFFFFFFFFFFFFFFFFFFFFFFFFFFFFFFFFFFFFFFFF AND PUSH20 0xFFFFFFFFFFFFFFFFFFFFFFFFFFFFFFFFFFFFFFFF AND DUP2 MSTORE PUSH1 0x20 ADD SWAP1 DUP2 MSTORE PUSH1 0x20 ADD PUSH0 KECCAK256 PUSH0 SWAP1 SLOAD SWAP1 PUSH2 0x100 EXP SWAP1 DIV PUSH1 0xFF AND SWAP1 POP SWAP3 SWAP2 POP POP JUMP JUMPDEST PUSH32 0x2172861495E7B85EDAC73E3CD5FBB42DD675BAADF627720E687BCFDACA025096 PUSH2 0x16B5 DUP2 PUSH2 0x22C6 JUMP JUMPDEST PUSH0 PUSH20 0xFFFFFFFFFFFFFFFFFFFFFFFFFFFFFFFFFFFFFFFF AND DUP7 PUSH20 0xFFFFFFFFFFFFFFFFFFFFFFFFFFFFFFFFFFFFFFFF AND SUB PUSH2 0x1725 JUMPI DUP6 PUSH1 0x40 MLOAD PUSH32 0xBF16AAB600000000000000000000000000000000000000000000000000000000 DUP2 MSTORE PUSH1 0x4 ADD PUSH2 0x171C SWAP2 SWAP1 PUSH2 0x2E9E JUMP JUMPDEST PUSH1 0x40 MLOAD DUP1 SWAP2 SUB SWAP1 REVERT JUMPDEST PUSH0 PUSH1 0x4 PUSH0 DUP9 PUSH20 0xFFFFFFFFFFFFFFFFFFFFFFFFFFFFFFFFFFFFFFFF AND PUSH20 0xFFFFFFFFFFFFFFFFFFFFFFFFFFFFFFFFFFFFFFFF AND DUP2 MSTORE PUSH1 0x20 ADD SWAP1 DUP2 MSTORE PUSH1 0x20 ADD PUSH0 KECCAK256 SWAP1 POP DUP6 DUP2 PUSH0 ADD PUSH0 PUSH2 0x100 EXP DUP2 SLOAD DUP2 PUSH1 0xFF MUL NOT AND SWAP1 DUP4 ISZERO ISZERO MUL OR SWAP1 SSTORE POP PUSH0 DUP2 PUSH0 ADD PUSH1 0x1 PUSH2 0x100 EXP DUP2 SLOAD DUP2 PUSH1 0xFF MUL NOT AND SWAP1 DUP4 ISZERO ISZERO MUL OR SWAP1 SSTORE POP PUSH0 DUP6 PUSH1 0xFF AND SUB PUSH2 0x1855 JUMPI DUP7 PUSH20 0xFFFFFFFFFFFFFFFFFFFFFFFFFFFFFFFFFFFFFFFF AND PUSH4 0x313CE567 PUSH1 0x40 MLOAD DUP2 PUSH4 0xFFFFFFFF AND PUSH1 0xE0 SHL DUP2 MSTORE PUSH1 0x4 ADD PUSH1 0x20 PUSH1 0x40 MLOAD DUP1 DUP4 SUB DUP2 DUP7 GAS STATICCALL SWAP3 POP POP POP DUP1 ISZERO PUSH2 0x180C JUMPI POP PUSH1 0x40 MLOAD RETURNDATASIZE PUSH1 0x1F NOT PUSH1 0x1F DUP3 ADD AND DUP3 ADD DUP1 PUSH1 0x40 MSTORE POP DUP2 ADD SWAP1 PUSH2 0x1809 SWAP2 SWAP1 PUSH2 0x3653 JUMP JUMPDEST PUSH1 0x1 JUMPDEST PUSH2 0x1832 JUMPI PUSH1 0x12 DUP2 PUSH0 ADD PUSH1 0x2 PUSH2 0x100 EXP DUP2 SLOAD DUP2 PUSH1 0xFF MUL NOT AND SWAP1 DUP4 PUSH1 0xFF AND MUL OR SWAP1 SSTORE POP PUSH2 0x1850 JUMP JUMPDEST DUP1 DUP3 PUSH0 ADD PUSH1 0x2 PUSH2 0x100 EXP DUP2 SLOAD DUP2 PUSH1 0xFF MUL NOT AND SWAP1 DUP4 PUSH1 0xFF AND MUL OR SWAP1 SSTORE POP POP JUMPDEST PUSH2 0x1872 JUMP JUMPDEST DUP5 DUP2 PUSH0 ADD PUSH1 0x2 PUSH2 0x100 EXP DUP2 SLOAD DUP2 PUSH1 0xFF MUL NOT AND SWAP1 DUP4 PUSH1 0xFF AND MUL OR SWAP1 SSTORE POP JUMPDEST DUP4 DUP2 PUSH1 0x1 ADD DUP2 SWAP1 SSTORE POP DUP3 DUP2 PUSH1 0x2 ADD PUSH0 PUSH2 0x100 EXP DUP2 SLOAD DUP2 PUSH20 0xFFFFFFFFFFFFFFFFFFFFFFFFFFFFFFFFFFFFFFFF MUL NOT AND SWAP1 DUP4 PUSH20 0xFFFFFFFFFFFFFFFFFFFFFFFFFFFFFFFFFFFFFFFF AND MUL OR SWAP1 SSTORE POP DUP7 PUSH20 0xFFFFFFFFFFFFFFFFFFFFFFFFFFFFFFFFFFFFFFFF AND PUSH32 0xCEEC6D18B470B58EABBFC22B7D771C54609ACB2BBE777747424F6E9A5A9D5A25 DUP8 PUSH0 DUP5 PUSH0 ADD PUSH1 0x2 SWAP1 SLOAD SWAP1 PUSH2 0x100 EXP SWAP1 DIV PUSH1 0xFF AND DUP9 DUP9 PUSH1 0x40 MLOAD PUSH2 0x191B SWAP6 SWAP5 SWAP4 SWAP3 SWAP2 SWAP1 PUSH2 0x313D JUMP JUMPDEST PUSH1 0x40 MLOAD DUP1 SWAP2 SUB SWAP1 LOG2 POP POP POP POP POP POP POP JUMP JUMPDEST PUSH0 DUP1 SHL DUP2 JUMP JUMPDEST PUSH32 0x0 DUP2 JUMP JUMPDEST PUSH32 0x2172861495E7B85EDAC73E3CD5FBB42DD675BAADF627720E687BCFDACA025096 DUP2 JUMP JUMPDEST PUSH0 PUSH1 0x3 PUSH0 DUP5 PUSH20 0xFFFFFFFFFFFFFFFFFFFFFFFFFFFFFFFFFFFFFFFF AND PUSH20 0xFFFFFFFFFFFFFFFFFFFFFFFFFFFFFFFFFFFFFFFF AND DUP2 MSTORE PUSH1 0x20 ADD SWAP1 DUP2 MSTORE PUSH1 0x20 ADD PUSH0 KECCAK256 PUSH0 DUP4 PUSH20 0xFFFFFFFFFFFFFFFFFFFFFFFFFFFFFFFFFFFFFFFF AND PUSH20 0xFFFFFFFFFFFFFFFFFFFFFFFFFFFFFFFFFFFFFFFF AND DUP2 MSTORE PUSH1 0x20 ADD SWAP1 DUP2 MSTORE PUSH1 0x20 ADD PUSH0 KECCAK256 SLOAD SWAP1 POP SWAP3 SWAP2 POP POP JUMP JUMPDEST PUSH2 0x1A05 DUP3 PUSH2 0x650 JUMP JUMPDEST PUSH2 0x1A0E DUP2 PUSH2 0x22C6 JUMP JUMPDEST PUSH2 0x1A18 DUP4 DUP4 PUSH2 0x23CA JUMP JUMPDEST POP POP POP POP JUMP JUMPDEST PUSH2 0x1A26 PUSH2 0x24B3 JUMP JUMPDEST DUP1 PUSH0 DUP2 SUB PUSH2 0x1A60 JUMPI PUSH1 0x40 MLOAD PUSH32 0x1F2A200500000000000000000000000000000000000000000000000000000000 DUP2 MSTORE PUSH1 0x4 ADD PUSH1 0x40 MLOAD DUP1 SWAP2 SUB SWAP1 REVERT JUMPDEST PUSH0 PUSH1 0x3 PUSH0 PUSH32 0x0 PUSH20 0xFFFFFFFFFFFFFFFFFFFFFFFFFFFFFFFFFFFFFFFF AND PUSH20 0xFFFFFFFFFFFFFFFFFFFFFFFFFFFFFFFFFFFFFFFF AND DUP2 MSTORE PUSH1 0x20 ADD SWAP1 DUP2 MSTORE PUSH1 0x20 ADD PUSH0 KECCAK256 PUSH0 CALLER PUSH20 0xFFFFFFFFFFFFFFFFFFFFFFFFFFFFFFFFFFFFFFFF AND PUSH20 0xFFFFFFFFFFFFFFFFFFFFFFFFFFFFFFFFFFFFFFFF AND DUP2 MSTORE PUSH1 0x20 ADD SWAP1 DUP2 MSTORE PUSH1 0x20 ADD PUSH0 KECCAK256 SLOAD SWAP1 POP DUP3 DUP2 LT ISZERO PUSH2 0x1B43 JUMPI DUP1 DUP4 PUSH1 0x40 MLOAD PUSH32 0xCF47918100000000000000000000000000000000000000000000000000000000 DUP2 MSTORE PUSH1 0x4 ADD PUSH2 0x1B3A SWAP3 SWAP2 SWAP1 PUSH2 0x3564 JUMP JUMPDEST PUSH1 0x40 MLOAD DUP1 SWAP2 SUB SWAP1 REVERT JUMPDEST DUP3 DUP2 PUSH2 0x1B4F SWAP2 SWAP1 PUSH2 0x34FE JUMP JUMPDEST PUSH1 0x3 PUSH0 PUSH32 0x0 PUSH20 0xFFFFFFFFFFFFFFFFFFFFFFFFFFFFFFFFFFFFFFFF AND PUSH20 0xFFFFFFFFFFFFFFFFFFFFFFFFFFFFFFFFFFFFFFFF AND DUP2 MSTORE PUSH1 0x20 ADD SWAP1 DUP2 MSTORE PUSH1 0x20 ADD PUSH0 KECCAK256 PUSH0 CALLER PUSH20 0xFFFFFFFFFFFFFFFFFFFFFFFFFFFFFFFFFFFFFFFF AND PUSH20 0xFFFFFFFFFFFFFFFFFFFFFFFFFFFFFFFFFFFFFFFF AND DUP2 MSTORE PUSH1 0x20 ADD SWAP1 DUP2 MSTORE PUSH1 0x20 ADD PUSH0 KECCAK256 DUP2 SWAP1 SSTORE POP DUP3 PUSH1 0x2 SLOAD LT PUSH2 0x1C08 JUMPI DUP3 PUSH1 0x2 PUSH0 DUP3 DUP3 SLOAD SUB SWAP3 POP POP DUP2 SWAP1 SSTORE POP PUSH2 0x1C10 JUMP JUMPDEST PUSH0 PUSH1 0x2 DUP2 SWAP1 SSTORE POP JUMPDEST PUSH1 0x6 PUSH0 DUP2 SLOAD DUP1 SWAP3 SWAP2 SWAP1 PUSH1 0x1 ADD SWAP2 SWAP1 POP SSTORE POP PUSH2 0x1C6C CALLER DUP5 PUSH32 0x0 PUSH20 0xFFFFFFFFFFFFFFFFFFFFFFFFFFFFFFFFFFFFFFFF AND PUSH2 0x261D SWAP1 SWAP3 SWAP2 SWAP1 PUSH4 0xFFFFFFFF AND JUMP JUMPDEST CALLER PUSH20 0xFFFFFFFFFFFFFFFFFFFFFFFFFFFFFFFFFFFFFFFF AND PUSH32 0x0 PUSH20 0xFFFFFFFFFFFFFFFFFFFFFFFFFFFFFFFFFFFFFFFF AND PUSH32 0xF341246ADAAC6F497BC2A656F546AB9E182111D630394F0C57C710A59A2CB567 DUP6 PUSH1 0x3 PUSH0 PUSH32 0x0 PUSH20 0xFFFFFFFFFFFFFFFFFFFFFFFFFFFFFFFFFFFFFFFF AND PUSH20 0xFFFFFFFFFFFFFFFFFFFFFFFFFFFFFFFFFFFFFFFF AND DUP2 MSTORE PUSH1 0x20 ADD SWAP1 DUP2 MSTORE PUSH1 0x20 ADD PUSH0 KECCAK256 PUSH0 CALLER PUSH20 0xFFFFFFFFFFFFFFFFFFFFFFFFFFFFFFFFFFFFFFFF AND PUSH20 0xFFFFFFFFFFFFFFFFFFFFFFFFFFFFFFFFFFFFFFFF AND DUP2 MSTORE PUSH1 0x20 ADD SWAP1 DUP2 MSTORE PUSH1 0x20 ADD PUSH0 KECCAK256 SLOAD PUSH1 0x40 MLOAD PUSH2 0x1D83 SWAP3 SWAP2 SWAP1 PUSH2 0x3564 JUMP JUMPDEST PUSH1 0x40 MLOAD DUP1 SWAP2 SUB SWAP1 LOG3 POP POP PUSH2 0x1D95 PUSH2 0x24F9 JUMP JUMPDEST POP JUMP JUMPDEST PUSH0 DUP1 PUSH1 0x3 PUSH0 DUP6 PUSH20 0xFFFFFFFFFFFFFFFFFFFFFFFFFFFFFFFFFFFFFFFF AND PUSH20 0xFFFFFFFFFFFFFFFFFFFFFFFFFFFFFFFFFFFFFFFF AND DUP2 MSTORE PUSH1 0x20 ADD SWAP1 DUP2 MSTORE PUSH1 0x20 ADD PUSH0 KECCAK256 PUSH0 DUP5 PUSH20 0xFFFFFFFFFFFFFFFFFFFFFFFFFFFFFFFFFFFFFFFF AND PUSH20 0xFFFFFFFFFFFFFFFFFFFFFFFFFFFFFFFFFFFFFFFF AND DUP2 MSTORE PUSH1 0x20 ADD SWAP1 DUP2 MSTORE PUSH1 0x20 ADD PUSH0 KECCAK256 SLOAD SWAP1 POP PUSH32 0x0 PUSH20 0xFFFFFFFFFFFFFFFFFFFFFFFFFFFFFFFFFFFFFFFF AND DUP5 PUSH20 0xFFFFFFFFFFFFFFFFFFFFFFFFFFFFFFFFFFFFFFFF AND SUB PUSH2 0x1E71 JUMPI DUP1 SWAP2 POP POP PUSH2 0x1E7F JUMP JUMPDEST PUSH2 0x1E7B DUP5 DUP3 PUSH2 0x269C JUMP JUMPDEST SWAP2 POP POP JUMPDEST SWAP3 SWAP2 POP POP JUMP JUMPDEST PUSH2 0x1E8D PUSH2 0x24B3 JUMP JUMPDEST DUP1 PUSH0 DUP2 SUB PUSH2 0x1EC7 JUMPI PUSH1 0x40 MLOAD PUSH32 0x1F2A200500000000000000000000000000000000000000000000000000000000 DUP2 MSTORE PUSH1 0x4 ADD PUSH1 0x40 MLOAD DUP1 SWAP2 SUB SWAP1 REVERT JUMPDEST PUSH0 DUP3 PUSH1 0x2 SLOAD PUSH2 0x1ED6 SWAP2 SWAP1 PUSH2 0x3531 JUMP JUMPDEST SWAP1 POP PUSH32 0x0 DUP2 GT ISZERO PUSH2 0x1F5F JUMPI DUP1 PUSH32 0x0 PUSH1 0x40 MLOAD PUSH32 0xF480E28500000000000000000000000000000000000000000000000000000000 DUP2 MSTORE PUSH1 0x4 ADD PUSH2 0x1F56 SWAP3 SWAP2 SWAP1 PUSH2 0x3564 JUMP JUMPDEST PUSH1 0x40 MLOAD DUP1 SWAP2 SUB SWAP1 REVERT JUMPDEST DUP3 PUSH1 0x3 PUSH0 PUSH32 0x0 PUSH20 0xFFFFFFFFFFFFFFFFFFFFFFFFFFFFFFFFFFFFFFFF AND PUSH20 0xFFFFFFFFFFFFFFFFFFFFFFFFFFFFFFFFFFFFFFFF AND DUP2 MSTORE PUSH1 0x20 ADD SWAP1 DUP2 MSTORE PUSH1 0x20 ADD PUSH0 KECCAK256 PUSH0 CALLER PUSH20 0xFFFFFFFFFFFFFFFFFFFFFFFFFFFFFFFFFFFFFFFF AND PUSH20 0xFFFFFFFFFFFFFFFFFFFFFFFFFFFFFFFFFFFFFFFF AND DUP2 MSTORE PUSH1 0x20 ADD SWAP1 DUP2 MSTORE PUSH1 0x20 ADD PUSH0 KECCAK256 PUSH0 DUP3 DUP3 SLOAD PUSH2 0x2006 SWAP2 SWAP1 PUSH2 0x3531 JUMP JUMPDEST SWAP3 POP POP DUP2 SWAP1 SSTORE POP DUP1 PUSH1 0x2 DUP2 SWAP1 SSTORE POP PUSH1 0x5 PUSH0 DUP2 SLOAD DUP1 SWAP3 SWAP2 SWAP1 PUSH1 0x1 ADD SWAP2 SWAP1 POP SSTORE POP PUSH2 0x2072 CALLER ADDRESS DUP6 PUSH32 0x0 PUSH20 0xFFFFFFFFFFFFFFFFFFFFFFFFFFFFFFFFFFFFFFFF AND PUSH2 0x2502 SWAP1 SWAP4 SWAP3 SWAP2 SWAP1 PUSH4 0xFFFFFFFF AND JUMP JUMPDEST CALLER PUSH20 0xFFFFFFFFFFFFFFFFFFFFFFFFFFFFFFFFFFFFFFFF AND PUSH32 0x0 PUSH20 0xFFFFFFFFFFFFFFFFFFFFFFFFFFFFFFFFFFFFFFFF AND PUSH32 0x4E2CA0515ED1AEF1395F66B5303BB5D6F1BF9D61A353FA53F73F8AC9973FA9F6 DUP6 PUSH1 0x3 PUSH0 PUSH32 0x0 PUSH20 0xFFFFFFFFFFFFFFFFFFFFFFFFFFFFFFFFFFFFFFFF AND PUSH20 0xFFFFFFFFFFFFFFFFFFFFFFFFFFFFFFFFFFFFFFFF AND DUP2 MSTORE PUSH1 0x20 ADD SWAP1 DUP2 MSTORE PUSH1 0x20 ADD PUSH0 KECCAK256 PUSH0 CALLER PUSH20 0xFFFFFFFFFFFFFFFFFFFFFFFFFFFFFFFFFFFFFFFF AND PUSH20 0xFFFFFFFFFFFFFFFFFFFFFFFFFFFFFFFFFFFFFFFF AND DUP2 MSTORE PUSH1 0x20 ADD SWAP1 DUP2 MSTORE PUSH1 0x20 ADD PUSH0 KECCAK256 SLOAD DUP8 PUSH1 0x40 MLOAD PUSH2 0x218B SWAP4 SWAP3 SWAP2 SWAP1 PUSH2 0x358B JUMP JUMPDEST PUSH1 0x40 MLOAD DUP1 SWAP2 SUB SWAP1 LOG3 POP POP PUSH2 0x219D PUSH2 0x24F9 JUMP JUMPDEST POP JUMP JUMPDEST PUSH32 0x0 DUP2 JUMP JUMPDEST PUSH32 0x0 DUP2 JUMP JUMPDEST PUSH1 0x4 PUSH1 0x20 MSTORE DUP1 PUSH0 MSTORE PUSH1 0x40 PUSH0 KECCAK256 PUSH0 SWAP2 POP SWAP1 POP DUP1 PUSH0 ADD PUSH0 SWAP1 SLOAD SWAP1 PUSH2 0x100 EXP SWAP1 DIV PUSH1 0xFF AND SWAP1 DUP1 PUSH0 ADD PUSH1 0x1 SWAP1 SLOAD SWAP1 PUSH2 0x100 EXP SWAP1 DIV PUSH1 0xFF AND SWAP1 DUP1 PUSH0 ADD PUSH1 0x2 SWAP1 SLOAD SWAP1 PUSH2 0x100 EXP SWAP1 DIV PUSH1 0xFF AND SWAP1 DUP1 PUSH1 0x1 ADD SLOAD SWAP1 DUP1 PUSH1 0x2 ADD PUSH0 SWAP1 SLOAD SWAP1 PUSH2 0x100 EXP SWAP1 DIV PUSH20 0xFFFFFFFFFFFFFFFFFFFFFFFFFFFFFFFFFFFFFFFF AND SWAP1 POP DUP6 JUMP JUMPDEST PUSH0 PUSH32 0x1FFC9A700000000000000000000000000000000000000000000000000000000 PUSH28 0xFFFFFFFFFFFFFFFFFFFFFFFFFFFFFFFFFFFFFFFFFFFFFFFFFFFFFFFF NOT AND DUP3 PUSH28 0xFFFFFFFFFFFFFFFFFFFFFFFFFFFFFFFFFFFFFFFFFFFFFFFFFFFFFFFF NOT AND EQ SWAP1 POP SWAP2 SWAP1 POP JUMP JUMPDEST PUSH2 0x22D7 DUP2 PUSH2 0x22D2 PUSH2 0x23C3 JUMP JUMPDEST PUSH2 0x29F6 JUMP JUMPDEST POP JUMP JUMPDEST PUSH0 PUSH2 0x22E5 DUP4 DUP4 PUSH2 0x1628 JUMP JUMPDEST PUSH2 0x23B9 JUMPI PUSH1 0x1 PUSH0 DUP1 DUP6 DUP2 MSTORE PUSH1 0x20 ADD SWAP1 DUP2 MSTORE PUSH1 0x20 ADD PUSH0 KECCAK256 PUSH0 ADD PUSH0 DUP5 PUSH20 0xFFFFFFFFFFFFFFFFFFFFFFFFFFFFFFFFFFFFFFFF AND PUSH20 0xFFFFFFFFFFFFFFFFFFFFFFFFFFFFFFFFFFFFFFFF AND DUP2 MSTORE PUSH1 0x20 ADD SWAP1 DUP2 MSTORE PUSH1 0x20 ADD PUSH0 KECCAK256 PUSH0 PUSH2 0x100 EXP DUP2 SLOAD DUP2 PUSH1 0xFF MUL NOT AND SWAP1 DUP4 ISZERO ISZERO MUL OR SWAP1 SSTORE POP PUSH2 0x2356 PUSH2 0x23C3 JUMP JUMPDEST PUSH20 0xFFFFFFFFFFFFFFFFFFFFFFFFFFFFFFFFFFFFFFFF AND DUP3 PUSH20 0xFFFFFFFFFFFFFFFFFFFFFFFFFFFFFFFFFFFFFFFF AND DUP5 PUSH32 0x2F8788117E7EFF1D82E926EC794901D17C78024A50270940304540A733656F0D PUSH1 0x40 MLOAD PUSH1 0x40 MLOAD DUP1 SWAP2 SUB SWAP1 LOG4 PUSH1 0x1 SWAP1 POP PUSH2 0x23BD JUMP JUMPDEST PUSH0 SWAP1 POP JUMPDEST SWAP3 SWAP2 POP POP JUMP JUMPDEST PUSH0 CALLER SWAP1 POP SWAP1 JUMP JUMPDEST PUSH0 PUSH2 0x23D5 DUP4 DUP4 PUSH2 0x1628 JUMP JUMPDEST ISZERO PUSH2 0x24A9 JUMPI PUSH0 DUP1 PUSH0 DUP6 DUP2 MSTORE PUSH1 0x20 ADD SWAP1 DUP2 MSTORE PUSH1 0x20 ADD PUSH0 KECCAK256 PUSH0 ADD PUSH0 DUP5 PUSH20 0xFFFFFFFFFFFFFFFFFFFFFFFFFFFFFFFFFFFFFFFF AND PUSH20 0xFFFFFFFFFFFFFFFFFFFFFFFFFFFFFFFFFFFFFFFF AND DUP2 MSTORE PUSH1 0x20 ADD SWAP1 DUP2 MSTORE PUSH1 0x20 ADD PUSH0 KECCAK256 PUSH0 PUSH2 0x100 EXP DUP2 SLOAD DUP2 PUSH1 0xFF MUL NOT AND SWAP1 DUP4 ISZERO ISZERO MUL OR SWAP1 SSTORE POP PUSH2 0x2446 PUSH2 0x23C3 JUMP JUMPDEST PUSH20 0xFFFFFFFFFFFFFFFFFFFFFFFFFFFFFFFFFFFFFFFF AND DUP3 PUSH20 0xFFFFFFFFFFFFFFFFFFFFFFFFFFFFFFFFFFFFFFFF AND DUP5 PUSH32 0xF6391F5C32D9C69D2A47EA670B442974B53935D1EDC7FD64EB21E047A839171B PUSH1 0x40 MLOAD PUSH1 0x40 MLOAD DUP1 SWAP2 SUB SWAP1 LOG4 PUSH1 0x1 SWAP1 POP PUSH2 0x24AD JUMP JUMPDEST PUSH0 SWAP1 POP JUMPDEST SWAP3 SWAP2 POP POP JUMP JUMPDEST PUSH1 0x2 PUSH1 0x1 SLOAD SUB PUSH2 0x24EF JUMPI PUSH1 0x40 MLOAD PUSH32 0x3EE5AEB500000000000000000000000000000000000000000000000000000000 DUP2 MSTORE PUSH1 0x4 ADD PUSH1 0x40 MLOAD DUP1 SWAP2 SUB SWAP1 REVERT JUMPDEST PUSH1 0x2 PUSH1 0x1 DUP2 SWAP1 SSTORE POP JUMP JUMPDEST PUSH1 0x1 DUP1 DUP2 SWAP1 SSTORE POP JUMP JUMPDEST PUSH2 0x257E DUP5 DUP6 PUSH20 0xFFFFFFFFFFFFFFFFFFFFFFFFFFFFFFFFFFFFFFFF AND PUSH4 0x23B872DD DUP7 DUP7 DUP7 PUSH1 0x40 MLOAD PUSH1 0x24 ADD PUSH2 0x2537 SWAP4 SWAP3 SWAP2 SWAP1 PUSH2 0x367E JUMP JUMPDEST PUSH1 0x40 MLOAD PUSH1 0x20 DUP2 DUP4 SUB SUB DUP2 MSTORE SWAP1 PUSH1 0x40 MSTORE SWAP2 POP PUSH1 0xE0 SHL PUSH1 0x20 DUP3 ADD DUP1 MLOAD PUSH28 0xFFFFFFFFFFFFFFFFFFFFFFFFFFFFFFFFFFFFFFFFFFFFFFFFFFFFFFFF DUP4 DUP2 DUP4 AND OR DUP4 MSTORE POP POP POP POP PUSH2 0x2A47 JUMP JUMPDEST POP POP POP POP JUMP JUMPDEST PUSH0 DUP4 PUSH20 0xFFFFFFFFFFFFFFFFFFFFFFFFFFFFFFFFFFFFFFFF AND PUSH4 0xDD62ED3E ADDRESS DUP6 PUSH1 0x40 MLOAD DUP4 PUSH4 0xFFFFFFFF AND PUSH1 0xE0 SHL DUP2 MSTORE PUSH1 0x4 ADD PUSH2 0x25C0 SWAP3 SWAP2 SWAP1 PUSH2 0x35C0 JUMP JUMPDEST PUSH1 0x20 PUSH1 0x40 MLOAD DUP1 DUP4 SUB DUP2 DUP7 GAS STATICCALL ISZERO DUP1 ISZERO PUSH2 0x25DB JUMPI RETURNDATASIZE PUSH0 DUP1 RETURNDATACOPY RETURNDATASIZE PUSH0 REVERT JUMPDEST POP POP POP POP PUSH1 0x40 MLOAD RETURNDATASIZE PUSH1 0x1F NOT PUSH1 0x1F DUP3 ADD AND DUP3 ADD DUP1 PUSH1 0x40 MSTORE POP DUP2 ADD SWAP1 PUSH2 0x25FF SWAP2 SWAP1 PUSH2 0x323B JUMP JUMPDEST SWAP1 POP PUSH2 0x2617 DUP5 DUP5 DUP5 DUP5 PUSH2 0x2612 SWAP2 SWAP1 PUSH2 0x3531 JUMP JUMPDEST PUSH2 0x2AE2 JUMP JUMPDEST POP POP POP POP JUMP JUMPDEST PUSH2 0x2697 DUP4 DUP5 PUSH20 0xFFFFFFFFFFFFFFFFFFFFFFFFFFFFFFFFFFFFFFFF AND PUSH4 0xA9059CBB DUP6 DUP6 PUSH1 0x40 MLOAD PUSH1 0x24 ADD PUSH2 0x2650 SWAP3 SWAP2 SWAP1 PUSH2 0x36B3 JUMP JUMPDEST PUSH1 0x40 MLOAD PUSH1 0x20 DUP2 DUP4 SUB SUB DUP2 MSTORE SWAP1 PUSH1 0x40 MSTORE SWAP2 POP PUSH1 0xE0 SHL PUSH1 0x20 DUP3 ADD DUP1 MLOAD PUSH28 0xFFFFFFFFFFFFFFFFFFFFFFFFFFFFFFFFFFFFFFFFFFFFFFFFFFFFFFFF DUP4 DUP2 DUP4 AND OR DUP4 MSTORE POP POP POP POP PUSH2 0x2A47 JUMP JUMPDEST POP POP POP JUMP JUMPDEST PUSH0 DUP1 DUP3 SUB PUSH2 0x26AC JUMPI PUSH0 SWAP1 POP PUSH2 0x29F0 JUMP JUMPDEST PUSH0 PUSH1 0x4 PUSH0 DUP6 PUSH20 0xFFFFFFFFFFFFFFFFFFFFFFFFFFFFFFFFFFFFFFFF AND PUSH20 0xFFFFFFFFFFFFFFFFFFFFFFFFFFFFFFFFFFFFFFFF AND DUP2 MSTORE PUSH1 0x20 ADD SWAP1 DUP2 MSTORE PUSH1 0x20 ADD PUSH0 KECCAK256 PUSH1 0x40 MLOAD DUP1 PUSH1 0xA0 ADD PUSH1 0x40 MSTORE SWAP1 DUP2 PUSH0 DUP3 ADD PUSH0 SWAP1 SLOAD SWAP1 PUSH2 0x100 EXP SWAP1 DIV PUSH1 0xFF AND ISZERO ISZERO ISZERO ISZERO DUP2 MSTORE PUSH1 0x20 ADD PUSH0 DUP3 ADD PUSH1 0x1 SWAP1 SLOAD SWAP1 PUSH2 0x100 EXP SWAP1 DIV PUSH1 0xFF AND ISZERO ISZERO ISZERO ISZERO DUP2 MSTORE PUSH1 0x20 ADD PUSH0 DUP3 ADD PUSH1 0x2 SWAP1 SLOAD SWAP1 PUSH2 0x100 EXP SWAP1 DIV PUSH1 0xFF AND PUSH1 0xFF AND PUSH1 0xFF AND DUP2 MSTORE PUSH1 0x20 ADD PUSH1 0x1 DUP3 ADD SLOAD DUP2 MSTORE PUSH1 0x20 ADD PUSH1 0x2 DUP3 ADD PUSH0 SWAP1 SLOAD SWAP1 PUSH2 0x100 EXP SWAP1 DIV PUSH20 0xFFFFFFFFFFFFFFFFFFFFFFFFFFFFFFFFFFFFFFFF AND PUSH20 0xFFFFFFFFFFFFFFFFFFFFFFFFFFFFFFFFFFFFFFFF AND PUSH20 0xFFFFFFFFFFFFFFFFFFFFFFFFFFFFFFFFFFFFFFFF AND DUP2 MSTORE POP POP SWAP1 POP PUSH0 DUP2 PUSH1 0x80 ADD MLOAD SWAP1 POP PUSH0 PUSH20 0xFFFFFFFFFFFFFFFFFFFFFFFFFFFFFFFFFFFFFFFF AND DUP2 PUSH20 0xFFFFFFFFFFFFFFFFFFFFFFFFFFFFFFFFFFFFFFFF AND SUB PUSH2 0x281D JUMPI DUP5 PUSH1 0x40 MLOAD PUSH32 0x8A7A791D00000000000000000000000000000000000000000000000000000000 DUP2 MSTORE PUSH1 0x4 ADD PUSH2 0x2814 SWAP2 SWAP1 PUSH2 0x2E9E JUMP JUMPDEST PUSH1 0x40 MLOAD DUP1 SWAP2 SUB SWAP1 REVERT JUMPDEST PUSH0 DUP2 PUSH20 0xFFFFFFFFFFFFFFFFFFFFFFFFFFFFFFFFFFFFFFFF AND PUSH4 0xFEAF968C PUSH1 0x40 MLOAD DUP2 PUSH4 0xFFFFFFFF AND PUSH1 0xE0 SHL DUP2 MSTORE PUSH1 0x4 ADD PUSH1 0xA0 PUSH1 0x40 MLOAD DUP1 DUP4 SUB DUP2 DUP7 GAS STATICCALL ISZERO DUP1 ISZERO PUSH2 0x2867 JUMPI RETURNDATASIZE PUSH0 DUP1 RETURNDATACOPY RETURNDATASIZE PUSH0 REVERT JUMPDEST POP POP POP POP PUSH1 0x40 MLOAD RETURNDATASIZE PUSH1 0x1F NOT PUSH1 0x1F DUP3 ADD AND DUP3 ADD DUP1 PUSH1 0x40 MSTORE POP DUP2 ADD SWAP1 PUSH2 0x288B SWAP2 SWAP1 PUSH2 0x374C JUMP JUMPDEST POP POP POP SWAP2 POP POP PUSH0 DUP2 SGT PUSH2 0x28CA JUMPI PUSH1 0x40 MLOAD PUSH32 0x4FD58D4B00000000000000000000000000000000000000000000000000000000 DUP2 MSTORE PUSH1 0x4 ADD PUSH1 0x40 MLOAD DUP1 SWAP2 SUB SWAP1 REVERT JUMPDEST PUSH0 DUP2 SWAP1 POP PUSH0 DUP4 PUSH20 0xFFFFFFFFFFFFFFFFFFFFFFFFFFFFFFFFFFFFFFFF AND PUSH4 0x313CE567 PUSH1 0x40 MLOAD DUP2 PUSH4 0xFFFFFFFF AND PUSH1 0xE0 SHL DUP2 MSTORE PUSH1 0x4 ADD PUSH1 0x20 PUSH1 0x40 MLOAD DUP1 DUP4 SUB DUP2 DUP7 GAS STATICCALL ISZERO DUP1 ISZERO PUSH2 0x2918 JUMPI RETURNDATASIZE PUSH0 DUP1 RETURNDATACOPY RETURNDATASIZE PUSH0 REVERT JUMPDEST POP POP POP POP PUSH1 0x40 MLOAD RETURNDATASIZE PUSH1 0x1F NOT PUSH1 0x1F DUP3 ADD AND DUP3 ADD DUP1 PUSH1 0x40 MSTORE POP DUP2 ADD SWAP1 PUSH2 0x293C SWAP2 SWAP1 PUSH2 0x3653 JUMP JUMPDEST SWAP1 POP PUSH0 DUP3 DUP9 PUSH2 0x294B SWAP2 SWAP1 PUSH2 0x37C3 JUMP JUMPDEST SWAP1 POP PUSH0 DUP3 PUSH1 0xFF AND GT ISZERO PUSH2 0x2973 JUMPI DUP2 PUSH1 0xA PUSH2 0x2965 SWAP2 SWAP1 PUSH2 0x3933 JUMP JUMPDEST DUP2 PUSH2 0x2970 SWAP2 SWAP1 PUSH2 0x39AA JUMP JUMPDEST SWAP1 POP JUMPDEST PUSH1 0x6 PUSH1 0xFF AND DUP7 PUSH1 0x40 ADD MLOAD PUSH1 0xFF AND LT PUSH2 0x29B9 JUMPI PUSH0 PUSH1 0x6 DUP8 PUSH1 0x40 ADD MLOAD PUSH2 0x2997 SWAP2 SWAP1 PUSH2 0x39DA JUMP JUMPDEST PUSH1 0xA PUSH2 0x29A3 SWAP2 SWAP1 PUSH2 0x3933 JUMP JUMPDEST SWAP1 POP DUP1 DUP3 PUSH2 0x29B1 SWAP2 SWAP1 PUSH2 0x39AA JUMP JUMPDEST SWAP8 POP POP PUSH2 0x29E9 JUMP JUMPDEST PUSH0 DUP7 PUSH1 0x40 ADD MLOAD PUSH1 0x6 PUSH2 0x29CB SWAP2 SWAP1 PUSH2 0x39DA JUMP JUMPDEST PUSH1 0xA PUSH2 0x29D7 SWAP2 SWAP1 PUSH2 0x3933 JUMP JUMPDEST SWAP1 POP DUP1 DUP3 PUSH2 0x29E5 SWAP2 SWAP1 PUSH2 0x37C3 JUMP JUMPDEST SWAP8 POP POP JUMPDEST POP POP POP POP POP POP JUMPDEST SWAP3 SWAP2 POP POP JUMP JUMPDEST PUSH2 0x2A00 DUP3 DUP3 PUSH2 0x1628 JUMP JUMPDEST PUSH2 0x2A43 JUMPI DUP1 DUP3 PUSH1 0x40 MLOAD PUSH32 0xE2517D3F00000000000000000000000000000000000000000000000000000000 DUP2 MSTORE PUSH1 0x4 ADD PUSH2 0x2A3A SWAP3 SWAP2 SWAP1 PUSH2 0x3A0E JUMP JUMPDEST PUSH1 0x40 MLOAD DUP1 SWAP2 SUB SWAP1 REVERT JUMPDEST POP POP JUMP JUMPDEST PUSH0 DUP1 PUSH1 0x20 PUSH0 DUP5 MLOAD PUSH1 0x20 DUP7 ADD PUSH0 DUP9 GAS CALL DUP1 PUSH2 0x2A66 JUMPI PUSH1 0x40 MLOAD RETURNDATASIZE PUSH0 DUP3 RETURNDATACOPY RETURNDATASIZE DUP2 REVERT JUMPDEST RETURNDATASIZE SWAP3 POP PUSH0 MLOAD SWAP2 POP POP PUSH0 DUP3 EQ PUSH2 0x2A7F JUMPI PUSH1 0x1 DUP2 EQ ISZERO PUSH2 0x2A9A JUMP JUMPDEST PUSH0 DUP5 PUSH20 0xFFFFFFFFFFFFFFFFFFFFFFFFFFFFFFFFFFFFFFFF AND EXTCODESIZE EQ JUMPDEST ISZERO PUSH2 0x2ADC JUMPI DUP4 PUSH1 0x40 MLOAD PUSH32 0x5274AFE700000000000000000000000000000000000000000000000000000000 DUP2 MSTORE PUSH1 0x4 ADD PUSH2 0x2AD3 SWAP2 SWAP1 PUSH2 0x2E9E JUMP JUMPDEST PUSH1 0x40 MLOAD DUP1 SWAP2 SUB SWAP1 REVERT JUMPDEST POP POP POP POP JUMP JUMPDEST PUSH0 DUP4 PUSH20 0xFFFFFFFFFFFFFFFFFFFFFFFFFFFFFFFFFFFFFFFF AND PUSH4 0x95EA7B3 DUP5 DUP5 PUSH1 0x40 MLOAD PUSH1 0x24 ADD PUSH2 0x2B12 SWAP3 SWAP2 SWAP1 PUSH2 0x36B3 JUMP JUMPDEST PUSH1 0x40 MLOAD PUSH1 0x20 DUP2 DUP4 SUB SUB DUP2 MSTORE SWAP1 PUSH1 0x40 MSTORE SWAP2 POP PUSH1 0xE0 SHL PUSH1 0x20 DUP3 ADD DUP1 MLOAD PUSH28 0xFFFFFFFFFFFFFFFFFFFFFFFFFFFFFFFFFFFFFFFFFFFFFFFFFFFFFFFF DUP4 DUP2 DUP4 AND OR DUP4 MSTORE POP POP POP POP SWAP1 POP PUSH2 0x2B60 DUP5 DUP3 PUSH2 0x2BEF JUMP JUMPDEST PUSH2 0x2BE9 JUMPI PUSH2 0x2BDE DUP5 DUP6 PUSH20 0xFFFFFFFFFFFFFFFFFFFFFFFFFFFFFFFFFFFFFFFF AND PUSH4 0x95EA7B3 DUP7 PUSH0 PUSH1 0x40 MLOAD PUSH1 0x24 ADD PUSH2 0x2B97 SWAP3 SWAP2 SWAP1 PUSH2 0x3A6E JUMP JUMPDEST PUSH1 0x40 MLOAD PUSH1 0x20 DUP2 DUP4 SUB SUB DUP2 MSTORE SWAP1 PUSH1 0x40 MSTORE SWAP2 POP PUSH1 0xE0 SHL PUSH1 0x20 DUP3 ADD DUP1 MLOAD PUSH28 0xFFFFFFFFFFFFFFFFFFFFFFFFFFFFFFFFFFFFFFFFFFFFFFFFFFFFFFFF DUP4 DUP2 DUP4 AND OR DUP4 MSTORE POP POP POP POP PUSH2 0x2A47 JUMP JUMPDEST PUSH2 0x2BE8 DUP5 DUP3 PUSH2 0x2A47 JUMP JUMPDEST JUMPDEST POP POP POP POP JUMP JUMPDEST PUSH0 DUP1 PUSH0 DUP1 PUSH1 0x20 PUSH0 DUP7 MLOAD PUSH1 0x20 DUP9 ADD PUSH0 DUP11 GAS CALL SWAP3 POP RETURNDATASIZE SWAP2 POP PUSH0 MLOAD SWAP1 POP DUP3 DUP1 ISZERO PUSH2 0x2C3D JUMPI POP PUSH0 DUP3 EQ PUSH2 0x2C21 JUMPI PUSH1 0x1 DUP2 EQ PUSH2 0x2C3C JUMP JUMPDEST PUSH0 DUP7 PUSH20 0xFFFFFFFFFFFFFFFFFFFFFFFFFFFFFFFFFFFFFFFF AND EXTCODESIZE GT JUMPDEST JUMPDEST SWAP4 POP POP POP POP SWAP3 SWAP2 POP POP JUMP JUMPDEST PUSH0 PUSH1 0x40 MLOAD SWAP1 POP SWAP1 JUMP JUMPDEST PUSH0 DUP1 REVERT JUMPDEST PUSH0 DUP1 REVERT JUMPDEST PUSH0 PUSH32 0xFFFFFFFF00000000000000000000000000000000000000000000000000000000 DUP3 AND SWAP1 POP SWAP2 SWAP1 POP JUMP JUMPDEST PUSH2 0x2C8D DUP2 PUSH2 0x2C59 JUMP JUMPDEST DUP2 EQ PUSH2 0x2C97 JUMPI PUSH0 DUP1 REVERT JUMPDEST POP JUMP JUMPDEST PUSH0 DUP2 CALLDATALOAD SWAP1 POP PUSH2 0x2CA8 DUP2 PUSH2 0x2C84 JUMP JUMPDEST SWAP3 SWAP2 POP POP JUMP JUMPDEST PUSH0 PUSH1 0x20 DUP3 DUP5 SUB SLT ISZERO PUSH2 0x2CC3 JUMPI PUSH2 0x2CC2 PUSH2 0x2C51 JUMP JUMPDEST JUMPDEST PUSH0 PUSH2 0x2CD0 DUP5 DUP3 DUP6 ADD PUSH2 0x2C9A JUMP JUMPDEST SWAP2 POP POP SWAP3 SWAP2 POP POP JUMP JUMPDEST PUSH0 DUP2 ISZERO ISZERO SWAP1 POP SWAP2 SWAP1 POP JUMP JUMPDEST PUSH2 0x2CED DUP2 PUSH2 0x2CD9 JUMP JUMPDEST DUP3 MSTORE POP POP JUMP JUMPDEST PUSH0 PUSH1 0x20 DUP3 ADD SWAP1 POP PUSH2 0x2D06 PUSH0 DUP4 ADD DUP5 PUSH2 0x2CE4 JUMP JUMPDEST SWAP3 SWAP2 POP POP JUMP JUMPDEST PUSH0 DUP2 SWAP1 POP SWAP2 SWAP1 POP JUMP JUMPDEST PUSH2 0x2D1E DUP2 PUSH2 0x2D0C JUMP JUMPDEST DUP2 EQ PUSH2 0x2D28 JUMPI PUSH0 DUP1 REVERT JUMPDEST POP JUMP JUMPDEST PUSH0 DUP2 CALLDATALOAD SWAP1 POP PUSH2 0x2D39 DUP2 PUSH2 0x2D15 JUMP JUMPDEST SWAP3 SWAP2 POP POP JUMP JUMPDEST PUSH0 PUSH1 0x20 DUP3 DUP5 SUB SLT ISZERO PUSH2 0x2D54 JUMPI PUSH2 0x2D53 PUSH2 0x2C51 JUMP JUMPDEST JUMPDEST PUSH0 PUSH2 0x2D61 DUP5 DUP3 DUP6 ADD PUSH2 0x2D2B JUMP JUMPDEST SWAP2 POP POP SWAP3 SWAP2 POP POP JUMP JUMPDEST PUSH2 0x2D73 DUP2 PUSH2 0x2D0C JUMP JUMPDEST DUP3 MSTORE POP POP JUMP JUMPDEST PUSH0 PUSH1 0x20 DUP3 ADD SWAP1 POP PUSH2 0x2D8C PUSH0 DUP4 ADD DUP5 PUSH2 0x2D6A JUMP JUMPDEST SWAP3 SWAP2 POP POP JUMP JUMPDEST PUSH0 DUP2 SWAP1 POP SWAP2 SWAP1 POP JUMP JUMPDEST PUSH2 0x2DA4 DUP2 PUSH2 0x2D92 JUMP JUMPDEST DUP3 MSTORE POP POP JUMP JUMPDEST PUSH0 PUSH1 0x20 DUP3 ADD SWAP1 POP PUSH2 0x2DBD PUSH0 DUP4 ADD DUP5 PUSH2 0x2D9B JUMP JUMPDEST SWAP3 SWAP2 POP POP JUMP JUMPDEST PUSH0 PUSH20 0xFFFFFFFFFFFFFFFFFFFFFFFFFFFFFFFFFFFFFFFF DUP3 AND SWAP1 POP SWAP2 SWAP1 POP JUMP JUMPDEST PUSH0 PUSH2 0x2DEC DUP3 PUSH2 0x2DC3 JUMP JUMPDEST SWAP1 POP SWAP2 SWAP1 POP JUMP JUMPDEST PUSH2 0x2DFC DUP2 PUSH2 0x2DE2 JUMP JUMPDEST DUP2 EQ PUSH2 0x2E06 JUMPI PUSH0 DUP1 REVERT JUMPDEST POP JUMP JUMPDEST PUSH0 DUP2 CALLDATALOAD SWAP1 POP PUSH2 0x2E17 DUP2 PUSH2 0x2DF3 JUMP JUMPDEST SWAP3 SWAP2 POP POP JUMP JUMPDEST PUSH0 DUP1 PUSH1 0x40 DUP4 DUP6 SUB SLT ISZERO PUSH2 0x2E33 JUMPI PUSH2 0x2E32 PUSH2 0x2C51 JUMP JUMPDEST JUMPDEST PUSH0 PUSH2 0x2E40 DUP6 DUP3 DUP7 ADD PUSH2 0x2D2B JUMP JUMPDEST SWAP3 POP POP PUSH1 0x20 PUSH2 0x2E51 DUP6 DUP3 DUP7 ADD PUSH2 0x2E09 JUMP JUMPDEST SWAP2 POP POP SWAP3 POP SWAP3 SWAP1 POP JUMP JUMPDEST PUSH0 PUSH1 0xFF DUP3 AND SWAP1 POP SWAP2 SWAP1 POP JUMP JUMPDEST PUSH2 0x2E70 DUP2 PUSH2 0x2E5B JUMP JUMPDEST DUP3 MSTORE POP POP JUMP JUMPDEST PUSH0 PUSH1 0x20 DUP3 ADD SWAP1 POP PUSH2 0x2E89 PUSH0 DUP4 ADD DUP5 PUSH2 0x2E67 JUMP JUMPDEST SWAP3 SWAP2 POP POP JUMP JUMPDEST PUSH2 0x2E98 DUP2 PUSH2 0x2DE2 JUMP JUMPDEST DUP3 MSTORE POP POP JUMP JUMPDEST PUSH0 PUSH1 0x20 DUP3 ADD SWAP1 POP PUSH2 0x2EB1 PUSH0 DUP4 ADD DUP5 PUSH2 0x2E8F JUMP JUMPDEST SWAP3 SWAP2 POP POP JUMP JUMPDEST PUSH2 0x2EC0 DUP2 PUSH2 0x2D92 JUMP JUMPDEST DUP2 EQ PUSH2 0x2ECA JUMPI PUSH0 DUP1 REVERT JUMPDEST POP JUMP JUMPDEST PUSH0 DUP2 CALLDATALOAD SWAP1 POP PUSH2 0x2EDB DUP2 PUSH2 0x2EB7 JUMP JUMPDEST SWAP3 SWAP2 POP POP JUMP JUMPDEST PUSH0 PUSH1 0x20 DUP3 DUP5 SUB SLT ISZERO PUSH2 0x2EF6 JUMPI PUSH2 0x2EF5 PUSH2 0x2C51 JUMP JUMPDEST JUMPDEST PUSH0 PUSH2 0x2F03 DUP5 DUP3 DUP6 ADD PUSH2 0x2ECD JUMP JUMPDEST SWAP2 POP POP SWAP3 SWAP2 POP POP JUMP JUMPDEST PUSH0 DUP1 PUSH0 PUSH1 0x60 DUP5 DUP7 SUB SLT ISZERO PUSH2 0x2F23 JUMPI PUSH2 0x2F22 PUSH2 0x2C51 JUMP JUMPDEST JUMPDEST PUSH0 PUSH2 0x2F30 DUP7 DUP3 DUP8 ADD PUSH2 0x2E09 JUMP JUMPDEST SWAP4 POP POP PUSH1 0x20 PUSH2 0x2F41 DUP7 DUP3 DUP8 ADD PUSH2 0x2ECD JUMP JUMPDEST SWAP3 POP POP PUSH1 0x40 PUSH2 0x2F52 DUP7 DUP3 DUP8 ADD PUSH2 0x2ECD JUMP JUMPDEST SWAP2 POP POP SWAP3 POP SWAP3 POP SWAP3 JUMP JUMPDEST PUSH2 0x2F65 DUP2 PUSH2 0x2CD9 JUMP JUMPDEST DUP2 EQ PUSH2 0x2F6F JUMPI PUSH0 DUP1 REVERT JUMPDEST POP JUMP JUMPDEST PUSH0 DUP2 CALLDATALOAD SWAP1 POP PUSH2 0x2F80 DUP2 PUSH2 0x2F5C JUMP JUMPDEST SWAP3 SWAP2 POP POP JUMP JUMPDEST PUSH2 0x2F8F DUP2 PUSH2 0x2E5B JUMP JUMPDEST DUP2 EQ PUSH2 0x2F99 JUMPI PUSH0 DUP1 REVERT JUMPDEST POP JUMP JUMPDEST PUSH0 DUP2 CALLDATALOAD SWAP1 POP PUSH2 0x2FAA DUP2 PUSH2 0x2F86 JUMP JUMPDEST SWAP3 SWAP2 POP POP JUMP JUMPDEST PUSH0 DUP1 PUSH0 DUP1 PUSH0 PUSH1 0xA0 DUP7 DUP9 SUB SLT ISZERO PUSH2 0x2FC9 JUMPI PUSH2 0x2FC8 PUSH2 0x2C51 JUMP JUMPDEST JUMPDEST PUSH0 PUSH2 0x2FD6 DUP9 DUP3 DUP10 ADD PUSH2 0x2E09 JUMP JUMPDEST SWAP6 POP POP PUSH1 0x20 PUSH2 0x2FE7 DUP9 DUP3 DUP10 ADD PUSH2 0x2F72 JUMP JUMPDEST SWAP5 POP POP PUSH1 0x40 PUSH2 0x2FF8 DUP9 DUP3 DUP10 ADD PUSH2 0x2F9C JUMP JUMPDEST SWAP4 POP POP PUSH1 0x60 PUSH2 0x3009 DUP9 DUP3 DUP10 ADD PUSH2 0x2ECD JUMP JUMPDEST SWAP3 POP POP PUSH1 0x80 PUSH2 0x301A DUP9 DUP3 DUP10 ADD PUSH2 0x2E09 JUMP JUMPDEST SWAP2 POP POP SWAP3 SWAP6 POP SWAP3 SWAP6 SWAP1 SWAP4 POP JUMP JUMPDEST PUSH0 DUP2 SWAP1 POP SWAP2 SWAP1 POP JUMP JUMPDEST PUSH0 PUSH2 0x304A PUSH2 0x3045 PUSH2 0x3040 DUP5 PUSH2 0x2DC3 JUMP JUMPDEST PUSH2 0x3027 JUMP JUMPDEST PUSH2 0x2DC3 JUMP JUMPDEST SWAP1 POP SWAP2 SWAP1 POP JUMP JUMPDEST PUSH0 PUSH2 0x305B DUP3 PUSH2 0x3030 JUMP JUMPDEST SWAP1 POP SWAP2 SWAP1 POP JUMP JUMPDEST PUSH0 PUSH2 0x306C DUP3 PUSH2 0x3051 JUMP JUMPDEST SWAP1 POP SWAP2 SWAP1 POP JUMP JUMPDEST PUSH2 0x307C DUP2 PUSH2 0x3062 JUMP JUMPDEST DUP3 MSTORE POP POP JUMP JUMPDEST PUSH0 PUSH1 0x20 DUP3 ADD SWAP1 POP PUSH2 0x3095 PUSH0 DUP4 ADD DUP5 PUSH2 0x3073 JUMP JUMPDEST SWAP3 SWAP2 POP POP JUMP JUMPDEST PUSH0 DUP1 PUSH1 0x40 DUP4 DUP6 SUB SLT ISZERO PUSH2 0x30B1 JUMPI PUSH2 0x30B0 PUSH2 0x2C51 JUMP JUMPDEST JUMPDEST PUSH0 PUSH2 0x30BE DUP6 DUP3 DUP7 ADD PUSH2 0x2E09 JUMP JUMPDEST SWAP3 POP POP PUSH1 0x20 PUSH2 0x30CF DUP6 DUP3 DUP7 ADD PUSH2 0x2E09 JUMP JUMPDEST SWAP2 POP POP SWAP3 POP SWAP3 SWAP1 POP JUMP JUMPDEST PUSH0 PUSH2 0x30E3 DUP3 PUSH2 0x3051 JUMP JUMPDEST SWAP1 POP SWAP2 SWAP1 POP JUMP JUMPDEST PUSH2 0x30F3 DUP2 PUSH2 0x30D9 JUMP JUMPDEST DUP3 MSTORE POP POP JUMP JUMPDEST PUSH0 PUSH1 0x20 DUP3 ADD SWAP1 POP PUSH2 0x310C PUSH0 DUP4 ADD DUP5 PUSH2 0x30EA JUMP JUMPDEST SWAP3 SWAP2 POP POP JUMP JUMPDEST PUSH0 PUSH1 0x20 DUP3 DUP5 SUB SLT ISZERO PUSH2 0x3127 JUMPI PUSH2 0x3126 PUSH2 0x2C51 JUMP JUMPDEST JUMPDEST PUSH0 PUSH2 0x3134 DUP5 DUP3 DUP6 ADD PUSH2 0x2E09 JUMP JUMPDEST SWAP2 POP POP SWAP3 SWAP2 POP POP JUMP JUMPDEST PUSH0 PUSH1 0xA0 DUP3 ADD SWAP1 POP PUSH2 0x3150 PUSH0 DUP4 ADD DUP9 PUSH2 0x2CE4 JUMP JUMPDEST PUSH2 0x315D PUSH1 0x20 DUP4 ADD DUP8 PUSH2 0x2CE4 JUMP JUMPDEST PUSH2 0x316A PUSH1 0x40 DUP4 ADD DUP7 PUSH2 0x2E67 JUMP JUMPDEST PUSH2 0x3177 PUSH1 0x60 DUP4 ADD DUP6 PUSH2 0x2D9B JUMP JUMPDEST PUSH2 0x3184 PUSH1 0x80 DUP4 ADD DUP5 PUSH2 0x2E8F JUMP JUMPDEST SWAP7 SWAP6 POP POP POP POP POP POP JUMP JUMPDEST PUSH32 0x4E487B7100000000000000000000000000000000000000000000000000000000 PUSH0 MSTORE PUSH1 0x41 PUSH1 0x4 MSTORE PUSH1 0x24 PUSH0 REVERT JUMPDEST PUSH0 DUP2 MLOAD SWAP1 POP PUSH2 0x31C9 DUP2 PUSH2 0x2DF3 JUMP JUMPDEST SWAP3 SWAP2 POP POP JUMP JUMPDEST PUSH0 PUSH1 0x20 DUP3 DUP5 SUB SLT ISZERO PUSH2 0x31E4 JUMPI PUSH2 0x31E3 PUSH2 0x2C51 JUMP JUMPDEST JUMPDEST PUSH0 PUSH2 0x31F1 DUP5 DUP3 DUP6 ADD PUSH2 0x31BB JUMP JUMPDEST SWAP2 POP POP SWAP3 SWAP2 POP POP JUMP JUMPDEST PUSH32 0x4E487B7100000000000000000000000000000000000000000000000000000000 PUSH0 MSTORE PUSH1 0x32 PUSH1 0x4 MSTORE PUSH1 0x24 PUSH0 REVERT JUMPDEST PUSH0 DUP2 MLOAD SWAP1 POP PUSH2 0x3235 DUP2 PUSH2 0x2EB7 JUMP JUMPDEST SWAP3 SWAP2 POP POP JUMP JUMPDEST PUSH0 PUSH1 0x20 DUP3 DUP5 SUB SLT ISZERO PUSH2 0x3250 JUMPI PUSH2 0x324F PUSH2 0x2C51 JUMP JUMPDEST JUMPDEST PUSH0 PUSH2 0x325D DUP5 DUP3 DUP6 ADD PUSH2 0x3227 JUMP JUMPDEST SWAP2 POP POP SWAP3 SWAP2 POP POP JUMP JUMPDEST PUSH0 DUP2 MLOAD SWAP1 POP SWAP2 SWAP1 POP JUMP JUMPDEST PUSH0 DUP3 DUP3 MSTORE PUSH1 0x20 DUP3 ADD SWAP1 POP SWAP3 SWAP2 POP POP JUMP JUMPDEST PUSH0 DUP2 SWAP1 POP PUSH1 0x20 DUP3 ADD SWAP1 POP SWAP2 SWAP1 POP JUMP JUMPDEST PUSH2 0x3298 DUP2 PUSH2 0x2DE2 JUMP JUMPDEST DUP3 MSTORE POP POP JUMP JUMPDEST PUSH0 PUSH2 0x32A9 DUP4 DUP4 PUSH2 0x328F JUMP JUMPDEST PUSH1 0x20 DUP4 ADD SWAP1 POP SWAP3 SWAP2 POP POP JUMP JUMPDEST PUSH0 PUSH1 0x20 DUP3 ADD SWAP1 POP SWAP2 SWAP1 POP JUMP JUMPDEST PUSH0 PUSH2 0x32CB DUP3 PUSH2 0x3266 JUMP JUMPDEST PUSH2 0x32D5 DUP2 DUP6 PUSH2 0x3270 JUMP JUMPDEST SWAP4 POP PUSH2 0x32E0 DUP4 PUSH2 0x3280 JUMP JUMPDEST DUP1 PUSH0 JUMPDEST DUP4 DUP2 LT ISZERO PUSH2 0x3310 JUMPI DUP2 MLOAD PUSH2 0x32F7 DUP9 DUP3 PUSH2 0x329E JUMP JUMPDEST SWAP8 POP PUSH2 0x3302 DUP4 PUSH2 0x32B5 JUMP JUMPDEST SWAP3 POP POP PUSH1 0x1 DUP2 ADD SWAP1 POP PUSH2 0x32E3 JUMP JUMPDEST POP DUP6 SWAP4 POP POP POP POP SWAP3 SWAP2 POP POP JUMP JUMPDEST PUSH0 PUSH1 0x80 DUP3 ADD SWAP1 POP PUSH2 0x3330 PUSH0 DUP4 ADD DUP8 PUSH2 0x2D9B JUMP JUMPDEST DUP2 DUP2 SUB PUSH1 0x20 DUP4 ADD MSTORE PUSH2 0x3342 DUP2 DUP7 PUSH2 0x32C1 JUMP JUMPDEST SWAP1 POP PUSH2 0x3351 PUSH1 0x40 DUP4 ADD DUP6 PUSH2 0x2E8F JUMP JUMPDEST PUSH2 0x335E PUSH1 0x60 DUP4 ADD DUP5 PUSH2 0x2D9B JUMP JUMPDEST SWAP6 SWAP5 POP POP POP POP POP JUMP JUMPDEST PUSH0 DUP1 REVERT JUMPDEST PUSH0 PUSH1 0x1F NOT PUSH1 0x1F DUP4 ADD AND SWAP1 POP SWAP2 SWAP1 POP JUMP JUMPDEST PUSH2 0x3384 DUP3 PUSH2 0x336B JUMP JUMPDEST DUP2 ADD DUP2 DUP2 LT PUSH8 0xFFFFFFFFFFFFFFFF DUP3 GT OR ISZERO PUSH2 0x33A3 JUMPI PUSH2 0x33A2 PUSH2 0x318E JUMP JUMPDEST JUMPDEST DUP1 PUSH1 0x40 MSTORE POP POP POP JUMP JUMPDEST PUSH0 PUSH2 0x33B5 PUSH2 0x2C48 JUMP JUMPDEST SWAP1 POP PUSH2 0x33C1 DUP3 DUP3 PUSH2 0x337B JUMP JUMPDEST SWAP2 SWAP1 POP JUMP JUMPDEST PUSH0 PUSH8 0xFFFFFFFFFFFFFFFF DUP3 GT ISZERO PUSH2 0x33E0 JUMPI PUSH2 0x33DF PUSH2 0x318E JUMP JUMPDEST JUMPDEST PUSH1 0x20 DUP3 MUL SWAP1 POP PUSH1 0x20 DUP2 ADD SWAP1 POP SWAP2 SWAP1 POP JUMP JUMPDEST PUSH0 DUP1 REVERT JUMPDEST PUSH0 PUSH2 0x3407 PUSH2 0x3402 DUP5 PUSH2 0x33C6 JUMP JUMPDEST PUSH2 0x33AC JUMP JUMPDEST SWAP1 POP DUP1 DUP4 DUP3 MSTORE PUSH1 0x20 DUP3 ADD SWAP1 POP PUSH1 0x20 DUP5 MUL DUP4 ADD DUP6 DUP2 GT ISZERO PUSH2 0x342A JUMPI PUSH2 0x3429 PUSH2 0x33F1 JUMP JUMPDEST JUMPDEST DUP4 JUMPDEST DUP2 DUP2 LT ISZERO PUSH2 0x3453 JUMPI DUP1 PUSH2 0x343F DUP9 DUP3 PUSH2 0x3227 JUMP JUMPDEST DUP5 MSTORE PUSH1 0x20 DUP5 ADD SWAP4 POP POP PUSH1 0x20 DUP2 ADD SWAP1 POP PUSH2 0x342C JUMP JUMPDEST POP POP POP SWAP4 SWAP3 POP POP POP JUMP JUMPDEST PUSH0 DUP3 PUSH1 0x1F DUP4 ADD SLT PUSH2 0x3471 JUMPI PUSH2 0x3470 PUSH2 0x3367 JUMP JUMPDEST JUMPDEST DUP2 MLOAD PUSH2 0x3481 DUP5 DUP3 PUSH1 0x20 DUP7 ADD PUSH2 0x33F5 JUMP JUMPDEST SWAP2 POP POP SWAP3 SWAP2 POP POP JUMP JUMPDEST PUSH0 PUSH1 0x20 DUP3 DUP5 SUB SLT ISZERO PUSH2 0x349F JUMPI PUSH2 0x349E PUSH2 0x2C51 JUMP JUMPDEST JUMPDEST PUSH0 DUP3 ADD MLOAD PUSH8 0xFFFFFFFFFFFFFFFF DUP2 GT ISZERO PUSH2 0x34BC JUMPI PUSH2 0x34BB PUSH2 0x2C55 JUMP JUMPDEST JUMPDEST PUSH2 0x34C8 DUP5 DUP3 DUP6 ADD PUSH2 0x345D JUMP JUMPDEST SWAP2 POP POP SWAP3 SWAP2 POP POP JUMP JUMPDEST PUSH32 0x4E487B7100000000000000000000000000000000000000000000000000000000 PUSH0 MSTORE PUSH1 0x11 PUSH1 0x4 MSTORE PUSH1 0x24 PUSH0 REVERT JUMPDEST PUSH0 PUSH2 0x3508 DUP3 PUSH2 0x2D92 JUMP JUMPDEST SWAP2 POP PUSH2 0x3513 DUP4 PUSH2 0x2D92 JUMP JUMPDEST SWAP3 POP DUP3 DUP3 SUB SWAP1 POP DUP2 DUP2 GT ISZERO PUSH2 0x352B JUMPI PUSH2 0x352A PUSH2 0x34D1 JUMP JUMPDEST JUMPDEST SWAP3 SWAP2 POP POP JUMP JUMPDEST PUSH0 PUSH2 0x353B DUP3 PUSH2 0x2D92 JUMP JUMPDEST SWAP2 POP PUSH2 0x3546 DUP4 PUSH2 0x2D92 JUMP JUMPDEST SWAP3 POP DUP3 DUP3 ADD SWAP1 POP DUP1 DUP3 GT ISZERO PUSH2 0x355E JUMPI PUSH2 0x355D PUSH2 0x34D1 JUMP JUMPDEST JUMPDEST SWAP3 SWAP2 POP POP JUMP JUMPDEST PUSH0 PUSH1 0x40 DUP3 ADD SWAP1 POP PUSH2 0x3577 PUSH0 DUP4 ADD DUP6 PUSH2 0x2D9B JUMP JUMPDEST PUSH2 0x3584 PUSH1 0x20 DUP4 ADD DUP5 PUSH2 0x2D9B JUMP JUMPDEST SWAP4 SWAP3 POP POP POP JUMP JUMPDEST PUSH0 PUSH1 0x60 DUP3 ADD SWAP1 POP PUSH2 0x359E PUSH0 DUP4 ADD DUP7 PUSH2 0x2D9B JUMP JUMPDEST PUSH2 0x35AB PUSH1 0x20 DUP4 ADD DUP6 PUSH2 0x2D9B JUMP JUMPDEST PUSH2 0x35B8 PUSH1 0x40 DUP4 ADD DUP5 PUSH2 0x2D9B JUMP JUMPDEST SWAP5 SWAP4 POP POP POP POP JUMP JUMPDEST PUSH0 PUSH1 0x40 DUP3 ADD SWAP1 POP PUSH2 0x35D3 PUSH0 DUP4 ADD DUP6 PUSH2 0x2E8F JUMP JUMPDEST PUSH2 0x35E0 PUSH1 0x20 DUP4 ADD DUP5 PUSH2 0x2E8F JUMP JUMPDEST SWAP4 SWAP3 POP POP POP JUMP JUMPDEST PUSH0 PUSH1 0xA0 DUP3 ADD SWAP1 POP PUSH2 0x35FA PUSH0 DUP4 ADD DUP9 PUSH2 0x2D9B JUMP JUMPDEST PUSH2 0x3607 PUSH1 0x20 DUP4 ADD DUP8 PUSH2 0x2D9B JUMP JUMPDEST DUP2 DUP2 SUB PUSH1 0x40 DUP4 ADD MSTORE PUSH2 0x3619 DUP2 DUP7 PUSH2 0x32C1 JUMP JUMPDEST SWAP1 POP PUSH2 0x3628 PUSH1 0x60 DUP4 ADD DUP6 PUSH2 0x2E8F JUMP JUMPDEST PUSH2 0x3635 PUSH1 0x80 DUP4 ADD DUP5 PUSH2 0x2D9B JUMP JUMPDEST SWAP7 SWAP6 POP POP POP POP POP POP JUMP JUMPDEST PUSH0 DUP2 MLOAD SWAP1 POP PUSH2 0x364D DUP2 PUSH2 0x2F86 JUMP JUMPDEST SWAP3 SWAP2 POP POP JUMP JUMPDEST PUSH0 PUSH1 0x20 DUP3 DUP5 SUB SLT ISZERO PUSH2 0x3668 JUMPI PUSH2 0x3667 PUSH2 0x2C51 JUMP JUMPDEST JUMPDEST PUSH0 PUSH2 0x3675 DUP5 DUP3 DUP6 ADD PUSH2 0x363F JUMP JUMPDEST SWAP2 POP POP SWAP3 SWAP2 POP POP JUMP JUMPDEST PUSH0 PUSH1 0x60 DUP3 ADD SWAP1 POP PUSH2 0x3691 PUSH0 DUP4 ADD DUP7 PUSH2 0x2E8F JUMP JUMPDEST PUSH2 0x369E PUSH1 0x20 DUP4 ADD DUP6 PUSH2 0x2E8F JUMP JUMPDEST PUSH2 0x36AB PUSH1 0x40 DUP4 ADD DUP5 PUSH2 0x2D9B JUMP JUMPDEST SWAP5 SWAP4 POP POP POP POP JUMP JUMPDEST PUSH0 PUSH1 0x40 DUP3 ADD SWAP1 POP PUSH2 0x36C6 PUSH0 DUP4 ADD DUP6 PUSH2 0x2E8F JUMP JUMPDEST PUSH2 0x36D3 PUSH1 0x20 DUP4 ADD DUP5 PUSH2 0x2D9B JUMP JUMPDEST SWAP4 SWAP3 POP POP POP JUMP JUMPDEST PUSH0 PUSH10 0xFFFFFFFFFFFFFFFFFFFF DUP3 AND SWAP1 POP SWAP2 SWAP1 POP JUMP JUMPDEST PUSH2 0x36F8 DUP2 PUSH2 0x36DA JUMP JUMPDEST DUP2 EQ PUSH2 0x3702 JUMPI PUSH0 DUP1 REVERT JUMPDEST POP JUMP JUMPDEST PUSH0 DUP2 MLOAD SWAP1 POP PUSH2 0x3713 DUP2 PUSH2 0x36EF JUMP JUMPDEST SWAP3 SWAP2 POP POP JUMP JUMPDEST PUSH0 DUP2 SWAP1 POP SWAP2 SWAP1 POP JUMP JUMPDEST PUSH2 0x372B DUP2 PUSH2 0x3719 JUMP JUMPDEST DUP2 EQ PUSH2 0x3735 JUMPI PUSH0 DUP1 REVERT JUMPDEST POP JUMP JUMPDEST PUSH0 DUP2 MLOAD SWAP1 POP PUSH2 0x3746 DUP2 PUSH2 0x3722 JUMP JUMPDEST SWAP3 SWAP2 POP POP JUMP JUMPDEST PUSH0 DUP1 PUSH0 DUP1 PUSH0 PUSH1 0xA0 DUP7 DUP9 SUB SLT ISZERO PUSH2 0x3765 JUMPI PUSH2 0x3764 PUSH2 0x2C51 JUMP JUMPDEST JUMPDEST PUSH0 PUSH2 0x3772 DUP9 DUP3 DUP10 ADD PUSH2 0x3705 JUMP JUMPDEST SWAP6 POP POP PUSH1 0x20 PUSH2 0x3783 DUP9 DUP3 DUP10 ADD PUSH2 0x3738 JUMP JUMPDEST SWAP5 POP POP PUSH1 0x40 PUSH2 0x3794 DUP9 DUP3 DUP10 ADD PUSH2 0x3227 JUMP JUMPDEST SWAP4 POP POP PUSH1 0x60 PUSH2 0x37A5 DUP9 DUP3 DUP10 ADD PUSH2 0x3227 JUMP JUMPDEST SWAP3 POP POP PUSH1 0x80 PUSH2 0x37B6 DUP9 DUP3 DUP10 ADD PUSH2 0x3705 JUMP JUMPDEST SWAP2 POP POP SWAP3 SWAP6 POP SWAP3 SWAP6 SWAP1 SWAP4 POP JUMP JUMPDEST PUSH0 PUSH2 0x37CD DUP3 PUSH2 0x2D92 JUMP JUMPDEST SWAP2 POP PUSH2 0x37D8 DUP4 PUSH2 0x2D92 JUMP JUMPDEST SWAP3 POP DUP3 DUP3 MUL PUSH2 0x37E6 DUP2 PUSH2 0x2D92 JUMP JUMPDEST SWAP2 POP DUP3 DUP3 DIV DUP5 EQ DUP4 ISZERO OR PUSH2 0x37FD JUMPI PUSH2 0x37FC PUSH2 0x34D1 JUMP JUMPDEST JUMPDEST POP SWAP3 SWAP2 POP POP JUMP JUMPDEST PUSH0 DUP2 PUSH1 0x1 SHR SWAP1 POP SWAP2 SWAP1 POP JUMP JUMPDEST PUSH0 DUP1 DUP3 SWAP2 POP DUP4 SWAP1 POP JUMPDEST PUSH1 0x1 DUP6 GT ISZERO PUSH2 0x3859 JUMPI DUP1 DUP7 DIV DUP2 GT ISZERO PUSH2 0x3835 JUMPI PUSH2 0x3834 PUSH2 0x34D1 JUMP JUMPDEST JUMPDEST PUSH1 0x1 DUP6 AND ISZERO PUSH2 0x3844 JUMPI DUP1 DUP3 MUL SWAP2 POP JUMPDEST DUP1 DUP2 MUL SWAP1 POP PUSH2 0x3852 DUP6 PUSH2 0x3804 JUMP JUMPDEST SWAP5 POP PUSH2 0x3819 JUMP JUMPDEST SWAP5 POP SWAP5 SWAP3 POP POP POP JUMP JUMPDEST PUSH0 DUP3 PUSH2 0x3871 JUMPI PUSH1 0x1 SWAP1 POP PUSH2 0x392C JUMP JUMPDEST DUP2 PUSH2 0x387E JUMPI PUSH0 SWAP1 POP PUSH2 0x392C JUMP JUMPDEST DUP2 PUSH1 0x1 DUP2 EQ PUSH2 0x3894 JUMPI PUSH1 0x2 DUP2 EQ PUSH2 0x389E JUMPI PUSH2 0x38CD JUMP JUMPDEST PUSH1 0x1 SWAP2 POP POP PUSH2 0x392C JUMP JUMPDEST PUSH1 0xFF DUP5 GT ISZERO PUSH2 0x38B0 JUMPI PUSH2 0x38AF PUSH2 0x34D1 JUMP JUMPDEST JUMPDEST DUP4 PUSH1 0x2 EXP SWAP2 POP DUP5 DUP3 GT ISZERO PUSH2 0x38C7 JUMPI PUSH2 0x38C6 PUSH2 0x34D1 JUMP JUMPDEST JUMPDEST POP PUSH2 0x392C JUMP JUMPDEST POP PUSH1 0x20 DUP4 LT PUSH2 0x133 DUP4 LT AND PUSH1 0x4E DUP5 LT PUSH1 0xB DUP5 LT AND OR ISZERO PUSH2 0x3902 JUMPI DUP3 DUP3 EXP SWAP1 POP DUP4 DUP2 GT ISZERO PUSH2 0x38FD JUMPI PUSH2 0x38FC PUSH2 0x34D1 JUMP JUMPDEST JUMPDEST PUSH2 0x392C JUMP JUMPDEST PUSH2 0x390F DUP5 DUP5 DUP5 PUSH1 0x1 PUSH2 0x3810 JUMP JUMPDEST SWAP3 POP SWAP1 POP DUP2 DUP5 DIV DUP2 GT ISZERO PUSH2 0x3926 JUMPI PUSH2 0x3925 PUSH2 0x34D1 JUMP JUMPDEST JUMPDEST DUP2 DUP2 MUL SWAP1 POP JUMPDEST SWAP4 SWAP3 POP POP POP JUMP JUMPDEST PUSH0 PUSH2 0x393D DUP3 PUSH2 0x2D92 JUMP JUMPDEST SWAP2 POP PUSH2 0x3948 DUP4 PUSH2 0x2E5B JUMP JUMPDEST SWAP3 POP PUSH2 0x3975 PUSH32 0xFFFFFFFFFFFFFFFFFFFFFFFFFFFFFFFFFFFFFFFFFFFFFFFFFFFFFFFFFFFFFFFF DUP5 DUP5 PUSH2 0x3862 JUMP JUMPDEST SWAP1 POP SWAP3 SWAP2 POP POP JUMP JUMPDEST PUSH32 0x4E487B7100000000000000000000000000000000000000000000000000000000 PUSH0 MSTORE PUSH1 0x12 PUSH1 0x4 MSTORE PUSH1 0x24 PUSH0 REVERT JUMPDEST PUSH0 PUSH2 0x39B4 DUP3 PUSH2 0x2D92 JUMP JUMPDEST SWAP2 POP PUSH2 0x39BF DUP4 PUSH2 0x2D92 JUMP JUMPDEST SWAP3 POP DUP3 PUSH2 0x39CF JUMPI PUSH2 0x39CE PUSH2 0x397D JUMP JUMPDEST JUMPDEST DUP3 DUP3 DIV SWAP1 POP SWAP3 SWAP2 POP POP JUMP JUMPDEST PUSH0 PUSH2 0x39E4 DUP3 PUSH2 0x2E5B JUMP JUMPDEST SWAP2 POP PUSH2 0x39EF DUP4 PUSH2 0x2E5B JUMP JUMPDEST SWAP3 POP DUP3 DUP3 SUB SWAP1 POP PUSH1 0xFF DUP2 GT ISZERO PUSH2 0x3A08 JUMPI PUSH2 0x3A07 PUSH2 0x34D1 JUMP JUMPDEST JUMPDEST SWAP3 SWAP2 POP POP JUMP JUMPDEST PUSH0 PUSH1 0x40 DUP3 ADD SWAP1 POP PUSH2 0x3A21 PUSH0 DUP4 ADD DUP6 PUSH2 0x2E8F JUMP JUMPDEST PUSH2 0x3A2E PUSH1 0x20 DUP4 ADD DUP5 PUSH2 0x2D6A JUMP JUMPDEST SWAP4 SWAP3 POP POP POP JUMP JUMPDEST PUSH0 DUP2 SWAP1 POP SWAP2 SWAP1 POP JUMP JUMPDEST PUSH0 PUSH2 0x3A58 PUSH2 0x3A53 PUSH2 0x3A4E DUP5 PUSH2 0x3A35 JUMP JUMPDEST PUSH2 0x3027 JUMP JUMPDEST PUSH2 0x2D92 JUMP JUMPDEST SWAP1 POP SWAP2 SWAP1 POP JUMP JUMPDEST PUSH2 0x3A68 DUP2 PUSH2 0x3A3E JUMP JUMPDEST DUP3 MSTORE POP POP JUMP JUMPDEST PUSH0 PUSH1 0x40 DUP3 ADD SWAP1 POP PUSH2 0x3A81 PUSH0 DUP4 ADD DUP6 PUSH2 0x2E8F JUMP JUMPDEST PUSH2 0x3A8E PUSH1 0x20 DUP4 ADD DUP5 PUSH2 0x3A5F JUMP JUMPDEST SWAP4 SWAP3 POP POP POP JUMP INVALID LOG2 PUSH5 0x6970667358 0x22 SLT KECCAK256 SWAP8 DUP6 AND PUSH0 SWAP1 0xA8 0xA5 PREVRANDAO PUSH16 0x4DA5A26A86887018276690A6AD4E146E KECCAK256 ADDMOD BALANCE 0xF7 0xD 0xA6 0xFB PUSH5 0x736F6C6343 STOP ADDMOD BYTE STOP CALLER "
				},
				"gasEstimates": {
					"creation": {
						"codeDepositCost": "3010200",
						"executionCost": "infinite",
						"totalCost": "infinite"
					},
					"external": {
						"DEFAULT_ADMIN_ROLE()": "397",
						"NATIVE_TOKEN()": "395",
						"ROLE_ADMIN()": "436",
						"USDC()": "infinite",
						"USD_DECIMALS()": "465",
						"bankCapUsd6()": "infinite",
						"depositCount()": "2515",
						"depositETH(uint256)": "infinite",
						"depositTokenAndSwap(address,uint256,uint256)": "infinite",
						"depositUSDC(uint256)": "infinite",
						"factory()": "infinite",
						"getBalance(address,address)": "infinite",
						"getRoleAdmin(bytes32)": "infinite",
						"getUsdBalance(address,address)": "infinite",
						"grantRole(bytes32,address)": "infinite",
						"hasRole(bytes32,address)": "3145",
						"renounceRole(bytes32,address)": "infinite",
						"revokeRole(bytes32,address)": "infinite",
						"router()": "infinite",
						"setTokenConfig(address,bool,uint8,uint256,address)": "infinite",
						"supportsInterface(bytes4)": "741",
						"tokenConfig(address)": "infinite",
						"totalDepositedUsd6()": "2493",
						"withdrawCount()": "2492",
						"withdrawUSDC(uint256)": "infinite"
					},
					"internal": {
						"_toUsd(address,uint256)": "infinite"
					}
				},
				"methodIdentifiers": {
					"DEFAULT_ADMIN_ROLE()": "a217fddf",
					"NATIVE_TOKEN()": "31f7d964",
					"ROLE_ADMIN()": "d391014b",
					"USDC()": "89a30271",
					"USD_DECIMALS()": "2f6ee695",
					"bankCapUsd6()": "f9bda21f",
					"depositCount()": "2dfdf0b5",
					"depositETH(uint256)": "5358fbda",
					"depositTokenAndSwap(address,uint256,uint256)": "72806f70",
					"depositUSDC(uint256)": "f688bcfb",
					"factory()": "c45a0155",
					"getBalance(address,address)": "d4fac45d",
					"getRoleAdmin(bytes32)": "248a9ca3",
					"getUsdBalance(address,address)": "dcb6e250",
					"grantRole(bytes32,address)": "2f2ff15d",
					"hasRole(bytes32,address)": "91d14854",
					"renounceRole(bytes32,address)": "36568abe",
					"revokeRole(bytes32,address)": "d547741f",
					"router()": "f887ea40",
					"setTokenConfig(address,bool,uint8,uint256,address)": "9c50adee",
					"supportsInterface(bytes4)": "01ffc9a7",
					"tokenConfig(address)": "fe136c4e",
					"totalDepositedUsd6()": "29608ba6",
					"withdrawCount()": "4cc05a71",
					"withdrawUSDC(uint256)": "db81f99b"
				}
			},
			"storageLayout": {
				"storage": [
					{
						"astId": 27,
						"contract": "KipuBankV3.sol:KipuBankV3",
						"label": "_roles",
						"offset": 0,
						"slot": "0",
						"type": "t_mapping(t_bytes32,t_struct(RoleData)22_storage)"
					},
					{
						"astId": 1052,
						"contract": "KipuBankV3.sol:KipuBankV3",
						"label": "_status",
						"offset": 0,
						"slot": "1",
						"type": "t_uint256"
					},
					{
						"astId": 1268,
						"contract": "KipuBankV3.sol:KipuBankV3",
						"label": "totalDepositedUsd6",
						"offset": 0,
						"slot": "2",
						"type": "t_uint256"
					},
					{
						"astId": 1282,
						"contract": "KipuBankV3.sol:KipuBankV3",
						"label": "balances",
						"offset": 0,
						"slot": "3",
						"type": "t_mapping(t_address,t_mapping(t_address,t_uint256))"
					},
					{
						"astId": 1287,
						"contract": "KipuBankV3.sol:KipuBankV3",
						"label": "tokenConfig",
						"offset": 0,
						"slot": "4",
						"type": "t_mapping(t_address,t_struct(TokenConfig)1241_storage)"
					},
					{
						"astId": 1289,
						"contract": "KipuBankV3.sol:KipuBankV3",
						"label": "depositCount",
						"offset": 0,
						"slot": "5",
						"type": "t_uint256"
					},
					{
						"astId": 1291,
						"contract": "KipuBankV3.sol:KipuBankV3",
						"label": "withdrawCount",
						"offset": 0,
						"slot": "6",
						"type": "t_uint256"
					}
				],
				"types": {
					"t_address": {
						"encoding": "inplace",
						"label": "address",
						"numberOfBytes": "20"
					},
					"t_bool": {
						"encoding": "inplace",
						"label": "bool",
						"numberOfBytes": "1"
					},
					"t_bytes32": {
						"encoding": "inplace",
						"label": "bytes32",
						"numberOfBytes": "32"
					},
					"t_mapping(t_address,t_bool)": {
						"encoding": "mapping",
						"key": "t_address",
						"label": "mapping(address => bool)",
						"numberOfBytes": "32",
						"value": "t_bool"
					},
					"t_mapping(t_address,t_mapping(t_address,t_uint256))": {
						"encoding": "mapping",
						"key": "t_address",
						"label": "mapping(address => mapping(address => uint256))",
						"numberOfBytes": "32",
						"value": "t_mapping(t_address,t_uint256)"
					},
					"t_mapping(t_address,t_struct(TokenConfig)1241_storage)": {
						"encoding": "mapping",
						"key": "t_address",
						"label": "mapping(address => struct TokenConfig)",
						"numberOfBytes": "32",
						"value": "t_struct(TokenConfig)1241_storage"
					},
					"t_mapping(t_address,t_uint256)": {
						"encoding": "mapping",
						"key": "t_address",
						"label": "mapping(address => uint256)",
						"numberOfBytes": "32",
						"value": "t_uint256"
					},
					"t_mapping(t_bytes32,t_struct(RoleData)22_storage)": {
						"encoding": "mapping",
						"key": "t_bytes32",
						"label": "mapping(bytes32 => struct AccessControl.RoleData)",
						"numberOfBytes": "32",
						"value": "t_struct(RoleData)22_storage"
					},
					"t_struct(RoleData)22_storage": {
						"encoding": "inplace",
						"label": "struct AccessControl.RoleData",
						"members": [
							{
								"astId": 19,
								"contract": "KipuBankV3.sol:KipuBankV3",
								"label": "hasRole",
								"offset": 0,
								"slot": "0",
								"type": "t_mapping(t_address,t_bool)"
							},
							{
								"astId": 21,
								"contract": "KipuBankV3.sol:KipuBankV3",
								"label": "adminRole",
								"offset": 0,
								"slot": "1",
								"type": "t_bytes32"
							}
						],
						"numberOfBytes": "64"
					},
					"t_struct(TokenConfig)1241_storage": {
						"encoding": "inplace",
						"label": "struct TokenConfig",
						"members": [
							{
								"astId": 1232,
								"contract": "KipuBankV3.sol:KipuBankV3",
								"label": "supported",
								"offset": 0,
								"slot": "0",
								"type": "t_bool"
							},
							{
								"astId": 1234,
								"contract": "KipuBankV3.sol:KipuBankV3",
								"label": "isNative",
								"offset": 1,
								"slot": "0",
								"type": "t_bool"
							},
							{
								"astId": 1236,
								"contract": "KipuBankV3.sol:KipuBankV3",
								"label": "tokenDecimals",
								"offset": 2,
								"slot": "0",
								"type": "t_uint8"
							},
							{
								"astId": 1238,
								"contract": "KipuBankV3.sol:KipuBankV3",
								"label": "withdrawLimit",
								"offset": 0,
								"slot": "1",
								"type": "t_uint256"
							},
							{
								"astId": 1240,
								"contract": "KipuBankV3.sol:KipuBankV3",
								"label": "priceFeed",
								"offset": 0,
								"slot": "2",
								"type": "t_address"
							}
						],
						"numberOfBytes": "96"
					},
					"t_uint256": {
						"encoding": "inplace",
						"label": "uint256",
						"numberOfBytes": "32"
					},
					"t_uint8": {
						"encoding": "inplace",
						"label": "uint8",
						"numberOfBytes": "1"
					}
				}
			},
			"userdoc": {
				"kind": "user",
				"methods": {
					"depositETH(uint256)": {
						"notice": "Depósito de ETH: se swapea a USDC usando el router V2."
					},
					"depositTokenAndSwap(address,uint256,uint256)": {
						"notice": "Depósito de un ERC20 distinto a USDC -> swap a USDC dentro del contrato."
					},
					"depositUSDC(uint256)": {
						"notice": "Depósito directo de USDC."
					},
					"setTokenConfig(address,bool,uint8,uint256,address)": {
						"notice": "Agrega/actualiza token (para vistas/oráculos/lim. retiro)."
					}
				},
				"notice": "Acepta ETH/USDC/ERC20; si no es USDC, se swapea a USDC (router V2) y se acredita en USDC.",
				"version": 1
			}
		}
	}
}