{
	"data": {
		"bytecode": {
			"linkReferences": {},
			"object": "610100604052348015610010575f80fd5b506040516146cc3803806146cc833981810160405281019061003291906108a4565b600180819055505f8603610072576040517f1f2a200500000000000000000000000000000000000000000000000000000000815260040160405180910390fd5b5f73ffffffffffffffffffffffffffffffffffffffff168473ffffffffffffffffffffffffffffffffffffffff1614806100d757505f73ffffffffffffffffffffffffffffffffffffffff168373ffffffffffffffffffffffffffffffffffffffff16145b8061010d57505f73ffffffffffffffffffffffffffffffffffffffff168273ffffffffffffffffffffffffffffffffffffffff16145b1561014f575f6040517fbf16aab6000000000000000000000000000000000000000000000000000000008152600401610146919061093c565b60405180910390fd5b85608081815250508373ffffffffffffffffffffffffffffffffffffffff1660e08173ffffffffffffffffffffffffffffffffffffffff16815250508273ffffffffffffffffffffffffffffffffffffffff1660a08173ffffffffffffffffffffffffffffffffffffffff16815250508173ffffffffffffffffffffffffffffffffffffffff1660c08173ffffffffffffffffffffffffffffffffffffffff16815250506102055f801b3361066d60201b60201c565b506102367f2172861495e7b85edac73e3cd5fbb42dd675baadf627720e687bcfdaca0250963361066d60201b60201c565b5061023f6107cc565b6001815f01901515908115158152505060018160200190151590811515815250506012816040019060ff16908160ff16815250508181606001818152505085816080019073ffffffffffffffffffffffffffffffffffffffff16908173ffffffffffffffffffffffffffffffffffffffff16815250508060045f8073ffffffffffffffffffffffffffffffffffffffff1673ffffffffffffffffffffffffffffffffffffffff1681526020019081526020015f205f820151815f015f6101000a81548160ff0219169083151502179055506020820151815f0160016101000a81548160ff0219169083151502179055506040820151815f0160026101000a81548160ff021916908360ff160217905550606082015181600101556080820151816002015f6101000a81548173ffffffffffffffffffffffffffffffffffffffff021916908373ffffffffffffffffffffffffffffffffffffffff1602179055509050505f73ffffffffffffffffffffffffffffffffffffffff167fceec6d18b470b58eabbfc22b7d771c54609acb2bbe777747424f6e9a5a9d5a256001806012868b6040516103f29594939291906109cc565b60405180910390a2506104036107cc565b6001815f0190151590811515815250505f8160200190151590811515815250505f6006905060e05173ffffffffffffffffffffffffffffffffffffffff1663313ce5676040518163ffffffff1660e01b8152600401602060405180830381865afa92505050801561049257506040513d601f19601f8201168201806040525081019061048f9190610a47565b60015b1561049c57809150505b80826040019060ff16908160ff16815250507fffffffffffffffffffffffffffffffffffffffffffffffffffffffffffffffff8260600181815250505f826080019073ffffffffffffffffffffffffffffffffffffffff16908173ffffffffffffffffffffffffffffffffffffffff16815250508160045f60e05173ffffffffffffffffffffffffffffffffffffffff1673ffffffffffffffffffffffffffffffffffffffff1681526020019081526020015f205f820151815f015f6101000a81548160ff0219169083151502179055506020820151815f0160016101000a81548160ff0219169083151502179055506040820151815f0160026101000a81548160ff021916908360ff160217905550606082015181600101556080820151816002015f6101000a81548173ffffffffffffffffffffffffffffffffffffffff021916908373ffffffffffffffffffffffffffffffffffffffff16021790555090505060e05173ffffffffffffffffffffffffffffffffffffffff167fceec6d18b470b58eabbfc22b7d771c54609acb2bbe777747424f6e9a5a9d5a2560015f8486606001518760800151604051610658959493929190610a81565b60405180910390a25050505050505050610ad2565b5f61067e838361076260201b60201c565b6107585760015f808581526020019081526020015f205f015f8473ffffffffffffffffffffffffffffffffffffffff1673ffffffffffffffffffffffffffffffffffffffff1681526020019081526020015f205f6101000a81548160ff0219169083151502179055506106f56107c560201b60201c565b73ffffffffffffffffffffffffffffffffffffffff168273ffffffffffffffffffffffffffffffffffffffff16847f2f8788117e7eff1d82e926ec794901d17c78024a50270940304540a733656f0d60405160405180910390a46001905061075c565b5f90505b92915050565b5f805f8481526020019081526020015f205f015f8373ffffffffffffffffffffffffffffffffffffffff1673ffffffffffffffffffffffffffffffffffffffff1681526020019081526020015f205f9054906101000a900460ff16905092915050565b5f33905090565b6040518060a001604052805f151581526020015f151581526020015f60ff1681526020015f81526020015f73ffffffffffffffffffffffffffffffffffffffff1681525090565b5f80fd5b5f819050919050565b61082981610817565b8114610833575f80fd5b50565b5f8151905061084481610820565b92915050565b5f73ffffffffffffffffffffffffffffffffffffffff82169050919050565b5f6108738261084a565b9050919050565b61088381610869565b811461088d575f80fd5b50565b5f8151905061089e8161087a565b92915050565b5f805f805f8060c087890312156108be576108bd610813565b5b5f6108cb89828a01610836565b96505060206108dc89828a01610890565b95505060406108ed89828a01610890565b94505060606108fe89828a01610890565b935050608061090f89828a01610890565b92505060a061092089828a01610836565b9150509295509295509295565b61093681610869565b82525050565b5f60208201905061094f5f83018461092d565b92915050565b5f8115159050919050565b61096981610955565b82525050565b5f819050919050565b5f60ff82169050919050565b5f819050919050565b5f6109a76109a261099d8461096f565b610984565b610978565b9050919050565b6109b78161098d565b82525050565b6109c681610817565b82525050565b5f60a0820190506109df5f830188610960565b6109ec6020830187610960565b6109f960408301866109ae565b610a0660608301856109bd565b610a13608083018461092d565b9695505050505050565b610a2681610978565b8114610a30575f80fd5b50565b5f81519050610a4181610a1d565b92915050565b5f60208284031215610a5c57610a5b610813565b5b5f610a6984828501610a33565b91505092915050565b610a7b81610978565b82525050565b5f60a082019050610a945f830188610960565b610aa16020830187610960565b610aae6040830186610a72565b610abb60608301856109bd565b610ac8608083018461092d565b9695505050505050565b60805160a05160c05160e051613acb610c015f395f818161088e015281816108fe01528181610a3e01528181610b8301528181610c5c01528181610cb801528181610e2801528181610ef601528181610fa90152818161111a0152818161118a015281816112ca0152818161140f015281816114e8015281816115440152818161160601528181611a6601528181611b5401528181611c2801528181611c8501528181611ce101528181611e1701528181611f650152818161202d0152818161208b01526120e701525f8181610eb9015261193401525f81816107b401528181610998015281816110370152818161122401526121a201525f8181610af801528181610b2101528181611384015281816113ad01528181611eda01528181611f0301526121c60152613acb5ff3fe608060405260043610610165575f3560e01c806391d14854116100d0578063d547741f11610089578063f688bcfb11610063578063f688bcfb1461051b578063f887ea4014610543578063f9bda21f1461056d578063fe136c4e1461059757610165565b8063d547741f1461048f578063db81f99b146104b7578063dcb6e250146104df57610165565b806391d14854146103715780639c50adee146103ad578063a217fddf146103d5578063c45a0155146103ff578063d391014b14610429578063d4fac45d1461045357610165565b806331f7d9641161012257806331f7d9641461028757806336568abe146102b15780634cc05a71146102d95780635358fbda1461030357806372806f701461031f57806389a302711461034757610165565b806301ffc9a714610169578063248a9ca3146101a557806329608ba6146101e15780632dfdf0b51461020b5780632f2ff15d146102355780632f6ee6951461025d575b5f80fd5b348015610174575f80fd5b5061018f600480360381019061018a9190612cae565b6105d7565b60405161019c9190612cf3565b60405180910390f35b3480156101b0575f80fd5b506101cb60048036038101906101c69190612d3f565b610650565b6040516101d89190612d79565b60405180910390f35b3480156101ec575f80fd5b506101f561066c565b6040516102029190612daa565b60405180910390f35b348015610216575f80fd5b5061021f610672565b60405161022c9190612daa565b60405180910390f35b348015610240575f80fd5b5061025b60048036038101906102569190612e1d565b610678565b005b348015610268575f80fd5b5061027161069a565b60405161027e9190612e76565b60405180910390f35b348015610292575f80fd5b5061029b61069f565b6040516102a89190612e9e565b60405180910390f35b3480156102bc575f80fd5b506102d760048036038101906102d29190612e1d565b6106a3565b005b3480156102e4575f80fd5b506102ed61071e565b6040516102fa9190612daa565b60405180910390f35b61031d60048036038101906103189190612ee1565b610724565b005b34801561032a575f80fd5b5061034560048036038101906103409190612f0c565b610d74565b005b348015610352575f80fd5b5061035b611604565b6040516103689190612e9e565b60405180910390f35b34801561037c575f80fd5b5061039760048036038101906103929190612e1d565b611628565b6040516103a49190612cf3565b60405180910390f35b3480156103b8575f80fd5b506103d360048036038101906103ce9190612fb0565b61168b565b005b3480156103e0575f80fd5b506103e961192c565b6040516103f69190612d79565b60405180910390f35b34801561040a575f80fd5b50610413611932565b6040516104209190613082565b60405180910390f35b348015610434575f80fd5b5061043d611956565b60405161044a9190612d79565b60405180910390f35b34801561045e575f80fd5b506104796004803603810190610474919061309b565b61197a565b6040516104869190612daa565b60405180910390f35b34801561049a575f80fd5b506104b560048036038101906104b09190612e1d565b6119fc565b005b3480156104c2575f80fd5b506104dd60048036038101906104d89190612ee1565b611a1e565b005b3480156104ea575f80fd5b506105056004803603810190610500919061309b565b611d98565b6040516105129190612daa565b60405180910390f35b348015610526575f80fd5b50610541600480360381019061053c9190612ee1565b611e85565b005b34801561054e575f80fd5b506105576121a0565b60405161056491906130f9565b60405180910390f35b348015610578575f80fd5b506105816121c4565b60405161058e9190612daa565b60405180910390f35b3480156105a2575f80fd5b506105bd60048036038101906105b89190613112565b6121e8565b6040516105ce95949392919061313d565b60405180910390f35b5f7f7965db0b000000000000000000000000000000000000000000000000000000007bffffffffffffffffffffffffffffffffffffffffffffffffffffffff1916827bffffffffffffffffffffffffffffffffffffffffffffffffffffffff1916148061064957506106488261225d565b5b9050919050565b5f805f8381526020019081526020015f20600101549050919050565b60025481565b60055481565b61068182610650565b61068a816122c6565b61069483836122da565b50505050565b600681565b5f81565b6106ab6123c3565b73ffffffffffffffffffffffffffffffffffffffff168173ffffffffffffffffffffffffffffffffffffffff161461070f576040517f6697b23200000000000000000000000000000000000000000000000000000000815260040160405180910390fd5b61071982826123ca565b505050565b60065481565b61072c6124b3565b5f3403610765576040517f1f2a200500000000000000000000000000000000000000000000000000000000815260040160405180910390fd5b5f600267ffffffffffffffff8111156107815761078061318e565b5b6040519080825280602002602001820160405280156107af5781602001602082028036833780820191505090505b5090507f000000000000000000000000000000000000000000000000000000000000000073ffffffffffffffffffffffffffffffffffffffff1663ad5c46486040518163ffffffff1660e01b8152600401602060405180830381865afa15801561081b573d5f803e3d5ffd5b505050506040513d601f19601f8201168201806040525081019061083f91906131cf565b815f81518110610852576108516131fa565b5b602002602001019073ffffffffffffffffffffffffffffffffffffffff16908173ffffffffffffffffffffffffffffffffffffffff16815250507f0000000000000000000000000000000000000000000000000000000000000000816001815181106108c1576108c06131fa565b5b602002602001019073ffffffffffffffffffffffffffffffffffffffff16908173ffffffffffffffffffffffffffffffffffffffff16815250505f7f000000000000000000000000000000000000000000000000000000000000000073ffffffffffffffffffffffffffffffffffffffff166370a08231306040518263ffffffff1660e01b81526004016109559190612e9e565b602060405180830381865afa158015610970573d5f803e3d5ffd5b505050506040513d601f19601f82011682018060405250810190610994919061323b565b90507f000000000000000000000000000000000000000000000000000000000000000073ffffffffffffffffffffffffffffffffffffffff16637ff36ab534858530426040518663ffffffff1660e01b81526004016109f6949392919061331d565b5f6040518083038185885af1158015610a11573d5f803e3d5ffd5b50505050506040513d5f823e3d601f19601f82011682018060405250810190610a3a919061348a565b505f7f000000000000000000000000000000000000000000000000000000000000000073ffffffffffffffffffffffffffffffffffffffff166370a08231306040518263ffffffff1660e01b8152600401610a959190612e9e565b602060405180830381865afa158015610ab0573d5f803e3d5ffd5b505050506040513d601f19601f82011682018060405250810190610ad4919061323b565b90505f8282610ae391906134fe565b90505f81600254610af49190613531565b90507f0000000000000000000000000000000000000000000000000000000000000000811115610b7d57807f00000000000000000000000000000000000000000000000000000000000000006040517ff480e285000000000000000000000000000000000000000000000000000000008152600401610b74929190613564565b60405180910390fd5b8160035f7f000000000000000000000000000000000000000000000000000000000000000073ffffffffffffffffffffffffffffffffffffffff1673ffffffffffffffffffffffffffffffffffffffff1681526020019081526020015f205f3373ffffffffffffffffffffffffffffffffffffffff1673ffffffffffffffffffffffffffffffffffffffff1681526020019081526020015f205f828254610c249190613531565b925050819055508060028190555060055f81548092919060010191905055503373ffffffffffffffffffffffffffffffffffffffff167f000000000000000000000000000000000000000000000000000000000000000073ffffffffffffffffffffffffffffffffffffffff167f4e2ca0515ed1aef1395f66b5303bb5d6f1bf9d61a353fa53f73f8ac9973fa9f63460035f7f000000000000000000000000000000000000000000000000000000000000000073ffffffffffffffffffffffffffffffffffffffff1673ffffffffffffffffffffffffffffffffffffffff1681526020019081526020015f205f3373ffffffffffffffffffffffffffffffffffffffff1673ffffffffffffffffffffffffffffffffffffffff1681526020019081526020015f205486604051610d5c9392919061358b565b60405180910390a35050505050610d716124f9565b50565b610d7c6124b3565b815f8103610db6576040517f1f2a200500000000000000000000000000000000000000000000000000000000815260040160405180910390fd5b5f73ffffffffffffffffffffffffffffffffffffffff168473ffffffffffffffffffffffffffffffffffffffff1603610e2657836040517fbf16aab6000000000000000000000000000000000000000000000000000000008152600401610e1d9190612e9e565b60405180910390fd5b7f000000000000000000000000000000000000000000000000000000000000000073ffffffffffffffffffffffffffffffffffffffff168473ffffffffffffffffffffffffffffffffffffffff1603610eb657836040517fbf16aab6000000000000000000000000000000000000000000000000000000008152600401610ead9190612e9e565b60405180910390fd5b5f7f000000000000000000000000000000000000000000000000000000000000000073ffffffffffffffffffffffffffffffffffffffff1663e6a43905867f00000000000000000000000000000000000000000000000000000000000000006040518363ffffffff1660e01b8152600401610f329291906135c0565b602060405180830381865afa158015610f4d573d5f803e3d5ffd5b505050506040513d601f19601f82011682018060405250810190610f7191906131cf565b90505f73ffffffffffffffffffffffffffffffffffffffff168173ffffffffffffffffffffffffffffffffffffffff160361100557847f00000000000000000000000000000000000000000000000000000000000000006040517f6de2b625000000000000000000000000000000000000000000000000000000008152600401610ffc9291906135c0565b60405180910390fd5b6110323330868873ffffffffffffffffffffffffffffffffffffffff16612502909392919063ffffffff16565b61107d7f0000000000000000000000000000000000000000000000000000000000000000858773ffffffffffffffffffffffffffffffffffffffff166125849092919063ffffffff16565b5f600267ffffffffffffffff8111156110995761109861318e565b5b6040519080825280602002602001820160405280156110c75781602001602082028036833780820191505090505b50905085815f815181106110de576110dd6131fa565b5b602002602001019073ffffffffffffffffffffffffffffffffffffffff16908173ffffffffffffffffffffffffffffffffffffffff16815250507f00000000000000000000000000000000000000000000000000000000000000008160018151811061114d5761114c6131fa565b5b602002602001019073ffffffffffffffffffffffffffffffffffffffff16908173ffffffffffffffffffffffffffffffffffffffff16815250505f7f000000000000000000000000000000000000000000000000000000000000000073ffffffffffffffffffffffffffffffffffffffff166370a08231306040518263ffffffff1660e01b81526004016111e19190612e9e565b602060405180830381865afa1580156111fc573d5f803e3d5ffd5b505050506040513d601f19601f82011682018060405250810190611220919061323b565b90507f000000000000000000000000000000000000000000000000000000000000000073ffffffffffffffffffffffffffffffffffffffff166338ed173987878530426040518663ffffffff1660e01b81526004016112839594939291906135e7565b5f604051808303815f875af115801561129e573d5f803e3d5ffd5b505050506040513d5f823e3d601f19601f820116820180604052508101906112c6919061348a565b505f7f000000000000000000000000000000000000000000000000000000000000000073ffffffffffffffffffffffffffffffffffffffff166370a08231306040518263ffffffff1660e01b81526004016113219190612e9e565b602060405180830381865afa15801561133c573d5f803e3d5ffd5b505050506040513d601f19601f82011682018060405250810190611360919061323b565b90505f828261136f91906134fe565b90505f816002546113809190613531565b90507f000000000000000000000000000000000000000000000000000000000000000081111561140957807f00000000000000000000000000000000000000000000000000000000000000006040517ff480e285000000000000000000000000000000000000000000000000000000008152600401611400929190613564565b60405180910390fd5b8160035f7f000000000000000000000000000000000000000000000000000000000000000073ffffffffffffffffffffffffffffffffffffffff1673ffffffffffffffffffffffffffffffffffffffff1681526020019081526020015f205f3373ffffffffffffffffffffffffffffffffffffffff1673ffffffffffffffffffffffffffffffffffffffff1681526020019081526020015f205f8282546114b09190613531565b925050819055508060028190555060055f81548092919060010191905055503373ffffffffffffffffffffffffffffffffffffffff167f000000000000000000000000000000000000000000000000000000000000000073ffffffffffffffffffffffffffffffffffffffff167f4e2ca0515ed1aef1395f66b5303bb5d6f1bf9d61a353fa53f73f8ac9973fa9f68b60035f7f000000000000000000000000000000000000000000000000000000000000000073ffffffffffffffffffffffffffffffffffffffff1673ffffffffffffffffffffffffffffffffffffffff1681526020019081526020015f205f3373ffffffffffffffffffffffffffffffffffffffff1673ffffffffffffffffffffffffffffffffffffffff1681526020019081526020015f2054866040516115e89392919061358b565b60405180910390a3505050505050506115ff6124f9565b505050565b7f000000000000000000000000000000000000000000000000000000000000000081565b5f805f8481526020019081526020015f205f015f8373ffffffffffffffffffffffffffffffffffffffff1673ffffffffffffffffffffffffffffffffffffffff1681526020019081526020015f205f9054906101000a900460ff16905092915050565b7f2172861495e7b85edac73e3cd5fbb42dd675baadf627720e687bcfdaca0250966116b5816122c6565b5f73ffffffffffffffffffffffffffffffffffffffff168673ffffffffffffffffffffffffffffffffffffffff160361172557856040517fbf16aab600000000000000000000000000000000000000000000000000000000815260040161171c9190612e9e565b60405180910390fd5b5f60045f8873ffffffffffffffffffffffffffffffffffffffff1673ffffffffffffffffffffffffffffffffffffffff1681526020019081526020015f20905085815f015f6101000a81548160ff0219169083151502179055505f815f0160016101000a81548160ff0219169083151502179055505f8560ff1603611855578673ffffffffffffffffffffffffffffffffffffffff1663313ce5676040518163ffffffff1660e01b8152600401602060405180830381865afa92505050801561180c57506040513d601f19601f820116820180604052508101906118099190613653565b60015b611832576012815f0160026101000a81548160ff021916908360ff160217905550611850565b80825f0160026101000a81548160ff021916908360ff160217905550505b611872565b84815f0160026101000a81548160ff021916908360ff1602179055505b83816001018190555082816002015f6101000a81548173ffffffffffffffffffffffffffffffffffffffff021916908373ffffffffffffffffffffffffffffffffffffffff1602179055508673ffffffffffffffffffffffffffffffffffffffff167fceec6d18b470b58eabbfc22b7d771c54609acb2bbe777747424f6e9a5a9d5a25875f845f0160029054906101000a900460ff16888860405161191b95949392919061313d565b60405180910390a250505050505050565b5f801b81565b7f000000000000000000000000000000000000000000000000000000000000000081565b7f2172861495e7b85edac73e3cd5fbb42dd675baadf627720e687bcfdaca02509681565b5f60035f8473ffffffffffffffffffffffffffffffffffffffff1673ffffffffffffffffffffffffffffffffffffffff1681526020019081526020015f205f8373ffffffffffffffffffffffffffffffffffffffff1673ffffffffffffffffffffffffffffffffffffffff1681526020019081526020015f2054905092915050565b611a0582610650565b611a0e816122c6565b611a1883836123ca565b50505050565b611a266124b3565b805f8103611a60576040517f1f2a200500000000000000000000000000000000000000000000000000000000815260040160405180910390fd5b5f60035f7f000000000000000000000000000000000000000000000000000000000000000073ffffffffffffffffffffffffffffffffffffffff1673ffffffffffffffffffffffffffffffffffffffff1681526020019081526020015f205f3373ffffffffffffffffffffffffffffffffffffffff1673ffffffffffffffffffffffffffffffffffffffff1681526020019081526020015f2054905082811015611b435780836040517fcf479181000000000000000000000000000000000000000000000000000000008152600401611b3a929190613564565b60405180910390fd5b8281611b4f91906134fe565b60035f7f000000000000000000000000000000000000000000000000000000000000000073ffffffffffffffffffffffffffffffffffffffff1673ffffffffffffffffffffffffffffffffffffffff1681526020019081526020015f205f3373ffffffffffffffffffffffffffffffffffffffff1673ffffffffffffffffffffffffffffffffffffffff1681526020019081526020015f20819055508260025410611c08578260025f8282540392505081905550611c10565b5f6002819055505b60065f8154809291906001019190505550611c6c33847f000000000000000000000000000000000000000000000000000000000000000073ffffffffffffffffffffffffffffffffffffffff1661261d9092919063ffffffff16565b3373ffffffffffffffffffffffffffffffffffffffff167f000000000000000000000000000000000000000000000000000000000000000073ffffffffffffffffffffffffffffffffffffffff167ff341246adaac6f497bc2a656f546ab9e182111d630394f0c57c710a59a2cb5678560035f7f000000000000000000000000000000000000000000000000000000000000000073ffffffffffffffffffffffffffffffffffffffff1673ffffffffffffffffffffffffffffffffffffffff1681526020019081526020015f205f3373ffffffffffffffffffffffffffffffffffffffff1673ffffffffffffffffffffffffffffffffffffffff1681526020019081526020015f2054604051611d83929190613564565b60405180910390a35050611d956124f9565b50565b5f8060035f8573ffffffffffffffffffffffffffffffffffffffff1673ffffffffffffffffffffffffffffffffffffffff1681526020019081526020015f205f8473ffffffffffffffffffffffffffffffffffffffff1673ffffffffffffffffffffffffffffffffffffffff1681526020019081526020015f205490507f000000000000000000000000000000000000000000000000000000000000000073ffffffffffffffffffffffffffffffffffffffff168473ffffffffffffffffffffffffffffffffffffffff1603611e715780915050611e7f565b611e7b848261269c565b9150505b92915050565b611e8d6124b3565b805f8103611ec7576040517f1f2a200500000000000000000000000000000000000000000000000000000000815260040160405180910390fd5b5f82600254611ed69190613531565b90507f0000000000000000000000000000000000000000000000000000000000000000811115611f5f57807f00000000000000000000000000000000000000000000000000000000000000006040517ff480e285000000000000000000000000000000000000000000000000000000008152600401611f56929190613564565b60405180910390fd5b8260035f7f000000000000000000000000000000000000000000000000000000000000000073ffffffffffffffffffffffffffffffffffffffff1673ffffffffffffffffffffffffffffffffffffffff1681526020019081526020015f205f3373ffffffffffffffffffffffffffffffffffffffff1673ffffffffffffffffffffffffffffffffffffffff1681526020019081526020015f205f8282546120069190613531565b925050819055508060028190555060055f81548092919060010191905055506120723330857f000000000000000000000000000000000000000000000000000000000000000073ffffffffffffffffffffffffffffffffffffffff16612502909392919063ffffffff16565b3373ffffffffffffffffffffffffffffffffffffffff167f000000000000000000000000000000000000000000000000000000000000000073ffffffffffffffffffffffffffffffffffffffff167f4e2ca0515ed1aef1395f66b5303bb5d6f1bf9d61a353fa53f73f8ac9973fa9f68560035f7f000000000000000000000000000000000000000000000000000000000000000073ffffffffffffffffffffffffffffffffffffffff1673ffffffffffffffffffffffffffffffffffffffff1681526020019081526020015f205f3373ffffffffffffffffffffffffffffffffffffffff1673ffffffffffffffffffffffffffffffffffffffff1681526020019081526020015f20548760405161218b9392919061358b565b60405180910390a3505061219d6124f9565b50565b7f000000000000000000000000000000000000000000000000000000000000000081565b7f000000000000000000000000000000000000000000000000000000000000000081565b6004602052805f5260405f205f91509050805f015f9054906101000a900460ff1690805f0160019054906101000a900460ff1690805f0160029054906101000a900460ff1690806001015490806002015f9054906101000a900473ffffffffffffffffffffffffffffffffffffffff16905085565b5f7f01ffc9a7000000000000000000000000000000000000000000000000000000007bffffffffffffffffffffffffffffffffffffffffffffffffffffffff1916827bffffffffffffffffffffffffffffffffffffffffffffffffffffffff1916149050919050565b6122d7816122d26123c3565b6129f6565b50565b5f6122e58383611628565b6123b95760015f808581526020019081526020015f205f015f8473ffffffffffffffffffffffffffffffffffffffff1673ffffffffffffffffffffffffffffffffffffffff1681526020019081526020015f205f6101000a81548160ff0219169083151502179055506123566123c3565b73ffffffffffffffffffffffffffffffffffffffff168273ffffffffffffffffffffffffffffffffffffffff16847f2f8788117e7eff1d82e926ec794901d17c78024a50270940304540a733656f0d60405160405180910390a4600190506123bd565b5f90505b92915050565b5f33905090565b5f6123d58383611628565b156124a9575f805f8581526020019081526020015f205f015f8473ffffffffffffffffffffffffffffffffffffffff1673ffffffffffffffffffffffffffffffffffffffff1681526020019081526020015f205f6101000a81548160ff0219169083151502179055506124466123c3565b73ffffffffffffffffffffffffffffffffffffffff168273ffffffffffffffffffffffffffffffffffffffff16847ff6391f5c32d9c69d2a47ea670b442974b53935d1edc7fd64eb21e047a839171b60405160405180910390a4600190506124ad565b5f90505b92915050565b6002600154036124ef576040517f3ee5aeb500000000000000000000000000000000000000000000000000000000815260040160405180910390fd5b6002600181905550565b60018081905550565b61257e848573ffffffffffffffffffffffffffffffffffffffff166323b872dd8686866040516024016125379392919061367e565b604051602081830303815290604052915060e01b6020820180517bffffffffffffffffffffffffffffffffffffffffffffffffffffffff8381831617835250505050612a47565b50505050565b5f8373ffffffffffffffffffffffffffffffffffffffff1663dd62ed3e30856040518363ffffffff1660e01b81526004016125c09291906135c0565b602060405180830381865afa1580156125db573d5f803e3d5ffd5b505050506040513d601f19601f820116820180604052508101906125ff919061323b565b9050612617848484846126129190613531565b612ae2565b50505050565b612697838473ffffffffffffffffffffffffffffffffffffffff1663a9059cbb85856040516024016126509291906136b3565b604051602081830303815290604052915060e01b6020820180517bffffffffffffffffffffffffffffffffffffffffffffffffffffffff8381831617835250505050612a47565b505050565b5f8082036126ac575f90506129f0565b5f60045f8573ffffffffffffffffffffffffffffffffffffffff1673ffffffffffffffffffffffffffffffffffffffff1681526020019081526020015f206040518060a00160405290815f82015f9054906101000a900460ff161515151581526020015f820160019054906101000a900460ff161515151581526020015f820160029054906101000a900460ff1660ff1660ff16815260200160018201548152602001600282015f9054906101000a900473ffffffffffffffffffffffffffffffffffffffff1673ffffffffffffffffffffffffffffffffffffffff1673ffffffffffffffffffffffffffffffffffffffff168152505090505f816080015190505f73ffffffffffffffffffffffffffffffffffffffff168173ffffffffffffffffffffffffffffffffffffffff160361281d57846040517f8a7a791d0000000000000000000000000000000000000000000000000000000081526004016128149190612e9e565b60405180910390fd5b5f8173ffffffffffffffffffffffffffffffffffffffff1663feaf968c6040518163ffffffff1660e01b815260040160a060405180830381865afa158015612867573d5f803e3d5ffd5b505050506040513d601f19601f8201168201806040525081019061288b919061374c565b5050509150505f81136128ca576040517f4fd58d4b00000000000000000000000000000000000000000000000000000000815260040160405180910390fd5b5f8190505f8373ffffffffffffffffffffffffffffffffffffffff1663313ce5676040518163ffffffff1660e01b8152600401602060405180830381865afa158015612918573d5f803e3d5ffd5b505050506040513d601f19601f8201168201806040525081019061293c9190613653565b90505f828861294b91906137c3565b90505f8260ff1611156129735781600a6129659190613933565b8161297091906139aa565b90505b600660ff16866040015160ff16106129b9575f6006876040015161299791906139da565b600a6129a39190613933565b905080826129b191906139aa565b9750506129e9565b5f866040015160066129cb91906139da565b600a6129d79190613933565b905080826129e591906137c3565b9750505b5050505050505b92915050565b612a008282611628565b612a435780826040517fe2517d3f000000000000000000000000000000000000000000000000000000008152600401612a3a929190613a0e565b60405180910390fd5b5050565b5f8060205f8451602086015f885af180612a66576040513d5f823e3d81fd5b3d92505f519150505f8214612a7f576001811415612a9a565b5f8473ffffffffffffffffffffffffffffffffffffffff163b145b15612adc57836040517f5274afe7000000000000000000000000000000000000000000000000000000008152600401612ad39190612e9e565b60405180910390fd5b50505050565b5f8373ffffffffffffffffffffffffffffffffffffffff1663095ea7b38484604051602401612b129291906136b3565b604051602081830303815290604052915060e01b6020820180517bffffffffffffffffffffffffffffffffffffffffffffffffffffffff83818316178352505050509050612b608482612bef565b612be957612bde848573ffffffffffffffffffffffffffffffffffffffff1663095ea7b3865f604051602401612b97929190613a6e565b604051602081830303815290604052915060e01b6020820180517bffffffffffffffffffffffffffffffffffffffffffffffffffffffff8381831617835250505050612a47565b612be88482612a47565b5b50505050565b5f805f8060205f8651602088015f8a5af192503d91505f519050828015612c3d57505f8214612c215760018114612c3c565b5f8673ffffffffffffffffffffffffffffffffffffffff163b115b5b935050505092915050565b5f604051905090565b5f80fd5b5f80fd5b5f7fffffffff0000000000000000000000000000000000000000000000000000000082169050919050565b612c8d81612c59565b8114612c97575f80fd5b50565b5f81359050612ca881612c84565b92915050565b5f60208284031215612cc357612cc2612c51565b5b5f612cd084828501612c9a565b91505092915050565b5f8115159050919050565b612ced81612cd9565b82525050565b5f602082019050612d065f830184612ce4565b92915050565b5f819050919050565b612d1e81612d0c565b8114612d28575f80fd5b50565b5f81359050612d3981612d15565b92915050565b5f60208284031215612d5457612d53612c51565b5b5f612d6184828501612d2b565b91505092915050565b612d7381612d0c565b82525050565b5f602082019050612d8c5f830184612d6a565b92915050565b5f819050919050565b612da481612d92565b82525050565b5f602082019050612dbd5f830184612d9b565b92915050565b5f73ffffffffffffffffffffffffffffffffffffffff82169050919050565b5f612dec82612dc3565b9050919050565b612dfc81612de2565b8114612e06575f80fd5b50565b5f81359050612e1781612df3565b92915050565b5f8060408385031215612e3357612e32612c51565b5b5f612e4085828601612d2b565b9250506020612e5185828601612e09565b9150509250929050565b5f60ff82169050919050565b612e7081612e5b565b82525050565b5f602082019050612e895f830184612e67565b92915050565b612e9881612de2565b82525050565b5f602082019050612eb15f830184612e8f565b92915050565b612ec081612d92565b8114612eca575f80fd5b50565b5f81359050612edb81612eb7565b92915050565b5f60208284031215612ef657612ef5612c51565b5b5f612f0384828501612ecd565b91505092915050565b5f805f60608486031215612f2357612f22612c51565b5b5f612f3086828701612e09565b9350506020612f4186828701612ecd565b9250506040612f5286828701612ecd565b9150509250925092565b612f6581612cd9565b8114612f6f575f80fd5b50565b5f81359050612f8081612f5c565b92915050565b612f8f81612e5b565b8114612f99575f80fd5b50565b5f81359050612faa81612f86565b92915050565b5f805f805f60a08688031215612fc957612fc8612c51565b5b5f612fd688828901612e09565b9550506020612fe788828901612f72565b9450506040612ff888828901612f9c565b935050606061300988828901612ecd565b925050608061301a88828901612e09565b9150509295509295909350565b5f819050919050565b5f61304a61304561304084612dc3565b613027565b612dc3565b9050919050565b5f61305b82613030565b9050919050565b5f61306c82613051565b9050919050565b61307c81613062565b82525050565b5f6020820190506130955f830184613073565b92915050565b5f80604083850312156130b1576130b0612c51565b5b5f6130be85828601612e09565b92505060206130cf85828601612e09565b9150509250929050565b5f6130e382613051565b9050919050565b6130f3816130d9565b82525050565b5f60208201905061310c5f8301846130ea565b92915050565b5f6020828403121561312757613126612c51565b5b5f61313484828501612e09565b91505092915050565b5f60a0820190506131505f830188612ce4565b61315d6020830187612ce4565b61316a6040830186612e67565b6131776060830185612d9b565b6131846080830184612e8f565b9695505050505050565b7f4e487b71000000000000000000000000000000000000000000000000000000005f52604160045260245ffd5b5f815190506131c981612df3565b92915050565b5f602082840312156131e4576131e3612c51565b5b5f6131f1848285016131bb565b91505092915050565b7f4e487b71000000000000000000000000000000000000000000000000000000005f52603260045260245ffd5b5f8151905061323581612eb7565b92915050565b5f602082840312156132505761324f612c51565b5b5f61325d84828501613227565b91505092915050565b5f81519050919050565b5f82825260208201905092915050565b5f819050602082019050919050565b61329881612de2565b82525050565b5f6132a9838361328f565b60208301905092915050565b5f602082019050919050565b5f6132cb82613266565b6132d58185613270565b93506132e083613280565b805f5b838110156133105781516132f7888261329e565b9750613302836132b5565b9250506001810190506132e3565b5085935050505092915050565b5f6080820190506133305f830187612d9b565b818103602083015261334281866132c1565b90506133516040830185612e8f565b61335e6060830184612d9b565b95945050505050565b5f80fd5b5f601f19601f8301169050919050565b6133848261336b565b810181811067ffffffffffffffff821117156133a3576133a261318e565b5b80604052505050565b5f6133b5612c48565b90506133c1828261337b565b919050565b5f67ffffffffffffffff8211156133e0576133df61318e565b5b602082029050602081019050919050565b5f80fd5b5f613407613402846133c6565b6133ac565b9050808382526020820190506020840283018581111561342a576134296133f1565b5b835b81811015613453578061343f8882613227565b84526020840193505060208101905061342c565b5050509392505050565b5f82601f83011261347157613470613367565b5b81516134818482602086016133f5565b91505092915050565b5f6020828403121561349f5761349e612c51565b5b5f82015167ffffffffffffffff8111156134bc576134bb612c55565b5b6134c88482850161345d565b91505092915050565b7f4e487b71000000000000000000000000000000000000000000000000000000005f52601160045260245ffd5b5f61350882612d92565b915061351383612d92565b925082820390508181111561352b5761352a6134d1565b5b92915050565b5f61353b82612d92565b915061354683612d92565b925082820190508082111561355e5761355d6134d1565b5b92915050565b5f6040820190506135775f830185612d9b565b6135846020830184612d9b565b9392505050565b5f60608201905061359e5f830186612d9b565b6135ab6020830185612d9b565b6135b86040830184612d9b565b949350505050565b5f6040820190506135d35f830185612e8f565b6135e06020830184612e8f565b9392505050565b5f60a0820190506135fa5f830188612d9b565b6136076020830187612d9b565b818103604083015261361981866132c1565b90506136286060830185612e8f565b6136356080830184612d9b565b9695505050505050565b5f8151905061364d81612f86565b92915050565b5f6020828403121561366857613667612c51565b5b5f6136758482850161363f565b91505092915050565b5f6060820190506136915f830186612e8f565b61369e6020830185612e8f565b6136ab6040830184612d9b565b949350505050565b5f6040820190506136c65f830185612e8f565b6136d36020830184612d9b565b9392505050565b5f69ffffffffffffffffffff82169050919050565b6136f8816136da565b8114613702575f80fd5b50565b5f81519050613713816136ef565b92915050565b5f819050919050565b61372b81613719565b8114613735575f80fd5b50565b5f8151905061374681613722565b92915050565b5f805f805f60a0868803121561376557613764612c51565b5b5f61377288828901613705565b955050602061378388828901613738565b945050604061379488828901613227565b93505060606137a588828901613227565b92505060806137b688828901613705565b9150509295509295909350565b5f6137cd82612d92565b91506137d883612d92565b92508282026137e681612d92565b915082820484148315176137fd576137fc6134d1565b5b5092915050565b5f8160011c9050919050565b5f808291508390505b600185111561385957808604811115613835576138346134d1565b5b60018516156138445780820291505b808102905061385285613804565b9450613819565b94509492505050565b5f82613871576001905061392c565b8161387e575f905061392c565b8160018114613894576002811461389e576138cd565b600191505061392c565b60ff8411156138b0576138af6134d1565b5b8360020a9150848211156138c7576138c66134d1565b5b5061392c565b5060208310610133831016604e8410600b84101617156139025782820a9050838111156138fd576138fc6134d1565b5b61392c565b61390f8484846001613810565b92509050818404811115613926576139256134d1565b5b81810290505b9392505050565b5f61393d82612d92565b915061394883612e5b565b92506139757fffffffffffffffffffffffffffffffffffffffffffffffffffffffffffffffff8484613862565b905092915050565b7f4e487b71000000000000000000000000000000000000000000000000000000005f52601260045260245ffd5b5f6139b482612d92565b91506139bf83612d92565b9250826139cf576139ce61397d565b5b828204905092915050565b5f6139e482612e5b565b91506139ef83612e5b565b9250828203905060ff811115613a0857613a076134d1565b5b92915050565b5f604082019050613a215f830185612e8f565b613a2e6020830184612d6a565b9392505050565b5f819050919050565b5f613a58613a53613a4e84613a35565b613027565b612d92565b9050919050565b613a6881613a3e565b82525050565b5f604082019050613a815f830185612e8f565b613a8e6020830184613a5f565b939250505056fea26469706673582212209785165f90a8a5446f4da5a26a86887018276690a6ad4e146e200831f70da6fb64736f6c634300081a0033",
			"opcodes": "PUSH2 0x100 PUSH1 0x40 MSTORE CALLVALUE DUP1 ISZERO PUSH2 0x10 JUMPI PUSH0 DUP1 REVERT JUMPDEST POP PUSH1 0x40 MLOAD PUSH2 0x46CC CODESIZE SUB DUP1 PUSH2 0x46CC DUP4 CODECOPY DUP2 DUP2 ADD PUSH1 0x40 MSTORE DUP2 ADD SWAP1 PUSH2 0x32 SWAP2 SWAP1 PUSH2 0x8A4 JUMP JUMPDEST PUSH1 0x1 DUP1 DUP2 SWAP1 SSTORE POP PUSH0 DUP7 SUB PUSH2 0x72 JUMPI PUSH1 0x40 MLOAD PUSH32 0x1F2A200500000000000000000000000000000000000000000000000000000000 DUP2 MSTORE PUSH1 0x4 ADD PUSH1 0x40 MLOAD DUP1 SWAP2 SUB SWAP1 REVERT JUMPDEST PUSH0 PUSH20 0xFFFFFFFFFFFFFFFFFFFFFFFFFFFFFFFFFFFFFFFF AND DUP5 PUSH20 0xFFFFFFFFFFFFFFFFFFFFFFFFFFFFFFFFFFFFFFFF AND EQ DUP1 PUSH2 0xD7 JUMPI POP PUSH0 PUSH20 0xFFFFFFFFFFFFFFFFFFFFFFFFFFFFFFFFFFFFFFFF AND DUP4 PUSH20 0xFFFFFFFFFFFFFFFFFFFFFFFFFFFFFFFFFFFFFFFF AND EQ JUMPDEST DUP1 PUSH2 0x10D JUMPI POP PUSH0 PUSH20 0xFFFFFFFFFFFFFFFFFFFFFFFFFFFFFFFFFFFFFFFF AND DUP3 PUSH20 0xFFFFFFFFFFFFFFFFFFFFFFFFFFFFFFFFFFFFFFFF AND EQ JUMPDEST ISZERO PUSH2 0x14F JUMPI PUSH0 PUSH1 0x40 MLOAD PUSH32 0xBF16AAB600000000000000000000000000000000000000000000000000000000 DUP2 MSTORE PUSH1 0x4 ADD PUSH2 0x146 SWAP2 SWAP1 PUSH2 0x93C JUMP JUMPDEST PUSH1 0x40 MLOAD DUP1 SWAP2 SUB SWAP1 REVERT JUMPDEST DUP6 PUSH1 0x80 DUP2 DUP2 MSTORE POP POP DUP4 PUSH20 0xFFFFFFFFFFFFFFFFFFFFFFFFFFFFFFFFFFFFFFFF AND PUSH1 0xE0 DUP2 PUSH20 0xFFFFFFFFFFFFFFFFFFFFFFFFFFFFFFFFFFFFFFFF AND DUP2 MSTORE POP POP DUP3 PUSH20 0xFFFFFFFFFFFFFFFFFFFFFFFFFFFFFFFFFFFFFFFF AND PUSH1 0xA0 DUP2 PUSH20 0xFFFFFFFFFFFFFFFFFFFFFFFFFFFFFFFFFFFFFFFF AND DUP2 MSTORE POP POP DUP2 PUSH20 0xFFFFFFFFFFFFFFFFFFFFFFFFFFFFFFFFFFFFFFFF AND PUSH1 0xC0 DUP2 PUSH20 0xFFFFFFFFFFFFFFFFFFFFFFFFFFFFFFFFFFFFFFFF AND DUP2 MSTORE POP POP PUSH2 0x205 PUSH0 DUP1 SHL CALLER PUSH2 0x66D PUSH1 0x20 SHL PUSH1 0x20 SHR JUMP JUMPDEST POP PUSH2 0x236 PUSH32 0x2172861495E7B85EDAC73E3CD5FBB42DD675BAADF627720E687BCFDACA025096 CALLER PUSH2 0x66D PUSH1 0x20 SHL PUSH1 0x20 SHR JUMP JUMPDEST POP PUSH2 0x23F PUSH2 0x7CC JUMP JUMPDEST PUSH1 0x1 DUP2 PUSH0 ADD SWAP1 ISZERO ISZERO SWAP1 DUP2 ISZERO ISZERO DUP2 MSTORE POP POP PUSH1 0x1 DUP2 PUSH1 0x20 ADD SWAP1 ISZERO ISZERO SWAP1 DUP2 ISZERO ISZERO DUP2 MSTORE POP POP PUSH1 0x12 DUP2 PUSH1 0x40 ADD SWAP1 PUSH1 0xFF AND SWAP1 DUP2 PUSH1 0xFF AND DUP2 MSTORE POP POP DUP2 DUP2 PUSH1 0x60 ADD DUP2 DUP2 MSTORE POP POP DUP6 DUP2 PUSH1 0x80 ADD SWAP1 PUSH20 0xFFFFFFFFFFFFFFFFFFFFFFFFFFFFFFFFFFFFFFFF AND SWAP1 DUP2 PUSH20 0xFFFFFFFFFFFFFFFFFFFFFFFFFFFFFFFFFFFFFFFF AND DUP2 MSTORE POP POP DUP1 PUSH1 0x4 PUSH0 DUP1 PUSH20 0xFFFFFFFFFFFFFFFFFFFFFFFFFFFFFFFFFFFFFFFF AND PUSH20 0xFFFFFFFFFFFFFFFFFFFFFFFFFFFFFFFFFFFFFFFF AND DUP2 MSTORE PUSH1 0x20 ADD SWAP1 DUP2 MSTORE PUSH1 0x20 ADD PUSH0 KECCAK256 PUSH0 DUP3 ADD MLOAD DUP2 PUSH0 ADD PUSH0 PUSH2 0x100 EXP DUP2 SLOAD DUP2 PUSH1 0xFF MUL NOT AND SWAP1 DUP4 ISZERO ISZERO MUL OR SWAP1 SSTORE POP PUSH1 0x20 DUP3 ADD MLOAD DUP2 PUSH0 ADD PUSH1 0x1 PUSH2 0x100 EXP DUP2 SLOAD DUP2 PUSH1 0xFF MUL NOT AND SWAP1 DUP4 ISZERO ISZERO MUL OR SWAP1 SSTORE POP PUSH1 0x40 DUP3 ADD MLOAD DUP2 PUSH0 ADD PUSH1 0x2 PUSH2 0x100 EXP DUP2 SLOAD DUP2 PUSH1 0xFF MUL NOT AND SWAP1 DUP4 PUSH1 0xFF AND MUL OR SWAP1 SSTORE POP PUSH1 0x60 DUP3 ADD MLOAD DUP2 PUSH1 0x1 ADD SSTORE PUSH1 0x80 DUP3 ADD MLOAD DUP2 PUSH1 0x2 ADD PUSH0 PUSH2 0x100 EXP DUP2 SLOAD DUP2 PUSH20 0xFFFFFFFFFFFFFFFFFFFFFFFFFFFFFFFFFFFFFFFF MUL NOT AND SWAP1 DUP4 PUSH20 0xFFFFFFFFFFFFFFFFFFFFFFFFFFFFFFFFFFFFFFFF AND MUL OR SWAP1 SSTORE POP SWAP1 POP POP PUSH0 PUSH20 0xFFFFFFFFFFFFFFFFFFFFFFFFFFFFFFFFFFFFFFFF AND PUSH32 0xCEEC6D18B470B58EABBFC22B7D771C54609ACB2BBE777747424F6E9A5A9D5A25 PUSH1 0x1 DUP1 PUSH1 0x12 DUP7 DUP12 PUSH1 0x40 MLOAD PUSH2 0x3F2 SWAP6 SWAP5 SWAP4 SWAP3 SWAP2 SWAP1 PUSH2 0x9CC JUMP JUMPDEST PUSH1 0x40 MLOAD DUP1 SWAP2 SUB SWAP1 LOG2 POP PUSH2 0x403 PUSH2 0x7CC JUMP JUMPDEST PUSH1 0x1 DUP2 PUSH0 ADD SWAP1 ISZERO ISZERO SWAP1 DUP2 ISZERO ISZERO DUP2 MSTORE POP POP PUSH0 DUP2 PUSH1 0x20 ADD SWAP1 ISZERO ISZERO SWAP1 DUP2 ISZERO ISZERO DUP2 MSTORE POP POP PUSH0 PUSH1 0x6 SWAP1 POP PUSH1 0xE0 MLOAD PUSH20 0xFFFFFFFFFFFFFFFFFFFFFFFFFFFFFFFFFFFFFFFF AND PUSH4 0x313CE567 PUSH1 0x40 MLOAD DUP2 PUSH4 0xFFFFFFFF AND PUSH1 0xE0 SHL DUP2 MSTORE PUSH1 0x4 ADD PUSH1 0x20 PUSH1 0x40 MLOAD DUP1 DUP4 SUB DUP2 DUP7 GAS STATICCALL SWAP3 POP POP POP DUP1 ISZERO PUSH2 0x492 JUMPI POP PUSH1 0x40 MLOAD RETURNDATASIZE PUSH1 0x1F NOT PUSH1 0x1F DUP3 ADD AND DUP3 ADD DUP1 PUSH1 0x40 MSTORE POP DUP2 ADD SWAP1 PUSH2 0x48F SWAP2 SWAP1 PUSH2 0xA47 JUMP JUMPDEST PUSH1 0x1 JUMPDEST ISZERO PUSH2 0x49C JUMPI DUP1 SWAP2 POP POP JUMPDEST DUP1 DUP3 PUSH1 0x40 ADD SWAP1 PUSH1 0xFF AND SWAP1 DUP2 PUSH1 0xFF AND DUP2 MSTORE POP POP PUSH32 0xFFFFFFFFFFFFFFFFFFFFFFFFFFFFFFFFFFFFFFFFFFFFFFFFFFFFFFFFFFFFFFFF DUP3 PUSH1 0x60 ADD DUP2 DUP2 MSTORE POP POP PUSH0 DUP3 PUSH1 0x80 ADD SWAP1 PUSH20 0xFFFFFFFFFFFFFFFFFFFFFFFFFFFFFFFFFFFFFFFF AND SWAP1 DUP2 PUSH20 0xFFFFFFFFFFFFFFFFFFFFFFFFFFFFFFFFFFFFFFFF AND DUP2 MSTORE POP POP DUP2 PUSH1 0x4 PUSH0 PUSH1 0xE0 MLOAD PUSH20 0xFFFFFFFFFFFFFFFFFFFFFFFFFFFFFFFFFFFFFFFF AND PUSH20 0xFFFFFFFFFFFFFFFFFFFFFFFFFFFFFFFFFFFFFFFF AND DUP2 MSTORE PUSH1 0x20 ADD SWAP1 DUP2 MSTORE PUSH1 0x20 ADD PUSH0 KECCAK256 PUSH0 DUP3 ADD MLOAD DUP2 PUSH0 ADD PUSH0 PUSH2 0x100 EXP DUP2 SLOAD DUP2 PUSH1 0xFF MUL NOT AND SWAP1 DUP4 ISZERO ISZERO MUL OR SWAP1 SSTORE POP PUSH1 0x20 DUP3 ADD MLOAD DUP2 PUSH0 ADD PUSH1 0x1 PUSH2 0x100 EXP DUP2 SLOAD DUP2 PUSH1 0xFF MUL NOT AND SWAP1 DUP4 ISZERO ISZERO MUL OR SWAP1 SSTORE POP PUSH1 0x40 DUP3 ADD MLOAD DUP2 PUSH0 ADD PUSH1 0x2 PUSH2 0x100 EXP DUP2 SLOAD DUP2 PUSH1 0xFF MUL NOT AND SWAP1 DUP4 PUSH1 0xFF AND MUL OR SWAP1 SSTORE POP PUSH1 0x60 DUP3 ADD MLOAD DUP2 PUSH1 0x1 ADD SSTORE PUSH1 0x80 DUP3 ADD MLOAD DUP2 PUSH1 0x2 ADD PUSH0 PUSH2 0x100 EXP DUP2 SLOAD DUP2 PUSH20 0xFFFFFFFFFFFFFFFFFFFFFFFFFFFFFFFFFFFFFFFF MUL NOT AND SWAP1 DUP4 PUSH20 0xFFFFFFFFFFFFFFFFFFFFFFFFFFFFFFFFFFFFFFFF AND MUL OR SWAP1 SSTORE POP SWAP1 POP POP PUSH1 0xE0 MLOAD PUSH20 0xFFFFFFFFFFFFFFFFFFFFFFFFFFFFFFFFFFFFFFFF AND PUSH32 0xCEEC6D18B470B58EABBFC22B7D771C54609ACB2BBE777747424F6E9A5A9D5A25 PUSH1 0x1 PUSH0 DUP5 DUP7 PUSH1 0x60 ADD MLOAD DUP8 PUSH1 0x80 ADD MLOAD PUSH1 0x40 MLOAD PUSH2 0x658 SWAP6 SWAP5 SWAP4 SWAP3 SWAP2 SWAP1 PUSH2 0xA81 JUMP JUMPDEST PUSH1 0x40 MLOAD DUP1 SWAP2 SUB SWAP1 LOG2 POP POP POP POP POP POP POP POP PUSH2 0xAD2 JUMP JUMPDEST PUSH0 PUSH2 0x67E DUP4 DUP4 PUSH2 0x762 PUSH1 0x20 SHL PUSH1 0x20 SHR JUMP JUMPDEST PUSH2 0x758 JUMPI PUSH1 0x1 PUSH0 DUP1 DUP6 DUP2 MSTORE PUSH1 0x20 ADD SWAP1 DUP2 MSTORE PUSH1 0x20 ADD PUSH0 KECCAK256 PUSH0 ADD PUSH0 DUP5 PUSH20 0xFFFFFFFFFFFFFFFFFFFFFFFFFFFFFFFFFFFFFFFF AND PUSH20 0xFFFFFFFFFFFFFFFFFFFFFFFFFFFFFFFFFFFFFFFF AND DUP2 MSTORE PUSH1 0x20 ADD SWAP1 DUP2 MSTORE PUSH1 0x20 ADD PUSH0 KECCAK256 PUSH0 PUSH2 0x100 EXP DUP2 SLOAD DUP2 PUSH1 0xFF MUL NOT AND SWAP1 DUP4 ISZERO ISZERO MUL OR SWAP1 SSTORE POP PUSH2 0x6F5 PUSH2 0x7C5 PUSH1 0x20 SHL PUSH1 0x20 SHR JUMP JUMPDEST PUSH20 0xFFFFFFFFFFFFFFFFFFFFFFFFFFFFFFFFFFFFFFFF AND DUP3 PUSH20 0xFFFFFFFFFFFFFFFFFFFFFFFFFFFFFFFFFFFFFFFF AND DUP5 PUSH32 0x2F8788117E7EFF1D82E926EC794901D17C78024A50270940304540A733656F0D PUSH1 0x40 MLOAD PUSH1 0x40 MLOAD DUP1 SWAP2 SUB SWAP1 LOG4 PUSH1 0x1 SWAP1 POP PUSH2 0x75C JUMP JUMPDEST PUSH0 SWAP1 POP JUMPDEST SWAP3 SWAP2 POP POP JUMP JUMPDEST PUSH0 DUP1 PUSH0 DUP5 DUP2 MSTORE PUSH1 0x20 ADD SWAP1 DUP2 MSTORE PUSH1 0x20 ADD PUSH0 KECCAK256 PUSH0 ADD PUSH0 DUP4 PUSH20 0xFFFFFFFFFFFFFFFFFFFFFFFFFFFFFFFFFFFFFFFF AND PUSH20 0xFFFFFFFFFFFFFFFFFFFFFFFFFFFFFFFFFFFFFFFF AND DUP2 MSTORE PUSH1 0x20 ADD SWAP1 DUP2 MSTORE PUSH1 0x20 ADD PUSH0 KECCAK256 PUSH0 SWAP1 SLOAD SWAP1 PUSH2 0x100 EXP SWAP1 DIV PUSH1 0xFF AND SWAP1 POP SWAP3 SWAP2 POP POP JUMP JUMPDEST PUSH0 CALLER SWAP1 POP SWAP1 JUMP JUMPDEST PUSH1 0x40 MLOAD DUP1 PUSH1 0xA0 ADD PUSH1 0x40 MSTORE DUP1 PUSH0 ISZERO ISZERO DUP2 MSTORE PUSH1 0x20 ADD PUSH0 ISZERO ISZERO DUP2 MSTORE PUSH1 0x20 ADD PUSH0 PUSH1 0xFF AND DUP2 MSTORE PUSH1 0x20 ADD PUSH0 DUP2 MSTORE PUSH1 0x20 ADD PUSH0 PUSH20 0xFFFFFFFFFFFFFFFFFFFFFFFFFFFFFFFFFFFFFFFF AND DUP2 MSTORE POP SWAP1 JUMP JUMPDEST PUSH0 DUP1 REVERT JUMPDEST PUSH0 DUP2 SWAP1 POP SWAP2 SWAP1 POP JUMP JUMPDEST PUSH2 0x829 DUP2 PUSH2 0x817 JUMP JUMPDEST DUP2 EQ PUSH2 0x833 JUMPI PUSH0 DUP1 REVERT JUMPDEST POP JUMP JUMPDEST PUSH0 DUP2 MLOAD SWAP1 POP PUSH2 0x844 DUP2 PUSH2 0x820 JUMP JUMPDEST SWAP3 SWAP2 POP POP JUMP JUMPDEST PUSH0 PUSH20 0xFFFFFFFFFFFFFFFFFFFFFFFFFFFFFFFFFFFFFFFF DUP3 AND SWAP1 POP SWAP2 SWAP1 POP JUMP JUMPDEST PUSH0 PUSH2 0x873 DUP3 PUSH2 0x84A JUMP JUMPDEST SWAP1 POP SWAP2 SWAP1 POP JUMP JUMPDEST PUSH2 0x883 DUP2 PUSH2 0x869 JUMP JUMPDEST DUP2 EQ PUSH2 0x88D JUMPI PUSH0 DUP1 REVERT JUMPDEST POP JUMP JUMPDEST PUSH0 DUP2 MLOAD SWAP1 POP PUSH2 0x89E DUP2 PUSH2 0x87A JUMP JUMPDEST SWAP3 SWAP2 POP POP JUMP JUMPDEST PUSH0 DUP1 PUSH0 DUP1 PUSH0 DUP1 PUSH1 0xC0 DUP8 DUP10 SUB SLT ISZERO PUSH2 0x8BE JUMPI PUSH2 0x8BD PUSH2 0x813 JUMP JUMPDEST JUMPDEST PUSH0 PUSH2 0x8CB DUP10 DUP3 DUP11 ADD PUSH2 0x836 JUMP JUMPDEST SWAP7 POP POP PUSH1 0x20 PUSH2 0x8DC DUP10 DUP3 DUP11 ADD PUSH2 0x890 JUMP JUMPDEST SWAP6 POP POP PUSH1 0x40 PUSH2 0x8ED DUP10 DUP3 DUP11 ADD PUSH2 0x890 JUMP JUMPDEST SWAP5 POP POP PUSH1 0x60 PUSH2 0x8FE DUP10 DUP3 DUP11 ADD PUSH2 0x890 JUMP JUMPDEST SWAP4 POP POP PUSH1 0x80 PUSH2 0x90F DUP10 DUP3 DUP11 ADD PUSH2 0x890 JUMP JUMPDEST SWAP3 POP POP PUSH1 0xA0 PUSH2 0x920 DUP10 DUP3 DUP11 ADD PUSH2 0x836 JUMP JUMPDEST SWAP2 POP POP SWAP3 SWAP6 POP SWAP3 SWAP6 POP SWAP3 SWAP6 JUMP JUMPDEST PUSH2 0x936 DUP2 PUSH2 0x869 JUMP JUMPDEST DUP3 MSTORE POP POP JUMP JUMPDEST PUSH0 PUSH1 0x20 DUP3 ADD SWAP1 POP PUSH2 0x94F PUSH0 DUP4 ADD DUP5 PUSH2 0x92D JUMP JUMPDEST SWAP3 SWAP2 POP POP JUMP JUMPDEST PUSH0 DUP2 ISZERO ISZERO SWAP1 POP SWAP2 SWAP1 POP JUMP JUMPDEST PUSH2 0x969 DUP2 PUSH2 0x955 JUMP JUMPDEST DUP3 MSTORE POP POP JUMP JUMPDEST PUSH0 DUP2 SWAP1 POP SWAP2 SWAP1 POP JUMP JUMPDEST PUSH0 PUSH1 0xFF DUP3 AND SWAP1 POP SWAP2 SWAP1 POP JUMP JUMPDEST PUSH0 DUP2 SWAP1 POP SWAP2 SWAP1 POP JUMP JUMPDEST PUSH0 PUSH2 0x9A7 PUSH2 0x9A2 PUSH2 0x99D DUP5 PUSH2 0x96F JUMP JUMPDEST PUSH2 0x984 JUMP JUMPDEST PUSH2 0x978 JUMP JUMPDEST SWAP1 POP SWAP2 SWAP1 POP JUMP JUMPDEST PUSH2 0x9B7 DUP2 PUSH2 0x98D JUMP JUMPDEST DUP3 MSTORE POP POP JUMP JUMPDEST PUSH2 0x9C6 DUP2 PUSH2 0x817 JUMP JUMPDEST DUP3 MSTORE POP POP JUMP JUMPDEST PUSH0 PUSH1 0xA0 DUP3 ADD SWAP1 POP PUSH2 0x9DF PUSH0 DUP4 ADD DUP9 PUSH2 0x960 JUMP JUMPDEST PUSH2 0x9EC PUSH1 0x20 DUP4 ADD DUP8 PUSH2 0x960 JUMP JUMPDEST PUSH2 0x9F9 PUSH1 0x40 DUP4 ADD DUP7 PUSH2 0x9AE JUMP JUMPDEST PUSH2 0xA06 PUSH1 0x60 DUP4 ADD DUP6 PUSH2 0x9BD JUMP JUMPDEST PUSH2 0xA13 PUSH1 0x80 DUP4 ADD DUP5 PUSH2 0x92D JUMP JUMPDEST SWAP7 SWAP6 POP POP POP POP POP POP JUMP JUMPDEST PUSH2 0xA26 DUP2 PUSH2 0x978 JUMP JUMPDEST DUP2 EQ PUSH2 0xA30 JUMPI PUSH0 DUP1 REVERT JUMPDEST POP JUMP JUMPDEST PUSH0 DUP2 MLOAD SWAP1 POP PUSH2 0xA41 DUP2 PUSH2 0xA1D JUMP JUMPDEST SWAP3 SWAP2 POP POP JUMP JUMPDEST PUSH0 PUSH1 0x20 DUP3 DUP5 SUB SLT ISZERO PUSH2 0xA5C JUMPI PUSH2 0xA5B PUSH2 0x813 JUMP JUMPDEST JUMPDEST PUSH0 PUSH2 0xA69 DUP5 DUP3 DUP6 ADD PUSH2 0xA33 JUMP JUMPDEST SWAP2 POP POP SWAP3 SWAP2 POP POP JUMP JUMPDEST PUSH2 0xA7B DUP2 PUSH2 0x978 JUMP JUMPDEST DUP3 MSTORE POP POP JUMP JUMPDEST PUSH0 PUSH1 0xA0 DUP3 ADD SWAP1 POP PUSH2 0xA94 PUSH0 DUP4 ADD DUP9 PUSH2 0x960 JUMP JUMPDEST PUSH2 0xAA1 PUSH1 0x20 DUP4 ADD DUP8 PUSH2 0x960 JUMP JUMPDEST PUSH2 0xAAE PUSH1 0x40 DUP4 ADD DUP7 PUSH2 0xA72 JUMP JUMPDEST PUSH2 0xABB PUSH1 0x60 DUP4 ADD DUP6 PUSH2 0x9BD JUMP JUMPDEST PUSH2 0xAC8 PUSH1 0x80 DUP4 ADD DUP5 PUSH2 0x92D JUMP JUMPDEST SWAP7 SWAP6 POP POP POP POP POP POP JUMP JUMPDEST PUSH1 0x80 MLOAD PUSH1 0xA0 MLOAD PUSH1 0xC0 MLOAD PUSH1 0xE0 MLOAD PUSH2 0x3ACB PUSH2 0xC01 PUSH0 CODECOPY PUSH0 DUP2 DUP2 PUSH2 0x88E ADD MSTORE DUP2 DUP2 PUSH2 0x8FE ADD MSTORE DUP2 DUP2 PUSH2 0xA3E ADD MSTORE DUP2 DUP2 PUSH2 0xB83 ADD MSTORE DUP2 DUP2 PUSH2 0xC5C ADD MSTORE DUP2 DUP2 PUSH2 0xCB8 ADD MSTORE DUP2 DUP2 PUSH2 0xE28 ADD MSTORE DUP2 DUP2 PUSH2 0xEF6 ADD MSTORE DUP2 DUP2 PUSH2 0xFA9 ADD MSTORE DUP2 DUP2 PUSH2 0x111A ADD MSTORE DUP2 DUP2 PUSH2 0x118A ADD MSTORE DUP2 DUP2 PUSH2 0x12CA ADD MSTORE DUP2 DUP2 PUSH2 0x140F ADD MSTORE DUP2 DUP2 PUSH2 0x14E8 ADD MSTORE DUP2 DUP2 PUSH2 0x1544 ADD MSTORE DUP2 DUP2 PUSH2 0x1606 ADD MSTORE DUP2 DUP2 PUSH2 0x1A66 ADD MSTORE DUP2 DUP2 PUSH2 0x1B54 ADD MSTORE DUP2 DUP2 PUSH2 0x1C28 ADD MSTORE DUP2 DUP2 PUSH2 0x1C85 ADD MSTORE DUP2 DUP2 PUSH2 0x1CE1 ADD MSTORE DUP2 DUP2 PUSH2 0x1E17 ADD MSTORE DUP2 DUP2 PUSH2 0x1F65 ADD MSTORE DUP2 DUP2 PUSH2 0x202D ADD MSTORE DUP2 DUP2 PUSH2 0x208B ADD MSTORE PUSH2 0x20E7 ADD MSTORE PUSH0 DUP2 DUP2 PUSH2 0xEB9 ADD MSTORE PUSH2 0x1934 ADD MSTORE PUSH0 DUP2 DUP2 PUSH2 0x7B4 ADD MSTORE DUP2 DUP2 PUSH2 0x998 ADD MSTORE DUP2 DUP2 PUSH2 0x1037 ADD MSTORE DUP2 DUP2 PUSH2 0x1224 ADD MSTORE PUSH2 0x21A2 ADD MSTORE PUSH0 DUP2 DUP2 PUSH2 0xAF8 ADD MSTORE DUP2 DUP2 PUSH2 0xB21 ADD MSTORE DUP2 DUP2 PUSH2 0x1384 ADD MSTORE DUP2 DUP2 PUSH2 0x13AD ADD MSTORE DUP2 DUP2 PUSH2 0x1EDA ADD MSTORE DUP2 DUP2 PUSH2 0x1F03 ADD MSTORE PUSH2 0x21C6 ADD MSTORE PUSH2 0x3ACB PUSH0 RETURN INVALID PUSH1 0x80 PUSH1 0x40 MSTORE PUSH1 0x4 CALLDATASIZE LT PUSH2 0x165 JUMPI PUSH0 CALLDATALOAD PUSH1 0xE0 SHR DUP1 PUSH4 0x91D14854 GT PUSH2 0xD0 JUMPI DUP1 PUSH4 0xD547741F GT PUSH2 0x89 JUMPI DUP1 PUSH4 0xF688BCFB GT PUSH2 0x63 JUMPI DUP1 PUSH4 0xF688BCFB EQ PUSH2 0x51B JUMPI DUP1 PUSH4 0xF887EA40 EQ PUSH2 0x543 JUMPI DUP1 PUSH4 0xF9BDA21F EQ PUSH2 0x56D JUMPI DUP1 PUSH4 0xFE136C4E EQ PUSH2 0x597 JUMPI PUSH2 0x165 JUMP JUMPDEST DUP1 PUSH4 0xD547741F EQ PUSH2 0x48F JUMPI DUP1 PUSH4 0xDB81F99B EQ PUSH2 0x4B7 JUMPI DUP1 PUSH4 0xDCB6E250 EQ PUSH2 0x4DF JUMPI PUSH2 0x165 JUMP JUMPDEST DUP1 PUSH4 0x91D14854 EQ PUSH2 0x371 JUMPI DUP1 PUSH4 0x9C50ADEE EQ PUSH2 0x3AD JUMPI DUP1 PUSH4 0xA217FDDF EQ PUSH2 0x3D5 JUMPI DUP1 PUSH4 0xC45A0155 EQ PUSH2 0x3FF JUMPI DUP1 PUSH4 0xD391014B EQ PUSH2 0x429 JUMPI DUP1 PUSH4 0xD4FAC45D EQ PUSH2 0x453 JUMPI PUSH2 0x165 JUMP JUMPDEST DUP1 PUSH4 0x31F7D964 GT PUSH2 0x122 JUMPI DUP1 PUSH4 0x31F7D964 EQ PUSH2 0x287 JUMPI DUP1 PUSH4 0x36568ABE EQ PUSH2 0x2B1 JUMPI DUP1 PUSH4 0x4CC05A71 EQ PUSH2 0x2D9 JUMPI DUP1 PUSH4 0x5358FBDA EQ PUSH2 0x303 JUMPI DUP1 PUSH4 0x72806F70 EQ PUSH2 0x31F JUMPI DUP1 PUSH4 0x89A30271 EQ PUSH2 0x347 JUMPI PUSH2 0x165 JUMP JUMPDEST DUP1 PUSH4 0x1FFC9A7 EQ PUSH2 0x169 JUMPI DUP1 PUSH4 0x248A9CA3 EQ PUSH2 0x1A5 JUMPI DUP1 PUSH4 0x29608BA6 EQ PUSH2 0x1E1 JUMPI DUP1 PUSH4 0x2DFDF0B5 EQ PUSH2 0x20B JUMPI DUP1 PUSH4 0x2F2FF15D EQ PUSH2 0x235 JUMPI DUP1 PUSH4 0x2F6EE695 EQ PUSH2 0x25D JUMPI JUMPDEST PUSH0 DUP1 REVERT JUMPDEST CALLVALUE DUP1 ISZERO PUSH2 0x174 JUMPI PUSH0 DUP1 REVERT JUMPDEST POP PUSH2 0x18F PUSH1 0x4 DUP1 CALLDATASIZE SUB DUP2 ADD SWAP1 PUSH2 0x18A SWAP2 SWAP1 PUSH2 0x2CAE JUMP JUMPDEST PUSH2 0x5D7 JUMP JUMPDEST PUSH1 0x40 MLOAD PUSH2 0x19C SWAP2 SWAP1 PUSH2 0x2CF3 JUMP JUMPDEST PUSH1 0x40 MLOAD DUP1 SWAP2 SUB SWAP1 RETURN JUMPDEST CALLVALUE DUP1 ISZERO PUSH2 0x1B0 JUMPI PUSH0 DUP1 REVERT JUMPDEST POP PUSH2 0x1CB PUSH1 0x4 DUP1 CALLDATASIZE SUB DUP2 ADD SWAP1 PUSH2 0x1C6 SWAP2 SWAP1 PUSH2 0x2D3F JUMP JUMPDEST PUSH2 0x650 JUMP JUMPDEST PUSH1 0x40 MLOAD PUSH2 0x1D8 SWAP2 SWAP1 PUSH2 0x2D79 JUMP JUMPDEST PUSH1 0x40 MLOAD DUP1 SWAP2 SUB SWAP1 RETURN JUMPDEST CALLVALUE DUP1 ISZERO PUSH2 0x1EC JUMPI PUSH0 DUP1 REVERT JUMPDEST POP PUSH2 0x1F5 PUSH2 0x66C JUMP JUMPDEST PUSH1 0x40 MLOAD PUSH2 0x202 SWAP2 SWAP1 PUSH2 0x2DAA JUMP JUMPDEST PUSH1 0x40 MLOAD DUP1 SWAP2 SUB SWAP1 RETURN JUMPDEST CALLVALUE DUP1 ISZERO PUSH2 0x216 JUMPI PUSH0 DUP1 REVERT JUMPDEST POP PUSH2 0x21F PUSH2 0x672 JUMP JUMPDEST PUSH1 0x40 MLOAD PUSH2 0x22C SWAP2 SWAP1 PUSH2 0x2DAA JUMP JUMPDEST PUSH1 0x40 MLOAD DUP1 SWAP2 SUB SWAP1 RETURN JUMPDEST CALLVALUE DUP1 ISZERO PUSH2 0x240 JUMPI PUSH0 DUP1 REVERT JUMPDEST POP PUSH2 0x25B PUSH1 0x4 DUP1 CALLDATASIZE SUB DUP2 ADD SWAP1 PUSH2 0x256 SWAP2 SWAP1 PUSH2 0x2E1D JUMP JUMPDEST PUSH2 0x678 JUMP JUMPDEST STOP JUMPDEST CALLVALUE DUP1 ISZERO PUSH2 0x268 JUMPI PUSH0 DUP1 REVERT JUMPDEST POP PUSH2 0x271 PUSH2 0x69A JUMP JUMPDEST PUSH1 0x40 MLOAD PUSH2 0x27E SWAP2 SWAP1 PUSH2 0x2E76 JUMP JUMPDEST PUSH1 0x40 MLOAD DUP1 SWAP2 SUB SWAP1 RETURN JUMPDEST CALLVALUE DUP1 ISZERO PUSH2 0x292 JUMPI PUSH0 DUP1 REVERT JUMPDEST POP PUSH2 0x29B PUSH2 0x69F JUMP JUMPDEST PUSH1 0x40 MLOAD PUSH2 0x2A8 SWAP2 SWAP1 PUSH2 0x2E9E JUMP JUMPDEST PUSH1 0x40 MLOAD DUP1 SWAP2 SUB SWAP1 RETURN JUMPDEST CALLVALUE DUP1 ISZERO PUSH2 0x2BC JUMPI PUSH0 DUP1 REVERT JUMPDEST POP PUSH2 0x2D7 PUSH1 0x4 DUP1 CALLDATASIZE SUB DUP2 ADD SWAP1 PUSH2 0x2D2 SWAP2 SWAP1 PUSH2 0x2E1D JUMP JUMPDEST PUSH2 0x6A3 JUMP JUMPDEST STOP JUMPDEST CALLVALUE DUP1 ISZERO PUSH2 0x2E4 JUMPI PUSH0 DUP1 REVERT JUMPDEST POP PUSH2 0x2ED PUSH2 0x71E JUMP JUMPDEST PUSH1 0x40 MLOAD PUSH2 0x2FA SWAP2 SWAP1 PUSH2 0x2DAA JUMP JUMPDEST PUSH1 0x40 MLOAD DUP1 SWAP2 SUB SWAP1 RETURN JUMPDEST PUSH2 0x31D PUSH1 0x4 DUP1 CALLDATASIZE SUB DUP2 ADD SWAP1 PUSH2 0x318 SWAP2 SWAP1 PUSH2 0x2EE1 JUMP JUMPDEST PUSH2 0x724 JUMP JUMPDEST STOP JUMPDEST CALLVALUE DUP1 ISZERO PUSH2 0x32A JUMPI PUSH0 DUP1 REVERT JUMPDEST POP PUSH2 0x345 PUSH1 0x4 DUP1 CALLDATASIZE SUB DUP2 ADD SWAP1 PUSH2 0x340 SWAP2 SWAP1 PUSH2 0x2F0C JUMP JUMPDEST PUSH2 0xD74 JUMP JUMPDEST STOP JUMPDEST CALLVALUE DUP1 ISZERO PUSH2 0x352 JUMPI PUSH0 DUP1 REVERT JUMPDEST POP PUSH2 0x35B PUSH2 0x1604 JUMP JUMPDEST PUSH1 0x40 MLOAD PUSH2 0x368 SWAP2 SWAP1 PUSH2 0x2E9E JUMP JUMPDEST PUSH1 0x40 MLOAD DUP1 SWAP2 SUB SWAP1 RETURN JUMPDEST CALLVALUE DUP1 ISZERO PUSH2 0x37C JUMPI PUSH0 DUP1 REVERT JUMPDEST POP PUSH2 0x397 PUSH1 0x4 DUP1 CALLDATASIZE SUB DUP2 ADD SWAP1 PUSH2 0x392 SWAP2 SWAP1 PUSH2 0x2E1D JUMP JUMPDEST PUSH2 0x1628 JUMP JUMPDEST PUSH1 0x40 MLOAD PUSH2 0x3A4 SWAP2 SWAP1 PUSH2 0x2CF3 JUMP JUMPDEST PUSH1 0x40 MLOAD DUP1 SWAP2 SUB SWAP1 RETURN JUMPDEST CALLVALUE DUP1 ISZERO PUSH2 0x3B8 JUMPI PUSH0 DUP1 REVERT JUMPDEST POP PUSH2 0x3D3 PUSH1 0x4 DUP1 CALLDATASIZE SUB DUP2 ADD SWAP1 PUSH2 0x3CE SWAP2 SWAP1 PUSH2 0x2FB0 JUMP JUMPDEST PUSH2 0x168B JUMP JUMPDEST STOP JUMPDEST CALLVALUE DUP1 ISZERO PUSH2 0x3E0 JUMPI PUSH0 DUP1 REVERT JUMPDEST POP PUSH2 0x3E9 PUSH2 0x192C JUMP JUMPDEST PUSH1 0x40 MLOAD PUSH2 0x3F6 SWAP2 SWAP1 PUSH2 0x2D79 JUMP JUMPDEST PUSH1 0x40 MLOAD DUP1 SWAP2 SUB SWAP1 RETURN JUMPDEST CALLVALUE DUP1 ISZERO PUSH2 0x40A JUMPI PUSH0 DUP1 REVERT JUMPDEST POP PUSH2 0x413 PUSH2 0x1932 JUMP JUMPDEST PUSH1 0x40 MLOAD PUSH2 0x420 SWAP2 SWAP1 PUSH2 0x3082 JUMP JUMPDEST PUSH1 0x40 MLOAD DUP1 SWAP2 SUB SWAP1 RETURN JUMPDEST CALLVALUE DUP1 ISZERO PUSH2 0x434 JUMPI PUSH0 DUP1 REVERT JUMPDEST POP PUSH2 0x43D PUSH2 0x1956 JUMP JUMPDEST PUSH1 0x40 MLOAD PUSH2 0x44A SWAP2 SWAP1 PUSH2 0x2D79 JUMP JUMPDEST PUSH1 0x40 MLOAD DUP1 SWAP2 SUB SWAP1 RETURN JUMPDEST CALLVALUE DUP1 ISZERO PUSH2 0x45E JUMPI PUSH0 DUP1 REVERT JUMPDEST POP PUSH2 0x479 PUSH1 0x4 DUP1 CALLDATASIZE SUB DUP2 ADD SWAP1 PUSH2 0x474 SWAP2 SWAP1 PUSH2 0x309B JUMP JUMPDEST PUSH2 0x197A JUMP JUMPDEST PUSH1 0x40 MLOAD PUSH2 0x486 SWAP2 SWAP1 PUSH2 0x2DAA JUMP JUMPDEST PUSH1 0x40 MLOAD DUP1 SWAP2 SUB SWAP1 RETURN JUMPDEST CALLVALUE DUP1 ISZERO PUSH2 0x49A JUMPI PUSH0 DUP1 REVERT JUMPDEST POP PUSH2 0x4B5 PUSH1 0x4 DUP1 CALLDATASIZE SUB DUP2 ADD SWAP1 PUSH2 0x4B0 SWAP2 SWAP1 PUSH2 0x2E1D JUMP JUMPDEST PUSH2 0x19FC JUMP JUMPDEST STOP JUMPDEST CALLVALUE DUP1 ISZERO PUSH2 0x4C2 JUMPI PUSH0 DUP1 REVERT JUMPDEST POP PUSH2 0x4DD PUSH1 0x4 DUP1 CALLDATASIZE SUB DUP2 ADD SWAP1 PUSH2 0x4D8 SWAP2 SWAP1 PUSH2 0x2EE1 JUMP JUMPDEST PUSH2 0x1A1E JUMP JUMPDEST STOP JUMPDEST CALLVALUE DUP1 ISZERO PUSH2 0x4EA JUMPI PUSH0 DUP1 REVERT JUMPDEST POP PUSH2 0x505 PUSH1 0x4 DUP1 CALLDATASIZE SUB DUP2 ADD SWAP1 PUSH2 0x500 SWAP2 SWAP1 PUSH2 0x309B JUMP JUMPDEST PUSH2 0x1D98 JUMP JUMPDEST PUSH1 0x40 MLOAD PUSH2 0x512 SWAP2 SWAP1 PUSH2 0x2DAA JUMP JUMPDEST PUSH1 0x40 MLOAD DUP1 SWAP2 SUB SWAP1 RETURN JUMPDEST CALLVALUE DUP1 ISZERO PUSH2 0x526 JUMPI PUSH0 DUP1 REVERT JUMPDEST POP PUSH2 0x541 PUSH1 0x4 DUP1 CALLDATASIZE SUB DUP2 ADD SWAP1 PUSH2 0x53C SWAP2 SWAP1 PUSH2 0x2EE1 JUMP JUMPDEST PUSH2 0x1E85 JUMP JUMPDEST STOP JUMPDEST CALLVALUE DUP1 ISZERO PUSH2 0x54E JUMPI PUSH0 DUP1 REVERT JUMPDEST POP PUSH2 0x557 PUSH2 0x21A0 JUMP JUMPDEST PUSH1 0x40 MLOAD PUSH2 0x564 SWAP2 SWAP1 PUSH2 0x30F9 JUMP JUMPDEST PUSH1 0x40 MLOAD DUP1 SWAP2 SUB SWAP1 RETURN JUMPDEST CALLVALUE DUP1 ISZERO PUSH2 0x578 JUMPI PUSH0 DUP1 REVERT JUMPDEST POP PUSH2 0x581 PUSH2 0x21C4 JUMP JUMPDEST PUSH1 0x40 MLOAD PUSH2 0x58E SWAP2 SWAP1 PUSH2 0x2DAA JUMP JUMPDEST PUSH1 0x40 MLOAD DUP1 SWAP2 SUB SWAP1 RETURN JUMPDEST CALLVALUE DUP1 ISZERO PUSH2 0x5A2 JUMPI PUSH0 DUP1 REVERT JUMPDEST POP PUSH2 0x5BD PUSH1 0x4 DUP1 CALLDATASIZE SUB DUP2 ADD SWAP1 PUSH2 0x5B8 SWAP2 SWAP1 PUSH2 0x3112 JUMP JUMPDEST PUSH2 0x21E8 JUMP JUMPDEST PUSH1 0x40 MLOAD PUSH2 0x5CE SWAP6 SWAP5 SWAP4 SWAP3 SWAP2 SWAP1 PUSH2 0x313D JUMP JUMPDEST PUSH1 0x40 MLOAD DUP1 SWAP2 SUB SWAP1 RETURN JUMPDEST PUSH0 PUSH32 0x7965DB0B00000000000000000000000000000000000000000000000000000000 PUSH28 0xFFFFFFFFFFFFFFFFFFFFFFFFFFFFFFFFFFFFFFFFFFFFFFFFFFFFFFFF NOT AND DUP3 PUSH28 0xFFFFFFFFFFFFFFFFFFFFFFFFFFFFFFFFFFFFFFFFFFFFFFFFFFFFFFFF NOT AND EQ DUP1 PUSH2 0x649 JUMPI POP PUSH2 0x648 DUP3 PUSH2 0x225D JUMP JUMPDEST JUMPDEST SWAP1 POP SWAP2 SWAP1 POP JUMP JUMPDEST PUSH0 DUP1 PUSH0 DUP4 DUP2 MSTORE PUSH1 0x20 ADD SWAP1 DUP2 MSTORE PUSH1 0x20 ADD PUSH0 KECCAK256 PUSH1 0x1 ADD SLOAD SWAP1 POP SWAP2 SWAP1 POP JUMP JUMPDEST PUSH1 0x2 SLOAD DUP2 JUMP JUMPDEST PUSH1 0x5 SLOAD DUP2 JUMP JUMPDEST PUSH2 0x681 DUP3 PUSH2 0x650 JUMP JUMPDEST PUSH2 0x68A DUP2 PUSH2 0x22C6 JUMP JUMPDEST PUSH2 0x694 DUP4 DUP4 PUSH2 0x22DA JUMP JUMPDEST POP POP POP POP JUMP JUMPDEST PUSH1 0x6 DUP2 JUMP JUMPDEST PUSH0 DUP2 JUMP JUMPDEST PUSH2 0x6AB PUSH2 0x23C3 JUMP JUMPDEST PUSH20 0xFFFFFFFFFFFFFFFFFFFFFFFFFFFFFFFFFFFFFFFF AND DUP2 PUSH20 0xFFFFFFFFFFFFFFFFFFFFFFFFFFFFFFFFFFFFFFFF AND EQ PUSH2 0x70F JUMPI PUSH1 0x40 MLOAD PUSH32 0x6697B23200000000000000000000000000000000000000000000000000000000 DUP2 MSTORE PUSH1 0x4 ADD PUSH1 0x40 MLOAD DUP1 SWAP2 SUB SWAP1 REVERT JUMPDEST PUSH2 0x719 DUP3 DUP3 PUSH2 0x23CA JUMP JUMPDEST POP POP POP JUMP JUMPDEST PUSH1 0x6 SLOAD DUP2 JUMP JUMPDEST PUSH2 0x72C PUSH2 0x24B3 JUMP JUMPDEST PUSH0 CALLVALUE SUB PUSH2 0x765 JUMPI PUSH1 0x40 MLOAD PUSH32 0x1F2A200500000000000000000000000000000000000000000000000000000000 DUP2 MSTORE PUSH1 0x4 ADD PUSH1 0x40 MLOAD DUP1 SWAP2 SUB SWAP1 REVERT JUMPDEST PUSH0 PUSH1 0x2 PUSH8 0xFFFFFFFFFFFFFFFF DUP2 GT ISZERO PUSH2 0x781 JUMPI PUSH2 0x780 PUSH2 0x318E JUMP JUMPDEST JUMPDEST PUSH1 0x40 MLOAD SWAP1 DUP1 DUP3 MSTORE DUP1 PUSH1 0x20 MUL PUSH1 0x20 ADD DUP3 ADD PUSH1 0x40 MSTORE DUP1 ISZERO PUSH2 0x7AF JUMPI DUP2 PUSH1 0x20 ADD PUSH1 0x20 DUP3 MUL DUP1 CALLDATASIZE DUP4 CALLDATACOPY DUP1 DUP3 ADD SWAP2 POP POP SWAP1 POP JUMPDEST POP SWAP1 POP PUSH32 0x0 PUSH20 0xFFFFFFFFFFFFFFFFFFFFFFFFFFFFFFFFFFFFFFFF AND PUSH4 0xAD5C4648 PUSH1 0x40 MLOAD DUP2 PUSH4 0xFFFFFFFF AND PUSH1 0xE0 SHL DUP2 MSTORE PUSH1 0x4 ADD PUSH1 0x20 PUSH1 0x40 MLOAD DUP1 DUP4 SUB DUP2 DUP7 GAS STATICCALL ISZERO DUP1 ISZERO PUSH2 0x81B JUMPI RETURNDATASIZE PUSH0 DUP1 RETURNDATACOPY RETURNDATASIZE PUSH0 REVERT JUMPDEST POP POP POP POP PUSH1 0x40 MLOAD RETURNDATASIZE PUSH1 0x1F NOT PUSH1 0x1F DUP3 ADD AND DUP3 ADD DUP1 PUSH1 0x40 MSTORE POP DUP2 ADD SWAP1 PUSH2 0x83F SWAP2 SWAP1 PUSH2 0x31CF JUMP JUMPDEST DUP2 PUSH0 DUP2 MLOAD DUP2 LT PUSH2 0x852 JUMPI PUSH2 0x851 PUSH2 0x31FA JUMP JUMPDEST JUMPDEST PUSH1 0x20 MUL PUSH1 0x20 ADD ADD SWAP1 PUSH20 0xFFFFFFFFFFFFFFFFFFFFFFFFFFFFFFFFFFFFFFFF AND SWAP1 DUP2 PUSH20 0xFFFFFFFFFFFFFFFFFFFFFFFFFFFFFFFFFFFFFFFF AND DUP2 MSTORE POP POP PUSH32 0x0 DUP2 PUSH1 0x1 DUP2 MLOAD DUP2 LT PUSH2 0x8C1 JUMPI PUSH2 0x8C0 PUSH2 0x31FA JUMP JUMPDEST JUMPDEST PUSH1 0x20 MUL PUSH1 0x20 ADD ADD SWAP1 PUSH20 0xFFFFFFFFFFFFFFFFFFFFFFFFFFFFFFFFFFFFFFFF AND SWAP1 DUP2 PUSH20 0xFFFFFFFFFFFFFFFFFFFFFFFFFFFFFFFFFFFFFFFF AND DUP2 MSTORE POP POP PUSH0 PUSH32 0x0 PUSH20 0xFFFFFFFFFFFFFFFFFFFFFFFFFFFFFFFFFFFFFFFF AND PUSH4 0x70A08231 ADDRESS PUSH1 0x40 MLOAD DUP3 PUSH4 0xFFFFFFFF AND PUSH1 0xE0 SHL DUP2 MSTORE PUSH1 0x4 ADD PUSH2 0x955 SWAP2 SWAP1 PUSH2 0x2E9E JUMP JUMPDEST PUSH1 0x20 PUSH1 0x40 MLOAD DUP1 DUP4 SUB DUP2 DUP7 GAS STATICCALL ISZERO DUP1 ISZERO PUSH2 0x970 JUMPI RETURNDATASIZE PUSH0 DUP1 RETURNDATACOPY RETURNDATASIZE PUSH0 REVERT JUMPDEST POP POP POP POP PUSH1 0x40 MLOAD RETURNDATASIZE PUSH1 0x1F NOT PUSH1 0x1F DUP3 ADD AND DUP3 ADD DUP1 PUSH1 0x40 MSTORE POP DUP2 ADD SWAP1 PUSH2 0x994 SWAP2 SWAP1 PUSH2 0x323B JUMP JUMPDEST SWAP1 POP PUSH32 0x0 PUSH20 0xFFFFFFFFFFFFFFFFFFFFFFFFFFFFFFFFFFFFFFFF AND PUSH4 0x7FF36AB5 CALLVALUE DUP6 DUP6 ADDRESS TIMESTAMP PUSH1 0x40 MLOAD DUP7 PUSH4 0xFFFFFFFF AND PUSH1 0xE0 SHL DUP2 MSTORE PUSH1 0x4 ADD PUSH2 0x9F6 SWAP5 SWAP4 SWAP3 SWAP2 SWAP1 PUSH2 0x331D JUMP JUMPDEST PUSH0 PUSH1 0x40 MLOAD DUP1 DUP4 SUB DUP2 DUP6 DUP9 GAS CALL ISZERO DUP1 ISZERO PUSH2 0xA11 JUMPI RETURNDATASIZE PUSH0 DUP1 RETURNDATACOPY RETURNDATASIZE PUSH0 REVERT JUMPDEST POP POP POP POP POP PUSH1 0x40 MLOAD RETURNDATASIZE PUSH0 DUP3 RETURNDATACOPY RETURNDATASIZE PUSH1 0x1F NOT PUSH1 0x1F DUP3 ADD AND DUP3 ADD DUP1 PUSH1 0x40 MSTORE POP DUP2 ADD SWAP1 PUSH2 0xA3A SWAP2 SWAP1 PUSH2 0x348A JUMP JUMPDEST POP PUSH0 PUSH32 0x0 PUSH20 0xFFFFFFFFFFFFFFFFFFFFFFFFFFFFFFFFFFFFFFFF AND PUSH4 0x70A08231 ADDRESS PUSH1 0x40 MLOAD DUP3 PUSH4 0xFFFFFFFF AND PUSH1 0xE0 SHL DUP2 MSTORE PUSH1 0x4 ADD PUSH2 0xA95 SWAP2 SWAP1 PUSH2 0x2E9E JUMP JUMPDEST PUSH1 0x20 PUSH1 0x40 MLOAD DUP1 DUP4 SUB DUP2 DUP7 GAS STATICCALL ISZERO DUP1 ISZERO PUSH2 0xAB0 JUMPI RETURNDATASIZE PUSH0 DUP1 RETURNDATACOPY RETURNDATASIZE PUSH0 REVERT JUMPDEST POP POP POP POP PUSH1 0x40 MLOAD RETURNDATASIZE PUSH1 0x1F NOT PUSH1 0x1F DUP3 ADD AND DUP3 ADD DUP1 PUSH1 0x40 MSTORE POP DUP2 ADD SWAP1 PUSH2 0xAD4 SWAP2 SWAP1 PUSH2 0x323B JUMP JUMPDEST SWAP1 POP PUSH0 DUP3 DUP3 PUSH2 0xAE3 SWAP2 SWAP1 PUSH2 0x34FE JUMP JUMPDEST SWAP1 POP PUSH0 DUP2 PUSH1 0x2 SLOAD PUSH2 0xAF4 SWAP2 SWAP1 PUSH2 0x3531 JUMP JUMPDEST SWAP1 POP PUSH32 0x0 DUP2 GT ISZERO PUSH2 0xB7D JUMPI DUP1 PUSH32 0x0 PUSH1 0x40 MLOAD PUSH32 0xF480E28500000000000000000000000000000000000000000000000000000000 DUP2 MSTORE PUSH1 0x4 ADD PUSH2 0xB74 SWAP3 SWAP2 SWAP1 PUSH2 0x3564 JUMP JUMPDEST PUSH1 0x40 MLOAD DUP1 SWAP2 SUB SWAP1 REVERT JUMPDEST DUP2 PUSH1 0x3 PUSH0 PUSH32 0x0 PUSH20 0xFFFFFFFFFFFFFFFFFFFFFFFFFFFFFFFFFFFFFFFF AND PUSH20 0xFFFFFFFFFFFFFFFFFFFFFFFFFFFFFFFFFFFFFFFF AND DUP2 MSTORE PUSH1 0x20 ADD SWAP1 DUP2 MSTORE PUSH1 0x20 ADD PUSH0 KECCAK256 PUSH0 CALLER PUSH20 0xFFFFFFFFFFFFFFFFFFFFFFFFFFFFFFFFFFFFFFFF AND PUSH20 0xFFFFFFFFFFFFFFFFFFFFFFFFFFFFFFFFFFFFFFFF AND DUP2 MSTORE PUSH1 0x20 ADD SWAP1 DUP2 MSTORE PUSH1 0x20 ADD PUSH0 KECCAK256 PUSH0 DUP3 DUP3 SLOAD PUSH2 0xC24 SWAP2 SWAP1 PUSH2 0x3531 JUMP JUMPDEST SWAP3 POP POP DUP2 SWAP1 SSTORE POP DUP1 PUSH1 0x2 DUP2 SWAP1 SSTORE POP PUSH1 0x5 PUSH0 DUP2 SLOAD DUP1 SWAP3 SWAP2 SWAP1 PUSH1 0x1 ADD SWAP2 SWAP1 POP SSTORE POP CALLER PUSH20 0xFFFFFFFFFFFFFFFFFFFFFFFFFFFFFFFFFFFFFFFF AND PUSH32 0x0 PUSH20 0xFFFFFFFFFFFFFFFFFFFFFFFFFFFFFFFFFFFFFFFF AND PUSH32 0x4E2CA0515ED1AEF1395F66B5303BB5D6F1BF9D61A353FA53F73F8AC9973FA9F6 CALLVALUE PUSH1 0x3 PUSH0 PUSH32 0x0 PUSH20 0xFFFFFFFFFFFFFFFFFFFFFFFFFFFFFFFFFFFFFFFF AND PUSH20 0xFFFFFFFFFFFFFFFFFFFFFFFFFFFFFFFFFFFFFFFF AND DUP2 MSTORE PUSH1 0x20 ADD SWAP1 DUP2 MSTORE PUSH1 0x20 ADD PUSH0 KECCAK256 PUSH0 CALLER PUSH20 0xFFFFFFFFFFFFFFFFFFFFFFFFFFFFFFFFFFFFFFFF AND PUSH20 0xFFFFFFFFFFFFFFFFFFFFFFFFFFFFFFFFFFFFFFFF AND DUP2 MSTORE PUSH1 0x20 ADD SWAP1 DUP2 MSTORE PUSH1 0x20 ADD PUSH0 KECCAK256 SLOAD DUP7 PUSH1 0x40 MLOAD PUSH2 0xD5C SWAP4 SWAP3 SWAP2 SWAP1 PUSH2 0x358B JUMP JUMPDEST PUSH1 0x40 MLOAD DUP1 SWAP2 SUB SWAP1 LOG3 POP POP POP POP POP PUSH2 0xD71 PUSH2 0x24F9 JUMP JUMPDEST POP JUMP JUMPDEST PUSH2 0xD7C PUSH2 0x24B3 JUMP JUMPDEST DUP2 PUSH0 DUP2 SUB PUSH2 0xDB6 JUMPI PUSH1 0x40 MLOAD PUSH32 0x1F2A200500000000000000000000000000000000000000000000000000000000 DUP2 MSTORE PUSH1 0x4 ADD PUSH1 0x40 MLOAD DUP1 SWAP2 SUB SWAP1 REVERT JUMPDEST PUSH0 PUSH20 0xFFFFFFFFFFFFFFFFFFFFFFFFFFFFFFFFFFFFFFFF AND DUP5 PUSH20 0xFFFFFFFFFFFFFFFFFFFFFFFFFFFFFFFFFFFFFFFF AND SUB PUSH2 0xE26 JUMPI DUP4 PUSH1 0x40 MLOAD PUSH32 0xBF16AAB600000000000000000000000000000000000000000000000000000000 DUP2 MSTORE PUSH1 0x4 ADD PUSH2 0xE1D SWAP2 SWAP1 PUSH2 0x2E9E JUMP JUMPDEST PUSH1 0x40 MLOAD DUP1 SWAP2 SUB SWAP1 REVERT JUMPDEST PUSH32 0x0 PUSH20 0xFFFFFFFFFFFFFFFFFFFFFFFFFFFFFFFFFFFFFFFF AND DUP5 PUSH20 0xFFFFFFFFFFFFFFFFFFFFFFFFFFFFFFFFFFFFFFFF AND SUB PUSH2 0xEB6 JUMPI DUP4 PUSH1 0x40 MLOAD PUSH32 0xBF16AAB600000000000000000000000000000000000000000000000000000000 DUP2 MSTORE PUSH1 0x4 ADD PUSH2 0xEAD SWAP2 SWAP1 PUSH2 0x2E9E JUMP JUMPDEST PUSH1 0x40 MLOAD DUP1 SWAP2 SUB SWAP1 REVERT JUMPDEST PUSH0 PUSH32 0x0 PUSH20 0xFFFFFFFFFFFFFFFFFFFFFFFFFFFFFFFFFFFFFFFF AND PUSH4 0xE6A43905 DUP7 PUSH32 0x0 PUSH1 0x40 MLOAD DUP4 PUSH4 0xFFFFFFFF AND PUSH1 0xE0 SHL DUP2 MSTORE PUSH1 0x4 ADD PUSH2 0xF32 SWAP3 SWAP2 SWAP1 PUSH2 0x35C0 JUMP JUMPDEST PUSH1 0x20 PUSH1 0x40 MLOAD DUP1 DUP4 SUB DUP2 DUP7 GAS STATICCALL ISZERO DUP1 ISZERO PUSH2 0xF4D JUMPI RETURNDATASIZE PUSH0 DUP1 RETURNDATACOPY RETURNDATASIZE PUSH0 REVERT JUMPDEST POP POP POP POP PUSH1 0x40 MLOAD RETURNDATASIZE PUSH1 0x1F NOT PUSH1 0x1F DUP3 ADD AND DUP3 ADD DUP1 PUSH1 0x40 MSTORE POP DUP2 ADD SWAP1 PUSH2 0xF71 SWAP2 SWAP1 PUSH2 0x31CF JUMP JUMPDEST SWAP1 POP PUSH0 PUSH20 0xFFFFFFFFFFFFFFFFFFFFFFFFFFFFFFFFFFFFFFFF AND DUP2 PUSH20 0xFFFFFFFFFFFFFFFFFFFFFFFFFFFFFFFFFFFFFFFF AND SUB PUSH2 0x1005 JUMPI DUP5 PUSH32 0x0 PUSH1 0x40 MLOAD PUSH32 0x6DE2B62500000000000000000000000000000000000000000000000000000000 DUP2 MSTORE PUSH1 0x4 ADD PUSH2 0xFFC SWAP3 SWAP2 SWAP1 PUSH2 0x35C0 JUMP JUMPDEST PUSH1 0x40 MLOAD DUP1 SWAP2 SUB SWAP1 REVERT JUMPDEST PUSH2 0x1032 CALLER ADDRESS DUP7 DUP9 PUSH20 0xFFFFFFFFFFFFFFFFFFFFFFFFFFFFFFFFFFFFFFFF AND PUSH2 0x2502 SWAP1 SWAP4 SWAP3 SWAP2 SWAP1 PUSH4 0xFFFFFFFF AND JUMP JUMPDEST PUSH2 0x107D PUSH32 0x0 DUP6 DUP8 PUSH20 0xFFFFFFFFFFFFFFFFFFFFFFFFFFFFFFFFFFFFFFFF AND PUSH2 0x2584 SWAP1 SWAP3 SWAP2 SWAP1 PUSH4 0xFFFFFFFF AND JUMP JUMPDEST PUSH0 PUSH1 0x2 PUSH8 0xFFFFFFFFFFFFFFFF DUP2 GT ISZERO PUSH2 0x1099 JUMPI PUSH2 0x1098 PUSH2 0x318E JUMP JUMPDEST JUMPDEST PUSH1 0x40 MLOAD SWAP1 DUP1 DUP3 MSTORE DUP1 PUSH1 0x20 MUL PUSH1 0x20 ADD DUP3 ADD PUSH1 0x40 MSTORE DUP1 ISZERO PUSH2 0x10C7 JUMPI DUP2 PUSH1 0x20 ADD PUSH1 0x20 DUP3 MUL DUP1 CALLDATASIZE DUP4 CALLDATACOPY DUP1 DUP3 ADD SWAP2 POP POP SWAP1 POP JUMPDEST POP SWAP1 POP DUP6 DUP2 PUSH0 DUP2 MLOAD DUP2 LT PUSH2 0x10DE JUMPI PUSH2 0x10DD PUSH2 0x31FA JUMP JUMPDEST JUMPDEST PUSH1 0x20 MUL PUSH1 0x20 ADD ADD SWAP1 PUSH20 0xFFFFFFFFFFFFFFFFFFFFFFFFFFFFFFFFFFFFFFFF AND SWAP1 DUP2 PUSH20 0xFFFFFFFFFFFFFFFFFFFFFFFFFFFFFFFFFFFFFFFF AND DUP2 MSTORE POP POP PUSH32 0x0 DUP2 PUSH1 0x1 DUP2 MLOAD DUP2 LT PUSH2 0x114D JUMPI PUSH2 0x114C PUSH2 0x31FA JUMP JUMPDEST JUMPDEST PUSH1 0x20 MUL PUSH1 0x20 ADD ADD SWAP1 PUSH20 0xFFFFFFFFFFFFFFFFFFFFFFFFFFFFFFFFFFFFFFFF AND SWAP1 DUP2 PUSH20 0xFFFFFFFFFFFFFFFFFFFFFFFFFFFFFFFFFFFFFFFF AND DUP2 MSTORE POP POP PUSH0 PUSH32 0x0 PUSH20 0xFFFFFFFFFFFFFFFFFFFFFFFFFFFFFFFFFFFFFFFF AND PUSH4 0x70A08231 ADDRESS PUSH1 0x40 MLOAD DUP3 PUSH4 0xFFFFFFFF AND PUSH1 0xE0 SHL DUP2 MSTORE PUSH1 0x4 ADD PUSH2 0x11E1 SWAP2 SWAP1 PUSH2 0x2E9E JUMP JUMPDEST PUSH1 0x20 PUSH1 0x40 MLOAD DUP1 DUP4 SUB DUP2 DUP7 GAS STATICCALL ISZERO DUP1 ISZERO PUSH2 0x11FC JUMPI RETURNDATASIZE PUSH0 DUP1 RETURNDATACOPY RETURNDATASIZE PUSH0 REVERT JUMPDEST POP POP POP POP PUSH1 0x40 MLOAD RETURNDATASIZE PUSH1 0x1F NOT PUSH1 0x1F DUP3 ADD AND DUP3 ADD DUP1 PUSH1 0x40 MSTORE POP DUP2 ADD SWAP1 PUSH2 0x1220 SWAP2 SWAP1 PUSH2 0x323B JUMP JUMPDEST SWAP1 POP PUSH32 0x0 PUSH20 0xFFFFFFFFFFFFFFFFFFFFFFFFFFFFFFFFFFFFFFFF AND PUSH4 0x38ED1739 DUP8 DUP8 DUP6 ADDRESS TIMESTAMP PUSH1 0x40 MLOAD DUP7 PUSH4 0xFFFFFFFF AND PUSH1 0xE0 SHL DUP2 MSTORE PUSH1 0x4 ADD PUSH2 0x1283 SWAP6 SWAP5 SWAP4 SWAP3 SWAP2 SWAP1 PUSH2 0x35E7 JUMP JUMPDEST PUSH0 PUSH1 0x40 MLOAD DUP1 DUP4 SUB DUP2 PUSH0 DUP8 GAS CALL ISZERO DUP1 ISZERO PUSH2 0x129E JUMPI RETURNDATASIZE PUSH0 DUP1 RETURNDATACOPY RETURNDATASIZE PUSH0 REVERT JUMPDEST POP POP POP POP PUSH1 0x40 MLOAD RETURNDATASIZE PUSH0 DUP3 RETURNDATACOPY RETURNDATASIZE PUSH1 0x1F NOT PUSH1 0x1F DUP3 ADD AND DUP3 ADD DUP1 PUSH1 0x40 MSTORE POP DUP2 ADD SWAP1 PUSH2 0x12C6 SWAP2 SWAP1 PUSH2 0x348A JUMP JUMPDEST POP PUSH0 PUSH32 0x0 PUSH20 0xFFFFFFFFFFFFFFFFFFFFFFFFFFFFFFFFFFFFFFFF AND PUSH4 0x70A08231 ADDRESS PUSH1 0x40 MLOAD DUP3 PUSH4 0xFFFFFFFF AND PUSH1 0xE0 SHL DUP2 MSTORE PUSH1 0x4 ADD PUSH2 0x1321 SWAP2 SWAP1 PUSH2 0x2E9E JUMP JUMPDEST PUSH1 0x20 PUSH1 0x40 MLOAD DUP1 DUP4 SUB DUP2 DUP7 GAS STATICCALL ISZERO DUP1 ISZERO PUSH2 0x133C JUMPI RETURNDATASIZE PUSH0 DUP1 RETURNDATACOPY RETURNDATASIZE PUSH0 REVERT JUMPDEST POP POP POP POP PUSH1 0x40 MLOAD RETURNDATASIZE PUSH1 0x1F NOT PUSH1 0x1F DUP3 ADD AND DUP3 ADD DUP1 PUSH1 0x40 MSTORE POP DUP2 ADD SWAP1 PUSH2 0x1360 SWAP2 SWAP1 PUSH2 0x323B JUMP JUMPDEST SWAP1 POP PUSH0 DUP3 DUP3 PUSH2 0x136F SWAP2 SWAP1 PUSH2 0x34FE JUMP JUMPDEST SWAP1 POP PUSH0 DUP2 PUSH1 0x2 SLOAD PUSH2 0x1380 SWAP2 SWAP1 PUSH2 0x3531 JUMP JUMPDEST SWAP1 POP PUSH32 0x0 DUP2 GT ISZERO PUSH2 0x1409 JUMPI DUP1 PUSH32 0x0 PUSH1 0x40 MLOAD PUSH32 0xF480E28500000000000000000000000000000000000000000000000000000000 DUP2 MSTORE PUSH1 0x4 ADD PUSH2 0x1400 SWAP3 SWAP2 SWAP1 PUSH2 0x3564 JUMP JUMPDEST PUSH1 0x40 MLOAD DUP1 SWAP2 SUB SWAP1 REVERT JUMPDEST DUP2 PUSH1 0x3 PUSH0 PUSH32 0x0 PUSH20 0xFFFFFFFFFFFFFFFFFFFFFFFFFFFFFFFFFFFFFFFF AND PUSH20 0xFFFFFFFFFFFFFFFFFFFFFFFFFFFFFFFFFFFFFFFF AND DUP2 MSTORE PUSH1 0x20 ADD SWAP1 DUP2 MSTORE PUSH1 0x20 ADD PUSH0 KECCAK256 PUSH0 CALLER PUSH20 0xFFFFFFFFFFFFFFFFFFFFFFFFFFFFFFFFFFFFFFFF AND PUSH20 0xFFFFFFFFFFFFFFFFFFFFFFFFFFFFFFFFFFFFFFFF AND DUP2 MSTORE PUSH1 0x20 ADD SWAP1 DUP2 MSTORE PUSH1 0x20 ADD PUSH0 KECCAK256 PUSH0 DUP3 DUP3 SLOAD PUSH2 0x14B0 SWAP2 SWAP1 PUSH2 0x3531 JUMP JUMPDEST SWAP3 POP POP DUP2 SWAP1 SSTORE POP DUP1 PUSH1 0x2 DUP2 SWAP1 SSTORE POP PUSH1 0x5 PUSH0 DUP2 SLOAD DUP1 SWAP3 SWAP2 SWAP1 PUSH1 0x1 ADD SWAP2 SWAP1 POP SSTORE POP CALLER PUSH20 0xFFFFFFFFFFFFFFFFFFFFFFFFFFFFFFFFFFFFFFFF AND PUSH32 0x0 PUSH20 0xFFFFFFFFFFFFFFFFFFFFFFFFFFFFFFFFFFFFFFFF AND PUSH32 0x4E2CA0515ED1AEF1395F66B5303BB5D6F1BF9D61A353FA53F73F8AC9973FA9F6 DUP12 PUSH1 0x3 PUSH0 PUSH32 0x0 PUSH20 0xFFFFFFFFFFFFFFFFFFFFFFFFFFFFFFFFFFFFFFFF AND PUSH20 0xFFFFFFFFFFFFFFFFFFFFFFFFFFFFFFFFFFFFFFFF AND DUP2 MSTORE PUSH1 0x20 ADD SWAP1 DUP2 MSTORE PUSH1 0x20 ADD PUSH0 KECCAK256 PUSH0 CALLER PUSH20 0xFFFFFFFFFFFFFFFFFFFFFFFFFFFFFFFFFFFFFFFF AND PUSH20 0xFFFFFFFFFFFFFFFFFFFFFFFFFFFFFFFFFFFFFFFF AND DUP2 MSTORE PUSH1 0x20 ADD SWAP1 DUP2 MSTORE PUSH1 0x20 ADD PUSH0 KECCAK256 SLOAD DUP7 PUSH1 0x40 MLOAD PUSH2 0x15E8 SWAP4 SWAP3 SWAP2 SWAP1 PUSH2 0x358B JUMP JUMPDEST PUSH1 0x40 MLOAD DUP1 SWAP2 SUB SWAP1 LOG3 POP POP POP POP POP POP POP PUSH2 0x15FF PUSH2 0x24F9 JUMP JUMPDEST POP POP POP JUMP JUMPDEST PUSH32 0x0 DUP2 JUMP JUMPDEST PUSH0 DUP1 PUSH0 DUP5 DUP2 MSTORE PUSH1 0x20 ADD SWAP1 DUP2 MSTORE PUSH1 0x20 ADD PUSH0 KECCAK256 PUSH0 ADD PUSH0 DUP4 PUSH20 0xFFFFFFFFFFFFFFFFFFFFFFFFFFFFFFFFFFFFFFFF AND PUSH20 0xFFFFFFFFFFFFFFFFFFFFFFFFFFFFFFFFFFFFFFFF AND DUP2 MSTORE PUSH1 0x20 ADD SWAP1 DUP2 MSTORE PUSH1 0x20 ADD PUSH0 KECCAK256 PUSH0 SWAP1 SLOAD SWAP1 PUSH2 0x100 EXP SWAP1 DIV PUSH1 0xFF AND SWAP1 POP SWAP3 SWAP2 POP POP JUMP JUMPDEST PUSH32 0x2172861495E7B85EDAC73E3CD5FBB42DD675BAADF627720E687BCFDACA025096 PUSH2 0x16B5 DUP2 PUSH2 0x22C6 JUMP JUMPDEST PUSH0 PUSH20 0xFFFFFFFFFFFFFFFFFFFFFFFFFFFFFFFFFFFFFFFF AND DUP7 PUSH20 0xFFFFFFFFFFFFFFFFFFFFFFFFFFFFFFFFFFFFFFFF AND SUB PUSH2 0x1725 JUMPI DUP6 PUSH1 0x40 MLOAD PUSH32 0xBF16AAB600000000000000000000000000000000000000000000000000000000 DUP2 MSTORE PUSH1 0x4 ADD PUSH2 0x171C SWAP2 SWAP1 PUSH2 0x2E9E JUMP JUMPDEST PUSH1 0x40 MLOAD DUP1 SWAP2 SUB SWAP1 REVERT JUMPDEST PUSH0 PUSH1 0x4 PUSH0 DUP9 PUSH20 0xFFFFFFFFFFFFFFFFFFFFFFFFFFFFFFFFFFFFFFFF AND PUSH20 0xFFFFFFFFFFFFFFFFFFFFFFFFFFFFFFFFFFFFFFFF AND DUP2 MSTORE PUSH1 0x20 ADD SWAP1 DUP2 MSTORE PUSH1 0x20 ADD PUSH0 KECCAK256 SWAP1 POP DUP6 DUP2 PUSH0 ADD PUSH0 PUSH2 0x100 EXP DUP2 SLOAD DUP2 PUSH1 0xFF MUL NOT AND SWAP1 DUP4 ISZERO ISZERO MUL OR SWAP1 SSTORE POP PUSH0 DUP2 PUSH0 ADD PUSH1 0x1 PUSH2 0x100 EXP DUP2 SLOAD DUP2 PUSH1 0xFF MUL NOT AND SWAP1 DUP4 ISZERO ISZERO MUL OR SWAP1 SSTORE POP PUSH0 DUP6 PUSH1 0xFF AND SUB PUSH2 0x1855 JUMPI DUP7 PUSH20 0xFFFFFFFFFFFFFFFFFFFFFFFFFFFFFFFFFFFFFFFF AND PUSH4 0x313CE567 PUSH1 0x40 MLOAD DUP2 PUSH4 0xFFFFFFFF AND PUSH1 0xE0 SHL DUP2 MSTORE PUSH1 0x4 ADD PUSH1 0x20 PUSH1 0x40 MLOAD DUP1 DUP4 SUB DUP2 DUP7 GAS STATICCALL SWAP3 POP POP POP DUP1 ISZERO PUSH2 0x180C JUMPI POP PUSH1 0x40 MLOAD RETURNDATASIZE PUSH1 0x1F NOT PUSH1 0x1F DUP3 ADD AND DUP3 ADD DUP1 PUSH1 0x40 MSTORE POP DUP2 ADD SWAP1 PUSH2 0x1809 SWAP2 SWAP1 PUSH2 0x3653 JUMP JUMPDEST PUSH1 0x1 JUMPDEST PUSH2 0x1832 JUMPI PUSH1 0x12 DUP2 PUSH0 ADD PUSH1 0x2 PUSH2 0x100 EXP DUP2 SLOAD DUP2 PUSH1 0xFF MUL NOT AND SWAP1 DUP4 PUSH1 0xFF AND MUL OR SWAP1 SSTORE POP PUSH2 0x1850 JUMP JUMPDEST DUP1 DUP3 PUSH0 ADD PUSH1 0x2 PUSH2 0x100 EXP DUP2 SLOAD DUP2 PUSH1 0xFF MUL NOT AND SWAP1 DUP4 PUSH1 0xFF AND MUL OR SWAP1 SSTORE POP POP JUMPDEST PUSH2 0x1872 JUMP JUMPDEST DUP5 DUP2 PUSH0 ADD PUSH1 0x2 PUSH2 0x100 EXP DUP2 SLOAD DUP2 PUSH1 0xFF MUL NOT AND SWAP1 DUP4 PUSH1 0xFF AND MUL OR SWAP1 SSTORE POP JUMPDEST DUP4 DUP2 PUSH1 0x1 ADD DUP2 SWAP1 SSTORE POP DUP3 DUP2 PUSH1 0x2 ADD PUSH0 PUSH2 0x100 EXP DUP2 SLOAD DUP2 PUSH20 0xFFFFFFFFFFFFFFFFFFFFFFFFFFFFFFFFFFFFFFFF MUL NOT AND SWAP1 DUP4 PUSH20 0xFFFFFFFFFFFFFFFFFFFFFFFFFFFFFFFFFFFFFFFF AND MUL OR SWAP1 SSTORE POP DUP7 PUSH20 0xFFFFFFFFFFFFFFFFFFFFFFFFFFFFFFFFFFFFFFFF AND PUSH32 0xCEEC6D18B470B58EABBFC22B7D771C54609ACB2BBE777747424F6E9A5A9D5A25 DUP8 PUSH0 DUP5 PUSH0 ADD PUSH1 0x2 SWAP1 SLOAD SWAP1 PUSH2 0x100 EXP SWAP1 DIV PUSH1 0xFF AND DUP9 DUP9 PUSH1 0x40 MLOAD PUSH2 0x191B SWAP6 SWAP5 SWAP4 SWAP3 SWAP2 SWAP1 PUSH2 0x313D JUMP JUMPDEST PUSH1 0x40 MLOAD DUP1 SWAP2 SUB SWAP1 LOG2 POP POP POP POP POP POP POP JUMP JUMPDEST PUSH0 DUP1 SHL DUP2 JUMP JUMPDEST PUSH32 0x0 DUP2 JUMP JUMPDEST PUSH32 0x2172861495E7B85EDAC73E3CD5FBB42DD675BAADF627720E687BCFDACA025096 DUP2 JUMP JUMPDEST PUSH0 PUSH1 0x3 PUSH0 DUP5 PUSH20 0xFFFFFFFFFFFFFFFFFFFFFFFFFFFFFFFFFFFFFFFF AND PUSH20 0xFFFFFFFFFFFFFFFFFFFFFFFFFFFFFFFFFFFFFFFF AND DUP2 MSTORE PUSH1 0x20 ADD SWAP1 DUP2 MSTORE PUSH1 0x20 ADD PUSH0 KECCAK256 PUSH0 DUP4 PUSH20 0xFFFFFFFFFFFFFFFFFFFFFFFFFFFFFFFFFFFFFFFF AND PUSH20 0xFFFFFFFFFFFFFFFFFFFFFFFFFFFFFFFFFFFFFFFF AND DUP2 MSTORE PUSH1 0x20 ADD SWAP1 DUP2 MSTORE PUSH1 0x20 ADD PUSH0 KECCAK256 SLOAD SWAP1 POP SWAP3 SWAP2 POP POP JUMP JUMPDEST PUSH2 0x1A05 DUP3 PUSH2 0x650 JUMP JUMPDEST PUSH2 0x1A0E DUP2 PUSH2 0x22C6 JUMP JUMPDEST PUSH2 0x1A18 DUP4 DUP4 PUSH2 0x23CA JUMP JUMPDEST POP POP POP POP JUMP JUMPDEST PUSH2 0x1A26 PUSH2 0x24B3 JUMP JUMPDEST DUP1 PUSH0 DUP2 SUB PUSH2 0x1A60 JUMPI PUSH1 0x40 MLOAD PUSH32 0x1F2A200500000000000000000000000000000000000000000000000000000000 DUP2 MSTORE PUSH1 0x4 ADD PUSH1 0x40 MLOAD DUP1 SWAP2 SUB SWAP1 REVERT JUMPDEST PUSH0 PUSH1 0x3 PUSH0 PUSH32 0x0 PUSH20 0xFFFFFFFFFFFFFFFFFFFFFFFFFFFFFFFFFFFFFFFF AND PUSH20 0xFFFFFFFFFFFFFFFFFFFFFFFFFFFFFFFFFFFFFFFF AND DUP2 MSTORE PUSH1 0x20 ADD SWAP1 DUP2 MSTORE PUSH1 0x20 ADD PUSH0 KECCAK256 PUSH0 CALLER PUSH20 0xFFFFFFFFFFFFFFFFFFFFFFFFFFFFFFFFFFFFFFFF AND PUSH20 0xFFFFFFFFFFFFFFFFFFFFFFFFFFFFFFFFFFFFFFFF AND DUP2 MSTORE PUSH1 0x20 ADD SWAP1 DUP2 MSTORE PUSH1 0x20 ADD PUSH0 KECCAK256 SLOAD SWAP1 POP DUP3 DUP2 LT ISZERO PUSH2 0x1B43 JUMPI DUP1 DUP4 PUSH1 0x40 MLOAD PUSH32 0xCF47918100000000000000000000000000000000000000000000000000000000 DUP2 MSTORE PUSH1 0x4 ADD PUSH2 0x1B3A SWAP3 SWAP2 SWAP1 PUSH2 0x3564 JUMP JUMPDEST PUSH1 0x40 MLOAD DUP1 SWAP2 SUB SWAP1 REVERT JUMPDEST DUP3 DUP2 PUSH2 0x1B4F SWAP2 SWAP1 PUSH2 0x34FE JUMP JUMPDEST PUSH1 0x3 PUSH0 PUSH32 0x0 PUSH20 0xFFFFFFFFFFFFFFFFFFFFFFFFFFFFFFFFFFFFFFFF AND PUSH20 0xFFFFFFFFFFFFFFFFFFFFFFFFFFFFFFFFFFFFFFFF AND DUP2 MSTORE PUSH1 0x20 ADD SWAP1 DUP2 MSTORE PUSH1 0x20 ADD PUSH0 KECCAK256 PUSH0 CALLER PUSH20 0xFFFFFFFFFFFFFFFFFFFFFFFFFFFFFFFFFFFFFFFF AND PUSH20 0xFFFFFFFFFFFFFFFFFFFFFFFFFFFFFFFFFFFFFFFF AND DUP2 MSTORE PUSH1 0x20 ADD SWAP1 DUP2 MSTORE PUSH1 0x20 ADD PUSH0 KECCAK256 DUP2 SWAP1 SSTORE POP DUP3 PUSH1 0x2 SLOAD LT PUSH2 0x1C08 JUMPI DUP3 PUSH1 0x2 PUSH0 DUP3 DUP3 SLOAD SUB SWAP3 POP POP DUP2 SWAP1 SSTORE POP PUSH2 0x1C10 JUMP JUMPDEST PUSH0 PUSH1 0x2 DUP2 SWAP1 SSTORE POP JUMPDEST PUSH1 0x6 PUSH0 DUP2 SLOAD DUP1 SWAP3 SWAP2 SWAP1 PUSH1 0x1 ADD SWAP2 SWAP1 POP SSTORE POP PUSH2 0x1C6C CALLER DUP5 PUSH32 0x0 PUSH20 0xFFFFFFFFFFFFFFFFFFFFFFFFFFFFFFFFFFFFFFFF AND PUSH2 0x261D SWAP1 SWAP3 SWAP2 SWAP1 PUSH4 0xFFFFFFFF AND JUMP JUMPDEST CALLER PUSH20 0xFFFFFFFFFFFFFFFFFFFFFFFFFFFFFFFFFFFFFFFF AND PUSH32 0x0 PUSH20 0xFFFFFFFFFFFFFFFFFFFFFFFFFFFFFFFFFFFFFFFF AND PUSH32 0xF341246ADAAC6F497BC2A656F546AB9E182111D630394F0C57C710A59A2CB567 DUP6 PUSH1 0x3 PUSH0 PUSH32 0x0 PUSH20 0xFFFFFFFFFFFFFFFFFFFFFFFFFFFFFFFFFFFFFFFF AND PUSH20 0xFFFFFFFFFFFFFFFFFFFFFFFFFFFFFFFFFFFFFFFF AND DUP2 MSTORE PUSH1 0x20 ADD SWAP1 DUP2 MSTORE PUSH1 0x20 ADD PUSH0 KECCAK256 PUSH0 CALLER PUSH20 0xFFFFFFFFFFFFFFFFFFFFFFFFFFFFFFFFFFFFFFFF AND PUSH20 0xFFFFFFFFFFFFFFFFFFFFFFFFFFFFFFFFFFFFFFFF AND DUP2 MSTORE PUSH1 0x20 ADD SWAP1 DUP2 MSTORE PUSH1 0x20 ADD PUSH0 KECCAK256 SLOAD PUSH1 0x40 MLOAD PUSH2 0x1D83 SWAP3 SWAP2 SWAP1 PUSH2 0x3564 JUMP JUMPDEST PUSH1 0x40 MLOAD DUP1 SWAP2 SUB SWAP1 LOG3 POP POP PUSH2 0x1D95 PUSH2 0x24F9 JUMP JUMPDEST POP JUMP JUMPDEST PUSH0 DUP1 PUSH1 0x3 PUSH0 DUP6 PUSH20 0xFFFFFFFFFFFFFFFFFFFFFFFFFFFFFFFFFFFFFFFF AND PUSH20 0xFFFFFFFFFFFFFFFFFFFFFFFFFFFFFFFFFFFFFFFF AND DUP2 MSTORE PUSH1 0x20 ADD SWAP1 DUP2 MSTORE PUSH1 0x20 ADD PUSH0 KECCAK256 PUSH0 DUP5 PUSH20 0xFFFFFFFFFFFFFFFFFFFFFFFFFFFFFFFFFFFFFFFF AND PUSH20 0xFFFFFFFFFFFFFFFFFFFFFFFFFFFFFFFFFFFFFFFF AND DUP2 MSTORE PUSH1 0x20 ADD SWAP1 DUP2 MSTORE PUSH1 0x20 ADD PUSH0 KECCAK256 SLOAD SWAP1 POP PUSH32 0x0 PUSH20 0xFFFFFFFFFFFFFFFFFFFFFFFFFFFFFFFFFFFFFFFF AND DUP5 PUSH20 0xFFFFFFFFFFFFFFFFFFFFFFFFFFFFFFFFFFFFFFFF AND SUB PUSH2 0x1E71 JUMPI DUP1 SWAP2 POP POP PUSH2 0x1E7F JUMP JUMPDEST PUSH2 0x1E7B DUP5 DUP3 PUSH2 0x269C JUMP JUMPDEST SWAP2 POP POP JUMPDEST SWAP3 SWAP2 POP POP JUMP JUMPDEST PUSH2 0x1E8D PUSH2 0x24B3 JUMP JUMPDEST DUP1 PUSH0 DUP2 SUB PUSH2 0x1EC7 JUMPI PUSH1 0x40 MLOAD PUSH32 0x1F2A200500000000000000000000000000000000000000000000000000000000 DUP2 MSTORE PUSH1 0x4 ADD PUSH1 0x40 MLOAD DUP1 SWAP2 SUB SWAP1 REVERT JUMPDEST PUSH0 DUP3 PUSH1 0x2 SLOAD PUSH2 0x1ED6 SWAP2 SWAP1 PUSH2 0x3531 JUMP JUMPDEST SWAP1 POP PUSH32 0x0 DUP2 GT ISZERO PUSH2 0x1F5F JUMPI DUP1 PUSH32 0x0 PUSH1 0x40 MLOAD PUSH32 0xF480E28500000000000000000000000000000000000000000000000000000000 DUP2 MSTORE PUSH1 0x4 ADD PUSH2 0x1F56 SWAP3 SWAP2 SWAP1 PUSH2 0x3564 JUMP JUMPDEST PUSH1 0x40 MLOAD DUP1 SWAP2 SUB SWAP1 REVERT JUMPDEST DUP3 PUSH1 0x3 PUSH0 PUSH32 0x0 PUSH20 0xFFFFFFFFFFFFFFFFFFFFFFFFFFFFFFFFFFFFFFFF AND PUSH20 0xFFFFFFFFFFFFFFFFFFFFFFFFFFFFFFFFFFFFFFFF AND DUP2 MSTORE PUSH1 0x20 ADD SWAP1 DUP2 MSTORE PUSH1 0x20 ADD PUSH0 KECCAK256 PUSH0 CALLER PUSH20 0xFFFFFFFFFFFFFFFFFFFFFFFFFFFFFFFFFFFFFFFF AND PUSH20 0xFFFFFFFFFFFFFFFFFFFFFFFFFFFFFFFFFFFFFFFF AND DUP2 MSTORE PUSH1 0x20 ADD SWAP1 DUP2 MSTORE PUSH1 0x20 ADD PUSH0 KECCAK256 PUSH0 DUP3 DUP3 SLOAD PUSH2 0x2006 SWAP2 SWAP1 PUSH2 0x3531 JUMP JUMPDEST SWAP3 POP POP DUP2 SWAP1 SSTORE POP DUP1 PUSH1 0x2 DUP2 SWAP1 SSTORE POP PUSH1 0x5 PUSH0 DUP2 SLOAD DUP1 SWAP3 SWAP2 SWAP1 PUSH1 0x1 ADD SWAP2 SWAP1 POP SSTORE POP PUSH2 0x2072 CALLER ADDRESS DUP6 PUSH32 0x0 PUSH20 0xFFFFFFFFFFFFFFFFFFFFFFFFFFFFFFFFFFFFFFFF AND PUSH2 0x2502 SWAP1 SWAP4 SWAP3 SWAP2 SWAP1 PUSH4 0xFFFFFFFF AND JUMP JUMPDEST CALLER PUSH20 0xFFFFFFFFFFFFFFFFFFFFFFFFFFFFFFFFFFFFFFFF AND PUSH32 0x0 PUSH20 0xFFFFFFFFFFFFFFFFFFFFFFFFFFFFFFFFFFFFFFFF AND PUSH32 0x4E2CA0515ED1AEF1395F66B5303BB5D6F1BF9D61A353FA53F73F8AC9973FA9F6 DUP6 PUSH1 0x3 PUSH0 PUSH32 0x0 PUSH20 0xFFFFFFFFFFFFFFFFFFFFFFFFFFFFFFFFFFFFFFFF AND PUSH20 0xFFFFFFFFFFFFFFFFFFFFFFFFFFFFFFFFFFFFFFFF AND DUP2 MSTORE PUSH1 0x20 ADD SWAP1 DUP2 MSTORE PUSH1 0x20 ADD PUSH0 KECCAK256 PUSH0 CALLER PUSH20 0xFFFFFFFFFFFFFFFFFFFFFFFFFFFFFFFFFFFFFFFF AND PUSH20 0xFFFFFFFFFFFFFFFFFFFFFFFFFFFFFFFFFFFFFFFF AND DUP2 MSTORE PUSH1 0x20 ADD SWAP1 DUP2 MSTORE PUSH1 0x20 ADD PUSH0 KECCAK256 SLOAD DUP8 PUSH1 0x40 MLOAD PUSH2 0x218B SWAP4 SWAP3 SWAP2 SWAP1 PUSH2 0x358B JUMP JUMPDEST PUSH1 0x40 MLOAD DUP1 SWAP2 SUB SWAP1 LOG3 POP POP PUSH2 0x219D PUSH2 0x24F9 JUMP JUMPDEST POP JUMP JUMPDEST PUSH32 0x0 DUP2 JUMP JUMPDEST PUSH32 0x0 DUP2 JUMP JUMPDEST PUSH1 0x4 PUSH1 0x20 MSTORE DUP1 PUSH0 MSTORE PUSH1 0x40 PUSH0 KECCAK256 PUSH0 SWAP2 POP SWAP1 POP DUP1 PUSH0 ADD PUSH0 SWAP1 SLOAD SWAP1 PUSH2 0x100 EXP SWAP1 DIV PUSH1 0xFF AND SWAP1 DUP1 PUSH0 ADD PUSH1 0x1 SWAP1 SLOAD SWAP1 PUSH2 0x100 EXP SWAP1 DIV PUSH1 0xFF AND SWAP1 DUP1 PUSH0 ADD PUSH1 0x2 SWAP1 SLOAD SWAP1 PUSH2 0x100 EXP SWAP1 DIV PUSH1 0xFF AND SWAP1 DUP1 PUSH1 0x1 ADD SLOAD SWAP1 DUP1 PUSH1 0x2 ADD PUSH0 SWAP1 SLOAD SWAP1 PUSH2 0x100 EXP SWAP1 DIV PUSH20 0xFFFFFFFFFFFFFFFFFFFFFFFFFFFFFFFFFFFFFFFF AND SWAP1 POP DUP6 JUMP JUMPDEST PUSH0 PUSH32 0x1FFC9A700000000000000000000000000000000000000000000000000000000 PUSH28 0xFFFFFFFFFFFFFFFFFFFFFFFFFFFFFFFFFFFFFFFFFFFFFFFFFFFFFFFF NOT AND DUP3 PUSH28 0xFFFFFFFFFFFFFFFFFFFFFFFFFFFFFFFFFFFFFFFFFFFFFFFFFFFFFFFF NOT AND EQ SWAP1 POP SWAP2 SWAP1 POP JUMP JUMPDEST PUSH2 0x22D7 DUP2 PUSH2 0x22D2 PUSH2 0x23C3 JUMP JUMPDEST PUSH2 0x29F6 JUMP JUMPDEST POP JUMP JUMPDEST PUSH0 PUSH2 0x22E5 DUP4 DUP4 PUSH2 0x1628 JUMP JUMPDEST PUSH2 0x23B9 JUMPI PUSH1 0x1 PUSH0 DUP1 DUP6 DUP2 MSTORE PUSH1 0x20 ADD SWAP1 DUP2 MSTORE PUSH1 0x20 ADD PUSH0 KECCAK256 PUSH0 ADD PUSH0 DUP5 PUSH20 0xFFFFFFFFFFFFFFFFFFFFFFFFFFFFFFFFFFFFFFFF AND PUSH20 0xFFFFFFFFFFFFFFFFFFFFFFFFFFFFFFFFFFFFFFFF AND DUP2 MSTORE PUSH1 0x20 ADD SWAP1 DUP2 MSTORE PUSH1 0x20 ADD PUSH0 KECCAK256 PUSH0 PUSH2 0x100 EXP DUP2 SLOAD DUP2 PUSH1 0xFF MUL NOT AND SWAP1 DUP4 ISZERO ISZERO MUL OR SWAP1 SSTORE POP PUSH2 0x2356 PUSH2 0x23C3 JUMP JUMPDEST PUSH20 0xFFFFFFFFFFFFFFFFFFFFFFFFFFFFFFFFFFFFFFFF AND DUP3 PUSH20 0xFFFFFFFFFFFFFFFFFFFFFFFFFFFFFFFFFFFFFFFF AND DUP5 PUSH32 0x2F8788117E7EFF1D82E926EC794901D17C78024A50270940304540A733656F0D PUSH1 0x40 MLOAD PUSH1 0x40 MLOAD DUP1 SWAP2 SUB SWAP1 LOG4 PUSH1 0x1 SWAP1 POP PUSH2 0x23BD JUMP JUMPDEST PUSH0 SWAP1 POP JUMPDEST SWAP3 SWAP2 POP POP JUMP JUMPDEST PUSH0 CALLER SWAP1 POP SWAP1 JUMP JUMPDEST PUSH0 PUSH2 0x23D5 DUP4 DUP4 PUSH2 0x1628 JUMP JUMPDEST ISZERO PUSH2 0x24A9 JUMPI PUSH0 DUP1 PUSH0 DUP6 DUP2 MSTORE PUSH1 0x20 ADD SWAP1 DUP2 MSTORE PUSH1 0x20 ADD PUSH0 KECCAK256 PUSH0 ADD PUSH0 DUP5 PUSH20 0xFFFFFFFFFFFFFFFFFFFFFFFFFFFFFFFFFFFFFFFF AND PUSH20 0xFFFFFFFFFFFFFFFFFFFFFFFFFFFFFFFFFFFFFFFF AND DUP2 MSTORE PUSH1 0x20 ADD SWAP1 DUP2 MSTORE PUSH1 0x20 ADD PUSH0 KECCAK256 PUSH0 PUSH2 0x100 EXP DUP2 SLOAD DUP2 PUSH1 0xFF MUL NOT AND SWAP1 DUP4 ISZERO ISZERO MUL OR SWAP1 SSTORE POP PUSH2 0x2446 PUSH2 0x23C3 JUMP JUMPDEST PUSH20 0xFFFFFFFFFFFFFFFFFFFFFFFFFFFFFFFFFFFFFFFF AND DUP3 PUSH20 0xFFFFFFFFFFFFFFFFFFFFFFFFFFFFFFFFFFFFFFFF AND DUP5 PUSH32 0xF6391F5C32D9C69D2A47EA670B442974B53935D1EDC7FD64EB21E047A839171B PUSH1 0x40 MLOAD PUSH1 0x40 MLOAD DUP1 SWAP2 SUB SWAP1 LOG4 PUSH1 0x1 SWAP1 POP PUSH2 0x24AD JUMP JUMPDEST PUSH0 SWAP1 POP JUMPDEST SWAP3 SWAP2 POP POP JUMP JUMPDEST PUSH1 0x2 PUSH1 0x1 SLOAD SUB PUSH2 0x24EF JUMPI PUSH1 0x40 MLOAD PUSH32 0x3EE5AEB500000000000000000000000000000000000000000000000000000000 DUP2 MSTORE PUSH1 0x4 ADD PUSH1 0x40 MLOAD DUP1 SWAP2 SUB SWAP1 REVERT JUMPDEST PUSH1 0x2 PUSH1 0x1 DUP2 SWAP1 SSTORE POP JUMP JUMPDEST PUSH1 0x1 DUP1 DUP2 SWAP1 SSTORE POP JUMP JUMPDEST PUSH2 0x257E DUP5 DUP6 PUSH20 0xFFFFFFFFFFFFFFFFFFFFFFFFFFFFFFFFFFFFFFFF AND PUSH4 0x23B872DD DUP7 DUP7 DUP7 PUSH1 0x40 MLOAD PUSH1 0x24 ADD PUSH2 0x2537 SWAP4 SWAP3 SWAP2 SWAP1 PUSH2 0x367E JUMP JUMPDEST PUSH1 0x40 MLOAD PUSH1 0x20 DUP2 DUP4 SUB SUB DUP2 MSTORE SWAP1 PUSH1 0x40 MSTORE SWAP2 POP PUSH1 0xE0 SHL PUSH1 0x20 DUP3 ADD DUP1 MLOAD PUSH28 0xFFFFFFFFFFFFFFFFFFFFFFFFFFFFFFFFFFFFFFFFFFFFFFFFFFFFFFFF DUP4 DUP2 DUP4 AND OR DUP4 MSTORE POP POP POP POP PUSH2 0x2A47 JUMP JUMPDEST POP POP POP POP JUMP JUMPDEST PUSH0 DUP4 PUSH20 0xFFFFFFFFFFFFFFFFFFFFFFFFFFFFFFFFFFFFFFFF AND PUSH4 0xDD62ED3E ADDRESS DUP6 PUSH1 0x40 MLOAD DUP4 PUSH4 0xFFFFFFFF AND PUSH1 0xE0 SHL DUP2 MSTORE PUSH1 0x4 ADD PUSH2 0x25C0 SWAP3 SWAP2 SWAP1 PUSH2 0x35C0 JUMP JUMPDEST PUSH1 0x20 PUSH1 0x40 MLOAD DUP1 DUP4 SUB DUP2 DUP7 GAS STATICCALL ISZERO DUP1 ISZERO PUSH2 0x25DB JUMPI RETURNDATASIZE PUSH0 DUP1 RETURNDATACOPY RETURNDATASIZE PUSH0 REVERT JUMPDEST POP POP POP POP PUSH1 0x40 MLOAD RETURNDATASIZE PUSH1 0x1F NOT PUSH1 0x1F DUP3 ADD AND DUP3 ADD DUP1 PUSH1 0x40 MSTORE POP DUP2 ADD SWAP1 PUSH2 0x25FF SWAP2 SWAP1 PUSH2 0x323B JUMP JUMPDEST SWAP1 POP PUSH2 0x2617 DUP5 DUP5 DUP5 DUP5 PUSH2 0x2612 SWAP2 SWAP1 PUSH2 0x3531 JUMP JUMPDEST PUSH2 0x2AE2 JUMP JUMPDEST POP POP POP POP JUMP JUMPDEST PUSH2 0x2697 DUP4 DUP5 PUSH20 0xFFFFFFFFFFFFFFFFFFFFFFFFFFFFFFFFFFFFFFFF AND PUSH4 0xA9059CBB DUP6 DUP6 PUSH1 0x40 MLOAD PUSH1 0x24 ADD PUSH2 0x2650 SWAP3 SWAP2 SWAP1 PUSH2 0x36B3 JUMP JUMPDEST PUSH1 0x40 MLOAD PUSH1 0x20 DUP2 DUP4 SUB SUB DUP2 MSTORE SWAP1 PUSH1 0x40 MSTORE SWAP2 POP PUSH1 0xE0 SHL PUSH1 0x20 DUP3 ADD DUP1 MLOAD PUSH28 0xFFFFFFFFFFFFFFFFFFFFFFFFFFFFFFFFFFFFFFFFFFFFFFFFFFFFFFFF DUP4 DUP2 DUP4 AND OR DUP4 MSTORE POP POP POP POP PUSH2 0x2A47 JUMP JUMPDEST POP POP POP JUMP JUMPDEST PUSH0 DUP1 DUP3 SUB PUSH2 0x26AC JUMPI PUSH0 SWAP1 POP PUSH2 0x29F0 JUMP JUMPDEST PUSH0 PUSH1 0x4 PUSH0 DUP6 PUSH20 0xFFFFFFFFFFFFFFFFFFFFFFFFFFFFFFFFFFFFFFFF AND PUSH20 0xFFFFFFFFFFFFFFFFFFFFFFFFFFFFFFFFFFFFFFFF AND DUP2 MSTORE PUSH1 0x20 ADD SWAP1 DUP2 MSTORE PUSH1 0x20 ADD PUSH0 KECCAK256 PUSH1 0x40 MLOAD DUP1 PUSH1 0xA0 ADD PUSH1 0x40 MSTORE SWAP1 DUP2 PUSH0 DUP3 ADD PUSH0 SWAP1 SLOAD SWAP1 PUSH2 0x100 EXP SWAP1 DIV PUSH1 0xFF AND ISZERO ISZERO ISZERO ISZERO DUP2 MSTORE PUSH1 0x20 ADD PUSH0 DUP3 ADD PUSH1 0x1 SWAP1 SLOAD SWAP1 PUSH2 0x100 EXP SWAP1 DIV PUSH1 0xFF AND ISZERO ISZERO ISZERO ISZERO DUP2 MSTORE PUSH1 0x20 ADD PUSH0 DUP3 ADD PUSH1 0x2 SWAP1 SLOAD SWAP1 PUSH2 0x100 EXP SWAP1 DIV PUSH1 0xFF AND PUSH1 0xFF AND PUSH1 0xFF AND DUP2 MSTORE PUSH1 0x20 ADD PUSH1 0x1 DUP3 ADD SLOAD DUP2 MSTORE PUSH1 0x20 ADD PUSH1 0x2 DUP3 ADD PUSH0 SWAP1 SLOAD SWAP1 PUSH2 0x100 EXP SWAP1 DIV PUSH20 0xFFFFFFFFFFFFFFFFFFFFFFFFFFFFFFFFFFFFFFFF AND PUSH20 0xFFFFFFFFFFFFFFFFFFFFFFFFFFFFFFFFFFFFFFFF AND PUSH20 0xFFFFFFFFFFFFFFFFFFFFFFFFFFFFFFFFFFFFFFFF AND DUP2 MSTORE POP POP SWAP1 POP PUSH0 DUP2 PUSH1 0x80 ADD MLOAD SWAP1 POP PUSH0 PUSH20 0xFFFFFFFFFFFFFFFFFFFFFFFFFFFFFFFFFFFFFFFF AND DUP2 PUSH20 0xFFFFFFFFFFFFFFFFFFFFFFFFFFFFFFFFFFFFFFFF AND SUB PUSH2 0x281D JUMPI DUP5 PUSH1 0x40 MLOAD PUSH32 0x8A7A791D00000000000000000000000000000000000000000000000000000000 DUP2 MSTORE PUSH1 0x4 ADD PUSH2 0x2814 SWAP2 SWAP1 PUSH2 0x2E9E JUMP JUMPDEST PUSH1 0x40 MLOAD DUP1 SWAP2 SUB SWAP1 REVERT JUMPDEST PUSH0 DUP2 PUSH20 0xFFFFFFFFFFFFFFFFFFFFFFFFFFFFFFFFFFFFFFFF AND PUSH4 0xFEAF968C PUSH1 0x40 MLOAD DUP2 PUSH4 0xFFFFFFFF AND PUSH1 0xE0 SHL DUP2 MSTORE PUSH1 0x4 ADD PUSH1 0xA0 PUSH1 0x40 MLOAD DUP1 DUP4 SUB DUP2 DUP7 GAS STATICCALL ISZERO DUP1 ISZERO PUSH2 0x2867 JUMPI RETURNDATASIZE PUSH0 DUP1 RETURNDATACOPY RETURNDATASIZE PUSH0 REVERT JUMPDEST POP POP POP POP PUSH1 0x40 MLOAD RETURNDATASIZE PUSH1 0x1F NOT PUSH1 0x1F DUP3 ADD AND DUP3 ADD DUP1 PUSH1 0x40 MSTORE POP DUP2 ADD SWAP1 PUSH2 0x288B SWAP2 SWAP1 PUSH2 0x374C JUMP JUMPDEST POP POP POP SWAP2 POP POP PUSH0 DUP2 SGT PUSH2 0x28CA JUMPI PUSH1 0x40 MLOAD PUSH32 0x4FD58D4B00000000000000000000000000000000000000000000000000000000 DUP2 MSTORE PUSH1 0x4 ADD PUSH1 0x40 MLOAD DUP1 SWAP2 SUB SWAP1 REVERT JUMPDEST PUSH0 DUP2 SWAP1 POP PUSH0 DUP4 PUSH20 0xFFFFFFFFFFFFFFFFFFFFFFFFFFFFFFFFFFFFFFFF AND PUSH4 0x313CE567 PUSH1 0x40 MLOAD DUP2 PUSH4 0xFFFFFFFF AND PUSH1 0xE0 SHL DUP2 MSTORE PUSH1 0x4 ADD PUSH1 0x20 PUSH1 0x40 MLOAD DUP1 DUP4 SUB DUP2 DUP7 GAS STATICCALL ISZERO DUP1 ISZERO PUSH2 0x2918 JUMPI RETURNDATASIZE PUSH0 DUP1 RETURNDATACOPY RETURNDATASIZE PUSH0 REVERT JUMPDEST POP POP POP POP PUSH1 0x40 MLOAD RETURNDATASIZE PUSH1 0x1F NOT PUSH1 0x1F DUP3 ADD AND DUP3 ADD DUP1 PUSH1 0x40 MSTORE POP DUP2 ADD SWAP1 PUSH2 0x293C SWAP2 SWAP1 PUSH2 0x3653 JUMP JUMPDEST SWAP1 POP PUSH0 DUP3 DUP9 PUSH2 0x294B SWAP2 SWAP1 PUSH2 0x37C3 JUMP JUMPDEST SWAP1 POP PUSH0 DUP3 PUSH1 0xFF AND GT ISZERO PUSH2 0x2973 JUMPI DUP2 PUSH1 0xA PUSH2 0x2965 SWAP2 SWAP1 PUSH2 0x3933 JUMP JUMPDEST DUP2 PUSH2 0x2970 SWAP2 SWAP1 PUSH2 0x39AA JUMP JUMPDEST SWAP1 POP JUMPDEST PUSH1 0x6 PUSH1 0xFF AND DUP7 PUSH1 0x40 ADD MLOAD PUSH1 0xFF AND LT PUSH2 0x29B9 JUMPI PUSH0 PUSH1 0x6 DUP8 PUSH1 0x40 ADD MLOAD PUSH2 0x2997 SWAP2 SWAP1 PUSH2 0x39DA JUMP JUMPDEST PUSH1 0xA PUSH2 0x29A3 SWAP2 SWAP1 PUSH2 0x3933 JUMP JUMPDEST SWAP1 POP DUP1 DUP3 PUSH2 0x29B1 SWAP2 SWAP1 PUSH2 0x39AA JUMP JUMPDEST SWAP8 POP POP PUSH2 0x29E9 JUMP JUMPDEST PUSH0 DUP7 PUSH1 0x40 ADD MLOAD PUSH1 0x6 PUSH2 0x29CB SWAP2 SWAP1 PUSH2 0x39DA JUMP JUMPDEST PUSH1 0xA PUSH2 0x29D7 SWAP2 SWAP1 PUSH2 0x3933 JUMP JUMPDEST SWAP1 POP DUP1 DUP3 PUSH2 0x29E5 SWAP2 SWAP1 PUSH2 0x37C3 JUMP JUMPDEST SWAP8 POP POP JUMPDEST POP POP POP POP POP POP JUMPDEST SWAP3 SWAP2 POP POP JUMP JUMPDEST PUSH2 0x2A00 DUP3 DUP3 PUSH2 0x1628 JUMP JUMPDEST PUSH2 0x2A43 JUMPI DUP1 DUP3 PUSH1 0x40 MLOAD PUSH32 0xE2517D3F00000000000000000000000000000000000000000000000000000000 DUP2 MSTORE PUSH1 0x4 ADD PUSH2 0x2A3A SWAP3 SWAP2 SWAP1 PUSH2 0x3A0E JUMP JUMPDEST PUSH1 0x40 MLOAD DUP1 SWAP2 SUB SWAP1 REVERT JUMPDEST POP POP JUMP JUMPDEST PUSH0 DUP1 PUSH1 0x20 PUSH0 DUP5 MLOAD PUSH1 0x20 DUP7 ADD PUSH0 DUP9 GAS CALL DUP1 PUSH2 0x2A66 JUMPI PUSH1 0x40 MLOAD RETURNDATASIZE PUSH0 DUP3 RETURNDATACOPY RETURNDATASIZE DUP2 REVERT JUMPDEST RETURNDATASIZE SWAP3 POP PUSH0 MLOAD SWAP2 POP POP PUSH0 DUP3 EQ PUSH2 0x2A7F JUMPI PUSH1 0x1 DUP2 EQ ISZERO PUSH2 0x2A9A JUMP JUMPDEST PUSH0 DUP5 PUSH20 0xFFFFFFFFFFFFFFFFFFFFFFFFFFFFFFFFFFFFFFFF AND EXTCODESIZE EQ JUMPDEST ISZERO PUSH2 0x2ADC JUMPI DUP4 PUSH1 0x40 MLOAD PUSH32 0x5274AFE700000000000000000000000000000000000000000000000000000000 DUP2 MSTORE PUSH1 0x4 ADD PUSH2 0x2AD3 SWAP2 SWAP1 PUSH2 0x2E9E JUMP JUMPDEST PUSH1 0x40 MLOAD DUP1 SWAP2 SUB SWAP1 REVERT JUMPDEST POP POP POP POP JUMP JUMPDEST PUSH0 DUP4 PUSH20 0xFFFFFFFFFFFFFFFFFFFFFFFFFFFFFFFFFFFFFFFF AND PUSH4 0x95EA7B3 DUP5 DUP5 PUSH1 0x40 MLOAD PUSH1 0x24 ADD PUSH2 0x2B12 SWAP3 SWAP2 SWAP1 PUSH2 0x36B3 JUMP JUMPDEST PUSH1 0x40 MLOAD PUSH1 0x20 DUP2 DUP4 SUB SUB DUP2 MSTORE SWAP1 PUSH1 0x40 MSTORE SWAP2 POP PUSH1 0xE0 SHL PUSH1 0x20 DUP3 ADD DUP1 MLOAD PUSH28 0xFFFFFFFFFFFFFFFFFFFFFFFFFFFFFFFFFFFFFFFFFFFFFFFFFFFFFFFF DUP4 DUP2 DUP4 AND OR DUP4 MSTORE POP POP POP POP SWAP1 POP PUSH2 0x2B60 DUP5 DUP3 PUSH2 0x2BEF JUMP JUMPDEST PUSH2 0x2BE9 JUMPI PUSH2 0x2BDE DUP5 DUP6 PUSH20 0xFFFFFFFFFFFFFFFFFFFFFFFFFFFFFFFFFFFFFFFF AND PUSH4 0x95EA7B3 DUP7 PUSH0 PUSH1 0x40 MLOAD PUSH1 0x24 ADD PUSH2 0x2B97 SWAP3 SWAP2 SWAP1 PUSH2 0x3A6E JUMP JUMPDEST PUSH1 0x40 MLOAD PUSH1 0x20 DUP2 DUP4 SUB SUB DUP2 MSTORE SWAP1 PUSH1 0x40 MSTORE SWAP2 POP PUSH1 0xE0 SHL PUSH1 0x20 DUP3 ADD DUP1 MLOAD PUSH28 0xFFFFFFFFFFFFFFFFFFFFFFFFFFFFFFFFFFFFFFFFFFFFFFFFFFFFFFFF DUP4 DUP2 DUP4 AND OR DUP4 MSTORE POP POP POP POP PUSH2 0x2A47 JUMP JUMPDEST PUSH2 0x2BE8 DUP5 DUP3 PUSH2 0x2A47 JUMP JUMPDEST JUMPDEST POP POP POP POP JUMP JUMPDEST PUSH0 DUP1 PUSH0 DUP1 PUSH1 0x20 PUSH0 DUP7 MLOAD PUSH1 0x20 DUP9 ADD PUSH0 DUP11 GAS CALL SWAP3 POP RETURNDATASIZE SWAP2 POP PUSH0 MLOAD SWAP1 POP DUP3 DUP1 ISZERO PUSH2 0x2C3D JUMPI POP PUSH0 DUP3 EQ PUSH2 0x2C21 JUMPI PUSH1 0x1 DUP2 EQ PUSH2 0x2C3C JUMP JUMPDEST PUSH0 DUP7 PUSH20 0xFFFFFFFFFFFFFFFFFFFFFFFFFFFFFFFFFFFFFFFF AND EXTCODESIZE GT JUMPDEST JUMPDEST SWAP4 POP POP POP POP SWAP3 SWAP2 POP POP JUMP JUMPDEST PUSH0 PUSH1 0x40 MLOAD SWAP1 POP SWAP1 JUMP JUMPDEST PUSH0 DUP1 REVERT JUMPDEST PUSH0 DUP1 REVERT JUMPDEST PUSH0 PUSH32 0xFFFFFFFF00000000000000000000000000000000000000000000000000000000 DUP3 AND SWAP1 POP SWAP2 SWAP1 POP JUMP JUMPDEST PUSH2 0x2C8D DUP2 PUSH2 0x2C59 JUMP JUMPDEST DUP2 EQ PUSH2 0x2C97 JUMPI PUSH0 DUP1 REVERT JUMPDEST POP JUMP JUMPDEST PUSH0 DUP2 CALLDATALOAD SWAP1 POP PUSH2 0x2CA8 DUP2 PUSH2 0x2C84 JUMP JUMPDEST SWAP3 SWAP2 POP POP JUMP JUMPDEST PUSH0 PUSH1 0x20 DUP3 DUP5 SUB SLT ISZERO PUSH2 0x2CC3 JUMPI PUSH2 0x2CC2 PUSH2 0x2C51 JUMP JUMPDEST JUMPDEST PUSH0 PUSH2 0x2CD0 DUP5 DUP3 DUP6 ADD PUSH2 0x2C9A JUMP JUMPDEST SWAP2 POP POP SWAP3 SWAP2 POP POP JUMP JUMPDEST PUSH0 DUP2 ISZERO ISZERO SWAP1 POP SWAP2 SWAP1 POP JUMP JUMPDEST PUSH2 0x2CED DUP2 PUSH2 0x2CD9 JUMP JUMPDEST DUP3 MSTORE POP POP JUMP JUMPDEST PUSH0 PUSH1 0x20 DUP3 ADD SWAP1 POP PUSH2 0x2D06 PUSH0 DUP4 ADD DUP5 PUSH2 0x2CE4 JUMP JUMPDEST SWAP3 SWAP2 POP POP JUMP JUMPDEST PUSH0 DUP2 SWAP1 POP SWAP2 SWAP1 POP JUMP JUMPDEST PUSH2 0x2D1E DUP2 PUSH2 0x2D0C JUMP JUMPDEST DUP2 EQ PUSH2 0x2D28 JUMPI PUSH0 DUP1 REVERT JUMPDEST POP JUMP JUMPDEST PUSH0 DUP2 CALLDATALOAD SWAP1 POP PUSH2 0x2D39 DUP2 PUSH2 0x2D15 JUMP JUMPDEST SWAP3 SWAP2 POP POP JUMP JUMPDEST PUSH0 PUSH1 0x20 DUP3 DUP5 SUB SLT ISZERO PUSH2 0x2D54 JUMPI PUSH2 0x2D53 PUSH2 0x2C51 JUMP JUMPDEST JUMPDEST PUSH0 PUSH2 0x2D61 DUP5 DUP3 DUP6 ADD PUSH2 0x2D2B JUMP JUMPDEST SWAP2 POP POP SWAP3 SWAP2 POP POP JUMP JUMPDEST PUSH2 0x2D73 DUP2 PUSH2 0x2D0C JUMP JUMPDEST DUP3 MSTORE POP POP JUMP JUMPDEST PUSH0 PUSH1 0x20 DUP3 ADD SWAP1 POP PUSH2 0x2D8C PUSH0 DUP4 ADD DUP5 PUSH2 0x2D6A JUMP JUMPDEST SWAP3 SWAP2 POP POP JUMP JUMPDEST PUSH0 DUP2 SWAP1 POP SWAP2 SWAP1 POP JUMP JUMPDEST PUSH2 0x2DA4 DUP2 PUSH2 0x2D92 JUMP JUMPDEST DUP3 MSTORE POP POP JUMP JUMPDEST PUSH0 PUSH1 0x20 DUP3 ADD SWAP1 POP PUSH2 0x2DBD PUSH0 DUP4 ADD DUP5 PUSH2 0x2D9B JUMP JUMPDEST SWAP3 SWAP2 POP POP JUMP JUMPDEST PUSH0 PUSH20 0xFFFFFFFFFFFFFFFFFFFFFFFFFFFFFFFFFFFFFFFF DUP3 AND SWAP1 POP SWAP2 SWAP1 POP JUMP JUMPDEST PUSH0 PUSH2 0x2DEC DUP3 PUSH2 0x2DC3 JUMP JUMPDEST SWAP1 POP SWAP2 SWAP1 POP JUMP JUMPDEST PUSH2 0x2DFC DUP2 PUSH2 0x2DE2 JUMP JUMPDEST DUP2 EQ PUSH2 0x2E06 JUMPI PUSH0 DUP1 REVERT JUMPDEST POP JUMP JUMPDEST PUSH0 DUP2 CALLDATALOAD SWAP1 POP PUSH2 0x2E17 DUP2 PUSH2 0x2DF3 JUMP JUMPDEST SWAP3 SWAP2 POP POP JUMP JUMPDEST PUSH0 DUP1 PUSH1 0x40 DUP4 DUP6 SUB SLT ISZERO PUSH2 0x2E33 JUMPI PUSH2 0x2E32 PUSH2 0x2C51 JUMP JUMPDEST JUMPDEST PUSH0 PUSH2 0x2E40 DUP6 DUP3 DUP7 ADD PUSH2 0x2D2B JUMP JUMPDEST SWAP3 POP POP PUSH1 0x20 PUSH2 0x2E51 DUP6 DUP3 DUP7 ADD PUSH2 0x2E09 JUMP JUMPDEST SWAP2 POP POP SWAP3 POP SWAP3 SWAP1 POP JUMP JUMPDEST PUSH0 PUSH1 0xFF DUP3 AND SWAP1 POP SWAP2 SWAP1 POP JUMP JUMPDEST PUSH2 0x2E70 DUP2 PUSH2 0x2E5B JUMP JUMPDEST DUP3 MSTORE POP POP JUMP JUMPDEST PUSH0 PUSH1 0x20 DUP3 ADD SWAP1 POP PUSH2 0x2E89 PUSH0 DUP4 ADD DUP5 PUSH2 0x2E67 JUMP JUMPDEST SWAP3 SWAP2 POP POP JUMP JUMPDEST PUSH2 0x2E98 DUP2 PUSH2 0x2DE2 JUMP JUMPDEST DUP3 MSTORE POP POP JUMP JUMPDEST PUSH0 PUSH1 0x20 DUP3 ADD SWAP1 POP PUSH2 0x2EB1 PUSH0 DUP4 ADD DUP5 PUSH2 0x2E8F JUMP JUMPDEST SWAP3 SWAP2 POP POP JUMP JUMPDEST PUSH2 0x2EC0 DUP2 PUSH2 0x2D92 JUMP JUMPDEST DUP2 EQ PUSH2 0x2ECA JUMPI PUSH0 DUP1 REVERT JUMPDEST POP JUMP JUMPDEST PUSH0 DUP2 CALLDATALOAD SWAP1 POP PUSH2 0x2EDB DUP2 PUSH2 0x2EB7 JUMP JUMPDEST SWAP3 SWAP2 POP POP JUMP JUMPDEST PUSH0 PUSH1 0x20 DUP3 DUP5 SUB SLT ISZERO PUSH2 0x2EF6 JUMPI PUSH2 0x2EF5 PUSH2 0x2C51 JUMP JUMPDEST JUMPDEST PUSH0 PUSH2 0x2F03 DUP5 DUP3 DUP6 ADD PUSH2 0x2ECD JUMP JUMPDEST SWAP2 POP POP SWAP3 SWAP2 POP POP JUMP JUMPDEST PUSH0 DUP1 PUSH0 PUSH1 0x60 DUP5 DUP7 SUB SLT ISZERO PUSH2 0x2F23 JUMPI PUSH2 0x2F22 PUSH2 0x2C51 JUMP JUMPDEST JUMPDEST PUSH0 PUSH2 0x2F30 DUP7 DUP3 DUP8 ADD PUSH2 0x2E09 JUMP JUMPDEST SWAP4 POP POP PUSH1 0x20 PUSH2 0x2F41 DUP7 DUP3 DUP8 ADD PUSH2 0x2ECD JUMP JUMPDEST SWAP3 POP POP PUSH1 0x40 PUSH2 0x2F52 DUP7 DUP3 DUP8 ADD PUSH2 0x2ECD JUMP JUMPDEST SWAP2 POP POP SWAP3 POP SWAP3 POP SWAP3 JUMP JUMPDEST PUSH2 0x2F65 DUP2 PUSH2 0x2CD9 JUMP JUMPDEST DUP2 EQ PUSH2 0x2F6F JUMPI PUSH0 DUP1 REVERT JUMPDEST POP JUMP JUMPDEST PUSH0 DUP2 CALLDATALOAD SWAP1 POP PUSH2 0x2F80 DUP2 PUSH2 0x2F5C JUMP JUMPDEST SWAP3 SWAP2 POP POP JUMP JUMPDEST PUSH2 0x2F8F DUP2 PUSH2 0x2E5B JUMP JUMPDEST DUP2 EQ PUSH2 0x2F99 JUMPI PUSH0 DUP1 REVERT JUMPDEST POP JUMP JUMPDEST PUSH0 DUP2 CALLDATALOAD SWAP1 POP PUSH2 0x2FAA DUP2 PUSH2 0x2F86 JUMP JUMPDEST SWAP3 SWAP2 POP POP JUMP JUMPDEST PUSH0 DUP1 PUSH0 DUP1 PUSH0 PUSH1 0xA0 DUP7 DUP9 SUB SLT ISZERO PUSH2 0x2FC9 JUMPI PUSH2 0x2FC8 PUSH2 0x2C51 JUMP JUMPDEST JUMPDEST PUSH0 PUSH2 0x2FD6 DUP9 DUP3 DUP10 ADD PUSH2 0x2E09 JUMP JUMPDEST SWAP6 POP POP PUSH1 0x20 PUSH2 0x2FE7 DUP9 DUP3 DUP10 ADD PUSH2 0x2F72 JUMP JUMPDEST SWAP5 POP POP PUSH1 0x40 PUSH2 0x2FF8 DUP9 DUP3 DUP10 ADD PUSH2 0x2F9C JUMP JUMPDEST SWAP4 POP POP PUSH1 0x60 PUSH2 0x3009 DUP9 DUP3 DUP10 ADD PUSH2 0x2ECD JUMP JUMPDEST SWAP3 POP POP PUSH1 0x80 PUSH2 0x301A DUP9 DUP3 DUP10 ADD PUSH2 0x2E09 JUMP JUMPDEST SWAP2 POP POP SWAP3 SWAP6 POP SWAP3 SWAP6 SWAP1 SWAP4 POP JUMP JUMPDEST PUSH0 DUP2 SWAP1 POP SWAP2 SWAP1 POP JUMP JUMPDEST PUSH0 PUSH2 0x304A PUSH2 0x3045 PUSH2 0x3040 DUP5 PUSH2 0x2DC3 JUMP JUMPDEST PUSH2 0x3027 JUMP JUMPDEST PUSH2 0x2DC3 JUMP JUMPDEST SWAP1 POP SWAP2 SWAP1 POP JUMP JUMPDEST PUSH0 PUSH2 0x305B DUP3 PUSH2 0x3030 JUMP JUMPDEST SWAP1 POP SWAP2 SWAP1 POP JUMP JUMPDEST PUSH0 PUSH2 0x306C DUP3 PUSH2 0x3051 JUMP JUMPDEST SWAP1 POP SWAP2 SWAP1 POP JUMP JUMPDEST PUSH2 0x307C DUP2 PUSH2 0x3062 JUMP JUMPDEST DUP3 MSTORE POP POP JUMP JUMPDEST PUSH0 PUSH1 0x20 DUP3 ADD SWAP1 POP PUSH2 0x3095 PUSH0 DUP4 ADD DUP5 PUSH2 0x3073 JUMP JUMPDEST SWAP3 SWAP2 POP POP JUMP JUMPDEST PUSH0 DUP1 PUSH1 0x40 DUP4 DUP6 SUB SLT ISZERO PUSH2 0x30B1 JUMPI PUSH2 0x30B0 PUSH2 0x2C51 JUMP JUMPDEST JUMPDEST PUSH0 PUSH2 0x30BE DUP6 DUP3 DUP7 ADD PUSH2 0x2E09 JUMP JUMPDEST SWAP3 POP POP PUSH1 0x20 PUSH2 0x30CF DUP6 DUP3 DUP7 ADD PUSH2 0x2E09 JUMP JUMPDEST SWAP2 POP POP SWAP3 POP SWAP3 SWAP1 POP JUMP JUMPDEST PUSH0 PUSH2 0x30E3 DUP3 PUSH2 0x3051 JUMP JUMPDEST SWAP1 POP SWAP2 SWAP1 POP JUMP JUMPDEST PUSH2 0x30F3 DUP2 PUSH2 0x30D9 JUMP JUMPDEST DUP3 MSTORE POP POP JUMP JUMPDEST PUSH0 PUSH1 0x20 DUP3 ADD SWAP1 POP PUSH2 0x310C PUSH0 DUP4 ADD DUP5 PUSH2 0x30EA JUMP JUMPDEST SWAP3 SWAP2 POP POP JUMP JUMPDEST PUSH0 PUSH1 0x20 DUP3 DUP5 SUB SLT ISZERO PUSH2 0x3127 JUMPI PUSH2 0x3126 PUSH2 0x2C51 JUMP JUMPDEST JUMPDEST PUSH0 PUSH2 0x3134 DUP5 DUP3 DUP6 ADD PUSH2 0x2E09 JUMP JUMPDEST SWAP2 POP POP SWAP3 SWAP2 POP POP JUMP JUMPDEST PUSH0 PUSH1 0xA0 DUP3 ADD SWAP1 POP PUSH2 0x3150 PUSH0 DUP4 ADD DUP9 PUSH2 0x2CE4 JUMP JUMPDEST PUSH2 0x315D PUSH1 0x20 DUP4 ADD DUP8 PUSH2 0x2CE4 JUMP JUMPDEST PUSH2 0x316A PUSH1 0x40 DUP4 ADD DUP7 PUSH2 0x2E67 JUMP JUMPDEST PUSH2 0x3177 PUSH1 0x60 DUP4 ADD DUP6 PUSH2 0x2D9B JUMP JUMPDEST PUSH2 0x3184 PUSH1 0x80 DUP4 ADD DUP5 PUSH2 0x2E8F JUMP JUMPDEST SWAP7 SWAP6 POP POP POP POP POP POP JUMP JUMPDEST PUSH32 0x4E487B7100000000000000000000000000000000000000000000000000000000 PUSH0 MSTORE PUSH1 0x41 PUSH1 0x4 MSTORE PUSH1 0x24 PUSH0 REVERT JUMPDEST PUSH0 DUP2 MLOAD SWAP1 POP PUSH2 0x31C9 DUP2 PUSH2 0x2DF3 JUMP JUMPDEST SWAP3 SWAP2 POP POP JUMP JUMPDEST PUSH0 PUSH1 0x20 DUP3 DUP5 SUB SLT ISZERO PUSH2 0x31E4 JUMPI PUSH2 0x31E3 PUSH2 0x2C51 JUMP JUMPDEST JUMPDEST PUSH0 PUSH2 0x31F1 DUP5 DUP3 DUP6 ADD PUSH2 0x31BB JUMP JUMPDEST SWAP2 POP POP SWAP3 SWAP2 POP POP JUMP JUMPDEST PUSH32 0x4E487B7100000000000000000000000000000000000000000000000000000000 PUSH0 MSTORE PUSH1 0x32 PUSH1 0x4 MSTORE PUSH1 0x24 PUSH0 REVERT JUMPDEST PUSH0 DUP2 MLOAD SWAP1 POP PUSH2 0x3235 DUP2 PUSH2 0x2EB7 JUMP JUMPDEST SWAP3 SWAP2 POP POP JUMP JUMPDEST PUSH0 PUSH1 0x20 DUP3 DUP5 SUB SLT ISZERO PUSH2 0x3250 JUMPI PUSH2 0x324F PUSH2 0x2C51 JUMP JUMPDEST JUMPDEST PUSH0 PUSH2 0x325D DUP5 DUP3 DUP6 ADD PUSH2 0x3227 JUMP JUMPDEST SWAP2 POP POP SWAP3 SWAP2 POP POP JUMP JUMPDEST PUSH0 DUP2 MLOAD SWAP1 POP SWAP2 SWAP1 POP JUMP JUMPDEST PUSH0 DUP3 DUP3 MSTORE PUSH1 0x20 DUP3 ADD SWAP1 POP SWAP3 SWAP2 POP POP JUMP JUMPDEST PUSH0 DUP2 SWAP1 POP PUSH1 0x20 DUP3 ADD SWAP1 POP SWAP2 SWAP1 POP JUMP JUMPDEST PUSH2 0x3298 DUP2 PUSH2 0x2DE2 JUMP JUMPDEST DUP3 MSTORE POP POP JUMP JUMPDEST PUSH0 PUSH2 0x32A9 DUP4 DUP4 PUSH2 0x328F JUMP JUMPDEST PUSH1 0x20 DUP4 ADD SWAP1 POP SWAP3 SWAP2 POP POP JUMP JUMPDEST PUSH0 PUSH1 0x20 DUP3 ADD SWAP1 POP SWAP2 SWAP1 POP JUMP JUMPDEST PUSH0 PUSH2 0x32CB DUP3 PUSH2 0x3266 JUMP JUMPDEST PUSH2 0x32D5 DUP2 DUP6 PUSH2 0x3270 JUMP JUMPDEST SWAP4 POP PUSH2 0x32E0 DUP4 PUSH2 0x3280 JUMP JUMPDEST DUP1 PUSH0 JUMPDEST DUP4 DUP2 LT ISZERO PUSH2 0x3310 JUMPI DUP2 MLOAD PUSH2 0x32F7 DUP9 DUP3 PUSH2 0x329E JUMP JUMPDEST SWAP8 POP PUSH2 0x3302 DUP4 PUSH2 0x32B5 JUMP JUMPDEST SWAP3 POP POP PUSH1 0x1 DUP2 ADD SWAP1 POP PUSH2 0x32E3 JUMP JUMPDEST POP DUP6 SWAP4 POP POP POP POP SWAP3 SWAP2 POP POP JUMP JUMPDEST PUSH0 PUSH1 0x80 DUP3 ADD SWAP1 POP PUSH2 0x3330 PUSH0 DUP4 ADD DUP8 PUSH2 0x2D9B JUMP JUMPDEST DUP2 DUP2 SUB PUSH1 0x20 DUP4 ADD MSTORE PUSH2 0x3342 DUP2 DUP7 PUSH2 0x32C1 JUMP JUMPDEST SWAP1 POP PUSH2 0x3351 PUSH1 0x40 DUP4 ADD DUP6 PUSH2 0x2E8F JUMP JUMPDEST PUSH2 0x335E PUSH1 0x60 DUP4 ADD DUP5 PUSH2 0x2D9B JUMP JUMPDEST SWAP6 SWAP5 POP POP POP POP POP JUMP JUMPDEST PUSH0 DUP1 REVERT JUMPDEST PUSH0 PUSH1 0x1F NOT PUSH1 0x1F DUP4 ADD AND SWAP1 POP SWAP2 SWAP1 POP JUMP JUMPDEST PUSH2 0x3384 DUP3 PUSH2 0x336B JUMP JUMPDEST DUP2 ADD DUP2 DUP2 LT PUSH8 0xFFFFFFFFFFFFFFFF DUP3 GT OR ISZERO PUSH2 0x33A3 JUMPI PUSH2 0x33A2 PUSH2 0x318E JUMP JUMPDEST JUMPDEST DUP1 PUSH1 0x40 MSTORE POP POP POP JUMP JUMPDEST PUSH0 PUSH2 0x33B5 PUSH2 0x2C48 JUMP JUMPDEST SWAP1 POP PUSH2 0x33C1 DUP3 DUP3 PUSH2 0x337B JUMP JUMPDEST SWAP2 SWAP1 POP JUMP JUMPDEST PUSH0 PUSH8 0xFFFFFFFFFFFFFFFF DUP3 GT ISZERO PUSH2 0x33E0 JUMPI PUSH2 0x33DF PUSH2 0x318E JUMP JUMPDEST JUMPDEST PUSH1 0x20 DUP3 MUL SWAP1 POP PUSH1 0x20 DUP2 ADD SWAP1 POP SWAP2 SWAP1 POP JUMP JUMPDEST PUSH0 DUP1 REVERT JUMPDEST PUSH0 PUSH2 0x3407 PUSH2 0x3402 DUP5 PUSH2 0x33C6 JUMP JUMPDEST PUSH2 0x33AC JUMP JUMPDEST SWAP1 POP DUP1 DUP4 DUP3 MSTORE PUSH1 0x20 DUP3 ADD SWAP1 POP PUSH1 0x20 DUP5 MUL DUP4 ADD DUP6 DUP2 GT ISZERO PUSH2 0x342A JUMPI PUSH2 0x3429 PUSH2 0x33F1 JUMP JUMPDEST JUMPDEST DUP4 JUMPDEST DUP2 DUP2 LT ISZERO PUSH2 0x3453 JUMPI DUP1 PUSH2 0x343F DUP9 DUP3 PUSH2 0x3227 JUMP JUMPDEST DUP5 MSTORE PUSH1 0x20 DUP5 ADD SWAP4 POP POP PUSH1 0x20 DUP2 ADD SWAP1 POP PUSH2 0x342C JUMP JUMPDEST POP POP POP SWAP4 SWAP3 POP POP POP JUMP JUMPDEST PUSH0 DUP3 PUSH1 0x1F DUP4 ADD SLT PUSH2 0x3471 JUMPI PUSH2 0x3470 PUSH2 0x3367 JUMP JUMPDEST JUMPDEST DUP2 MLOAD PUSH2 0x3481 DUP5 DUP3 PUSH1 0x20 DUP7 ADD PUSH2 0x33F5 JUMP JUMPDEST SWAP2 POP POP SWAP3 SWAP2 POP POP JUMP JUMPDEST PUSH0 PUSH1 0x20 DUP3 DUP5 SUB SLT ISZERO PUSH2 0x349F JUMPI PUSH2 0x349E PUSH2 0x2C51 JUMP JUMPDEST JUMPDEST PUSH0 DUP3 ADD MLOAD PUSH8 0xFFFFFFFFFFFFFFFF DUP2 GT ISZERO PUSH2 0x34BC JUMPI PUSH2 0x34BB PUSH2 0x2C55 JUMP JUMPDEST JUMPDEST PUSH2 0x34C8 DUP5 DUP3 DUP6 ADD PUSH2 0x345D JUMP JUMPDEST SWAP2 POP POP SWAP3 SWAP2 POP POP JUMP JUMPDEST PUSH32 0x4E487B7100000000000000000000000000000000000000000000000000000000 PUSH0 MSTORE PUSH1 0x11 PUSH1 0x4 MSTORE PUSH1 0x24 PUSH0 REVERT JUMPDEST PUSH0 PUSH2 0x3508 DUP3 PUSH2 0x2D92 JUMP JUMPDEST SWAP2 POP PUSH2 0x3513 DUP4 PUSH2 0x2D92 JUMP JUMPDEST SWAP3 POP DUP3 DUP3 SUB SWAP1 POP DUP2 DUP2 GT ISZERO PUSH2 0x352B JUMPI PUSH2 0x352A PUSH2 0x34D1 JUMP JUMPDEST JUMPDEST SWAP3 SWAP2 POP POP JUMP JUMPDEST PUSH0 PUSH2 0x353B DUP3 PUSH2 0x2D92 JUMP JUMPDEST SWAP2 POP PUSH2 0x3546 DUP4 PUSH2 0x2D92 JUMP JUMPDEST SWAP3 POP DUP3 DUP3 ADD SWAP1 POP DUP1 DUP3 GT ISZERO PUSH2 0x355E JUMPI PUSH2 0x355D PUSH2 0x34D1 JUMP JUMPDEST JUMPDEST SWAP3 SWAP2 POP POP JUMP JUMPDEST PUSH0 PUSH1 0x40 DUP3 ADD SWAP1 POP PUSH2 0x3577 PUSH0 DUP4 ADD DUP6 PUSH2 0x2D9B JUMP JUMPDEST PUSH2 0x3584 PUSH1 0x20 DUP4 ADD DUP5 PUSH2 0x2D9B JUMP JUMPDEST SWAP4 SWAP3 POP POP POP JUMP JUMPDEST PUSH0 PUSH1 0x60 DUP3 ADD SWAP1 POP PUSH2 0x359E PUSH0 DUP4 ADD DUP7 PUSH2 0x2D9B JUMP JUMPDEST PUSH2 0x35AB PUSH1 0x20 DUP4 ADD DUP6 PUSH2 0x2D9B JUMP JUMPDEST PUSH2 0x35B8 PUSH1 0x40 DUP4 ADD DUP5 PUSH2 0x2D9B JUMP JUMPDEST SWAP5 SWAP4 POP POP POP POP JUMP JUMPDEST PUSH0 PUSH1 0x40 DUP3 ADD SWAP1 POP PUSH2 0x35D3 PUSH0 DUP4 ADD DUP6 PUSH2 0x2E8F JUMP JUMPDEST PUSH2 0x35E0 PUSH1 0x20 DUP4 ADD DUP5 PUSH2 0x2E8F JUMP JUMPDEST SWAP4 SWAP3 POP POP POP JUMP JUMPDEST PUSH0 PUSH1 0xA0 DUP3 ADD SWAP1 POP PUSH2 0x35FA PUSH0 DUP4 ADD DUP9 PUSH2 0x2D9B JUMP JUMPDEST PUSH2 0x3607 PUSH1 0x20 DUP4 ADD DUP8 PUSH2 0x2D9B JUMP JUMPDEST DUP2 DUP2 SUB PUSH1 0x40 DUP4 ADD MSTORE PUSH2 0x3619 DUP2 DUP7 PUSH2 0x32C1 JUMP JUMPDEST SWAP1 POP PUSH2 0x3628 PUSH1 0x60 DUP4 ADD DUP6 PUSH2 0x2E8F JUMP JUMPDEST PUSH2 0x3635 PUSH1 0x80 DUP4 ADD DUP5 PUSH2 0x2D9B JUMP JUMPDEST SWAP7 SWAP6 POP POP POP POP POP POP JUMP JUMPDEST PUSH0 DUP2 MLOAD SWAP1 POP PUSH2 0x364D DUP2 PUSH2 0x2F86 JUMP JUMPDEST SWAP3 SWAP2 POP POP JUMP JUMPDEST PUSH0 PUSH1 0x20 DUP3 DUP5 SUB SLT ISZERO PUSH2 0x3668 JUMPI PUSH2 0x3667 PUSH2 0x2C51 JUMP JUMPDEST JUMPDEST PUSH0 PUSH2 0x3675 DUP5 DUP3 DUP6 ADD PUSH2 0x363F JUMP JUMPDEST SWAP2 POP POP SWAP3 SWAP2 POP POP JUMP JUMPDEST PUSH0 PUSH1 0x60 DUP3 ADD SWAP1 POP PUSH2 0x3691 PUSH0 DUP4 ADD DUP7 PUSH2 0x2E8F JUMP JUMPDEST PUSH2 0x369E PUSH1 0x20 DUP4 ADD DUP6 PUSH2 0x2E8F JUMP JUMPDEST PUSH2 0x36AB PUSH1 0x40 DUP4 ADD DUP5 PUSH2 0x2D9B JUMP JUMPDEST SWAP5 SWAP4 POP POP POP POP JUMP JUMPDEST PUSH0 PUSH1 0x40 DUP3 ADD SWAP1 POP PUSH2 0x36C6 PUSH0 DUP4 ADD DUP6 PUSH2 0x2E8F JUMP JUMPDEST PUSH2 0x36D3 PUSH1 0x20 DUP4 ADD DUP5 PUSH2 0x2D9B JUMP JUMPDEST SWAP4 SWAP3 POP POP POP JUMP JUMPDEST PUSH0 PUSH10 0xFFFFFFFFFFFFFFFFFFFF DUP3 AND SWAP1 POP SWAP2 SWAP1 POP JUMP JUMPDEST PUSH2 0x36F8 DUP2 PUSH2 0x36DA JUMP JUMPDEST DUP2 EQ PUSH2 0x3702 JUMPI PUSH0 DUP1 REVERT JUMPDEST POP JUMP JUMPDEST PUSH0 DUP2 MLOAD SWAP1 POP PUSH2 0x3713 DUP2 PUSH2 0x36EF JUMP JUMPDEST SWAP3 SWAP2 POP POP JUMP JUMPDEST PUSH0 DUP2 SWAP1 POP SWAP2 SWAP1 POP JUMP JUMPDEST PUSH2 0x372B DUP2 PUSH2 0x3719 JUMP JUMPDEST DUP2 EQ PUSH2 0x3735 JUMPI PUSH0 DUP1 REVERT JUMPDEST POP JUMP JUMPDEST PUSH0 DUP2 MLOAD SWAP1 POP PUSH2 0x3746 DUP2 PUSH2 0x3722 JUMP JUMPDEST SWAP3 SWAP2 POP POP JUMP JUMPDEST PUSH0 DUP1 PUSH0 DUP1 PUSH0 PUSH1 0xA0 DUP7 DUP9 SUB SLT ISZERO PUSH2 0x3765 JUMPI PUSH2 0x3764 PUSH2 0x2C51 JUMP JUMPDEST JUMPDEST PUSH0 PUSH2 0x3772 DUP9 DUP3 DUP10 ADD PUSH2 0x3705 JUMP JUMPDEST SWAP6 POP POP PUSH1 0x20 PUSH2 0x3783 DUP9 DUP3 DUP10 ADD PUSH2 0x3738 JUMP JUMPDEST SWAP5 POP POP PUSH1 0x40 PUSH2 0x3794 DUP9 DUP3 DUP10 ADD PUSH2 0x3227 JUMP JUMPDEST SWAP4 POP POP PUSH1 0x60 PUSH2 0x37A5 DUP9 DUP3 DUP10 ADD PUSH2 0x3227 JUMP JUMPDEST SWAP3 POP POP PUSH1 0x80 PUSH2 0x37B6 DUP9 DUP3 DUP10 ADD PUSH2 0x3705 JUMP JUMPDEST SWAP2 POP POP SWAP3 SWAP6 POP SWAP3 SWAP6 SWAP1 SWAP4 POP JUMP JUMPDEST PUSH0 PUSH2 0x37CD DUP3 PUSH2 0x2D92 JUMP JUMPDEST SWAP2 POP PUSH2 0x37D8 DUP4 PUSH2 0x2D92 JUMP JUMPDEST SWAP3 POP DUP3 DUP3 MUL PUSH2 0x37E6 DUP2 PUSH2 0x2D92 JUMP JUMPDEST SWAP2 POP DUP3 DUP3 DIV DUP5 EQ DUP4 ISZERO OR PUSH2 0x37FD JUMPI PUSH2 0x37FC PUSH2 0x34D1 JUMP JUMPDEST JUMPDEST POP SWAP3 SWAP2 POP POP JUMP JUMPDEST PUSH0 DUP2 PUSH1 0x1 SHR SWAP1 POP SWAP2 SWAP1 POP JUMP JUMPDEST PUSH0 DUP1 DUP3 SWAP2 POP DUP4 SWAP1 POP JUMPDEST PUSH1 0x1 DUP6 GT ISZERO PUSH2 0x3859 JUMPI DUP1 DUP7 DIV DUP2 GT ISZERO PUSH2 0x3835 JUMPI PUSH2 0x3834 PUSH2 0x34D1 JUMP JUMPDEST JUMPDEST PUSH1 0x1 DUP6 AND ISZERO PUSH2 0x3844 JUMPI DUP1 DUP3 MUL SWAP2 POP JUMPDEST DUP1 DUP2 MUL SWAP1 POP PUSH2 0x3852 DUP6 PUSH2 0x3804 JUMP JUMPDEST SWAP5 POP PUSH2 0x3819 JUMP JUMPDEST SWAP5 POP SWAP5 SWAP3 POP POP POP JUMP JUMPDEST PUSH0 DUP3 PUSH2 0x3871 JUMPI PUSH1 0x1 SWAP1 POP PUSH2 0x392C JUMP JUMPDEST DUP2 PUSH2 0x387E JUMPI PUSH0 SWAP1 POP PUSH2 0x392C JUMP JUMPDEST DUP2 PUSH1 0x1 DUP2 EQ PUSH2 0x3894 JUMPI PUSH1 0x2 DUP2 EQ PUSH2 0x389E JUMPI PUSH2 0x38CD JUMP JUMPDEST PUSH1 0x1 SWAP2 POP POP PUSH2 0x392C JUMP JUMPDEST PUSH1 0xFF DUP5 GT ISZERO PUSH2 0x38B0 JUMPI PUSH2 0x38AF PUSH2 0x34D1 JUMP JUMPDEST JUMPDEST DUP4 PUSH1 0x2 EXP SWAP2 POP DUP5 DUP3 GT ISZERO PUSH2 0x38C7 JUMPI PUSH2 0x38C6 PUSH2 0x34D1 JUMP JUMPDEST JUMPDEST POP PUSH2 0x392C JUMP JUMPDEST POP PUSH1 0x20 DUP4 LT PUSH2 0x133 DUP4 LT AND PUSH1 0x4E DUP5 LT PUSH1 0xB DUP5 LT AND OR ISZERO PUSH2 0x3902 JUMPI DUP3 DUP3 EXP SWAP1 POP DUP4 DUP2 GT ISZERO PUSH2 0x38FD JUMPI PUSH2 0x38FC PUSH2 0x34D1 JUMP JUMPDEST JUMPDEST PUSH2 0x392C JUMP JUMPDEST PUSH2 0x390F DUP5 DUP5 DUP5 PUSH1 0x1 PUSH2 0x3810 JUMP JUMPDEST SWAP3 POP SWAP1 POP DUP2 DUP5 DIV DUP2 GT ISZERO PUSH2 0x3926 JUMPI PUSH2 0x3925 PUSH2 0x34D1 JUMP JUMPDEST JUMPDEST DUP2 DUP2 MUL SWAP1 POP JUMPDEST SWAP4 SWAP3 POP POP POP JUMP JUMPDEST PUSH0 PUSH2 0x393D DUP3 PUSH2 0x2D92 JUMP JUMPDEST SWAP2 POP PUSH2 0x3948 DUP4 PUSH2 0x2E5B JUMP JUMPDEST SWAP3 POP PUSH2 0x3975 PUSH32 0xFFFFFFFFFFFFFFFFFFFFFFFFFFFFFFFFFFFFFFFFFFFFFFFFFFFFFFFFFFFFFFFF DUP5 DUP5 PUSH2 0x3862 JUMP JUMPDEST SWAP1 POP SWAP3 SWAP2 POP POP JUMP JUMPDEST PUSH32 0x4E487B7100000000000000000000000000000000000000000000000000000000 PUSH0 MSTORE PUSH1 0x12 PUSH1 0x4 MSTORE PUSH1 0x24 PUSH0 REVERT JUMPDEST PUSH0 PUSH2 0x39B4 DUP3 PUSH2 0x2D92 JUMP JUMPDEST SWAP2 POP PUSH2 0x39BF DUP4 PUSH2 0x2D92 JUMP JUMPDEST SWAP3 POP DUP3 PUSH2 0x39CF JUMPI PUSH2 0x39CE PUSH2 0x397D JUMP JUMPDEST JUMPDEST DUP3 DUP3 DIV SWAP1 POP SWAP3 SWAP2 POP POP JUMP JUMPDEST PUSH0 PUSH2 0x39E4 DUP3 PUSH2 0x2E5B JUMP JUMPDEST SWAP2 POP PUSH2 0x39EF DUP4 PUSH2 0x2E5B JUMP JUMPDEST SWAP3 POP DUP3 DUP3 SUB SWAP1 POP PUSH1 0xFF DUP2 GT ISZERO PUSH2 0x3A08 JUMPI PUSH2 0x3A07 PUSH2 0x34D1 JUMP JUMPDEST JUMPDEST SWAP3 SWAP2 POP POP JUMP JUMPDEST PUSH0 PUSH1 0x40 DUP3 ADD SWAP1 POP PUSH2 0x3A21 PUSH0 DUP4 ADD DUP6 PUSH2 0x2E8F JUMP JUMPDEST PUSH2 0x3A2E PUSH1 0x20 DUP4 ADD DUP5 PUSH2 0x2D6A JUMP JUMPDEST SWAP4 SWAP3 POP POP POP JUMP JUMPDEST PUSH0 DUP2 SWAP1 POP SWAP2 SWAP1 POP JUMP JUMPDEST PUSH0 PUSH2 0x3A58 PUSH2 0x3A53 PUSH2 0x3A4E DUP5 PUSH2 0x3A35 JUMP JUMPDEST PUSH2 0x3027 JUMP JUMPDEST PUSH2 0x2D92 JUMP JUMPDEST SWAP1 POP SWAP2 SWAP1 POP JUMP JUMPDEST PUSH2 0x3A68 DUP2 PUSH2 0x3A3E JUMP JUMPDEST DUP3 MSTORE POP POP JUMP JUMPDEST PUSH0 PUSH1 0x40 DUP3 ADD SWAP1 POP PUSH2 0x3A81 PUSH0 DUP4 ADD DUP6 PUSH2 0x2E8F JUMP JUMPDEST PUSH2 0x3A8E PUSH1 0x20 DUP4 ADD DUP5 PUSH2 0x3A5F JUMP JUMPDEST SWAP4 SWAP3 POP POP POP JUMP INVALID LOG2 PUSH5 0x6970667358 0x22 SLT KECCAK256 SWAP8 DUP6 AND PUSH0 SWAP1 0xA8 0xA5 PREVRANDAO PUSH16 0x4DA5A26A86887018276690A6AD4E146E KECCAK256 ADDMOD BALANCE 0xF7 0xD 0xA6 0xFB PUSH5 0x736F6C6343 STOP ADDMOD BYTE STOP CALLER "
		},
		"gasEstimates": {
			"creation": {
				"codeDepositCost": "3010200",
				"executionCost": "infinite",
				"totalCost": "infinite"
			},
			"external": {
				"DEFAULT_ADMIN_ROLE()": "397",
				"NATIVE_TOKEN()": "395",
				"ROLE_ADMIN()": "436",
				"USDC()": "infinite",
				"USD_DECIMALS()": "465",
				"bankCapUsd6()": "infinite",
				"depositCount()": "2515",
				"depositETH(uint256)": "infinite",
				"depositTokenAndSwap(address,uint256,uint256)": "infinite",
				"depositUSDC(uint256)": "infinite",
				"factory()": "infinite",
				"getBalance(address,address)": "infinite",
				"getRoleAdmin(bytes32)": "infinite",
				"getUsdBalance(address,address)": "infinite",
				"grantRole(bytes32,address)": "infinite",
				"hasRole(bytes32,address)": "3145",
				"renounceRole(bytes32,address)": "infinite",
				"revokeRole(bytes32,address)": "infinite",
				"router()": "infinite",
				"setTokenConfig(address,bool,uint8,uint256,address)": "infinite",
				"supportsInterface(bytes4)": "741",
				"tokenConfig(address)": "infinite",
				"totalDepositedUsd6()": "2493",
				"withdrawCount()": "2492",
				"withdrawUSDC(uint256)": "infinite"
			},
			"internal": {
				"_toUsd(address,uint256)": "infinite"
			}
		},
		"methodIdentifiers": {
			"DEFAULT_ADMIN_ROLE()": "a217fddf",
			"NATIVE_TOKEN()": "31f7d964",
			"ROLE_ADMIN()": "d391014b",
			"USDC()": "89a30271",
			"USD_DECIMALS()": "2f6ee695",
			"bankCapUsd6()": "f9bda21f",
			"depositCount()": "2dfdf0b5",
			"depositETH(uint256)": "5358fbda",
			"depositTokenAndSwap(address,uint256,uint256)": "72806f70",
			"depositUSDC(uint256)": "f688bcfb",
			"factory()": "c45a0155",
			"getBalance(address,address)": "d4fac45d",
			"getRoleAdmin(bytes32)": "248a9ca3",
			"getUsdBalance(address,address)": "dcb6e250",
			"grantRole(bytes32,address)": "2f2ff15d",
			"hasRole(bytes32,address)": "91d14854",
			"renounceRole(bytes32,address)": "36568abe",
			"revokeRole(bytes32,address)": "d547741f",
			"router()": "f887ea40",
			"setTokenConfig(address,bool,uint8,uint256,address)": "9c50adee",
			"supportsInterface(bytes4)": "01ffc9a7",
			"tokenConfig(address)": "fe136c4e",
			"totalDepositedUsd6()": "29608ba6",
			"withdrawCount()": "4cc05a71",
			"withdrawUSDC(uint256)": "db81f99b"
		}
	},
	"abi": [
		{
			"inputs": [
				{
					"internalType": "uint256",
					"name": "_bankCapUsd6",
					"type": "uint256"
				},
				{
					"internalType": "address",
					"name": "ethPriceFeed",
					"type": "address"
				},
				{
					"internalType": "address",
					"name": "usdcToken",
					"type": "address"
				},
				{
					"internalType": "address",
					"name": "routerV2",
					"type": "address"
				},
				{
					"internalType": "address",
					"name": "factoryV2",
					"type": "address"
				},
				{
					"internalType": "uint256",
					"name": "ethWithdrawLimit",
					"type": "uint256"
				}
			],
			"stateMutability": "nonpayable",
			"type": "constructor"
		},
		{
			"inputs": [],
			"name": "AccessControlBadConfirmation",
			"type": "error"
		},
		{
			"inputs": [
				{
					"internalType": "address",
					"name": "account",
					"type": "address"
				},
				{
					"internalType": "bytes32",
					"name": "neededRole",
					"type": "bytes32"
				}
			],
			"name": "AccessControlUnauthorizedAccount",
			"type": "error"
		},
		{
			"inputs": [
				{
					"internalType": "uint256",
					"name": "attempted",
					"type": "uint256"
				},
				{
					"internalType": "uint256",
					"name": "cap",
					"type": "uint256"
				}
			],
			"name": "CapExceeded",
			"type": "error"
		},
		{
			"inputs": [
				{
					"internalType": "uint256",
					"name": "have",
					"type": "uint256"
				},
				{
					"internalType": "uint256",
					"name": "want",
					"type": "uint256"
				}
			],
			"name": "InsufficientBalance",
			"type": "error"
		},
		{
			"inputs": [
				{
					"internalType": "address",
					"name": "tokenIn",
					"type": "address"
				},
				{
					"internalType": "address",
					"name": "tokenOut",
					"type": "address"
				}
			],
			"name": "PairDoesNotExist",
			"type": "error"
		},
		{
			"inputs": [
				{
					"internalType": "address",
					"name": "token",
					"type": "address"
				}
			],
			"name": "PriceFeedNotSet",
			"type": "error"
		},
		{
			"inputs": [],
			"name": "PriceNegative",
			"type": "error"
		},
		{
			"inputs": [],
			"name": "ReentrancyGuardReentrantCall",
			"type": "error"
		},
		{
			"inputs": [
				{
					"internalType": "address",
					"name": "token",
					"type": "address"
				}
			],
			"name": "SafeERC20FailedOperation",
			"type": "error"
		},
		{
			"inputs": [
				{
					"internalType": "address",
					"name": "token",
					"type": "address"
				}
			],
			"name": "UnsupportedToken",
			"type": "error"
		},
		{
			"inputs": [],
			"name": "ZeroAmount",
			"type": "error"
		},
		{
			"anonymous": false,
			"inputs": [
				{
					"indexed": true,
					"internalType": "address",
					"name": "tokenCredited",
					"type": "address"
				},
				{
					"indexed": true,
					"internalType": "address",
					"name": "user",
					"type": "address"
				},
				{
					"indexed": false,
					"internalType": "uint256",
					"name": "amountIn",
					"type": "uint256"
				},
				{
					"indexed": false,
					"internalType": "uint256",
					"name": "newBalance",
					"type": "uint256"
				},
				{
					"indexed": false,
					"internalType": "uint256",
					"name": "usdcCredited",
					"type": "uint256"
				}
			],
			"name": "Deposit",
			"type": "event"
		},
		{
			"anonymous": false,
			"inputs": [
				{
					"indexed": true,
					"internalType": "bytes32",
					"name": "role",
					"type": "bytes32"
				},
				{
					"indexed": true,
					"internalType": "bytes32",
					"name": "previousAdminRole",
					"type": "bytes32"
				},
				{
					"indexed": true,
					"internalType": "bytes32",
					"name": "newAdminRole",
					"type": "bytes32"
				}
			],
			"name": "RoleAdminChanged",
			"type": "event"
		},
		{
			"anonymous": false,
			"inputs": [
				{
					"indexed": true,
					"internalType": "bytes32",
					"name": "role",
					"type": "bytes32"
				},
				{
					"indexed": true,
					"internalType": "address",
					"name": "account",
					"type": "address"
				},
				{
					"indexed": true,
					"internalType": "address",
					"name": "sender",
					"type": "address"
				}
			],
			"name": "RoleGranted",
			"type": "event"
		},
		{
			"anonymous": false,
			"inputs": [
				{
					"indexed": true,
					"internalType": "bytes32",
					"name": "role",
					"type": "bytes32"
				},
				{
					"indexed": true,
					"internalType": "address",
					"name": "account",
					"type": "address"
				},
				{
					"indexed": true,
					"internalType": "address",
					"name": "sender",
					"type": "address"
				}
			],
			"name": "RoleRevoked",
			"type": "event"
		},
		{
			"anonymous": false,
			"inputs": [
				{
					"indexed": true,
					"internalType": "address",
					"name": "token",
					"type": "address"
				},
				{
					"indexed": false,
					"internalType": "bool",
					"name": "supported",
					"type": "bool"
				},
				{
					"indexed": false,
					"internalType": "bool",
					"name": "isNative",
					"type": "bool"
				},
				{
					"indexed": false,
					"internalType": "uint8",
					"name": "decimals",
					"type": "uint8"
				},
				{
					"indexed": false,
					"internalType": "uint256",
					"name": "withdrawLimit",
					"type": "uint256"
				},
				{
					"indexed": false,
					"internalType": "address",
					"name": "priceFeed",
					"type": "address"
				}
			],
			"name": "TokenConfigured",
			"type": "event"
		},
		{
			"anonymous": false,
			"inputs": [
				{
					"indexed": true,
					"internalType": "address",
					"name": "tokenDebited",
					"type": "address"
				},
				{
					"indexed": true,
					"internalType": "address",
					"name": "user",
					"type": "address"
				},
				{
					"indexed": false,
					"internalType": "uint256",
					"name": "amount",
					"type": "uint256"
				},
				{
					"indexed": false,
					"internalType": "uint256",
					"name": "newBalance",
					"type": "uint256"
				}
			],
			"name": "Withdraw",
			"type": "event"
		},
		{
			"inputs": [],
			"name": "DEFAULT_ADMIN_ROLE",
			"outputs": [
				{
					"internalType": "bytes32",
					"name": "",
					"type": "bytes32"
				}
			],
			"stateMutability": "view",
			"type": "function"
		},
		{
			"inputs": [],
			"name": "NATIVE_TOKEN",
			"outputs": [
				{
					"internalType": "address",
					"name": "",
					"type": "address"
				}
			],
			"stateMutability": "view",
			"type": "function"
		},
		{
			"inputs": [],
			"name": "ROLE_ADMIN",
			"outputs": [
				{
					"internalType": "bytes32",
					"name": "",
					"type": "bytes32"
				}
			],
			"stateMutability": "view",
			"type": "function"
		},
		{
			"inputs": [],
			"name": "USDC",
			"outputs": [
				{
					"internalType": "address",
					"name": "",
					"type": "address"
				}
			],
			"stateMutability": "view",
			"type": "function"
		},
		{
			"inputs": [],
			"name": "USD_DECIMALS",
			"outputs": [
				{
					"internalType": "uint8",
					"name": "",
					"type": "uint8"
				}
			],
			"stateMutability": "view",
			"type": "function"
		},
		{
			"inputs": [],
			"name": "bankCapUsd6",
			"outputs": [
				{
					"internalType": "uint256",
					"name": "",
					"type": "uint256"
				}
			],
			"stateMutability": "view",
			"type": "function"
		},
		{
			"inputs": [],
			"name": "depositCount",
			"outputs": [
				{
					"internalType": "uint256",
					"name": "",
					"type": "uint256"
				}
			],
			"stateMutability": "view",
			"type": "function"
		},
		{
			"inputs": [
				{
					"internalType": "uint256",
					"name": "amountOutMin",
					"type": "uint256"
				}
			],
			"name": "depositETH",
			"outputs": [],
			"stateMutability": "payable",
			"type": "function"
		},
		{
			"inputs": [
				{
					"internalType": "address",
					"name": "token",
					"type": "address"
				},
				{
					"internalType": "uint256",
					"name": "amount",
					"type": "uint256"
				},
				{
					"internalType": "uint256",
					"name": "amountOutMin",
					"type": "uint256"
				}
			],
			"name": "depositTokenAndSwap",
			"outputs": [],
			"stateMutability": "nonpayable",
			"type": "function"
		},
		{
			"inputs": [
				{
					"internalType": "uint256",
					"name": "amount",
					"type": "uint256"
				}
			],
			"name": "depositUSDC",
			"outputs": [],
			"stateMutability": "nonpayable",
			"type": "function"
		},
		{
			"inputs": [],
			"name": "factory",
			"outputs": [
				{
					"internalType": "contract IUniswapV2Factory",
					"name": "",
					"type": "address"
				}
			],
			"stateMutability": "view",
			"type": "function"
		},
		{
			"inputs": [
				{
					"internalType": "address",
					"name": "token",
					"type": "address"
				},
				{
					"internalType": "address",
					"name": "user",
					"type": "address"
				}
			],
			"name": "getBalance",
			"outputs": [
				{
					"internalType": "uint256",
					"name": "",
					"type": "uint256"
				}
			],
			"stateMutability": "view",
			"type": "function"
		},
		{
			"inputs": [
				{
					"internalType": "bytes32",
					"name": "role",
					"type": "bytes32"
				}
			],
			"name": "getRoleAdmin",
			"outputs": [
				{
					"internalType": "bytes32",
					"name": "",
					"type": "bytes32"
				}
			],
			"stateMutability": "view",
			"type": "function"
		},
		{
			"inputs": [
				{
					"internalType": "address",
					"name": "token",
					"type": "address"
				},
				{
					"internalType": "address",
					"name": "user",
					"type": "address"
				}
			],
			"name": "getUsdBalance",
			"outputs": [
				{
					"internalType": "uint256",
					"name": "",
					"type": "uint256"
				}
			],
			"stateMutability": "view",
			"type": "function"
		},
		{
			"inputs": [
				{
					"internalType": "bytes32",
					"name": "role",
					"type": "bytes32"
				},
				{
					"internalType": "address",
					"name": "account",
					"type": "address"
				}
			],
			"name": "grantRole",
			"outputs": [],
			"stateMutability": "nonpayable",
			"type": "function"
		},
		{
			"inputs": [
				{
					"internalType": "bytes32",
					"name": "role",
					"type": "bytes32"
				},
				{
					"internalType": "address",
					"name": "account",
					"type": "address"
				}
			],
			"name": "hasRole",
			"outputs": [
				{
					"internalType": "bool",
					"name": "",
					"type": "bool"
				}
			],
			"stateMutability": "view",
			"type": "function"
		},
		{
			"inputs": [
				{
					"internalType": "bytes32",
					"name": "role",
					"type": "bytes32"
				},
				{
					"internalType": "address",
					"name": "callerConfirmation",
					"type": "address"
				}
			],
			"name": "renounceRole",
			"outputs": [],
			"stateMutability": "nonpayable",
			"type": "function"
		},
		{
			"inputs": [
				{
					"internalType": "bytes32",
					"name": "role",
					"type": "bytes32"
				},
				{
					"internalType": "address",
					"name": "account",
					"type": "address"
				}
			],
			"name": "revokeRole",
			"outputs": [],
			"stateMutability": "nonpayable",
			"type": "function"
		},
		{
			"inputs": [],
			"name": "router",
			"outputs": [
				{
					"internalType": "contract IUniswapV2Router02",
					"name": "",
					"type": "address"
				}
			],
			"stateMutability": "view",
			"type": "function"
		},
		{
			"inputs": [
				{
					"internalType": "address",
					"name": "token",
					"type": "address"
				},
				{
					"internalType": "bool",
					"name": "supported",
					"type": "bool"
				},
				{
					"internalType": "uint8",
					"name": "tokenDecimals",
					"type": "uint8"
				},
				{
					"internalType": "uint256",
					"name": "withdrawLimit",
					"type": "uint256"
				},
				{
					"internalType": "address",
					"name": "priceFeed",
					"type": "address"
				}
			],
			"name": "setTokenConfig",
			"outputs": [],
			"stateMutability": "nonpayable",
			"type": "function"
		},
		{
			"inputs": [
				{
					"internalType": "bytes4",
					"name": "interfaceId",
					"type": "bytes4"
				}
			],
			"name": "supportsInterface",
			"outputs": [
				{
					"internalType": "bool",
					"name": "",
					"type": "bool"
				}
			],
			"stateMutability": "view",
			"type": "function"
		},
		{
			"inputs": [
				{
					"internalType": "address",
					"name": "",
					"type": "address"
				}
			],
			"name": "tokenConfig",
			"outputs": [
				{
					"internalType": "bool",
					"name": "supported",
					"type": "bool"
				},
				{
					"internalType": "bool",
					"name": "isNative",
					"type": "bool"
				},
				{
					"internalType": "uint8",
					"name": "tokenDecimals",
					"type": "uint8"
				},
				{
					"internalType": "uint256",
					"name": "withdrawLimit",
					"type": "uint256"
				},
				{
					"internalType": "address",
					"name": "priceFeed",
					"type": "address"
				}
			],
			"stateMutability": "view",
			"type": "function"
		},
		{
			"inputs": [],
			"name": "totalDepositedUsd6",
			"outputs": [
				{
					"internalType": "uint256",
					"name": "",
					"type": "uint256"
				}
			],
			"stateMutability": "view",
			"type": "function"
		},
		{
			"inputs": [],
			"name": "withdrawCount",
			"outputs": [
				{
					"internalType": "uint256",
					"name": "",
					"type": "uint256"
				}
			],
			"stateMutability": "view",
			"type": "function"
		},
		{
			"inputs": [
				{
					"internalType": "uint256",
					"name": "amount",
					"type": "uint256"
				}
			],
			"name": "withdrawUSDC",
			"outputs": [],
			"stateMutability": "nonpayable",
			"type": "function"
		}
	]
}